{
	"contracts/learn-functions.sol": {
		"learnFunction": {
			"abi": [
				{
					"inputs": [],
					"name": "addTwoAndThree",
					"outputs": [
						{
							"internalType": "uint256",
							"name": "",
							"type": "uint256"
						}
					],
					"stateMutability": "view",
					"type": "function"
				},
				{
					"inputs": [],
					"name": "isEnabled",
					"outputs": [
						{
							"internalType": "bool",
							"name": "",
							"type": "bool"
						}
					],
					"stateMutability": "view",
					"type": "function"
				}
			],
			"devdoc": {
				"kind": "dev",
				"methods": {},
				"version": 1
			},
			"evm": {
				"assembly": "    /* \"contracts/learn-functions.sol\":37:338  contract learnFunction {\r... */\n  mstore(0x40, 0x80)\n  callvalue\n  dup1\n  iszero\n  tag_1\n  jumpi\n  0x00\n  dup1\n  revert\ntag_1:\n  pop\n  dataSize(sub_0)\n  dup1\n  dataOffset(sub_0)\n  0x00\n  codecopy\n  0x00\n  return\nstop\n\nsub_0: assembly {\n        /* \"contracts/learn-functions.sol\":37:338  contract learnFunction {\r... */\n      mstore(0x40, 0x80)\n      callvalue\n      dup1\n      iszero\n      tag_1\n      jumpi\n      0x00\n      dup1\n      revert\n    tag_1:\n      pop\n      jumpi(tag_2, lt(calldatasize, 0x04))\n      shr(0xe0, calldataload(0x00))\n      dup1\n      0x6aa633b6\n      eq\n      tag_3\n      jumpi\n      dup1\n      0xe7e661ed\n      eq\n      tag_4\n      jumpi\n    tag_2:\n      0x00\n      dup1\n      revert\n        /* \"contracts/learn-functions.sol\":256:331  function isEnabled () public view returns(bool){\r... */\n    tag_3:\n      tag_5\n      tag_6\n      jump\t// in\n    tag_5:\n      mload(0x40)\n      tag_7\n      swap2\n      swap1\n      tag_8\n      jump\t// in\n    tag_7:\n      mload(0x40)\n      dup1\n      swap2\n      sub\n      swap1\n      return\n        /* \"contracts/learn-functions.sol\":77:248  function addTwoAndThree() public view returns (uint) {\r... */\n    tag_4:\n      tag_9\n      tag_10\n      jump\t// in\n    tag_9:\n      mload(0x40)\n      tag_11\n      swap2\n      swap1\n      tag_12\n      jump\t// in\n    tag_11:\n      mload(0x40)\n      dup1\n      swap2\n      sub\n      swap1\n      return\n        /* \"contracts/learn-functions.sol\":256:331  function isEnabled () public view returns(bool){\r... */\n    tag_6:\n        /* \"contracts/learn-functions.sol\":298:302  bool */\n      0x00\n        /* \"contracts/learn-functions.sol\":319:323  true */\n      0x01\n        /* \"contracts/learn-functions.sol\":312:323  return true */\n      swap1\n      pop\n        /* \"contracts/learn-functions.sol\":256:331  function isEnabled () public view returns(bool){\r... */\n      swap1\n      jump\t// out\n        /* \"contracts/learn-functions.sol\":77:248  function addTwoAndThree() public view returns (uint) {\r... */\n    tag_10:\n        /* \"contracts/learn-functions.sol\":124:128  uint */\n      0x00\n        /* \"contracts/learn-functions.sol\":141:149  uint two */\n      dup1\n        /* \"contracts/learn-functions.sol\":152:153  2 */\n      0x02\n        /* \"contracts/learn-functions.sol\":141:153  uint two = 2 */\n      swap1\n      pop\n        /* \"contracts/learn-functions.sol\":164:174  uint three */\n      0x00\n        /* \"contracts/learn-functions.sol\":177:178  3 */\n      0x03\n        /* \"contracts/learn-functions.sol\":164:178  uint three = 3 */\n      swap1\n      pop\n        /* \"contracts/learn-functions.sol\":189:200  uint result */\n      0x00\n        /* \"contracts/learn-functions.sol\":209:214  three */\n      dup2\n        /* \"contracts/learn-functions.sol\":203:206  two */\n      dup4\n        /* \"contracts/learn-functions.sol\":203:214  two + three */\n      tag_15\n      swap2\n      swap1\n      tag_16\n      jump\t// in\n    tag_15:\n        /* \"contracts/learn-functions.sol\":189:214  uint result = two + three */\n      swap1\n      pop\n        /* \"contracts/learn-functions.sol\":233:239  result */\n      dup1\n        /* \"contracts/learn-functions.sol\":225:239  return  result */\n      swap4\n      pop\n      pop\n      pop\n      pop\n        /* \"contracts/learn-functions.sol\":77:248  function addTwoAndThree() public view returns (uint) {\r... */\n      swap1\n      jump\t// out\n        /* \"#utility.yul\":7:116   */\n    tag_18:\n        /* \"#utility.yul\":88:109   */\n      tag_20\n        /* \"#utility.yul\":103:108   */\n      dup2\n        /* \"#utility.yul\":88:109   */\n      tag_21\n      jump\t// in\n    tag_20:\n        /* \"#utility.yul\":83:86   */\n      dup3\n        /* \"#utility.yul\":76:110   */\n      mstore\n        /* \"#utility.yul\":7:116   */\n      pop\n      pop\n      jump\t// out\n        /* \"#utility.yul\":122:240   */\n    tag_22:\n        /* \"#utility.yul\":209:233   */\n      tag_24\n        /* \"#utility.yul\":227:232   */\n      dup2\n        /* \"#utility.yul\":209:233   */\n      tag_25\n      jump\t// in\n    tag_24:\n        /* \"#utility.yul\":204:207   */\n      dup3\n        /* \"#utility.yul\":197:234   */\n      mstore\n        /* \"#utility.yul\":122:240   */\n      pop\n      pop\n      jump\t// out\n        /* \"#utility.yul\":246:456   */\n    tag_8:\n        /* \"#utility.yul\":333:337   */\n      0x00\n        /* \"#utility.yul\":371:373   */\n      0x20\n        /* \"#utility.yul\":360:369   */\n      dup3\n        /* \"#utility.yul\":356:374   */\n      add\n        /* \"#utility.yul\":348:374   */\n      swap1\n      pop\n        /* \"#utility.yul\":384:449   */\n      tag_27\n        /* \"#utility.yul\":446:447   */\n      0x00\n        /* \"#utility.yul\":435:444   */\n      dup4\n        /* \"#utility.yul\":431:448   */\n      add\n        /* \"#utility.yul\":422:428   */\n      dup5\n        /* \"#utility.yul\":384:449   */\n      tag_18\n      jump\t// in\n    tag_27:\n        /* \"#utility.yul\":246:456   */\n      swap3\n      swap2\n      pop\n      pop\n      jump\t// out\n        /* \"#utility.yul\":462:684   */\n    tag_12:\n        /* \"#utility.yul\":555:559   */\n      0x00\n        /* \"#utility.yul\":593:595   */\n      0x20\n        /* \"#utility.yul\":582:591   */\n      dup3\n        /* \"#utility.yul\":578:596   */\n      add\n        /* \"#utility.yul\":570:596   */\n      swap1\n      pop\n        /* \"#utility.yul\":606:677   */\n      tag_29\n        /* \"#utility.yul\":674:675   */\n      0x00\n        /* \"#utility.yul\":663:672   */\n      dup4\n        /* \"#utility.yul\":659:676   */\n      add\n        /* \"#utility.yul\":650:656   */\n      dup5\n        /* \"#utility.yul\":606:677   */\n      tag_22\n      jump\t// in\n    tag_29:\n        /* \"#utility.yul\":462:684   */\n      swap3\n      swap2\n      pop\n      pop\n      jump\t// out\n        /* \"#utility.yul\":690:995   */\n    tag_16:\n        /* \"#utility.yul\":730:733   */\n      0x00\n        /* \"#utility.yul\":749:769   */\n      tag_31\n        /* \"#utility.yul\":767:768   */\n      dup3\n        /* \"#utility.yul\":749:769   */\n      tag_25\n      jump\t// in\n    tag_31:\n        /* \"#utility.yul\":744:769   */\n      swap2\n      pop\n        /* \"#utility.yul\":783:803   */\n      tag_32\n        /* \"#utility.yul\":801:802   */\n      dup4\n        /* \"#utility.yul\":783:803   */\n      tag_25\n      jump\t// in\n    tag_32:\n        /* \"#utility.yul\":778:803   */\n      swap3\n      pop\n        /* \"#utility.yul\":937:938   */\n      dup3\n        /* \"#utility.yul\":869:935   */\n      0xffffffffffffffffffffffffffffffffffffffffffffffffffffffffffffffff\n        /* \"#utility.yul\":865:939   */\n      sub\n        /* \"#utility.yul\":862:863   */\n      dup3\n        /* \"#utility.yul\":859:940   */\n      gt\n        /* \"#utility.yul\":856:963   */\n      iszero\n      tag_33\n      jumpi\n        /* \"#utility.yul\":943:961   */\n      tag_34\n      tag_35\n      jump\t// in\n    tag_34:\n        /* \"#utility.yul\":856:963   */\n    tag_33:\n        /* \"#utility.yul\":987:988   */\n      dup3\n        /* \"#utility.yul\":984:985   */\n      dup3\n        /* \"#utility.yul\":980:989   */\n      add\n        /* \"#utility.yul\":973:989   */\n      swap1\n      pop\n        /* \"#utility.yul\":690:995   */\n      swap3\n      swap2\n      pop\n      pop\n      jump\t// out\n        /* \"#utility.yul\":1001:1091   */\n    tag_21:\n        /* \"#utility.yul\":1035:1042   */\n      0x00\n        /* \"#utility.yul\":1078:1083   */\n      dup2\n        /* \"#utility.yul\":1071:1084   */\n      iszero\n        /* \"#utility.yul\":1064:1085   */\n      iszero\n        /* \"#utility.yul\":1053:1085   */\n      swap1\n      pop\n        /* \"#utility.yul\":1001:1091   */\n      swap2\n      swap1\n      pop\n      jump\t// out\n        /* \"#utility.yul\":1097:1174   */\n    tag_25:\n        /* \"#utility.yul\":1134:1141   */\n      0x00\n        /* \"#utility.yul\":1163:1168   */\n      dup2\n        /* \"#utility.yul\":1152:1168   */\n      swap1\n      pop\n        /* \"#utility.yul\":1097:1174   */\n      swap2\n      swap1\n      pop\n      jump\t// out\n        /* \"#utility.yul\":1180:1360   */\n    tag_35:\n        /* \"#utility.yul\":1228:1305   */\n      0x4e487b7100000000000000000000000000000000000000000000000000000000\n        /* \"#utility.yul\":1225:1226   */\n      0x00\n        /* \"#utility.yul\":1218:1306   */\n      mstore\n        /* \"#utility.yul\":1325:1329   */\n      0x11\n        /* \"#utility.yul\":1322:1323   */\n      0x04\n        /* \"#utility.yul\":1315:1330   */\n      mstore\n        /* \"#utility.yul\":1349:1353   */\n      0x24\n        /* \"#utility.yul\":1346:1347   */\n      0x00\n        /* \"#utility.yul\":1339:1354   */\n      revert\n\n    auxdata: 0xa26469706673582212206554f62af8ae5432f466220d786c86b15fcccfe0565fbb729dad8770e91347cf64736f6c63430008070033\n}\n",
				"bytecode": {
					"linkReferences": {},
					"object": "608060405234801561001057600080fd5b506101cb806100206000396000f3fe608060405234801561001057600080fd5b50600436106100365760003560e01c80636aa633b61461003b578063e7e661ed14610059575b600080fd5b610043610077565b60405161005091906100c4565b60405180910390f35b610061610080565b60405161006e91906100df565b60405180910390f35b60006001905090565b600080600290506000600390506000818361009b91906100fa565b905080935050505090565b6100af81610150565b82525050565b6100be8161015c565b82525050565b60006020820190506100d960008301846100a6565b92915050565b60006020820190506100f460008301846100b5565b92915050565b60006101058261015c565b91506101108361015c565b9250827fffffffffffffffffffffffffffffffffffffffffffffffffffffffffffffffff0382111561014557610144610166565b5b828201905092915050565b60008115159050919050565b6000819050919050565b7f4e487b7100000000000000000000000000000000000000000000000000000000600052601160045260246000fdfea26469706673582212206554f62af8ae5432f466220d786c86b15fcccfe0565fbb729dad8770e91347cf64736f6c63430008070033",
					"opcodes": "PUSH1 0x80 PUSH1 0x40 MSTORE CALLVALUE DUP1 ISZERO PUSH2 0x10 JUMPI PUSH1 0x0 DUP1 REVERT JUMPDEST POP PUSH2 0x1CB DUP1 PUSH2 0x20 PUSH1 0x0 CODECOPY PUSH1 0x0 RETURN INVALID PUSH1 0x80 PUSH1 0x40 MSTORE CALLVALUE DUP1 ISZERO PUSH2 0x10 JUMPI PUSH1 0x0 DUP1 REVERT JUMPDEST POP PUSH1 0x4 CALLDATASIZE LT PUSH2 0x36 JUMPI PUSH1 0x0 CALLDATALOAD PUSH1 0xE0 SHR DUP1 PUSH4 0x6AA633B6 EQ PUSH2 0x3B JUMPI DUP1 PUSH4 0xE7E661ED EQ PUSH2 0x59 JUMPI JUMPDEST PUSH1 0x0 DUP1 REVERT JUMPDEST PUSH2 0x43 PUSH2 0x77 JUMP JUMPDEST PUSH1 0x40 MLOAD PUSH2 0x50 SWAP2 SWAP1 PUSH2 0xC4 JUMP JUMPDEST PUSH1 0x40 MLOAD DUP1 SWAP2 SUB SWAP1 RETURN JUMPDEST PUSH2 0x61 PUSH2 0x80 JUMP JUMPDEST PUSH1 0x40 MLOAD PUSH2 0x6E SWAP2 SWAP1 PUSH2 0xDF JUMP JUMPDEST PUSH1 0x40 MLOAD DUP1 SWAP2 SUB SWAP1 RETURN JUMPDEST PUSH1 0x0 PUSH1 0x1 SWAP1 POP SWAP1 JUMP JUMPDEST PUSH1 0x0 DUP1 PUSH1 0x2 SWAP1 POP PUSH1 0x0 PUSH1 0x3 SWAP1 POP PUSH1 0x0 DUP2 DUP4 PUSH2 0x9B SWAP2 SWAP1 PUSH2 0xFA JUMP JUMPDEST SWAP1 POP DUP1 SWAP4 POP POP POP POP SWAP1 JUMP JUMPDEST PUSH2 0xAF DUP2 PUSH2 0x150 JUMP JUMPDEST DUP3 MSTORE POP POP JUMP JUMPDEST PUSH2 0xBE DUP2 PUSH2 0x15C JUMP JUMPDEST DUP3 MSTORE POP POP JUMP JUMPDEST PUSH1 0x0 PUSH1 0x20 DUP3 ADD SWAP1 POP PUSH2 0xD9 PUSH1 0x0 DUP4 ADD DUP5 PUSH2 0xA6 JUMP JUMPDEST SWAP3 SWAP2 POP POP JUMP JUMPDEST PUSH1 0x0 PUSH1 0x20 DUP3 ADD SWAP1 POP PUSH2 0xF4 PUSH1 0x0 DUP4 ADD DUP5 PUSH2 0xB5 JUMP JUMPDEST SWAP3 SWAP2 POP POP JUMP JUMPDEST PUSH1 0x0 PUSH2 0x105 DUP3 PUSH2 0x15C JUMP JUMPDEST SWAP2 POP PUSH2 0x110 DUP4 PUSH2 0x15C JUMP JUMPDEST SWAP3 POP DUP3 PUSH32 0xFFFFFFFFFFFFFFFFFFFFFFFFFFFFFFFFFFFFFFFFFFFFFFFFFFFFFFFFFFFFFFFF SUB DUP3 GT ISZERO PUSH2 0x145 JUMPI PUSH2 0x144 PUSH2 0x166 JUMP JUMPDEST JUMPDEST DUP3 DUP3 ADD SWAP1 POP SWAP3 SWAP2 POP POP JUMP JUMPDEST PUSH1 0x0 DUP2 ISZERO ISZERO SWAP1 POP SWAP2 SWAP1 POP JUMP JUMPDEST PUSH1 0x0 DUP2 SWAP1 POP SWAP2 SWAP1 POP JUMP JUMPDEST PUSH32 0x4E487B7100000000000000000000000000000000000000000000000000000000 PUSH1 0x0 MSTORE PUSH1 0x11 PUSH1 0x4 MSTORE PUSH1 0x24 PUSH1 0x0 REVERT INVALID LOG2 PUSH5 0x6970667358 0x22 SLT KECCAK256 PUSH6 0x54F62AF8AE54 ORIGIN DELEGATECALL PUSH7 0x220D786C86B15F 0xCC 0xCF 0xE0 JUMP 0x5F 0xBB PUSH19 0x9DAD8770E91347CF64736F6C63430008070033 "
				},
				"gasEstimates": {
					"creation": {
						"codeDepositCost": "91800",
						"executionCost": "141",
						"totalCost": "91941"
					},
					"external": {
						"addTwoAndThree()": "infinite",
						"isEnabled()": "321"
					}
				},
				"methodIdentifiers": {
					"addTwoAndThree()": "e7e661ed",
					"isEnabled()": "6aa633b6"
				}
			},
			"storageLayout": {
				"storage": [],
				"types": null
			},
			"userdoc": {
				"kind": "user",
				"methods": {},
				"version": 1
			}
		}
	}
}