{
	"contracts/loops.sol": {
		"loops": {
			"abi": [
				{
					"inputs": [
						{
							"internalType": "uint256",
							"name": "_num",
							"type": "uint256"
						}
					],
					"name": "checkExist",
					"outputs": [
						{
							"internalType": "bool",
							"name": "",
							"type": "bool"
						}
					],
					"stateMutability": "view",
					"type": "function"
				},
				{
					"inputs": [
						{
							"internalType": "uint256",
							"name": "",
							"type": "uint256"
						}
					],
					"name": "longList",
					"outputs": [
						{
							"internalType": "uint256",
							"name": "",
							"type": "uint256"
						}
					],
					"stateMutability": "view",
					"type": "function"
				},
				{
					"inputs": [
						{
							"internalType": "uint256",
							"name": "",
							"type": "uint256"
						}
					],
					"name": "numberList",
					"outputs": [
						{
							"internalType": "uint256",
							"name": "",
							"type": "uint256"
						}
					],
					"stateMutability": "view",
					"type": "function"
				}
			],
			"devdoc": {
				"kind": "dev",
				"methods": {},
				"version": 1
			},
			"evm": {
				"assembly": "    /* \"contracts/loops.sol\":37:438  contract loops {\r... */\n  mstore(0x40, 0x80)\n    /* \"contracts/loops.sol\":55:137  uint [] public longList = [1, 2, 3, 4, 5,6,7,8,9,10,11,12,13,14,15,16,17,18,19,20] */\n  mload(0x40)\n  dup1\n  0x0280\n  add\n  0x40\n  mstore\n  dup1\n    /* \"contracts/loops.sol\":82:83  1 */\n  0x01\n    /* \"contracts/loops.sol\":55:137  uint [] public longList = [1, 2, 3, 4, 5,6,7,8,9,10,11,12,13,14,15,16,17,18,19,20] */\n  0xff\n  and\n  dup2\n  mstore\n  0x20\n  add\n    /* \"contracts/loops.sol\":85:86  2 */\n  0x02\n    /* \"contracts/loops.sol\":55:137  uint [] public longList = [1, 2, 3, 4, 5,6,7,8,9,10,11,12,13,14,15,16,17,18,19,20] */\n  0xff\n  and\n  dup2\n  mstore\n  0x20\n  add\n    /* \"contracts/loops.sol\":88:89  3 */\n  0x03\n    /* \"contracts/loops.sol\":55:137  uint [] public longList = [1, 2, 3, 4, 5,6,7,8,9,10,11,12,13,14,15,16,17,18,19,20] */\n  0xff\n  and\n  dup2\n  mstore\n  0x20\n  add\n    /* \"contracts/loops.sol\":91:92  4 */\n  0x04\n    /* \"contracts/loops.sol\":55:137  uint [] public longList = [1, 2, 3, 4, 5,6,7,8,9,10,11,12,13,14,15,16,17,18,19,20] */\n  0xff\n  and\n  dup2\n  mstore\n  0x20\n  add\n    /* \"contracts/loops.sol\":94:95  5 */\n  0x05\n    /* \"contracts/loops.sol\":55:137  uint [] public longList = [1, 2, 3, 4, 5,6,7,8,9,10,11,12,13,14,15,16,17,18,19,20] */\n  0xff\n  and\n  dup2\n  mstore\n  0x20\n  add\n    /* \"contracts/loops.sol\":96:97  6 */\n  0x06\n    /* \"contracts/loops.sol\":55:137  uint [] public longList = [1, 2, 3, 4, 5,6,7,8,9,10,11,12,13,14,15,16,17,18,19,20] */\n  0xff\n  and\n  dup2\n  mstore\n  0x20\n  add\n    /* \"contracts/loops.sol\":98:99  7 */\n  0x07\n    /* \"contracts/loops.sol\":55:137  uint [] public longList = [1, 2, 3, 4, 5,6,7,8,9,10,11,12,13,14,15,16,17,18,19,20] */\n  0xff\n  and\n  dup2\n  mstore\n  0x20\n  add\n    /* \"contracts/loops.sol\":100:101  8 */\n  0x08\n    /* \"contracts/loops.sol\":55:137  uint [] public longList = [1, 2, 3, 4, 5,6,7,8,9,10,11,12,13,14,15,16,17,18,19,20] */\n  0xff\n  and\n  dup2\n  mstore\n  0x20\n  add\n    /* \"contracts/loops.sol\":102:103  9 */\n  0x09\n    /* \"contracts/loops.sol\":55:137  uint [] public longList = [1, 2, 3, 4, 5,6,7,8,9,10,11,12,13,14,15,16,17,18,19,20] */\n  0xff\n  and\n  dup2\n  mstore\n  0x20\n  add\n    /* \"contracts/loops.sol\":104:106  10 */\n  0x0a\n    /* \"contracts/loops.sol\":55:137  uint [] public longList = [1, 2, 3, 4, 5,6,7,8,9,10,11,12,13,14,15,16,17,18,19,20] */\n  0xff\n  and\n  dup2\n  mstore\n  0x20\n  add\n    /* \"contracts/loops.sol\":107:109  11 */\n  0x0b\n    /* \"contracts/loops.sol\":55:137  uint [] public longList = [1, 2, 3, 4, 5,6,7,8,9,10,11,12,13,14,15,16,17,18,19,20] */\n  0xff\n  and\n  dup2\n  mstore\n  0x20\n  add\n    /* \"contracts/loops.sol\":110:112  12 */\n  0x0c\n    /* \"contracts/loops.sol\":55:137  uint [] public longList = [1, 2, 3, 4, 5,6,7,8,9,10,11,12,13,14,15,16,17,18,19,20] */\n  0xff\n  and\n  dup2\n  mstore\n  0x20\n  add\n    /* \"contracts/loops.sol\":113:115  13 */\n  0x0d\n    /* \"contracts/loops.sol\":55:137  uint [] public longList = [1, 2, 3, 4, 5,6,7,8,9,10,11,12,13,14,15,16,17,18,19,20] */\n  0xff\n  and\n  dup2\n  mstore\n  0x20\n  add\n    /* \"contracts/loops.sol\":116:118  14 */\n  0x0e\n    /* \"contracts/loops.sol\":55:137  uint [] public longList = [1, 2, 3, 4, 5,6,7,8,9,10,11,12,13,14,15,16,17,18,19,20] */\n  0xff\n  and\n  dup2\n  mstore\n  0x20\n  add\n    /* \"contracts/loops.sol\":119:121  15 */\n  0x0f\n    /* \"contracts/loops.sol\":55:137  uint [] public longList = [1, 2, 3, 4, 5,6,7,8,9,10,11,12,13,14,15,16,17,18,19,20] */\n  0xff\n  and\n  dup2\n  mstore\n  0x20\n  add\n    /* \"contracts/loops.sol\":122:124  16 */\n  0x10\n    /* \"contracts/loops.sol\":55:137  uint [] public longList = [1, 2, 3, 4, 5,6,7,8,9,10,11,12,13,14,15,16,17,18,19,20] */\n  0xff\n  and\n  dup2\n  mstore\n  0x20\n  add\n    /* \"contracts/loops.sol\":125:127  17 */\n  0x11\n    /* \"contracts/loops.sol\":55:137  uint [] public longList = [1, 2, 3, 4, 5,6,7,8,9,10,11,12,13,14,15,16,17,18,19,20] */\n  0xff\n  and\n  dup2\n  mstore\n  0x20\n  add\n    /* \"contracts/loops.sol\":128:130  18 */\n  0x12\n    /* \"contracts/loops.sol\":55:137  uint [] public longList = [1, 2, 3, 4, 5,6,7,8,9,10,11,12,13,14,15,16,17,18,19,20] */\n  0xff\n  and\n  dup2\n  mstore\n  0x20\n  add\n    /* \"contracts/loops.sol\":131:133  19 */\n  0x13\n    /* \"contracts/loops.sol\":55:137  uint [] public longList = [1, 2, 3, 4, 5,6,7,8,9,10,11,12,13,14,15,16,17,18,19,20] */\n  0xff\n  and\n  dup2\n  mstore\n  0x20\n  add\n    /* \"contracts/loops.sol\":134:136  20 */\n  0x14\n    /* \"contracts/loops.sol\":55:137  uint [] public longList = [1, 2, 3, 4, 5,6,7,8,9,10,11,12,13,14,15,16,17,18,19,20] */\n  0xff\n  and\n  dup2\n  mstore\n  pop\n  0x00\n  swap1\n  0x14\n  tag_1\n  swap3\n  swap2\n  swap1\n  tag_2\n  jump\t// in\ntag_1:\n  pop\n    /* \"contracts/loops.sol\":142:184  uint [] public numberList = [1, 4, 34, 56] */\n  mload(0x40)\n  dup1\n  0x80\n  add\n  0x40\n  mstore\n  dup1\n    /* \"contracts/loops.sol\":171:172  1 */\n  0x01\n    /* \"contracts/loops.sol\":142:184  uint [] public numberList = [1, 4, 34, 56] */\n  0xff\n  and\n  dup2\n  mstore\n  0x20\n  add\n    /* \"contracts/loops.sol\":174:175  4 */\n  0x04\n    /* \"contracts/loops.sol\":142:184  uint [] public numberList = [1, 4, 34, 56] */\n  0xff\n  and\n  dup2\n  mstore\n  0x20\n  add\n    /* \"contracts/loops.sol\":177:179  34 */\n  0x22\n    /* \"contracts/loops.sol\":142:184  uint [] public numberList = [1, 4, 34, 56] */\n  0xff\n  and\n  dup2\n  mstore\n  0x20\n  add\n    /* \"contracts/loops.sol\":181:183  56 */\n  0x38\n    /* \"contracts/loops.sol\":142:184  uint [] public numberList = [1, 4, 34, 56] */\n  0xff\n  and\n  dup2\n  mstore\n  pop\n  0x01\n  swap1\n  0x04\n  tag_3\n  swap3\n  swap2\n  swap1\n  tag_4\n  jump\t// in\ntag_3:\n  pop\n    /* \"contracts/loops.sol\":37:438  contract loops {\r... */\n  callvalue\n  dup1\n  iszero\n  tag_5\n  jumpi\n  0x00\n  dup1\n  revert\ntag_5:\n  pop\n  jump(tag_6)\ntag_2:\n  dup3\n  dup1\n  sload\n  dup3\n  dup3\n  sstore\n  swap1\n  0x00\n  mstore\n  keccak256(0x00, 0x20)\n  swap1\n  dup2\n  add\n  swap3\n  dup3\n  iszero\n  tag_7\n  jumpi\n  swap2\n  0x20\n  mul\n  dup3\n  add\ntag_8:\n  dup3\n  dup2\n  gt\n  iszero\n  tag_9\n  jumpi\n  dup3\n  mload\n  dup3\n  swap1\n  0xff\n  and\n  swap1\n  sstore\n  swap2\n  0x20\n  add\n  swap2\n  swap1\n  0x01\n  add\n  swap1\n  jump(tag_8)\ntag_9:\ntag_7:\n  pop\n  swap1\n  pop\n  tag_10\n  swap2\n  swap1\n  tag_11\n  jump\t// in\ntag_10:\n  pop\n  swap1\n  jump\t// out\ntag_4:\n  dup3\n  dup1\n  sload\n  dup3\n  dup3\n  sstore\n  swap1\n  0x00\n  mstore\n  keccak256(0x00, 0x20)\n  swap1\n  dup2\n  add\n  swap3\n  dup3\n  iszero\n  tag_12\n  jumpi\n  swap2\n  0x20\n  mul\n  dup3\n  add\ntag_13:\n  dup3\n  dup2\n  gt\n  iszero\n  tag_14\n  jumpi\n  dup3\n  mload\n  dup3\n  swap1\n  0xff\n  and\n  swap1\n  sstore\n  swap2\n  0x20\n  add\n  swap2\n  swap1\n  0x01\n  add\n  swap1\n  jump(tag_13)\ntag_14:\ntag_12:\n  pop\n  swap1\n  pop\n  tag_15\n  swap2\n  swap1\n  tag_11\n  jump\t// in\ntag_15:\n  pop\n  swap1\n  jump\t// out\ntag_11:\ntag_16:\n  dup1\n  dup3\n  gt\n  iszero\n  tag_17\n  jumpi\n  0x00\n  dup2\n  0x00\n  swap1\n  sstore\n  pop\n  0x01\n  add\n  jump(tag_16)\ntag_17:\n  pop\n  swap1\n  jump\t// out\ntag_6:\n  dataSize(sub_0)\n  dup1\n  dataOffset(sub_0)\n  0x00\n  codecopy\n  0x00\n  return\nstop\n\nsub_0: assembly {\n        /* \"contracts/loops.sol\":37:438  contract loops {\r... */\n      mstore(0x40, 0x80)\n      callvalue\n      dup1\n      iszero\n      tag_1\n      jumpi\n      0x00\n      dup1\n      revert\n    tag_1:\n      pop\n      jumpi(tag_2, lt(calldatasize, 0x04))\n      shr(0xe0, calldataload(0x00))\n      dup1\n      0x16421dbf\n      eq\n      tag_3\n      jumpi\n      dup1\n      0x5b4f0a9a\n      eq\n      tag_4\n      jumpi\n      dup1\n      0xe472fe4c\n      eq\n      tag_5\n      jumpi\n    tag_2:\n      0x00\n      dup1\n      revert\n        /* \"contracts/loops.sol\":142:184  uint [] public numberList = [1, 4, 34, 56] */\n    tag_3:\n      tag_6\n      0x04\n      dup1\n      calldatasize\n      sub\n      dup2\n      add\n      swap1\n      tag_7\n      swap2\n      swap1\n      tag_8\n      jump\t// in\n    tag_7:\n      tag_9\n      jump\t// in\n    tag_6:\n      mload(0x40)\n      tag_10\n      swap2\n      swap1\n      tag_11\n      jump\t// in\n    tag_10:\n      mload(0x40)\n      dup1\n      swap2\n      sub\n      swap1\n      return\n        /* \"contracts/loops.sol\":193:435  function checkExist(uint _num) public view returns (bool) {\r... */\n    tag_4:\n      tag_12\n      0x04\n      dup1\n      calldatasize\n      sub\n      dup2\n      add\n      swap1\n      tag_13\n      swap2\n      swap1\n      tag_8\n      jump\t// in\n    tag_13:\n      tag_14\n      jump\t// in\n    tag_12:\n      mload(0x40)\n      tag_15\n      swap2\n      swap1\n      tag_16\n      jump\t// in\n    tag_15:\n      mload(0x40)\n      dup1\n      swap2\n      sub\n      swap1\n      return\n        /* \"contracts/loops.sol\":55:137  uint [] public longList = [1, 2, 3, 4, 5,6,7,8,9,10,11,12,13,14,15,16,17,18,19,20] */\n    tag_5:\n      tag_17\n      0x04\n      dup1\n      calldatasize\n      sub\n      dup2\n      add\n      swap1\n      tag_18\n      swap2\n      swap1\n      tag_8\n      jump\t// in\n    tag_18:\n      tag_19\n      jump\t// in\n    tag_17:\n      mload(0x40)\n      tag_20\n      swap2\n      swap1\n      tag_11\n      jump\t// in\n    tag_20:\n      mload(0x40)\n      dup1\n      swap2\n      sub\n      swap1\n      return\n        /* \"contracts/loops.sol\":142:184  uint [] public numberList = [1, 4, 34, 56] */\n    tag_9:\n      0x01\n      dup2\n      dup2\n      sload\n      dup2\n      lt\n      tag_21\n      jumpi\n      0x00\n      dup1\n      revert\n    tag_21:\n      swap1\n      0x00\n      mstore\n      keccak256(0x00, 0x20)\n      add\n      0x00\n      swap2\n      pop\n      swap1\n      pop\n      sload\n      dup2\n      jump\t// out\n        /* \"contracts/loops.sol\":193:435  function checkExist(uint _num) public view returns (bool) {\r... */\n    tag_14:\n        /* \"contracts/loops.sol\":245:249  bool */\n      0x00\n        /* \"contracts/loops.sol\":255:269  uint numbExist */\n      dup1\n        /* \"contracts/loops.sol\":281:287  uint i */\n      0x00\n        /* \"contracts/loops.sol\":290:291  1 */\n      0x01\n        /* \"contracts/loops.sol\":281:291  uint i = 1 */\n      swap1\n      pop\n        /* \"contracts/loops.sol\":277:404  for(uint i = 1; i < numberList.length; i++){\r... */\n    tag_24:\n        /* \"contracts/loops.sol\":297:307  numberList */\n      0x01\n        /* \"contracts/loops.sol\":297:314  numberList.length */\n      dup1\n      sload\n      swap1\n      pop\n        /* \"contracts/loops.sol\":293:294  i */\n      dup2\n        /* \"contracts/loops.sol\":293:314  i < numberList.length */\n      lt\n        /* \"contracts/loops.sol\":277:404  for(uint i = 1; i < numberList.length; i++){\r... */\n      iszero\n      tag_25\n      jumpi\n        /* \"contracts/loops.sol\":343:353  numberList */\n      0x01\n        /* \"contracts/loops.sol\":354:355  i */\n      dup2\n        /* \"contracts/loops.sol\":343:356  numberList[i] */\n      dup2\n      sload\n      dup2\n      lt\n      tag_27\n      jumpi\n      tag_28\n      tag_29\n      jump\t// in\n    tag_28:\n    tag_27:\n      swap1\n      0x00\n      mstore\n      keccak256(0x00, 0x20)\n      add\n      sload\n        /* \"contracts/loops.sol\":335:339  _num */\n      dup5\n        /* \"contracts/loops.sol\":335:356  _num == numberList[i] */\n      eq\n        /* \"contracts/loops.sol\":331:397  if( _num == numberList[i]){\r... */\n      iszero\n      tag_31\n      jumpi\n        /* \"contracts/loops.sol\":384:385  1 */\n      0x01\n        /* \"contracts/loops.sol\":372:381  numbExist */\n      dup3\n        /* \"contracts/loops.sol\":372:385  numbExist + 1 */\n      tag_32\n      swap2\n      swap1\n      tag_33\n      jump\t// in\n    tag_32:\n      pop\n        /* \"contracts/loops.sol\":331:397  if( _num == numberList[i]){\r... */\n    tag_31:\n        /* \"contracts/loops.sol\":316:319  i++ */\n      dup1\n      dup1\n      tag_34\n      swap1\n      tag_35\n      jump\t// in\n    tag_34:\n      swap2\n      pop\n      pop\n        /* \"contracts/loops.sol\":277:404  for(uint i = 1; i < numberList.length; i++){\r... */\n      jump(tag_24)\n    tag_25:\n      pop\n        /* \"contracts/loops.sol\":430:431  1 */\n      0x01\n        /* \"contracts/loops.sol\":417:426  numbExist */\n      dup2\n        /* \"contracts/loops.sol\":417:431  numbExist >= 1 */\n      lt\n      iszero\n        /* \"contracts/loops.sol\":410:431  return numbExist >= 1 */\n      swap2\n      pop\n      pop\n        /* \"contracts/loops.sol\":193:435  function checkExist(uint _num) public view returns (bool) {\r... */\n      swap2\n      swap1\n      pop\n      jump\t// out\n        /* \"contracts/loops.sol\":55:137  uint [] public longList = [1, 2, 3, 4, 5,6,7,8,9,10,11,12,13,14,15,16,17,18,19,20] */\n    tag_19:\n      0x00\n      dup2\n      dup2\n      sload\n      dup2\n      lt\n      tag_36\n      jumpi\n      0x00\n      dup1\n      revert\n    tag_36:\n      swap1\n      0x00\n      mstore\n      keccak256(0x00, 0x20)\n      add\n      0x00\n      swap2\n      pop\n      swap1\n      pop\n      sload\n      dup2\n      jump\t// out\n        /* \"#utility.yul\":7:146   */\n    tag_39:\n        /* \"#utility.yul\":53:58   */\n      0x00\n        /* \"#utility.yul\":91:97   */\n      dup2\n        /* \"#utility.yul\":78:98   */\n      calldataload\n        /* \"#utility.yul\":69:98   */\n      swap1\n      pop\n        /* \"#utility.yul\":107:140   */\n      tag_41\n        /* \"#utility.yul\":134:139   */\n      dup2\n        /* \"#utility.yul\":107:140   */\n      tag_42\n      jump\t// in\n    tag_41:\n        /* \"#utility.yul\":7:146   */\n      swap3\n      swap2\n      pop\n      pop\n      jump\t// out\n        /* \"#utility.yul\":152:481   */\n    tag_8:\n        /* \"#utility.yul\":211:217   */\n      0x00\n        /* \"#utility.yul\":260:262   */\n      0x20\n        /* \"#utility.yul\":248:257   */\n      dup3\n        /* \"#utility.yul\":239:246   */\n      dup5\n        /* \"#utility.yul\":235:258   */\n      sub\n        /* \"#utility.yul\":231:263   */\n      slt\n        /* \"#utility.yul\":228:347   */\n      iszero\n      tag_44\n      jumpi\n        /* \"#utility.yul\":266:345   */\n      tag_45\n      tag_46\n      jump\t// in\n    tag_45:\n        /* \"#utility.yul\":228:347   */\n    tag_44:\n        /* \"#utility.yul\":386:387   */\n      0x00\n        /* \"#utility.yul\":411:464   */\n      tag_47\n        /* \"#utility.yul\":456:463   */\n      dup5\n        /* \"#utility.yul\":447:453   */\n      dup3\n        /* \"#utility.yul\":436:445   */\n      dup6\n        /* \"#utility.yul\":432:454   */\n      add\n        /* \"#utility.yul\":411:464   */\n      tag_39\n      jump\t// in\n    tag_47:\n        /* \"#utility.yul\":401:464   */\n      swap2\n      pop\n        /* \"#utility.yul\":357:474   */\n      pop\n        /* \"#utility.yul\":152:481   */\n      swap3\n      swap2\n      pop\n      pop\n      jump\t// out\n        /* \"#utility.yul\":487:596   */\n    tag_48:\n        /* \"#utility.yul\":568:589   */\n      tag_50\n        /* \"#utility.yul\":583:588   */\n      dup2\n        /* \"#utility.yul\":568:589   */\n      tag_51\n      jump\t// in\n    tag_50:\n        /* \"#utility.yul\":563:566   */\n      dup3\n        /* \"#utility.yul\":556:590   */\n      mstore\n        /* \"#utility.yul\":487:596   */\n      pop\n      pop\n      jump\t// out\n        /* \"#utility.yul\":602:720   */\n    tag_52:\n        /* \"#utility.yul\":689:713   */\n      tag_54\n        /* \"#utility.yul\":707:712   */\n      dup2\n        /* \"#utility.yul\":689:713   */\n      tag_55\n      jump\t// in\n    tag_54:\n        /* \"#utility.yul\":684:687   */\n      dup3\n        /* \"#utility.yul\":677:714   */\n      mstore\n        /* \"#utility.yul\":602:720   */\n      pop\n      pop\n      jump\t// out\n        /* \"#utility.yul\":726:936   */\n    tag_16:\n        /* \"#utility.yul\":813:817   */\n      0x00\n        /* \"#utility.yul\":851:853   */\n      0x20\n        /* \"#utility.yul\":840:849   */\n      dup3\n        /* \"#utility.yul\":836:854   */\n      add\n        /* \"#utility.yul\":828:854   */\n      swap1\n      pop\n        /* \"#utility.yul\":864:929   */\n      tag_57\n        /* \"#utility.yul\":926:927   */\n      0x00\n        /* \"#utility.yul\":915:924   */\n      dup4\n        /* \"#utility.yul\":911:928   */\n      add\n        /* \"#utility.yul\":902:908   */\n      dup5\n        /* \"#utility.yul\":864:929   */\n      tag_48\n      jump\t// in\n    tag_57:\n        /* \"#utility.yul\":726:936   */\n      swap3\n      swap2\n      pop\n      pop\n      jump\t// out\n        /* \"#utility.yul\":942:1164   */\n    tag_11:\n        /* \"#utility.yul\":1035:1039   */\n      0x00\n        /* \"#utility.yul\":1073:1075   */\n      0x20\n        /* \"#utility.yul\":1062:1071   */\n      dup3\n        /* \"#utility.yul\":1058:1076   */\n      add\n        /* \"#utility.yul\":1050:1076   */\n      swap1\n      pop\n        /* \"#utility.yul\":1086:1157   */\n      tag_59\n        /* \"#utility.yul\":1154:1155   */\n      0x00\n        /* \"#utility.yul\":1143:1152   */\n      dup4\n        /* \"#utility.yul\":1139:1156   */\n      add\n        /* \"#utility.yul\":1130:1136   */\n      dup5\n        /* \"#utility.yul\":1086:1157   */\n      tag_52\n      jump\t// in\n    tag_59:\n        /* \"#utility.yul\":942:1164   */\n      swap3\n      swap2\n      pop\n      pop\n      jump\t// out\n        /* \"#utility.yul\":1251:1556   */\n    tag_33:\n        /* \"#utility.yul\":1291:1294   */\n      0x00\n        /* \"#utility.yul\":1310:1330   */\n      tag_63\n        /* \"#utility.yul\":1328:1329   */\n      dup3\n        /* \"#utility.yul\":1310:1330   */\n      tag_55\n      jump\t// in\n    tag_63:\n        /* \"#utility.yul\":1305:1330   */\n      swap2\n      pop\n        /* \"#utility.yul\":1344:1364   */\n      tag_64\n        /* \"#utility.yul\":1362:1363   */\n      dup4\n        /* \"#utility.yul\":1344:1364   */\n      tag_55\n      jump\t// in\n    tag_64:\n        /* \"#utility.yul\":1339:1364   */\n      swap3\n      pop\n        /* \"#utility.yul\":1498:1499   */\n      dup3\n        /* \"#utility.yul\":1430:1496   */\n      0xffffffffffffffffffffffffffffffffffffffffffffffffffffffffffffffff\n        /* \"#utility.yul\":1426:1500   */\n      sub\n        /* \"#utility.yul\":1423:1424   */\n      dup3\n        /* \"#utility.yul\":1420:1501   */\n      gt\n        /* \"#utility.yul\":1417:1524   */\n      iszero\n      tag_65\n      jumpi\n        /* \"#utility.yul\":1504:1522   */\n      tag_66\n      tag_67\n      jump\t// in\n    tag_66:\n        /* \"#utility.yul\":1417:1524   */\n    tag_65:\n        /* \"#utility.yul\":1548:1549   */\n      dup3\n        /* \"#utility.yul\":1545:1546   */\n      dup3\n        /* \"#utility.yul\":1541:1550   */\n      add\n        /* \"#utility.yul\":1534:1550   */\n      swap1\n      pop\n        /* \"#utility.yul\":1251:1556   */\n      swap3\n      swap2\n      pop\n      pop\n      jump\t// out\n        /* \"#utility.yul\":1562:1652   */\n    tag_51:\n        /* \"#utility.yul\":1596:1603   */\n      0x00\n        /* \"#utility.yul\":1639:1644   */\n      dup2\n        /* \"#utility.yul\":1632:1645   */\n      iszero\n        /* \"#utility.yul\":1625:1646   */\n      iszero\n        /* \"#utility.yul\":1614:1646   */\n      swap1\n      pop\n        /* \"#utility.yul\":1562:1652   */\n      swap2\n      swap1\n      pop\n      jump\t// out\n        /* \"#utility.yul\":1658:1735   */\n    tag_55:\n        /* \"#utility.yul\":1695:1702   */\n      0x00\n        /* \"#utility.yul\":1724:1729   */\n      dup2\n        /* \"#utility.yul\":1713:1729   */\n      swap1\n      pop\n        /* \"#utility.yul\":1658:1735   */\n      swap2\n      swap1\n      pop\n      jump\t// out\n        /* \"#utility.yul\":1741:1974   */\n    tag_35:\n        /* \"#utility.yul\":1780:1783   */\n      0x00\n        /* \"#utility.yul\":1803:1827   */\n      tag_71\n        /* \"#utility.yul\":1821:1826   */\n      dup3\n        /* \"#utility.yul\":1803:1827   */\n      tag_55\n      jump\t// in\n    tag_71:\n        /* \"#utility.yul\":1794:1827   */\n      swap2\n      pop\n        /* \"#utility.yul\":1849:1915   */\n      0xffffffffffffffffffffffffffffffffffffffffffffffffffffffffffffffff\n        /* \"#utility.yul\":1842:1847   */\n      dup3\n        /* \"#utility.yul\":1839:1916   */\n      eq\n        /* \"#utility.yul\":1836:1939   */\n      iszero\n      tag_72\n      jumpi\n        /* \"#utility.yul\":1919:1937   */\n      tag_73\n      tag_67\n      jump\t// in\n    tag_73:\n        /* \"#utility.yul\":1836:1939   */\n    tag_72:\n        /* \"#utility.yul\":1966:1967   */\n      0x01\n        /* \"#utility.yul\":1959:1964   */\n      dup3\n        /* \"#utility.yul\":1955:1968   */\n      add\n        /* \"#utility.yul\":1948:1968   */\n      swap1\n      pop\n        /* \"#utility.yul\":1741:1974   */\n      swap2\n      swap1\n      pop\n      jump\t// out\n        /* \"#utility.yul\":1980:2160   */\n    tag_67:\n        /* \"#utility.yul\":2028:2105   */\n      0x4e487b7100000000000000000000000000000000000000000000000000000000\n        /* \"#utility.yul\":2025:2026   */\n      0x00\n        /* \"#utility.yul\":2018:2106   */\n      mstore\n        /* \"#utility.yul\":2125:2129   */\n      0x11\n        /* \"#utility.yul\":2122:2123   */\n      0x04\n        /* \"#utility.yul\":2115:2130   */\n      mstore\n        /* \"#utility.yul\":2149:2153   */\n      0x24\n        /* \"#utility.yul\":2146:2147   */\n      0x00\n        /* \"#utility.yul\":2139:2154   */\n      revert\n        /* \"#utility.yul\":2166:2346   */\n    tag_29:\n        /* \"#utility.yul\":2214:2291   */\n      0x4e487b7100000000000000000000000000000000000000000000000000000000\n        /* \"#utility.yul\":2211:2212   */\n      0x00\n        /* \"#utility.yul\":2204:2292   */\n      mstore\n        /* \"#utility.yul\":2311:2315   */\n      0x32\n        /* \"#utility.yul\":2308:2309   */\n      0x04\n        /* \"#utility.yul\":2301:2316   */\n      mstore\n        /* \"#utility.yul\":2335:2339   */\n      0x24\n        /* \"#utility.yul\":2332:2333   */\n      0x00\n        /* \"#utility.yul\":2325:2340   */\n      revert\n        /* \"#utility.yul\":2475:2592   */\n    tag_46:\n        /* \"#utility.yul\":2584:2585   */\n      0x00\n        /* \"#utility.yul\":2581:2582   */\n      dup1\n        /* \"#utility.yul\":2574:2586   */\n      revert\n        /* \"#utility.yul\":2598:2720   */\n    tag_42:\n        /* \"#utility.yul\":2671:2695   */\n      tag_80\n        /* \"#utility.yul\":2689:2694   */\n      dup2\n        /* \"#utility.yul\":2671:2695   */\n      tag_55\n      jump\t// in\n    tag_80:\n        /* \"#utility.yul\":2664:2669   */\n      dup2\n        /* \"#utility.yul\":2661:2696   */\n      eq\n        /* \"#utility.yul\":2651:2714   */\n      tag_81\n      jumpi\n        /* \"#utility.yul\":2710:2711   */\n      0x00\n        /* \"#utility.yul\":2707:2708   */\n      dup1\n        /* \"#utility.yul\":2700:2712   */\n      revert\n        /* \"#utility.yul\":2651:2714   */\n    tag_81:\n        /* \"#utility.yul\":2598:2720   */\n      pop\n      jump\t// out\n\n    auxdata: 0xa2646970667358221220f7676bfc75961d3fb93282e82843bcf39a88e3f2cbfe9febd1baf95202f6f2d264736f6c63430008070033\n}\n",
				"bytecode": {
					"linkReferences": {},
					"object": "6080604052604051806102800160405280600160ff168152602001600260ff168152602001600360ff168152602001600460ff168152602001600560ff168152602001600660ff168152602001600760ff168152602001600860ff168152602001600960ff168152602001600a60ff168152602001600b60ff168152602001600c60ff168152602001600d60ff168152602001600e60ff168152602001600f60ff168152602001601060ff168152602001601160ff168152602001601260ff168152602001601360ff168152602001601460ff1681525060009060146100e692919061013b565b506040518060800160405280600160ff168152602001600460ff168152602001602260ff168152602001603860ff16815250600190600461012892919061018d565b5034801561013557600080fd5b506101fc565b82805482825590600052602060002090810192821561017c579160200282015b8281111561017b578251829060ff1690559160200191906001019061015b565b5b50905061018991906101df565b5090565b8280548282559060005260206000209081019282156101ce579160200282015b828111156101cd578251829060ff169055916020019190600101906101ad565b5b5090506101db91906101df565b5090565b5b808211156101f85760008160009055506001016101e0565b5090565b6103868061020b6000396000f3fe608060405234801561001057600080fd5b50600436106100415760003560e01c806316421dbf146100465780635b4f0a9a14610076578063e472fe4c146100a6575b600080fd5b610060600480360381019061005b91906101a0565b6100d6565b60405161006d9190610206565b60405180910390f35b610090600480360381019061008b91906101a0565b6100fa565b60405161009d91906101eb565b60405180910390f35b6100c060048036038101906100bb91906101a0565b610167565b6040516100cd9190610206565b60405180910390f35b600181815481106100e657600080fd5b906000526020600020016000915090505481565b6000806000600190505b600180549050811015610159576001818154811061012557610124610305565b5b9060005260206000200154841415610146576001826101449190610221565b505b80806101519061028d565b915050610104565b506001811015915050919050565b6000818154811061017757600080fd5b906000526020600020016000915090505481565b60008135905061019a81610339565b92915050565b6000602082840312156101b6576101b5610334565b5b60006101c48482850161018b565b91505092915050565b6101d681610277565b82525050565b6101e581610283565b82525050565b600060208201905061020060008301846101cd565b92915050565b600060208201905061021b60008301846101dc565b92915050565b600061022c82610283565b915061023783610283565b9250827fffffffffffffffffffffffffffffffffffffffffffffffffffffffffffffffff0382111561026c5761026b6102d6565b5b828201905092915050565b60008115159050919050565b6000819050919050565b600061029882610283565b91507fffffffffffffffffffffffffffffffffffffffffffffffffffffffffffffffff8214156102cb576102ca6102d6565b5b600182019050919050565b7f4e487b7100000000000000000000000000000000000000000000000000000000600052601160045260246000fd5b7f4e487b7100000000000000000000000000000000000000000000000000000000600052603260045260246000fd5b600080fd5b61034281610283565b811461034d57600080fd5b5056fea2646970667358221220f7676bfc75961d3fb93282e82843bcf39a88e3f2cbfe9febd1baf95202f6f2d264736f6c63430008070033",
					"opcodes": "PUSH1 0x80 PUSH1 0x40 MSTORE PUSH1 0x40 MLOAD DUP1 PUSH2 0x280 ADD PUSH1 0x40 MSTORE DUP1 PUSH1 0x1 PUSH1 0xFF AND DUP2 MSTORE PUSH1 0x20 ADD PUSH1 0x2 PUSH1 0xFF AND DUP2 MSTORE PUSH1 0x20 ADD PUSH1 0x3 PUSH1 0xFF AND DUP2 MSTORE PUSH1 0x20 ADD PUSH1 0x4 PUSH1 0xFF AND DUP2 MSTORE PUSH1 0x20 ADD PUSH1 0x5 PUSH1 0xFF AND DUP2 MSTORE PUSH1 0x20 ADD PUSH1 0x6 PUSH1 0xFF AND DUP2 MSTORE PUSH1 0x20 ADD PUSH1 0x7 PUSH1 0xFF AND DUP2 MSTORE PUSH1 0x20 ADD PUSH1 0x8 PUSH1 0xFF AND DUP2 MSTORE PUSH1 0x20 ADD PUSH1 0x9 PUSH1 0xFF AND DUP2 MSTORE PUSH1 0x20 ADD PUSH1 0xA PUSH1 0xFF AND DUP2 MSTORE PUSH1 0x20 ADD PUSH1 0xB PUSH1 0xFF AND DUP2 MSTORE PUSH1 0x20 ADD PUSH1 0xC PUSH1 0xFF AND DUP2 MSTORE PUSH1 0x20 ADD PUSH1 0xD PUSH1 0xFF AND DUP2 MSTORE PUSH1 0x20 ADD PUSH1 0xE PUSH1 0xFF AND DUP2 MSTORE PUSH1 0x20 ADD PUSH1 0xF PUSH1 0xFF AND DUP2 MSTORE PUSH1 0x20 ADD PUSH1 0x10 PUSH1 0xFF AND DUP2 MSTORE PUSH1 0x20 ADD PUSH1 0x11 PUSH1 0xFF AND DUP2 MSTORE PUSH1 0x20 ADD PUSH1 0x12 PUSH1 0xFF AND DUP2 MSTORE PUSH1 0x20 ADD PUSH1 0x13 PUSH1 0xFF AND DUP2 MSTORE PUSH1 0x20 ADD PUSH1 0x14 PUSH1 0xFF AND DUP2 MSTORE POP PUSH1 0x0 SWAP1 PUSH1 0x14 PUSH2 0xE6 SWAP3 SWAP2 SWAP1 PUSH2 0x13B JUMP JUMPDEST POP PUSH1 0x40 MLOAD DUP1 PUSH1 0x80 ADD PUSH1 0x40 MSTORE DUP1 PUSH1 0x1 PUSH1 0xFF AND DUP2 MSTORE PUSH1 0x20 ADD PUSH1 0x4 PUSH1 0xFF AND DUP2 MSTORE PUSH1 0x20 ADD PUSH1 0x22 PUSH1 0xFF AND DUP2 MSTORE PUSH1 0x20 ADD PUSH1 0x38 PUSH1 0xFF AND DUP2 MSTORE POP PUSH1 0x1 SWAP1 PUSH1 0x4 PUSH2 0x128 SWAP3 SWAP2 SWAP1 PUSH2 0x18D JUMP JUMPDEST POP CALLVALUE DUP1 ISZERO PUSH2 0x135 JUMPI PUSH1 0x0 DUP1 REVERT JUMPDEST POP PUSH2 0x1FC JUMP JUMPDEST DUP3 DUP1 SLOAD DUP3 DUP3 SSTORE SWAP1 PUSH1 0x0 MSTORE PUSH1 0x20 PUSH1 0x0 KECCAK256 SWAP1 DUP2 ADD SWAP3 DUP3 ISZERO PUSH2 0x17C JUMPI SWAP2 PUSH1 0x20 MUL DUP3 ADD JUMPDEST DUP3 DUP2 GT ISZERO PUSH2 0x17B JUMPI DUP3 MLOAD DUP3 SWAP1 PUSH1 0xFF AND SWAP1 SSTORE SWAP2 PUSH1 0x20 ADD SWAP2 SWAP1 PUSH1 0x1 ADD SWAP1 PUSH2 0x15B JUMP JUMPDEST JUMPDEST POP SWAP1 POP PUSH2 0x189 SWAP2 SWAP1 PUSH2 0x1DF JUMP JUMPDEST POP SWAP1 JUMP JUMPDEST DUP3 DUP1 SLOAD DUP3 DUP3 SSTORE SWAP1 PUSH1 0x0 MSTORE PUSH1 0x20 PUSH1 0x0 KECCAK256 SWAP1 DUP2 ADD SWAP3 DUP3 ISZERO PUSH2 0x1CE JUMPI SWAP2 PUSH1 0x20 MUL DUP3 ADD JUMPDEST DUP3 DUP2 GT ISZERO PUSH2 0x1CD JUMPI DUP3 MLOAD DUP3 SWAP1 PUSH1 0xFF AND SWAP1 SSTORE SWAP2 PUSH1 0x20 ADD SWAP2 SWAP1 PUSH1 0x1 ADD SWAP1 PUSH2 0x1AD JUMP JUMPDEST JUMPDEST POP SWAP1 POP PUSH2 0x1DB SWAP2 SWAP1 PUSH2 0x1DF JUMP JUMPDEST POP SWAP1 JUMP JUMPDEST JUMPDEST DUP1 DUP3 GT ISZERO PUSH2 0x1F8 JUMPI PUSH1 0x0 DUP2 PUSH1 0x0 SWAP1 SSTORE POP PUSH1 0x1 ADD PUSH2 0x1E0 JUMP JUMPDEST POP SWAP1 JUMP JUMPDEST PUSH2 0x386 DUP1 PUSH2 0x20B PUSH1 0x0 CODECOPY PUSH1 0x0 RETURN INVALID PUSH1 0x80 PUSH1 0x40 MSTORE CALLVALUE DUP1 ISZERO PUSH2 0x10 JUMPI PUSH1 0x0 DUP1 REVERT JUMPDEST POP PUSH1 0x4 CALLDATASIZE LT PUSH2 0x41 JUMPI PUSH1 0x0 CALLDATALOAD PUSH1 0xE0 SHR DUP1 PUSH4 0x16421DBF EQ PUSH2 0x46 JUMPI DUP1 PUSH4 0x5B4F0A9A EQ PUSH2 0x76 JUMPI DUP1 PUSH4 0xE472FE4C EQ PUSH2 0xA6 JUMPI JUMPDEST PUSH1 0x0 DUP1 REVERT JUMPDEST PUSH2 0x60 PUSH1 0x4 DUP1 CALLDATASIZE SUB DUP2 ADD SWAP1 PUSH2 0x5B SWAP2 SWAP1 PUSH2 0x1A0 JUMP JUMPDEST PUSH2 0xD6 JUMP JUMPDEST PUSH1 0x40 MLOAD PUSH2 0x6D SWAP2 SWAP1 PUSH2 0x206 JUMP JUMPDEST PUSH1 0x40 MLOAD DUP1 SWAP2 SUB SWAP1 RETURN JUMPDEST PUSH2 0x90 PUSH1 0x4 DUP1 CALLDATASIZE SUB DUP2 ADD SWAP1 PUSH2 0x8B SWAP2 SWAP1 PUSH2 0x1A0 JUMP JUMPDEST PUSH2 0xFA JUMP JUMPDEST PUSH1 0x40 MLOAD PUSH2 0x9D SWAP2 SWAP1 PUSH2 0x1EB JUMP JUMPDEST PUSH1 0x40 MLOAD DUP1 SWAP2 SUB SWAP1 RETURN JUMPDEST PUSH2 0xC0 PUSH1 0x4 DUP1 CALLDATASIZE SUB DUP2 ADD SWAP1 PUSH2 0xBB SWAP2 SWAP1 PUSH2 0x1A0 JUMP JUMPDEST PUSH2 0x167 JUMP JUMPDEST PUSH1 0x40 MLOAD PUSH2 0xCD SWAP2 SWAP1 PUSH2 0x206 JUMP JUMPDEST PUSH1 0x40 MLOAD DUP1 SWAP2 SUB SWAP1 RETURN JUMPDEST PUSH1 0x1 DUP2 DUP2 SLOAD DUP2 LT PUSH2 0xE6 JUMPI PUSH1 0x0 DUP1 REVERT JUMPDEST SWAP1 PUSH1 0x0 MSTORE PUSH1 0x20 PUSH1 0x0 KECCAK256 ADD PUSH1 0x0 SWAP2 POP SWAP1 POP SLOAD DUP2 JUMP JUMPDEST PUSH1 0x0 DUP1 PUSH1 0x0 PUSH1 0x1 SWAP1 POP JUMPDEST PUSH1 0x1 DUP1 SLOAD SWAP1 POP DUP2 LT ISZERO PUSH2 0x159 JUMPI PUSH1 0x1 DUP2 DUP2 SLOAD DUP2 LT PUSH2 0x125 JUMPI PUSH2 0x124 PUSH2 0x305 JUMP JUMPDEST JUMPDEST SWAP1 PUSH1 0x0 MSTORE PUSH1 0x20 PUSH1 0x0 KECCAK256 ADD SLOAD DUP5 EQ ISZERO PUSH2 0x146 JUMPI PUSH1 0x1 DUP3 PUSH2 0x144 SWAP2 SWAP1 PUSH2 0x221 JUMP JUMPDEST POP JUMPDEST DUP1 DUP1 PUSH2 0x151 SWAP1 PUSH2 0x28D JUMP JUMPDEST SWAP2 POP POP PUSH2 0x104 JUMP JUMPDEST POP PUSH1 0x1 DUP2 LT ISZERO SWAP2 POP POP SWAP2 SWAP1 POP JUMP JUMPDEST PUSH1 0x0 DUP2 DUP2 SLOAD DUP2 LT PUSH2 0x177 JUMPI PUSH1 0x0 DUP1 REVERT JUMPDEST SWAP1 PUSH1 0x0 MSTORE PUSH1 0x20 PUSH1 0x0 KECCAK256 ADD PUSH1 0x0 SWAP2 POP SWAP1 POP SLOAD DUP2 JUMP JUMPDEST PUSH1 0x0 DUP2 CALLDATALOAD SWAP1 POP PUSH2 0x19A DUP2 PUSH2 0x339 JUMP JUMPDEST SWAP3 SWAP2 POP POP JUMP JUMPDEST PUSH1 0x0 PUSH1 0x20 DUP3 DUP5 SUB SLT ISZERO PUSH2 0x1B6 JUMPI PUSH2 0x1B5 PUSH2 0x334 JUMP JUMPDEST JUMPDEST PUSH1 0x0 PUSH2 0x1C4 DUP5 DUP3 DUP6 ADD PUSH2 0x18B JUMP JUMPDEST SWAP2 POP POP SWAP3 SWAP2 POP POP JUMP JUMPDEST PUSH2 0x1D6 DUP2 PUSH2 0x277 JUMP JUMPDEST DUP3 MSTORE POP POP JUMP JUMPDEST PUSH2 0x1E5 DUP2 PUSH2 0x283 JUMP JUMPDEST DUP3 MSTORE POP POP JUMP JUMPDEST PUSH1 0x0 PUSH1 0x20 DUP3 ADD SWAP1 POP PUSH2 0x200 PUSH1 0x0 DUP4 ADD DUP5 PUSH2 0x1CD JUMP JUMPDEST SWAP3 SWAP2 POP POP JUMP JUMPDEST PUSH1 0x0 PUSH1 0x20 DUP3 ADD SWAP1 POP PUSH2 0x21B PUSH1 0x0 DUP4 ADD DUP5 PUSH2 0x1DC JUMP JUMPDEST SWAP3 SWAP2 POP POP JUMP JUMPDEST PUSH1 0x0 PUSH2 0x22C DUP3 PUSH2 0x283 JUMP JUMPDEST SWAP2 POP PUSH2 0x237 DUP4 PUSH2 0x283 JUMP JUMPDEST SWAP3 POP DUP3 PUSH32 0xFFFFFFFFFFFFFFFFFFFFFFFFFFFFFFFFFFFFFFFFFFFFFFFFFFFFFFFFFFFFFFFF SUB DUP3 GT ISZERO PUSH2 0x26C JUMPI PUSH2 0x26B PUSH2 0x2D6 JUMP JUMPDEST JUMPDEST DUP3 DUP3 ADD SWAP1 POP SWAP3 SWAP2 POP POP JUMP JUMPDEST PUSH1 0x0 DUP2 ISZERO ISZERO SWAP1 POP SWAP2 SWAP1 POP JUMP JUMPDEST PUSH1 0x0 DUP2 SWAP1 POP SWAP2 SWAP1 POP JUMP JUMPDEST PUSH1 0x0 PUSH2 0x298 DUP3 PUSH2 0x283 JUMP JUMPDEST SWAP2 POP PUSH32 0xFFFFFFFFFFFFFFFFFFFFFFFFFFFFFFFFFFFFFFFFFFFFFFFFFFFFFFFFFFFFFFFF DUP3 EQ ISZERO PUSH2 0x2CB JUMPI PUSH2 0x2CA PUSH2 0x2D6 JUMP JUMPDEST JUMPDEST PUSH1 0x1 DUP3 ADD SWAP1 POP SWAP2 SWAP1 POP JUMP JUMPDEST PUSH32 0x4E487B7100000000000000000000000000000000000000000000000000000000 PUSH1 0x0 MSTORE PUSH1 0x11 PUSH1 0x4 MSTORE PUSH1 0x24 PUSH1 0x0 REVERT JUMPDEST PUSH32 0x4E487B7100000000000000000000000000000000000000000000000000000000 PUSH1 0x0 MSTORE PUSH1 0x32 PUSH1 0x4 MSTORE PUSH1 0x24 PUSH1 0x0 REVERT JUMPDEST PUSH1 0x0 DUP1 REVERT JUMPDEST PUSH2 0x342 DUP2 PUSH2 0x283 JUMP JUMPDEST DUP2 EQ PUSH2 0x34D JUMPI PUSH1 0x0 DUP1 REVERT JUMPDEST POP JUMP INVALID LOG2 PUSH5 0x6970667358 0x22 SLT KECCAK256 0xF7 PUSH8 0x6BFC75961D3FB932 DUP3 0xE8 0x28 NUMBER 0xBC RETURN SWAP11 DUP9 0xE3 CALLCODE 0xCB INVALID SWAP16 0xEB 0xD1 0xBA 0xF9 MSTORE MUL 0xF6 CALLCODE 0xD2 PUSH5 0x736F6C6343 STOP ADDMOD SMOD STOP CALLER "
				},
				"gasEstimates": {
					"creation": {
						"codeDepositCost": "180400",
						"executionCost": "infinite",
						"totalCost": "infinite"
					},
					"external": {
						"checkExist(uint256)": "infinite",
						"longList(uint256)": "infinite",
						"numberList(uint256)": "infinite"
					}
				},
				"methodIdentifiers": {
					"checkExist(uint256)": "5b4f0a9a",
					"longList(uint256)": "e472fe4c",
					"numberList(uint256)": "16421dbf"
				}
			},
			"storageLayout": {
				"storage": [
					{
						"astId": 25,
						"contract": "contracts/loops.sol:loops",
						"label": "longList",
						"offset": 0,
						"slot": "0",
						"type": "t_array(t_uint256)dyn_storage"
					},
					{
						"astId": 33,
						"contract": "contracts/loops.sol:loops",
						"label": "numberList",
						"offset": 0,
						"slot": "1",
						"type": "t_array(t_uint256)dyn_storage"
					}
				],
				"types": {
					"t_array(t_uint256)dyn_storage": {
						"base": "t_uint256",
						"encoding": "dynamic_array",
						"label": "uint256[]",
						"numberOfBytes": "32"
					},
					"t_uint256": {
						"encoding": "inplace",
						"label": "uint256",
						"numberOfBytes": "32"
					}
				}
			},
			"userdoc": {
				"kind": "user",
				"methods": {},
				"version": 1
			}
		}
	}
}