{
	"contracts/structPractise.sol": {
		"StructPractice": {
			"abi": [
				{
					"inputs": [
						{
							"internalType": "string",
							"name": "title",
							"type": "string"
						},
						{
							"internalType": "uint256",
							"name": "rating",
							"type": "uint256"
						},
						{
							"internalType": "string",
							"name": "year",
							"type": "string"
						}
					],
					"name": "setAMovie",
					"outputs": [],
					"stateMutability": "nonpayable",
					"type": "function"
				}
			],
			"devdoc": {
				"kind": "dev",
				"methods": {},
				"version": 1
			},
			"evm": {
				"assembly": "    /* \"contracts/structPractise.sol\":37:348  contract StructPractice {\r... */\n  mstore(0x40, 0x80)\n  callvalue\n  dup1\n  iszero\n  tag_1\n  jumpi\n  0x00\n  dup1\n  revert\ntag_1:\n  pop\n  dataSize(sub_0)\n  dup1\n  dataOffset(sub_0)\n  0x00\n  codecopy\n  0x00\n  return\nstop\n\nsub_0: assembly {\n        /* \"contracts/structPractise.sol\":37:348  contract StructPractice {\r... */\n      mstore(0x40, 0x80)\n      callvalue\n      dup1\n      iszero\n      tag_1\n      jumpi\n      0x00\n      dup1\n      revert\n    tag_1:\n      pop\n      jumpi(tag_2, lt(calldatasize, 0x04))\n      shr(0xe0, calldataload(0x00))\n      dup1\n      0x2cf1b1bf\n      eq\n      tag_3\n      jumpi\n    tag_2:\n      0x00\n      dup1\n      revert\n        /* \"contracts/structPractise.sol\":204:345  function setAMovie (string memory title, uint rating , string memory year ) public {\r... */\n    tag_3:\n      tag_4\n      0x04\n      dup1\n      calldatasize\n      sub\n      dup2\n      add\n      swap1\n      tag_5\n      swap2\n      swap1\n      tag_6\n      jump\t// in\n    tag_5:\n      tag_7\n      jump\t// in\n    tag_4:\n      stop\n    tag_7:\n        /* \"contracts/structPractise.sol\":305:330  Movie(title,rating, year) */\n      mload(0x40)\n      dup1\n      0x60\n      add\n      0x40\n      mstore\n      dup1\n        /* \"contracts/structPractise.sol\":311:316  title */\n      dup5\n        /* \"contracts/structPractise.sol\":305:330  Movie(title,rating, year) */\n      dup2\n      mstore\n      0x20\n      add\n        /* \"contracts/structPractise.sol\":317:323  rating */\n      dup4\n        /* \"contracts/structPractise.sol\":305:330  Movie(title,rating, year) */\n      dup2\n      mstore\n      0x20\n      add\n        /* \"contracts/structPractise.sol\":325:329  year */\n      dup3\n        /* \"contracts/structPractise.sol\":305:330  Movie(title,rating, year) */\n      dup2\n      mstore\n      pop\n        /* \"contracts/structPractise.sol\":296:301  movie */\n      0x00\n        /* \"contracts/structPractise.sol\":296:330  movie =  Movie(title,rating, year) */\n      dup1\n      dup3\n      add\n      mload\n      dup2\n      0x00\n      add\n      swap1\n      dup1\n      mload\n      swap1\n      0x20\n      add\n      swap1\n      tag_9\n      swap3\n      swap2\n      swap1\n      tag_10\n      jump\t// in\n    tag_9:\n      pop\n      0x20\n      dup3\n      add\n      mload\n      dup2\n      0x01\n      add\n      sstore\n      0x40\n      dup3\n      add\n      mload\n      dup2\n      0x02\n      add\n      swap1\n      dup1\n      mload\n      swap1\n      0x20\n      add\n      swap1\n      tag_11\n      swap3\n      swap2\n      swap1\n      tag_10\n      jump\t// in\n    tag_11:\n      pop\n      swap1\n      pop\n      pop\n        /* \"contracts/structPractise.sol\":204:345  function setAMovie (string memory title, uint rating , string memory year ) public {\r... */\n      pop\n      pop\n      pop\n      jump\t// out\n    tag_10:\n      dup3\n      dup1\n      sload\n      tag_12\n      swap1\n      tag_13\n      jump\t// in\n    tag_12:\n      swap1\n      0x00\n      mstore\n      keccak256(0x00, 0x20)\n      swap1\n      0x1f\n      add\n      0x20\n      swap1\n      div\n      dup2\n      add\n      swap3\n      dup3\n      tag_15\n      jumpi\n      0x00\n      dup6\n      sstore\n      jump(tag_14)\n    tag_15:\n      dup3\n      0x1f\n      lt\n      tag_16\n      jumpi\n      dup1\n      mload\n      not(0xff)\n      and\n      dup4\n      dup1\n      add\n      or\n      dup6\n      sstore\n      jump(tag_14)\n    tag_16:\n      dup3\n      dup1\n      add\n      0x01\n      add\n      dup6\n      sstore\n      dup3\n      iszero\n      tag_14\n      jumpi\n      swap2\n      dup3\n      add\n    tag_17:\n      dup3\n      dup2\n      gt\n      iszero\n      tag_18\n      jumpi\n      dup3\n      mload\n      dup3\n      sstore\n      swap2\n      0x20\n      add\n      swap2\n      swap1\n      0x01\n      add\n      swap1\n      jump(tag_17)\n    tag_18:\n    tag_14:\n      pop\n      swap1\n      pop\n      tag_19\n      swap2\n      swap1\n      tag_20\n      jump\t// in\n    tag_19:\n      pop\n      swap1\n      jump\t// out\n    tag_20:\n    tag_21:\n      dup1\n      dup3\n      gt\n      iszero\n      tag_22\n      jumpi\n      0x00\n      dup2\n      0x00\n      swap1\n      sstore\n      pop\n      0x01\n      add\n      jump(tag_21)\n    tag_22:\n      pop\n      swap1\n      jump\t// out\n        /* \"#utility.yul\":7:419   */\n    tag_24:\n        /* \"#utility.yul\":85:90   */\n      0x00\n        /* \"#utility.yul\":110:176   */\n      tag_26\n        /* \"#utility.yul\":126:175   */\n      tag_27\n        /* \"#utility.yul\":168:174   */\n      dup5\n        /* \"#utility.yul\":126:175   */\n      tag_28\n      jump\t// in\n    tag_27:\n        /* \"#utility.yul\":110:176   */\n      tag_29\n      jump\t// in\n    tag_26:\n        /* \"#utility.yul\":101:176   */\n      swap1\n      pop\n        /* \"#utility.yul\":199:205   */\n      dup3\n        /* \"#utility.yul\":192:197   */\n      dup2\n        /* \"#utility.yul\":185:206   */\n      mstore\n        /* \"#utility.yul\":237:241   */\n      0x20\n        /* \"#utility.yul\":230:235   */\n      dup2\n        /* \"#utility.yul\":226:242   */\n      add\n        /* \"#utility.yul\":275:278   */\n      dup5\n        /* \"#utility.yul\":266:272   */\n      dup5\n        /* \"#utility.yul\":261:264   */\n      dup5\n        /* \"#utility.yul\":257:273   */\n      add\n        /* \"#utility.yul\":254:279   */\n      gt\n        /* \"#utility.yul\":251:363   */\n      iszero\n      tag_30\n      jumpi\n        /* \"#utility.yul\":282:361   */\n      tag_31\n      tag_32\n      jump\t// in\n    tag_31:\n        /* \"#utility.yul\":251:363   */\n    tag_30:\n        /* \"#utility.yul\":372:413   */\n      tag_33\n        /* \"#utility.yul\":406:412   */\n      dup5\n        /* \"#utility.yul\":401:404   */\n      dup3\n        /* \"#utility.yul\":396:399   */\n      dup6\n        /* \"#utility.yul\":372:413   */\n      tag_34\n      jump\t// in\n    tag_33:\n        /* \"#utility.yul\":91:419   */\n      pop\n        /* \"#utility.yul\":7:419   */\n      swap4\n      swap3\n      pop\n      pop\n      pop\n      jump\t// out\n        /* \"#utility.yul\":439:779   */\n    tag_35:\n        /* \"#utility.yul\":495:500   */\n      0x00\n        /* \"#utility.yul\":544:547   */\n      dup3\n        /* \"#utility.yul\":537:541   */\n      0x1f\n        /* \"#utility.yul\":529:535   */\n      dup4\n        /* \"#utility.yul\":525:542   */\n      add\n        /* \"#utility.yul\":521:548   */\n      slt\n        /* \"#utility.yul\":511:633   */\n      tag_37\n      jumpi\n        /* \"#utility.yul\":552:631   */\n      tag_38\n      tag_39\n      jump\t// in\n    tag_38:\n        /* \"#utility.yul\":511:633   */\n    tag_37:\n        /* \"#utility.yul\":669:675   */\n      dup2\n        /* \"#utility.yul\":656:676   */\n      calldataload\n        /* \"#utility.yul\":694:773   */\n      tag_40\n        /* \"#utility.yul\":769:772   */\n      dup5\n        /* \"#utility.yul\":761:767   */\n      dup3\n        /* \"#utility.yul\":754:758   */\n      0x20\n        /* \"#utility.yul\":746:752   */\n      dup7\n        /* \"#utility.yul\":742:759   */\n      add\n        /* \"#utility.yul\":694:773   */\n      tag_24\n      jump\t// in\n    tag_40:\n        /* \"#utility.yul\":685:773   */\n      swap2\n      pop\n        /* \"#utility.yul\":501:779   */\n      pop\n        /* \"#utility.yul\":439:779   */\n      swap3\n      swap2\n      pop\n      pop\n      jump\t// out\n        /* \"#utility.yul\":785:924   */\n    tag_41:\n        /* \"#utility.yul\":831:836   */\n      0x00\n        /* \"#utility.yul\":869:875   */\n      dup2\n        /* \"#utility.yul\":856:876   */\n      calldataload\n        /* \"#utility.yul\":847:876   */\n      swap1\n      pop\n        /* \"#utility.yul\":885:918   */\n      tag_43\n        /* \"#utility.yul\":912:917   */\n      dup2\n        /* \"#utility.yul\":885:918   */\n      tag_44\n      jump\t// in\n    tag_43:\n        /* \"#utility.yul\":785:924   */\n      swap3\n      swap2\n      pop\n      pop\n      jump\t// out\n        /* \"#utility.yul\":930:1909   */\n    tag_6:\n        /* \"#utility.yul\":1027:1033   */\n      0x00\n        /* \"#utility.yul\":1035:1041   */\n      dup1\n        /* \"#utility.yul\":1043:1049   */\n      0x00\n        /* \"#utility.yul\":1092:1094   */\n      0x60\n        /* \"#utility.yul\":1080:1089   */\n      dup5\n        /* \"#utility.yul\":1071:1078   */\n      dup7\n        /* \"#utility.yul\":1067:1090   */\n      sub\n        /* \"#utility.yul\":1063:1095   */\n      slt\n        /* \"#utility.yul\":1060:1179   */\n      iszero\n      tag_46\n      jumpi\n        /* \"#utility.yul\":1098:1177   */\n      tag_47\n      tag_48\n      jump\t// in\n    tag_47:\n        /* \"#utility.yul\":1060:1179   */\n    tag_46:\n        /* \"#utility.yul\":1246:1247   */\n      0x00\n        /* \"#utility.yul\":1235:1244   */\n      dup5\n        /* \"#utility.yul\":1231:1248   */\n      add\n        /* \"#utility.yul\":1218:1249   */\n      calldataload\n        /* \"#utility.yul\":1276:1294   */\n      0xffffffffffffffff\n        /* \"#utility.yul\":1268:1274   */\n      dup2\n        /* \"#utility.yul\":1265:1295   */\n      gt\n        /* \"#utility.yul\":1262:1379   */\n      iszero\n      tag_49\n      jumpi\n        /* \"#utility.yul\":1298:1377   */\n      tag_50\n      tag_51\n      jump\t// in\n    tag_50:\n        /* \"#utility.yul\":1262:1379   */\n    tag_49:\n        /* \"#utility.yul\":1403:1466   */\n      tag_52\n        /* \"#utility.yul\":1458:1465   */\n      dup7\n        /* \"#utility.yul\":1449:1455   */\n      dup3\n        /* \"#utility.yul\":1438:1447   */\n      dup8\n        /* \"#utility.yul\":1434:1456   */\n      add\n        /* \"#utility.yul\":1403:1466   */\n      tag_35\n      jump\t// in\n    tag_52:\n        /* \"#utility.yul\":1393:1466   */\n      swap4\n      pop\n        /* \"#utility.yul\":1189:1476   */\n      pop\n        /* \"#utility.yul\":1515:1517   */\n      0x20\n        /* \"#utility.yul\":1541:1594   */\n      tag_53\n        /* \"#utility.yul\":1586:1593   */\n      dup7\n        /* \"#utility.yul\":1577:1583   */\n      dup3\n        /* \"#utility.yul\":1566:1575   */\n      dup8\n        /* \"#utility.yul\":1562:1584   */\n      add\n        /* \"#utility.yul\":1541:1594   */\n      tag_41\n      jump\t// in\n    tag_53:\n        /* \"#utility.yul\":1531:1594   */\n      swap3\n      pop\n        /* \"#utility.yul\":1486:1604   */\n      pop\n        /* \"#utility.yul\":1671:1673   */\n      0x40\n        /* \"#utility.yul\":1660:1669   */\n      dup5\n        /* \"#utility.yul\":1656:1674   */\n      add\n        /* \"#utility.yul\":1643:1675   */\n      calldataload\n        /* \"#utility.yul\":1702:1720   */\n      0xffffffffffffffff\n        /* \"#utility.yul\":1694:1700   */\n      dup2\n        /* \"#utility.yul\":1691:1721   */\n      gt\n        /* \"#utility.yul\":1688:1805   */\n      iszero\n      tag_54\n      jumpi\n        /* \"#utility.yul\":1724:1803   */\n      tag_55\n      tag_51\n      jump\t// in\n    tag_55:\n        /* \"#utility.yul\":1688:1805   */\n    tag_54:\n        /* \"#utility.yul\":1829:1892   */\n      tag_56\n        /* \"#utility.yul\":1884:1891   */\n      dup7\n        /* \"#utility.yul\":1875:1881   */\n      dup3\n        /* \"#utility.yul\":1864:1873   */\n      dup8\n        /* \"#utility.yul\":1860:1882   */\n      add\n        /* \"#utility.yul\":1829:1892   */\n      tag_35\n      jump\t// in\n    tag_56:\n        /* \"#utility.yul\":1819:1892   */\n      swap2\n      pop\n        /* \"#utility.yul\":1614:1902   */\n      pop\n        /* \"#utility.yul\":930:1909   */\n      swap3\n      pop\n      swap3\n      pop\n      swap3\n      jump\t// out\n        /* \"#utility.yul\":1915:2044   */\n    tag_29:\n        /* \"#utility.yul\":1949:1955   */\n      0x00\n        /* \"#utility.yul\":1976:1996   */\n      tag_58\n      tag_59\n      jump\t// in\n    tag_58:\n        /* \"#utility.yul\":1966:1996   */\n      swap1\n      pop\n        /* \"#utility.yul\":2005:2038   */\n      tag_60\n        /* \"#utility.yul\":2033:2037   */\n      dup3\n        /* \"#utility.yul\":2025:2031   */\n      dup3\n        /* \"#utility.yul\":2005:2038   */\n      tag_61\n      jump\t// in\n    tag_60:\n        /* \"#utility.yul\":1915:2044   */\n      swap2\n      swap1\n      pop\n      jump\t// out\n        /* \"#utility.yul\":2050:2125   */\n    tag_59:\n        /* \"#utility.yul\":2083:2089   */\n      0x00\n        /* \"#utility.yul\":2116:2118   */\n      0x40\n        /* \"#utility.yul\":2110:2119   */\n      mload\n        /* \"#utility.yul\":2100:2119   */\n      swap1\n      pop\n        /* \"#utility.yul\":2050:2125   */\n      swap1\n      jump\t// out\n        /* \"#utility.yul\":2131:2439   */\n    tag_28:\n        /* \"#utility.yul\":2193:2197   */\n      0x00\n        /* \"#utility.yul\":2283:2301   */\n      0xffffffffffffffff\n        /* \"#utility.yul\":2275:2281   */\n      dup3\n        /* \"#utility.yul\":2272:2302   */\n      gt\n        /* \"#utility.yul\":2269:2325   */\n      iszero\n      tag_64\n      jumpi\n        /* \"#utility.yul\":2305:2323   */\n      tag_65\n      tag_66\n      jump\t// in\n    tag_65:\n        /* \"#utility.yul\":2269:2325   */\n    tag_64:\n        /* \"#utility.yul\":2343:2372   */\n      tag_67\n        /* \"#utility.yul\":2365:2371   */\n      dup3\n        /* \"#utility.yul\":2343:2372   */\n      tag_68\n      jump\t// in\n    tag_67:\n        /* \"#utility.yul\":2335:2372   */\n      swap1\n      pop\n        /* \"#utility.yul\":2427:2431   */\n      0x20\n        /* \"#utility.yul\":2421:2425   */\n      dup2\n        /* \"#utility.yul\":2417:2432   */\n      add\n        /* \"#utility.yul\":2409:2432   */\n      swap1\n      pop\n        /* \"#utility.yul\":2131:2439   */\n      swap2\n      swap1\n      pop\n      jump\t// out\n        /* \"#utility.yul\":2445:2522   */\n    tag_69:\n        /* \"#utility.yul\":2482:2489   */\n      0x00\n        /* \"#utility.yul\":2511:2516   */\n      dup2\n        /* \"#utility.yul\":2500:2516   */\n      swap1\n      pop\n        /* \"#utility.yul\":2445:2522   */\n      swap2\n      swap1\n      pop\n      jump\t// out\n        /* \"#utility.yul\":2528:2682   */\n    tag_34:\n        /* \"#utility.yul\":2612:2618   */\n      dup3\n        /* \"#utility.yul\":2607:2610   */\n      dup2\n        /* \"#utility.yul\":2602:2605   */\n      dup4\n        /* \"#utility.yul\":2589:2619   */\n      calldatacopy\n        /* \"#utility.yul\":2674:2675   */\n      0x00\n        /* \"#utility.yul\":2665:2671   */\n      dup4\n        /* \"#utility.yul\":2660:2663   */\n      dup4\n        /* \"#utility.yul\":2656:2672   */\n      add\n        /* \"#utility.yul\":2649:2676   */\n      mstore\n        /* \"#utility.yul\":2528:2682   */\n      pop\n      pop\n      pop\n      jump\t// out\n        /* \"#utility.yul\":2688:3008   */\n    tag_13:\n        /* \"#utility.yul\":2732:2738   */\n      0x00\n        /* \"#utility.yul\":2769:2770   */\n      0x02\n        /* \"#utility.yul\":2763:2767   */\n      dup3\n        /* \"#utility.yul\":2759:2771   */\n      div\n        /* \"#utility.yul\":2749:2771   */\n      swap1\n      pop\n        /* \"#utility.yul\":2816:2817   */\n      0x01\n        /* \"#utility.yul\":2810:2814   */\n      dup3\n        /* \"#utility.yul\":2806:2818   */\n      and\n        /* \"#utility.yul\":2837:2855   */\n      dup1\n        /* \"#utility.yul\":2827:2908   */\n      tag_73\n      jumpi\n        /* \"#utility.yul\":2893:2897   */\n      0x7f\n        /* \"#utility.yul\":2885:2891   */\n      dup3\n        /* \"#utility.yul\":2881:2898   */\n      and\n        /* \"#utility.yul\":2871:2898   */\n      swap2\n      pop\n        /* \"#utility.yul\":2827:2908   */\n    tag_73:\n        /* \"#utility.yul\":2955:2957   */\n      0x20\n        /* \"#utility.yul\":2947:2953   */\n      dup3\n        /* \"#utility.yul\":2944:2958   */\n      lt\n        /* \"#utility.yul\":2924:2942   */\n      dup2\n        /* \"#utility.yul\":2921:2959   */\n      eq\n        /* \"#utility.yul\":2918:3002   */\n      iszero\n      tag_74\n      jumpi\n        /* \"#utility.yul\":2974:2992   */\n      tag_75\n      tag_76\n      jump\t// in\n    tag_75:\n        /* \"#utility.yul\":2918:3002   */\n    tag_74:\n        /* \"#utility.yul\":2739:3008   */\n      pop\n        /* \"#utility.yul\":2688:3008   */\n      swap2\n      swap1\n      pop\n      jump\t// out\n        /* \"#utility.yul\":3014:3295   */\n    tag_61:\n        /* \"#utility.yul\":3097:3124   */\n      tag_78\n        /* \"#utility.yul\":3119:3123   */\n      dup3\n        /* \"#utility.yul\":3097:3124   */\n      tag_68\n      jump\t// in\n    tag_78:\n        /* \"#utility.yul\":3089:3095   */\n      dup2\n        /* \"#utility.yul\":3085:3125   */\n      add\n        /* \"#utility.yul\":3227:3233   */\n      dup2\n        /* \"#utility.yul\":3215:3225   */\n      dup2\n        /* \"#utility.yul\":3212:3234   */\n      lt\n        /* \"#utility.yul\":3191:3209   */\n      0xffffffffffffffff\n        /* \"#utility.yul\":3179:3189   */\n      dup3\n        /* \"#utility.yul\":3176:3210   */\n      gt\n        /* \"#utility.yul\":3173:3235   */\n      or\n        /* \"#utility.yul\":3170:3258   */\n      iszero\n      tag_79\n      jumpi\n        /* \"#utility.yul\":3238:3256   */\n      tag_80\n      tag_66\n      jump\t// in\n    tag_80:\n        /* \"#utility.yul\":3170:3258   */\n    tag_79:\n        /* \"#utility.yul\":3278:3288   */\n      dup1\n        /* \"#utility.yul\":3274:3276   */\n      0x40\n        /* \"#utility.yul\":3267:3289   */\n      mstore\n        /* \"#utility.yul\":3057:3295   */\n      pop\n        /* \"#utility.yul\":3014:3295   */\n      pop\n      pop\n      jump\t// out\n        /* \"#utility.yul\":3301:3481   */\n    tag_76:\n        /* \"#utility.yul\":3349:3426   */\n      0x4e487b7100000000000000000000000000000000000000000000000000000000\n        /* \"#utility.yul\":3346:3347   */\n      0x00\n        /* \"#utility.yul\":3339:3427   */\n      mstore\n        /* \"#utility.yul\":3446:3450   */\n      0x22\n        /* \"#utility.yul\":3443:3444   */\n      0x04\n        /* \"#utility.yul\":3436:3451   */\n      mstore\n        /* \"#utility.yul\":3470:3474   */\n      0x24\n        /* \"#utility.yul\":3467:3468   */\n      0x00\n        /* \"#utility.yul\":3460:3475   */\n      revert\n        /* \"#utility.yul\":3487:3667   */\n    tag_66:\n        /* \"#utility.yul\":3535:3612   */\n      0x4e487b7100000000000000000000000000000000000000000000000000000000\n        /* \"#utility.yul\":3532:3533   */\n      0x00\n        /* \"#utility.yul\":3525:3613   */\n      mstore\n        /* \"#utility.yul\":3632:3636   */\n      0x41\n        /* \"#utility.yul\":3629:3630   */\n      0x04\n        /* \"#utility.yul\":3622:3637   */\n      mstore\n        /* \"#utility.yul\":3656:3660   */\n      0x24\n        /* \"#utility.yul\":3653:3654   */\n      0x00\n        /* \"#utility.yul\":3646:3661   */\n      revert\n        /* \"#utility.yul\":3673:3790   */\n    tag_39:\n        /* \"#utility.yul\":3782:3783   */\n      0x00\n        /* \"#utility.yul\":3779:3780   */\n      dup1\n        /* \"#utility.yul\":3772:3784   */\n      revert\n        /* \"#utility.yul\":3796:3913   */\n    tag_32:\n        /* \"#utility.yul\":3905:3906   */\n      0x00\n        /* \"#utility.yul\":3902:3903   */\n      dup1\n        /* \"#utility.yul\":3895:3907   */\n      revert\n        /* \"#utility.yul\":3919:4036   */\n    tag_51:\n        /* \"#utility.yul\":4028:4029   */\n      0x00\n        /* \"#utility.yul\":4025:4026   */\n      dup1\n        /* \"#utility.yul\":4018:4030   */\n      revert\n        /* \"#utility.yul\":4042:4159   */\n    tag_48:\n        /* \"#utility.yul\":4151:4152   */\n      0x00\n        /* \"#utility.yul\":4148:4149   */\n      dup1\n        /* \"#utility.yul\":4141:4153   */\n      revert\n        /* \"#utility.yul\":4165:4267   */\n    tag_68:\n        /* \"#utility.yul\":4206:4212   */\n      0x00\n        /* \"#utility.yul\":4257:4259   */\n      0x1f\n        /* \"#utility.yul\":4253:4260   */\n      not\n        /* \"#utility.yul\":4248:4250   */\n      0x1f\n        /* \"#utility.yul\":4241:4246   */\n      dup4\n        /* \"#utility.yul\":4237:4251   */\n      add\n        /* \"#utility.yul\":4233:4261   */\n      and\n        /* \"#utility.yul\":4223:4261   */\n      swap1\n      pop\n        /* \"#utility.yul\":4165:4267   */\n      swap2\n      swap1\n      pop\n      jump\t// out\n        /* \"#utility.yul\":4273:4395   */\n    tag_44:\n        /* \"#utility.yul\":4346:4370   */\n      tag_89\n        /* \"#utility.yul\":4364:4369   */\n      dup2\n        /* \"#utility.yul\":4346:4370   */\n      tag_69\n      jump\t// in\n    tag_89:\n        /* \"#utility.yul\":4339:4344   */\n      dup2\n        /* \"#utility.yul\":4336:4371   */\n      eq\n        /* \"#utility.yul\":4326:4389   */\n      tag_90\n      jumpi\n        /* \"#utility.yul\":4385:4386   */\n      0x00\n        /* \"#utility.yul\":4382:4383   */\n      dup1\n        /* \"#utility.yul\":4375:4387   */\n      revert\n        /* \"#utility.yul\":4326:4389   */\n    tag_90:\n        /* \"#utility.yul\":4273:4395   */\n      pop\n      jump\t// out\n\n    auxdata: 0xa264697066735822122074238518942fca3f4d61c3a65c8eedf13ebc6451652070c4eb31a8dfb1740a8c64736f6c63430008070033\n}\n",
				"bytecode": {
					"linkReferences": {},
					"object": "608060405234801561001057600080fd5b50610409806100206000396000f3fe608060405234801561001057600080fd5b506004361061002b5760003560e01c80632cf1b1bf14610030575b600080fd5b61004a600480360381019061004591906101dc565b61004c565b005b6040518060600160405280848152602001838152602001828152506000808201518160000190805190602001906100849291906100b4565b506020820151816001015560408201518160020190805190602001906100ab9291906100b4565b50905050505050565b8280546100c0906102d6565b90600052602060002090601f0160209004810192826100e25760008555610129565b82601f106100fb57805160ff1916838001178555610129565b82800160010185558215610129579182015b8281111561012857825182559160200191906001019061010d565b5b509050610136919061013a565b5090565b5b8082111561015357600081600090555060010161013b565b5090565b600061016a6101658461028c565b610267565b9050828152602081018484840111156101865761018561039c565b5b6101918482856102c7565b509392505050565b600082601f8301126101ae576101ad610397565b5b81356101be848260208601610157565b91505092915050565b6000813590506101d6816103bc565b92915050565b6000806000606084860312156101f5576101f46103a6565b5b600084013567ffffffffffffffff811115610213576102126103a1565b5b61021f86828701610199565b9350506020610230868287016101c7565b925050604084013567ffffffffffffffff811115610251576102506103a1565b5b61025d86828701610199565b9150509250925092565b6000610271610282565b905061027d8282610308565b919050565b6000604051905090565b600067ffffffffffffffff8211156102a7576102a6610368565b5b6102b0826103ab565b9050602081019050919050565b6000819050919050565b82818337600083830152505050565b600060028204905060018216806102ee57607f821691505b6020821081141561030257610301610339565b5b50919050565b610311826103ab565b810181811067ffffffffffffffff821117156103305761032f610368565b5b80604052505050565b7f4e487b7100000000000000000000000000000000000000000000000000000000600052602260045260246000fd5b7f4e487b7100000000000000000000000000000000000000000000000000000000600052604160045260246000fd5b600080fd5b600080fd5b600080fd5b600080fd5b6000601f19601f8301169050919050565b6103c5816102bd565b81146103d057600080fd5b5056fea264697066735822122074238518942fca3f4d61c3a65c8eedf13ebc6451652070c4eb31a8dfb1740a8c64736f6c63430008070033",
					"opcodes": "PUSH1 0x80 PUSH1 0x40 MSTORE CALLVALUE DUP1 ISZERO PUSH2 0x10 JUMPI PUSH1 0x0 DUP1 REVERT JUMPDEST POP PUSH2 0x409 DUP1 PUSH2 0x20 PUSH1 0x0 CODECOPY PUSH1 0x0 RETURN INVALID PUSH1 0x80 PUSH1 0x40 MSTORE CALLVALUE DUP1 ISZERO PUSH2 0x10 JUMPI PUSH1 0x0 DUP1 REVERT JUMPDEST POP PUSH1 0x4 CALLDATASIZE LT PUSH2 0x2B JUMPI PUSH1 0x0 CALLDATALOAD PUSH1 0xE0 SHR DUP1 PUSH4 0x2CF1B1BF EQ PUSH2 0x30 JUMPI JUMPDEST PUSH1 0x0 DUP1 REVERT JUMPDEST PUSH2 0x4A PUSH1 0x4 DUP1 CALLDATASIZE SUB DUP2 ADD SWAP1 PUSH2 0x45 SWAP2 SWAP1 PUSH2 0x1DC JUMP JUMPDEST PUSH2 0x4C JUMP JUMPDEST STOP JUMPDEST PUSH1 0x40 MLOAD DUP1 PUSH1 0x60 ADD PUSH1 0x40 MSTORE DUP1 DUP5 DUP2 MSTORE PUSH1 0x20 ADD DUP4 DUP2 MSTORE PUSH1 0x20 ADD DUP3 DUP2 MSTORE POP PUSH1 0x0 DUP1 DUP3 ADD MLOAD DUP2 PUSH1 0x0 ADD SWAP1 DUP1 MLOAD SWAP1 PUSH1 0x20 ADD SWAP1 PUSH2 0x84 SWAP3 SWAP2 SWAP1 PUSH2 0xB4 JUMP JUMPDEST POP PUSH1 0x20 DUP3 ADD MLOAD DUP2 PUSH1 0x1 ADD SSTORE PUSH1 0x40 DUP3 ADD MLOAD DUP2 PUSH1 0x2 ADD SWAP1 DUP1 MLOAD SWAP1 PUSH1 0x20 ADD SWAP1 PUSH2 0xAB SWAP3 SWAP2 SWAP1 PUSH2 0xB4 JUMP JUMPDEST POP SWAP1 POP POP POP POP POP JUMP JUMPDEST DUP3 DUP1 SLOAD PUSH2 0xC0 SWAP1 PUSH2 0x2D6 JUMP JUMPDEST SWAP1 PUSH1 0x0 MSTORE PUSH1 0x20 PUSH1 0x0 KECCAK256 SWAP1 PUSH1 0x1F ADD PUSH1 0x20 SWAP1 DIV DUP2 ADD SWAP3 DUP3 PUSH2 0xE2 JUMPI PUSH1 0x0 DUP6 SSTORE PUSH2 0x129 JUMP JUMPDEST DUP3 PUSH1 0x1F LT PUSH2 0xFB JUMPI DUP1 MLOAD PUSH1 0xFF NOT AND DUP4 DUP1 ADD OR DUP6 SSTORE PUSH2 0x129 JUMP JUMPDEST DUP3 DUP1 ADD PUSH1 0x1 ADD DUP6 SSTORE DUP3 ISZERO PUSH2 0x129 JUMPI SWAP2 DUP3 ADD JUMPDEST DUP3 DUP2 GT ISZERO PUSH2 0x128 JUMPI DUP3 MLOAD DUP3 SSTORE SWAP2 PUSH1 0x20 ADD SWAP2 SWAP1 PUSH1 0x1 ADD SWAP1 PUSH2 0x10D JUMP JUMPDEST JUMPDEST POP SWAP1 POP PUSH2 0x136 SWAP2 SWAP1 PUSH2 0x13A JUMP JUMPDEST POP SWAP1 JUMP JUMPDEST JUMPDEST DUP1 DUP3 GT ISZERO PUSH2 0x153 JUMPI PUSH1 0x0 DUP2 PUSH1 0x0 SWAP1 SSTORE POP PUSH1 0x1 ADD PUSH2 0x13B JUMP JUMPDEST POP SWAP1 JUMP JUMPDEST PUSH1 0x0 PUSH2 0x16A PUSH2 0x165 DUP5 PUSH2 0x28C JUMP JUMPDEST PUSH2 0x267 JUMP JUMPDEST SWAP1 POP DUP3 DUP2 MSTORE PUSH1 0x20 DUP2 ADD DUP5 DUP5 DUP5 ADD GT ISZERO PUSH2 0x186 JUMPI PUSH2 0x185 PUSH2 0x39C JUMP JUMPDEST JUMPDEST PUSH2 0x191 DUP5 DUP3 DUP6 PUSH2 0x2C7 JUMP JUMPDEST POP SWAP4 SWAP3 POP POP POP JUMP JUMPDEST PUSH1 0x0 DUP3 PUSH1 0x1F DUP4 ADD SLT PUSH2 0x1AE JUMPI PUSH2 0x1AD PUSH2 0x397 JUMP JUMPDEST JUMPDEST DUP2 CALLDATALOAD PUSH2 0x1BE DUP5 DUP3 PUSH1 0x20 DUP7 ADD PUSH2 0x157 JUMP JUMPDEST SWAP2 POP POP SWAP3 SWAP2 POP POP JUMP JUMPDEST PUSH1 0x0 DUP2 CALLDATALOAD SWAP1 POP PUSH2 0x1D6 DUP2 PUSH2 0x3BC JUMP JUMPDEST SWAP3 SWAP2 POP POP JUMP JUMPDEST PUSH1 0x0 DUP1 PUSH1 0x0 PUSH1 0x60 DUP5 DUP7 SUB SLT ISZERO PUSH2 0x1F5 JUMPI PUSH2 0x1F4 PUSH2 0x3A6 JUMP JUMPDEST JUMPDEST PUSH1 0x0 DUP5 ADD CALLDATALOAD PUSH8 0xFFFFFFFFFFFFFFFF DUP2 GT ISZERO PUSH2 0x213 JUMPI PUSH2 0x212 PUSH2 0x3A1 JUMP JUMPDEST JUMPDEST PUSH2 0x21F DUP7 DUP3 DUP8 ADD PUSH2 0x199 JUMP JUMPDEST SWAP4 POP POP PUSH1 0x20 PUSH2 0x230 DUP7 DUP3 DUP8 ADD PUSH2 0x1C7 JUMP JUMPDEST SWAP3 POP POP PUSH1 0x40 DUP5 ADD CALLDATALOAD PUSH8 0xFFFFFFFFFFFFFFFF DUP2 GT ISZERO PUSH2 0x251 JUMPI PUSH2 0x250 PUSH2 0x3A1 JUMP JUMPDEST JUMPDEST PUSH2 0x25D DUP7 DUP3 DUP8 ADD PUSH2 0x199 JUMP JUMPDEST SWAP2 POP POP SWAP3 POP SWAP3 POP SWAP3 JUMP JUMPDEST PUSH1 0x0 PUSH2 0x271 PUSH2 0x282 JUMP JUMPDEST SWAP1 POP PUSH2 0x27D DUP3 DUP3 PUSH2 0x308 JUMP JUMPDEST SWAP2 SWAP1 POP JUMP JUMPDEST PUSH1 0x0 PUSH1 0x40 MLOAD SWAP1 POP SWAP1 JUMP JUMPDEST PUSH1 0x0 PUSH8 0xFFFFFFFFFFFFFFFF DUP3 GT ISZERO PUSH2 0x2A7 JUMPI PUSH2 0x2A6 PUSH2 0x368 JUMP JUMPDEST JUMPDEST PUSH2 0x2B0 DUP3 PUSH2 0x3AB JUMP JUMPDEST SWAP1 POP PUSH1 0x20 DUP2 ADD SWAP1 POP SWAP2 SWAP1 POP JUMP JUMPDEST PUSH1 0x0 DUP2 SWAP1 POP SWAP2 SWAP1 POP JUMP JUMPDEST DUP3 DUP2 DUP4 CALLDATACOPY PUSH1 0x0 DUP4 DUP4 ADD MSTORE POP POP POP JUMP JUMPDEST PUSH1 0x0 PUSH1 0x2 DUP3 DIV SWAP1 POP PUSH1 0x1 DUP3 AND DUP1 PUSH2 0x2EE JUMPI PUSH1 0x7F DUP3 AND SWAP2 POP JUMPDEST PUSH1 0x20 DUP3 LT DUP2 EQ ISZERO PUSH2 0x302 JUMPI PUSH2 0x301 PUSH2 0x339 JUMP JUMPDEST JUMPDEST POP SWAP2 SWAP1 POP JUMP JUMPDEST PUSH2 0x311 DUP3 PUSH2 0x3AB JUMP JUMPDEST DUP2 ADD DUP2 DUP2 LT PUSH8 0xFFFFFFFFFFFFFFFF DUP3 GT OR ISZERO PUSH2 0x330 JUMPI PUSH2 0x32F PUSH2 0x368 JUMP JUMPDEST JUMPDEST DUP1 PUSH1 0x40 MSTORE POP POP POP JUMP JUMPDEST PUSH32 0x4E487B7100000000000000000000000000000000000000000000000000000000 PUSH1 0x0 MSTORE PUSH1 0x22 PUSH1 0x4 MSTORE PUSH1 0x24 PUSH1 0x0 REVERT JUMPDEST PUSH32 0x4E487B7100000000000000000000000000000000000000000000000000000000 PUSH1 0x0 MSTORE PUSH1 0x41 PUSH1 0x4 MSTORE PUSH1 0x24 PUSH1 0x0 REVERT JUMPDEST PUSH1 0x0 DUP1 REVERT JUMPDEST PUSH1 0x0 DUP1 REVERT JUMPDEST PUSH1 0x0 DUP1 REVERT JUMPDEST PUSH1 0x0 DUP1 REVERT JUMPDEST PUSH1 0x0 PUSH1 0x1F NOT PUSH1 0x1F DUP4 ADD AND SWAP1 POP SWAP2 SWAP1 POP JUMP JUMPDEST PUSH2 0x3C5 DUP2 PUSH2 0x2BD JUMP JUMPDEST DUP2 EQ PUSH2 0x3D0 JUMPI PUSH1 0x0 DUP1 REVERT JUMPDEST POP JUMP INVALID LOG2 PUSH5 0x6970667358 0x22 SLT KECCAK256 PUSH21 0x238518942FCA3F4D61C3A65C8EEDF13EBC64516520 PUSH17 0xC4EB31A8DFB1740A8C64736F6C63430008 SMOD STOP CALLER "
				},
				"gasEstimates": {
					"creation": {
						"codeDepositCost": "206600",
						"executionCost": "251",
						"totalCost": "206851"
					},
					"external": {
						"setAMovie(string,uint256,string)": "infinite"
					}
				},
				"methodIdentifiers": {
					"setAMovie(string,uint256,string)": "2cf1b1bf"
				}
			},
			"storageLayout": {
				"storage": [
					{
						"astId": 11,
						"contract": "contracts/structPractise.sol:StructPractice",
						"label": "movie",
						"offset": 0,
						"slot": "0",
						"type": "t_struct(Movie)8_storage"
					}
				],
				"types": {
					"t_string_storage": {
						"encoding": "bytes",
						"label": "string",
						"numberOfBytes": "32"
					},
					"t_struct(Movie)8_storage": {
						"encoding": "inplace",
						"label": "struct StructPractice.Movie",
						"members": [
							{
								"astId": 3,
								"contract": "contracts/structPractise.sol:StructPractice",
								"label": "title",
								"offset": 0,
								"slot": "0",
								"type": "t_string_storage"
							},
							{
								"astId": 5,
								"contract": "contracts/structPractise.sol:StructPractice",
								"label": "rating",
								"offset": 0,
								"slot": "1",
								"type": "t_uint256"
							},
							{
								"astId": 7,
								"contract": "contracts/structPractise.sol:StructPractice",
								"label": "yearOfProduction",
								"offset": 0,
								"slot": "2",
								"type": "t_string_storage"
							}
						],
						"numberOfBytes": "96"
					},
					"t_uint256": {
						"encoding": "inplace",
						"label": "uint256",
						"numberOfBytes": "32"
					}
				}
			},
			"userdoc": {
				"kind": "user",
				"methods": {},
				"version": 1
			}
		}
	}
}