{
	"contracts/structPractise.sol": {
		"StructPractice": {
			"abi": [
				{
					"inputs": [],
					"name": "getMovie",
					"outputs": [
						{
							"components": [
								{
									"internalType": "string",
									"name": "title",
									"type": "string"
								},
								{
									"internalType": "uint256",
									"name": "rating",
									"type": "uint256"
								},
								{
									"internalType": "string",
									"name": "yearOfProduction",
									"type": "string"
								}
							],
							"internalType": "struct StructPractice.Movie",
							"name": "",
							"type": "tuple"
						}
					],
					"stateMutability": "view",
					"type": "function"
				},
				{
					"inputs": [
						{
							"internalType": "string",
							"name": "title",
							"type": "string"
						},
						{
							"internalType": "uint256",
							"name": "rating",
							"type": "uint256"
						},
						{
							"internalType": "string",
							"name": "year",
							"type": "string"
						}
					],
					"name": "setAMovie",
					"outputs": [],
					"stateMutability": "nonpayable",
					"type": "function"
				}
			],
			"devdoc": {
				"kind": "dev",
				"methods": {},
				"version": 1
			},
			"evm": {
				"assembly": "    /* \"contracts/structPractise.sol\":37:429  contract StructPractice {\r... */\n  mstore(0x40, 0x80)\n  callvalue\n  dup1\n  iszero\n  tag_1\n  jumpi\n  0x00\n  dup1\n  revert\ntag_1:\n  pop\n  dataSize(sub_0)\n  dup1\n  dataOffset(sub_0)\n  0x00\n  codecopy\n  0x00\n  return\nstop\n\nsub_0: assembly {\n        /* \"contracts/structPractise.sol\":37:429  contract StructPractice {\r... */\n      mstore(0x40, 0x80)\n      callvalue\n      dup1\n      iszero\n      tag_1\n      jumpi\n      0x00\n      dup1\n      revert\n    tag_1:\n      pop\n      jumpi(tag_2, lt(calldatasize, 0x04))\n      shr(0xe0, calldataload(0x00))\n      dup1\n      0x2cf1b1bf\n      eq\n      tag_3\n      jumpi\n      dup1\n      0x7b5f4eef\n      eq\n      tag_4\n      jumpi\n    tag_2:\n      0x00\n      dup1\n      revert\n        /* \"contracts/structPractise.sol\":196:331  function setAMovie (string memory title, uint rating , string memory year ) public {\r... */\n    tag_3:\n      tag_5\n      0x04\n      dup1\n      calldatasize\n      sub\n      dup2\n      add\n      swap1\n      tag_6\n      swap2\n      swap1\n      tag_7\n      jump\t// in\n    tag_6:\n      tag_8\n      jump\t// in\n    tag_5:\n      stop\n        /* \"contracts/structPractise.sol\":339:426  function getMovie() public view returns (Movie memory ){\r... */\n    tag_4:\n      tag_9\n      tag_10\n      jump\t// in\n    tag_9:\n      mload(0x40)\n      tag_11\n      swap2\n      swap1\n      tag_12\n      jump\t// in\n    tag_11:\n      mload(0x40)\n      dup1\n      swap2\n      sub\n      swap1\n      return\n        /* \"contracts/structPractise.sol\":196:331  function setAMovie (string memory title, uint rating , string memory year ) public {\r... */\n    tag_8:\n        /* \"contracts/structPractise.sol\":297:322  Movie(title,rating, year) */\n      mload(0x40)\n      dup1\n      0x60\n      add\n      0x40\n      mstore\n      dup1\n        /* \"contracts/structPractise.sol\":303:308  title */\n      dup5\n        /* \"contracts/structPractise.sol\":297:322  Movie(title,rating, year) */\n      dup2\n      mstore\n      0x20\n      add\n        /* \"contracts/structPractise.sol\":309:315  rating */\n      dup4\n        /* \"contracts/structPractise.sol\":297:322  Movie(title,rating, year) */\n      dup2\n      mstore\n      0x20\n      add\n        /* \"contracts/structPractise.sol\":317:321  year */\n      dup3\n        /* \"contracts/structPractise.sol\":297:322  Movie(title,rating, year) */\n      dup2\n      mstore\n      pop\n        /* \"contracts/structPractise.sol\":288:293  movie */\n      0x00\n        /* \"contracts/structPractise.sol\":288:322  movie =  Movie(title,rating, year) */\n      dup1\n      dup3\n      add\n      mload\n      dup2\n      0x00\n      add\n      swap1\n      dup1\n      mload\n      swap1\n      0x20\n      add\n      swap1\n      tag_14\n      swap3\n      swap2\n      swap1\n      tag_15\n      jump\t// in\n    tag_14:\n      pop\n      0x20\n      dup3\n      add\n      mload\n      dup2\n      0x01\n      add\n      sstore\n      0x40\n      dup3\n      add\n      mload\n      dup2\n      0x02\n      add\n      swap1\n      dup1\n      mload\n      swap1\n      0x20\n      add\n      swap1\n      tag_16\n      swap3\n      swap2\n      swap1\n      tag_15\n      jump\t// in\n    tag_16:\n      pop\n      swap1\n      pop\n      pop\n        /* \"contracts/structPractise.sol\":196:331  function setAMovie (string memory title, uint rating , string memory year ) public {\r... */\n      pop\n      pop\n      pop\n      jump\t// out\n        /* \"contracts/structPractise.sol\":339:426  function getMovie() public view returns (Movie memory ){\r... */\n    tag_10:\n        /* \"contracts/structPractise.sol\":380:392  Movie memory */\n      tag_17\n      tag_18\n      jump\t// in\n    tag_17:\n        /* \"contracts/structPractise.sol\":412:417  movie */\n      0x00\n        /* \"contracts/structPractise.sol\":405:417  return movie */\n      mload(0x40)\n      dup1\n      0x60\n      add\n      0x40\n      mstore\n      swap1\n      dup2\n      0x00\n      dup3\n      add\n      dup1\n      sload\n      tag_20\n      swap1\n      tag_21\n      jump\t// in\n    tag_20:\n      dup1\n      0x1f\n      add\n      0x20\n      dup1\n      swap2\n      div\n      mul\n      0x20\n      add\n      mload(0x40)\n      swap1\n      dup2\n      add\n      0x40\n      mstore\n      dup1\n      swap3\n      swap2\n      swap1\n      dup2\n      dup2\n      mstore\n      0x20\n      add\n      dup3\n      dup1\n      sload\n      tag_22\n      swap1\n      tag_21\n      jump\t// in\n    tag_22:\n      dup1\n      iszero\n      tag_23\n      jumpi\n      dup1\n      0x1f\n      lt\n      tag_24\n      jumpi\n      0x0100\n      dup1\n      dup4\n      sload\n      div\n      mul\n      dup4\n      mstore\n      swap2\n      0x20\n      add\n      swap2\n      jump(tag_23)\n    tag_24:\n      dup3\n      add\n      swap2\n      swap1\n      0x00\n      mstore\n      keccak256(0x00, 0x20)\n      swap1\n    tag_25:\n      dup2\n      sload\n      dup2\n      mstore\n      swap1\n      0x01\n      add\n      swap1\n      0x20\n      add\n      dup1\n      dup4\n      gt\n      tag_25\n      jumpi\n      dup3\n      swap1\n      sub\n      0x1f\n      and\n      dup3\n      add\n      swap2\n    tag_23:\n      pop\n      pop\n      pop\n      pop\n      pop\n      dup2\n      mstore\n      0x20\n      add\n      0x01\n      dup3\n      add\n      sload\n      dup2\n      mstore\n      0x20\n      add\n      0x02\n      dup3\n      add\n      dup1\n      sload\n      tag_26\n      swap1\n      tag_21\n      jump\t// in\n    tag_26:\n      dup1\n      0x1f\n      add\n      0x20\n      dup1\n      swap2\n      div\n      mul\n      0x20\n      add\n      mload(0x40)\n      swap1\n      dup2\n      add\n      0x40\n      mstore\n      dup1\n      swap3\n      swap2\n      swap1\n      dup2\n      dup2\n      mstore\n      0x20\n      add\n      dup3\n      dup1\n      sload\n      tag_27\n      swap1\n      tag_21\n      jump\t// in\n    tag_27:\n      dup1\n      iszero\n      tag_28\n      jumpi\n      dup1\n      0x1f\n      lt\n      tag_29\n      jumpi\n      0x0100\n      dup1\n      dup4\n      sload\n      div\n      mul\n      dup4\n      mstore\n      swap2\n      0x20\n      add\n      swap2\n      jump(tag_28)\n    tag_29:\n      dup3\n      add\n      swap2\n      swap1\n      0x00\n      mstore\n      keccak256(0x00, 0x20)\n      swap1\n    tag_30:\n      dup2\n      sload\n      dup2\n      mstore\n      swap1\n      0x01\n      add\n      swap1\n      0x20\n      add\n      dup1\n      dup4\n      gt\n      tag_30\n      jumpi\n      dup3\n      swap1\n      sub\n      0x1f\n      and\n      dup3\n      add\n      swap2\n    tag_28:\n      pop\n      pop\n      pop\n      pop\n      pop\n      dup2\n      mstore\n      pop\n      pop\n      swap1\n      pop\n        /* \"contracts/structPractise.sol\":339:426  function getMovie() public view returns (Movie memory ){\r... */\n      swap1\n      jump\t// out\n    tag_15:\n      dup3\n      dup1\n      sload\n      tag_31\n      swap1\n      tag_21\n      jump\t// in\n    tag_31:\n      swap1\n      0x00\n      mstore\n      keccak256(0x00, 0x20)\n      swap1\n      0x1f\n      add\n      0x20\n      swap1\n      div\n      dup2\n      add\n      swap3\n      dup3\n      tag_33\n      jumpi\n      0x00\n      dup6\n      sstore\n      jump(tag_32)\n    tag_33:\n      dup3\n      0x1f\n      lt\n      tag_34\n      jumpi\n      dup1\n      mload\n      not(0xff)\n      and\n      dup4\n      dup1\n      add\n      or\n      dup6\n      sstore\n      jump(tag_32)\n    tag_34:\n      dup3\n      dup1\n      add\n      0x01\n      add\n      dup6\n      sstore\n      dup3\n      iszero\n      tag_32\n      jumpi\n      swap2\n      dup3\n      add\n    tag_35:\n      dup3\n      dup2\n      gt\n      iszero\n      tag_36\n      jumpi\n      dup3\n      mload\n      dup3\n      sstore\n      swap2\n      0x20\n      add\n      swap2\n      swap1\n      0x01\n      add\n      swap1\n      jump(tag_35)\n    tag_36:\n    tag_32:\n      pop\n      swap1\n      pop\n      tag_37\n      swap2\n      swap1\n      tag_38\n      jump\t// in\n    tag_37:\n      pop\n      swap1\n      jump\t// out\n    tag_18:\n      mload(0x40)\n      dup1\n      0x60\n      add\n      0x40\n      mstore\n      dup1\n      0x60\n      dup2\n      mstore\n      0x20\n      add\n      0x00\n      dup2\n      mstore\n      0x20\n      add\n      0x60\n      dup2\n      mstore\n      pop\n      swap1\n      jump\t// out\n    tag_38:\n    tag_39:\n      dup1\n      dup3\n      gt\n      iszero\n      tag_40\n      jumpi\n      0x00\n      dup2\n      0x00\n      swap1\n      sstore\n      pop\n      0x01\n      add\n      jump(tag_39)\n    tag_40:\n      pop\n      swap1\n      jump\t// out\n        /* \"#utility.yul\":7:419   */\n    tag_42:\n        /* \"#utility.yul\":85:90   */\n      0x00\n        /* \"#utility.yul\":110:176   */\n      tag_44\n        /* \"#utility.yul\":126:175   */\n      tag_45\n        /* \"#utility.yul\":168:174   */\n      dup5\n        /* \"#utility.yul\":126:175   */\n      tag_46\n      jump\t// in\n    tag_45:\n        /* \"#utility.yul\":110:176   */\n      tag_47\n      jump\t// in\n    tag_44:\n        /* \"#utility.yul\":101:176   */\n      swap1\n      pop\n        /* \"#utility.yul\":199:205   */\n      dup3\n        /* \"#utility.yul\":192:197   */\n      dup2\n        /* \"#utility.yul\":185:206   */\n      mstore\n        /* \"#utility.yul\":237:241   */\n      0x20\n        /* \"#utility.yul\":230:235   */\n      dup2\n        /* \"#utility.yul\":226:242   */\n      add\n        /* \"#utility.yul\":275:278   */\n      dup5\n        /* \"#utility.yul\":266:272   */\n      dup5\n        /* \"#utility.yul\":261:264   */\n      dup5\n        /* \"#utility.yul\":257:273   */\n      add\n        /* \"#utility.yul\":254:279   */\n      gt\n        /* \"#utility.yul\":251:363   */\n      iszero\n      tag_48\n      jumpi\n        /* \"#utility.yul\":282:361   */\n      tag_49\n      tag_50\n      jump\t// in\n    tag_49:\n        /* \"#utility.yul\":251:363   */\n    tag_48:\n        /* \"#utility.yul\":372:413   */\n      tag_51\n        /* \"#utility.yul\":406:412   */\n      dup5\n        /* \"#utility.yul\":401:404   */\n      dup3\n        /* \"#utility.yul\":396:399   */\n      dup6\n        /* \"#utility.yul\":372:413   */\n      tag_52\n      jump\t// in\n    tag_51:\n        /* \"#utility.yul\":91:419   */\n      pop\n        /* \"#utility.yul\":7:419   */\n      swap4\n      swap3\n      pop\n      pop\n      pop\n      jump\t// out\n        /* \"#utility.yul\":439:779   */\n    tag_53:\n        /* \"#utility.yul\":495:500   */\n      0x00\n        /* \"#utility.yul\":544:547   */\n      dup3\n        /* \"#utility.yul\":537:541   */\n      0x1f\n        /* \"#utility.yul\":529:535   */\n      dup4\n        /* \"#utility.yul\":525:542   */\n      add\n        /* \"#utility.yul\":521:548   */\n      slt\n        /* \"#utility.yul\":511:633   */\n      tag_55\n      jumpi\n        /* \"#utility.yul\":552:631   */\n      tag_56\n      tag_57\n      jump\t// in\n    tag_56:\n        /* \"#utility.yul\":511:633   */\n    tag_55:\n        /* \"#utility.yul\":669:675   */\n      dup2\n        /* \"#utility.yul\":656:676   */\n      calldataload\n        /* \"#utility.yul\":694:773   */\n      tag_58\n        /* \"#utility.yul\":769:772   */\n      dup5\n        /* \"#utility.yul\":761:767   */\n      dup3\n        /* \"#utility.yul\":754:758   */\n      0x20\n        /* \"#utility.yul\":746:752   */\n      dup7\n        /* \"#utility.yul\":742:759   */\n      add\n        /* \"#utility.yul\":694:773   */\n      tag_42\n      jump\t// in\n    tag_58:\n        /* \"#utility.yul\":685:773   */\n      swap2\n      pop\n        /* \"#utility.yul\":501:779   */\n      pop\n        /* \"#utility.yul\":439:779   */\n      swap3\n      swap2\n      pop\n      pop\n      jump\t// out\n        /* \"#utility.yul\":785:924   */\n    tag_59:\n        /* \"#utility.yul\":831:836   */\n      0x00\n        /* \"#utility.yul\":869:875   */\n      dup2\n        /* \"#utility.yul\":856:876   */\n      calldataload\n        /* \"#utility.yul\":847:876   */\n      swap1\n      pop\n        /* \"#utility.yul\":885:918   */\n      tag_61\n        /* \"#utility.yul\":912:917   */\n      dup2\n        /* \"#utility.yul\":885:918   */\n      tag_62\n      jump\t// in\n    tag_61:\n        /* \"#utility.yul\":785:924   */\n      swap3\n      swap2\n      pop\n      pop\n      jump\t// out\n        /* \"#utility.yul\":930:1909   */\n    tag_7:\n        /* \"#utility.yul\":1027:1033   */\n      0x00\n        /* \"#utility.yul\":1035:1041   */\n      dup1\n        /* \"#utility.yul\":1043:1049   */\n      0x00\n        /* \"#utility.yul\":1092:1094   */\n      0x60\n        /* \"#utility.yul\":1080:1089   */\n      dup5\n        /* \"#utility.yul\":1071:1078   */\n      dup7\n        /* \"#utility.yul\":1067:1090   */\n      sub\n        /* \"#utility.yul\":1063:1095   */\n      slt\n        /* \"#utility.yul\":1060:1179   */\n      iszero\n      tag_64\n      jumpi\n        /* \"#utility.yul\":1098:1177   */\n      tag_65\n      tag_66\n      jump\t// in\n    tag_65:\n        /* \"#utility.yul\":1060:1179   */\n    tag_64:\n        /* \"#utility.yul\":1246:1247   */\n      0x00\n        /* \"#utility.yul\":1235:1244   */\n      dup5\n        /* \"#utility.yul\":1231:1248   */\n      add\n        /* \"#utility.yul\":1218:1249   */\n      calldataload\n        /* \"#utility.yul\":1276:1294   */\n      0xffffffffffffffff\n        /* \"#utility.yul\":1268:1274   */\n      dup2\n        /* \"#utility.yul\":1265:1295   */\n      gt\n        /* \"#utility.yul\":1262:1379   */\n      iszero\n      tag_67\n      jumpi\n        /* \"#utility.yul\":1298:1377   */\n      tag_68\n      tag_69\n      jump\t// in\n    tag_68:\n        /* \"#utility.yul\":1262:1379   */\n    tag_67:\n        /* \"#utility.yul\":1403:1466   */\n      tag_70\n        /* \"#utility.yul\":1458:1465   */\n      dup7\n        /* \"#utility.yul\":1449:1455   */\n      dup3\n        /* \"#utility.yul\":1438:1447   */\n      dup8\n        /* \"#utility.yul\":1434:1456   */\n      add\n        /* \"#utility.yul\":1403:1466   */\n      tag_53\n      jump\t// in\n    tag_70:\n        /* \"#utility.yul\":1393:1466   */\n      swap4\n      pop\n        /* \"#utility.yul\":1189:1476   */\n      pop\n        /* \"#utility.yul\":1515:1517   */\n      0x20\n        /* \"#utility.yul\":1541:1594   */\n      tag_71\n        /* \"#utility.yul\":1586:1593   */\n      dup7\n        /* \"#utility.yul\":1577:1583   */\n      dup3\n        /* \"#utility.yul\":1566:1575   */\n      dup8\n        /* \"#utility.yul\":1562:1584   */\n      add\n        /* \"#utility.yul\":1541:1594   */\n      tag_59\n      jump\t// in\n    tag_71:\n        /* \"#utility.yul\":1531:1594   */\n      swap3\n      pop\n        /* \"#utility.yul\":1486:1604   */\n      pop\n        /* \"#utility.yul\":1671:1673   */\n      0x40\n        /* \"#utility.yul\":1660:1669   */\n      dup5\n        /* \"#utility.yul\":1656:1674   */\n      add\n        /* \"#utility.yul\":1643:1675   */\n      calldataload\n        /* \"#utility.yul\":1702:1720   */\n      0xffffffffffffffff\n        /* \"#utility.yul\":1694:1700   */\n      dup2\n        /* \"#utility.yul\":1691:1721   */\n      gt\n        /* \"#utility.yul\":1688:1805   */\n      iszero\n      tag_72\n      jumpi\n        /* \"#utility.yul\":1724:1803   */\n      tag_73\n      tag_69\n      jump\t// in\n    tag_73:\n        /* \"#utility.yul\":1688:1805   */\n    tag_72:\n        /* \"#utility.yul\":1829:1892   */\n      tag_74\n        /* \"#utility.yul\":1884:1891   */\n      dup7\n        /* \"#utility.yul\":1875:1881   */\n      dup3\n        /* \"#utility.yul\":1864:1873   */\n      dup8\n        /* \"#utility.yul\":1860:1882   */\n      add\n        /* \"#utility.yul\":1829:1892   */\n      tag_53\n      jump\t// in\n    tag_74:\n        /* \"#utility.yul\":1819:1892   */\n      swap2\n      pop\n        /* \"#utility.yul\":1614:1902   */\n      pop\n        /* \"#utility.yul\":930:1909   */\n      swap3\n      pop\n      swap3\n      pop\n      swap3\n      jump\t// out\n        /* \"#utility.yul\":1915:2259   */\n    tag_75:\n        /* \"#utility.yul\":1993:1996   */\n      0x00\n        /* \"#utility.yul\":2021:2060   */\n      tag_77\n        /* \"#utility.yul\":2054:2059   */\n      dup3\n        /* \"#utility.yul\":2021:2060   */\n      tag_78\n      jump\t// in\n    tag_77:\n        /* \"#utility.yul\":2076:2137   */\n      tag_79\n        /* \"#utility.yul\":2130:2136   */\n      dup2\n        /* \"#utility.yul\":2125:2128   */\n      dup6\n        /* \"#utility.yul\":2076:2137   */\n      tag_80\n      jump\t// in\n    tag_79:\n        /* \"#utility.yul\":2069:2137   */\n      swap4\n      pop\n        /* \"#utility.yul\":2146:2198   */\n      tag_81\n        /* \"#utility.yul\":2191:2197   */\n      dup2\n        /* \"#utility.yul\":2186:2189   */\n      dup6\n        /* \"#utility.yul\":2179:2183   */\n      0x20\n        /* \"#utility.yul\":2172:2177   */\n      dup7\n        /* \"#utility.yul\":2168:2184   */\n      add\n        /* \"#utility.yul\":2146:2198   */\n      tag_82\n      jump\t// in\n    tag_81:\n        /* \"#utility.yul\":2223:2252   */\n      tag_83\n        /* \"#utility.yul\":2245:2251   */\n      dup2\n        /* \"#utility.yul\":2223:2252   */\n      tag_84\n      jump\t// in\n    tag_83:\n        /* \"#utility.yul\":2218:2221   */\n      dup5\n        /* \"#utility.yul\":2214:2253   */\n      add\n        /* \"#utility.yul\":2207:2253   */\n      swap2\n      pop\n        /* \"#utility.yul\":1997:2259   */\n      pop\n        /* \"#utility.yul\":1915:2259   */\n      swap3\n      swap2\n      pop\n      pop\n      jump\t// out\n        /* \"#utility.yul\":2331:3187   */\n    tag_85:\n        /* \"#utility.yul\":2440:2443   */\n      0x00\n        /* \"#utility.yul\":2476:2480   */\n      0x60\n        /* \"#utility.yul\":2471:2474   */\n      dup4\n        /* \"#utility.yul\":2467:2481   */\n      add\n        /* \"#utility.yul\":2564:2568   */\n      0x00\n        /* \"#utility.yul\":2557:2562   */\n      dup4\n        /* \"#utility.yul\":2553:2569   */\n      add\n        /* \"#utility.yul\":2547:2570   */\n      mload\n        /* \"#utility.yul\":2617:2620   */\n      dup5\n        /* \"#utility.yul\":2611:2615   */\n      dup3\n        /* \"#utility.yul\":2607:2621   */\n      sub\n        /* \"#utility.yul\":2600:2604   */\n      0x00\n        /* \"#utility.yul\":2595:2598   */\n      dup7\n        /* \"#utility.yul\":2591:2605   */\n      add\n        /* \"#utility.yul\":2584:2622   */\n      mstore\n        /* \"#utility.yul\":2643:2716   */\n      tag_87\n        /* \"#utility.yul\":2711:2715   */\n      dup3\n        /* \"#utility.yul\":2697:2709   */\n      dup3\n        /* \"#utility.yul\":2643:2716   */\n      tag_75\n      jump\t// in\n    tag_87:\n        /* \"#utility.yul\":2635:2716   */\n      swap2\n      pop\n        /* \"#utility.yul\":2491:2727   */\n      pop\n        /* \"#utility.yul\":2811:2815   */\n      0x20\n        /* \"#utility.yul\":2804:2809   */\n      dup4\n        /* \"#utility.yul\":2800:2816   */\n      add\n        /* \"#utility.yul\":2794:2817   */\n      mload\n        /* \"#utility.yul\":2830:2893   */\n      tag_88\n        /* \"#utility.yul\":2887:2891   */\n      0x20\n        /* \"#utility.yul\":2882:2885   */\n      dup7\n        /* \"#utility.yul\":2878:2892   */\n      add\n        /* \"#utility.yul\":2864:2876   */\n      dup3\n        /* \"#utility.yul\":2830:2893   */\n      tag_89\n      jump\t// in\n    tag_88:\n        /* \"#utility.yul\":2737:2903   */\n      pop\n        /* \"#utility.yul\":2997:3001   */\n      0x40\n        /* \"#utility.yul\":2990:2995   */\n      dup4\n        /* \"#utility.yul\":2986:3002   */\n      add\n        /* \"#utility.yul\":2980:3003   */\n      mload\n        /* \"#utility.yul\":3050:3053   */\n      dup5\n        /* \"#utility.yul\":3044:3048   */\n      dup3\n        /* \"#utility.yul\":3040:3054   */\n      sub\n        /* \"#utility.yul\":3033:3037   */\n      0x40\n        /* \"#utility.yul\":3028:3031   */\n      dup7\n        /* \"#utility.yul\":3024:3038   */\n      add\n        /* \"#utility.yul\":3017:3055   */\n      mstore\n        /* \"#utility.yul\":3076:3149   */\n      tag_90\n        /* \"#utility.yul\":3144:3148   */\n      dup3\n        /* \"#utility.yul\":3130:3142   */\n      dup3\n        /* \"#utility.yul\":3076:3149   */\n      tag_75\n      jump\t// in\n    tag_90:\n        /* \"#utility.yul\":3068:3149   */\n      swap2\n      pop\n        /* \"#utility.yul\":2913:3160   */\n      pop\n        /* \"#utility.yul\":3177:3181   */\n      dup1\n        /* \"#utility.yul\":3170:3181   */\n      swap2\n      pop\n        /* \"#utility.yul\":2445:3187   */\n      pop\n        /* \"#utility.yul\":2331:3187   */\n      swap3\n      swap2\n      pop\n      pop\n      jump\t// out\n        /* \"#utility.yul\":3193:3301   */\n    tag_89:\n        /* \"#utility.yul\":3270:3294   */\n      tag_92\n        /* \"#utility.yul\":3288:3293   */\n      dup2\n        /* \"#utility.yul\":3270:3294   */\n      tag_93\n      jump\t// in\n    tag_92:\n        /* \"#utility.yul\":3265:3268   */\n      dup3\n        /* \"#utility.yul\":3258:3295   */\n      mstore\n        /* \"#utility.yul\":3193:3301   */\n      pop\n      pop\n      jump\t// out\n        /* \"#utility.yul\":3307:3660   */\n    tag_12:\n        /* \"#utility.yul\":3440:3444   */\n      0x00\n        /* \"#utility.yul\":3478:3480   */\n      0x20\n        /* \"#utility.yul\":3467:3476   */\n      dup3\n        /* \"#utility.yul\":3463:3481   */\n      add\n        /* \"#utility.yul\":3455:3481   */\n      swap1\n      pop\n        /* \"#utility.yul\":3527:3536   */\n      dup2\n        /* \"#utility.yul\":3521:3525   */\n      dup2\n        /* \"#utility.yul\":3517:3537   */\n      sub\n        /* \"#utility.yul\":3513:3514   */\n      0x00\n        /* \"#utility.yul\":3502:3511   */\n      dup4\n        /* \"#utility.yul\":3498:3515   */\n      add\n        /* \"#utility.yul\":3491:3538   */\n      mstore\n        /* \"#utility.yul\":3555:3653   */\n      tag_95\n        /* \"#utility.yul\":3648:3652   */\n      dup2\n        /* \"#utility.yul\":3639:3645   */\n      dup5\n        /* \"#utility.yul\":3555:3653   */\n      tag_85\n      jump\t// in\n    tag_95:\n        /* \"#utility.yul\":3547:3653   */\n      swap1\n      pop\n        /* \"#utility.yul\":3307:3660   */\n      swap3\n      swap2\n      pop\n      pop\n      jump\t// out\n        /* \"#utility.yul\":3666:3795   */\n    tag_47:\n        /* \"#utility.yul\":3700:3706   */\n      0x00\n        /* \"#utility.yul\":3727:3747   */\n      tag_97\n      tag_98\n      jump\t// in\n    tag_97:\n        /* \"#utility.yul\":3717:3747   */\n      swap1\n      pop\n        /* \"#utility.yul\":3756:3789   */\n      tag_99\n        /* \"#utility.yul\":3784:3788   */\n      dup3\n        /* \"#utility.yul\":3776:3782   */\n      dup3\n        /* \"#utility.yul\":3756:3789   */\n      tag_100\n      jump\t// in\n    tag_99:\n        /* \"#utility.yul\":3666:3795   */\n      swap2\n      swap1\n      pop\n      jump\t// out\n        /* \"#utility.yul\":3801:3876   */\n    tag_98:\n        /* \"#utility.yul\":3834:3840   */\n      0x00\n        /* \"#utility.yul\":3867:3869   */\n      0x40\n        /* \"#utility.yul\":3861:3870   */\n      mload\n        /* \"#utility.yul\":3851:3870   */\n      swap1\n      pop\n        /* \"#utility.yul\":3801:3876   */\n      swap1\n      jump\t// out\n        /* \"#utility.yul\":3882:4190   */\n    tag_46:\n        /* \"#utility.yul\":3944:3948   */\n      0x00\n        /* \"#utility.yul\":4034:4052   */\n      0xffffffffffffffff\n        /* \"#utility.yul\":4026:4032   */\n      dup3\n        /* \"#utility.yul\":4023:4053   */\n      gt\n        /* \"#utility.yul\":4020:4076   */\n      iszero\n      tag_103\n      jumpi\n        /* \"#utility.yul\":4056:4074   */\n      tag_104\n      tag_105\n      jump\t// in\n    tag_104:\n        /* \"#utility.yul\":4020:4076   */\n    tag_103:\n        /* \"#utility.yul\":4094:4123   */\n      tag_106\n        /* \"#utility.yul\":4116:4122   */\n      dup3\n        /* \"#utility.yul\":4094:4123   */\n      tag_84\n      jump\t// in\n    tag_106:\n        /* \"#utility.yul\":4086:4123   */\n      swap1\n      pop\n        /* \"#utility.yul\":4178:4182   */\n      0x20\n        /* \"#utility.yul\":4172:4176   */\n      dup2\n        /* \"#utility.yul\":4168:4183   */\n      add\n        /* \"#utility.yul\":4160:4183   */\n      swap1\n      pop\n        /* \"#utility.yul\":3882:4190   */\n      swap2\n      swap1\n      pop\n      jump\t// out\n        /* \"#utility.yul\":4196:4295   */\n    tag_78:\n        /* \"#utility.yul\":4248:4254   */\n      0x00\n        /* \"#utility.yul\":4282:4287   */\n      dup2\n        /* \"#utility.yul\":4276:4288   */\n      mload\n        /* \"#utility.yul\":4266:4288   */\n      swap1\n      pop\n        /* \"#utility.yul\":4196:4295   */\n      swap2\n      swap1\n      pop\n      jump\t// out\n        /* \"#utility.yul\":4301:4460   */\n    tag_80:\n        /* \"#utility.yul\":4375:4386   */\n      0x00\n        /* \"#utility.yul\":4409:4415   */\n      dup3\n        /* \"#utility.yul\":4404:4407   */\n      dup3\n        /* \"#utility.yul\":4397:4416   */\n      mstore\n        /* \"#utility.yul\":4449:4453   */\n      0x20\n        /* \"#utility.yul\":4444:4447   */\n      dup3\n        /* \"#utility.yul\":4440:4454   */\n      add\n        /* \"#utility.yul\":4425:4454   */\n      swap1\n      pop\n        /* \"#utility.yul\":4301:4460   */\n      swap3\n      swap2\n      pop\n      pop\n      jump\t// out\n        /* \"#utility.yul\":4466:4543   */\n    tag_93:\n        /* \"#utility.yul\":4503:4510   */\n      0x00\n        /* \"#utility.yul\":4532:4537   */\n      dup2\n        /* \"#utility.yul\":4521:4537   */\n      swap1\n      pop\n        /* \"#utility.yul\":4466:4543   */\n      swap2\n      swap1\n      pop\n      jump\t// out\n        /* \"#utility.yul\":4549:4703   */\n    tag_52:\n        /* \"#utility.yul\":4633:4639   */\n      dup3\n        /* \"#utility.yul\":4628:4631   */\n      dup2\n        /* \"#utility.yul\":4623:4626   */\n      dup4\n        /* \"#utility.yul\":4610:4640   */\n      calldatacopy\n        /* \"#utility.yul\":4695:4696   */\n      0x00\n        /* \"#utility.yul\":4686:4692   */\n      dup4\n        /* \"#utility.yul\":4681:4684   */\n      dup4\n        /* \"#utility.yul\":4677:4693   */\n      add\n        /* \"#utility.yul\":4670:4697   */\n      mstore\n        /* \"#utility.yul\":4549:4703   */\n      pop\n      pop\n      pop\n      jump\t// out\n        /* \"#utility.yul\":4709:5016   */\n    tag_82:\n        /* \"#utility.yul\":4777:4778   */\n      0x00\n        /* \"#utility.yul\":4787:4900   */\n    tag_112:\n        /* \"#utility.yul\":4801:4807   */\n      dup4\n        /* \"#utility.yul\":4798:4799   */\n      dup2\n        /* \"#utility.yul\":4795:4808   */\n      lt\n        /* \"#utility.yul\":4787:4900   */\n      iszero\n      tag_114\n      jumpi\n        /* \"#utility.yul\":4886:4887   */\n      dup1\n        /* \"#utility.yul\":4881:4884   */\n      dup3\n        /* \"#utility.yul\":4877:4888   */\n      add\n        /* \"#utility.yul\":4871:4889   */\n      mload\n        /* \"#utility.yul\":4867:4868   */\n      dup2\n        /* \"#utility.yul\":4862:4865   */\n      dup5\n        /* \"#utility.yul\":4858:4869   */\n      add\n        /* \"#utility.yul\":4851:4890   */\n      mstore\n        /* \"#utility.yul\":4823:4825   */\n      0x20\n        /* \"#utility.yul\":4820:4821   */\n      dup2\n        /* \"#utility.yul\":4816:4826   */\n      add\n        /* \"#utility.yul\":4811:4826   */\n      swap1\n      pop\n        /* \"#utility.yul\":4787:4900   */\n      jump(tag_112)\n    tag_114:\n        /* \"#utility.yul\":4918:4924   */\n      dup4\n        /* \"#utility.yul\":4915:4916   */\n      dup2\n        /* \"#utility.yul\":4912:4925   */\n      gt\n        /* \"#utility.yul\":4909:5010   */\n      iszero\n      tag_115\n      jumpi\n        /* \"#utility.yul\":4998:4999   */\n      0x00\n        /* \"#utility.yul\":4989:4995   */\n      dup5\n        /* \"#utility.yul\":4984:4987   */\n      dup5\n        /* \"#utility.yul\":4980:4996   */\n      add\n        /* \"#utility.yul\":4973:5000   */\n      mstore\n        /* \"#utility.yul\":4909:5010   */\n    tag_115:\n        /* \"#utility.yul\":4758:5016   */\n      pop\n        /* \"#utility.yul\":4709:5016   */\n      pop\n      pop\n      pop\n      jump\t// out\n        /* \"#utility.yul\":5022:5342   */\n    tag_21:\n        /* \"#utility.yul\":5066:5072   */\n      0x00\n        /* \"#utility.yul\":5103:5104   */\n      0x02\n        /* \"#utility.yul\":5097:5101   */\n      dup3\n        /* \"#utility.yul\":5093:5105   */\n      div\n        /* \"#utility.yul\":5083:5105   */\n      swap1\n      pop\n        /* \"#utility.yul\":5150:5151   */\n      0x01\n        /* \"#utility.yul\":5144:5148   */\n      dup3\n        /* \"#utility.yul\":5140:5152   */\n      and\n        /* \"#utility.yul\":5171:5189   */\n      dup1\n        /* \"#utility.yul\":5161:5242   */\n      tag_117\n      jumpi\n        /* \"#utility.yul\":5227:5231   */\n      0x7f\n        /* \"#utility.yul\":5219:5225   */\n      dup3\n        /* \"#utility.yul\":5215:5232   */\n      and\n        /* \"#utility.yul\":5205:5232   */\n      swap2\n      pop\n        /* \"#utility.yul\":5161:5242   */\n    tag_117:\n        /* \"#utility.yul\":5289:5291   */\n      0x20\n        /* \"#utility.yul\":5281:5287   */\n      dup3\n        /* \"#utility.yul\":5278:5292   */\n      lt\n        /* \"#utility.yul\":5258:5276   */\n      dup2\n        /* \"#utility.yul\":5255:5293   */\n      eq\n        /* \"#utility.yul\":5252:5336   */\n      iszero\n      tag_118\n      jumpi\n        /* \"#utility.yul\":5308:5326   */\n      tag_119\n      tag_120\n      jump\t// in\n    tag_119:\n        /* \"#utility.yul\":5252:5336   */\n    tag_118:\n        /* \"#utility.yul\":5073:5342   */\n      pop\n        /* \"#utility.yul\":5022:5342   */\n      swap2\n      swap1\n      pop\n      jump\t// out\n        /* \"#utility.yul\":5348:5629   */\n    tag_100:\n        /* \"#utility.yul\":5431:5458   */\n      tag_122\n        /* \"#utility.yul\":5453:5457   */\n      dup3\n        /* \"#utility.yul\":5431:5458   */\n      tag_84\n      jump\t// in\n    tag_122:\n        /* \"#utility.yul\":5423:5429   */\n      dup2\n        /* \"#utility.yul\":5419:5459   */\n      add\n        /* \"#utility.yul\":5561:5567   */\n      dup2\n        /* \"#utility.yul\":5549:5559   */\n      dup2\n        /* \"#utility.yul\":5546:5568   */\n      lt\n        /* \"#utility.yul\":5525:5543   */\n      0xffffffffffffffff\n        /* \"#utility.yul\":5513:5523   */\n      dup3\n        /* \"#utility.yul\":5510:5544   */\n      gt\n        /* \"#utility.yul\":5507:5569   */\n      or\n        /* \"#utility.yul\":5504:5592   */\n      iszero\n      tag_123\n      jumpi\n        /* \"#utility.yul\":5572:5590   */\n      tag_124\n      tag_105\n      jump\t// in\n    tag_124:\n        /* \"#utility.yul\":5504:5592   */\n    tag_123:\n        /* \"#utility.yul\":5612:5622   */\n      dup1\n        /* \"#utility.yul\":5608:5610   */\n      0x40\n        /* \"#utility.yul\":5601:5623   */\n      mstore\n        /* \"#utility.yul\":5391:5629   */\n      pop\n        /* \"#utility.yul\":5348:5629   */\n      pop\n      pop\n      jump\t// out\n        /* \"#utility.yul\":5635:5815   */\n    tag_120:\n        /* \"#utility.yul\":5683:5760   */\n      0x4e487b7100000000000000000000000000000000000000000000000000000000\n        /* \"#utility.yul\":5680:5681   */\n      0x00\n        /* \"#utility.yul\":5673:5761   */\n      mstore\n        /* \"#utility.yul\":5780:5784   */\n      0x22\n        /* \"#utility.yul\":5777:5778   */\n      0x04\n        /* \"#utility.yul\":5770:5785   */\n      mstore\n        /* \"#utility.yul\":5804:5808   */\n      0x24\n        /* \"#utility.yul\":5801:5802   */\n      0x00\n        /* \"#utility.yul\":5794:5809   */\n      revert\n        /* \"#utility.yul\":5821:6001   */\n    tag_105:\n        /* \"#utility.yul\":5869:5946   */\n      0x4e487b7100000000000000000000000000000000000000000000000000000000\n        /* \"#utility.yul\":5866:5867   */\n      0x00\n        /* \"#utility.yul\":5859:5947   */\n      mstore\n        /* \"#utility.yul\":5966:5970   */\n      0x41\n        /* \"#utility.yul\":5963:5964   */\n      0x04\n        /* \"#utility.yul\":5956:5971   */\n      mstore\n        /* \"#utility.yul\":5990:5994   */\n      0x24\n        /* \"#utility.yul\":5987:5988   */\n      0x00\n        /* \"#utility.yul\":5980:5995   */\n      revert\n        /* \"#utility.yul\":6007:6124   */\n    tag_57:\n        /* \"#utility.yul\":6116:6117   */\n      0x00\n        /* \"#utility.yul\":6113:6114   */\n      dup1\n        /* \"#utility.yul\":6106:6118   */\n      revert\n        /* \"#utility.yul\":6130:6247   */\n    tag_50:\n        /* \"#utility.yul\":6239:6240   */\n      0x00\n        /* \"#utility.yul\":6236:6237   */\n      dup1\n        /* \"#utility.yul\":6229:6241   */\n      revert\n        /* \"#utility.yul\":6253:6370   */\n    tag_69:\n        /* \"#utility.yul\":6362:6363   */\n      0x00\n        /* \"#utility.yul\":6359:6360   */\n      dup1\n        /* \"#utility.yul\":6352:6364   */\n      revert\n        /* \"#utility.yul\":6376:6493   */\n    tag_66:\n        /* \"#utility.yul\":6485:6486   */\n      0x00\n        /* \"#utility.yul\":6482:6483   */\n      dup1\n        /* \"#utility.yul\":6475:6487   */\n      revert\n        /* \"#utility.yul\":6499:6601   */\n    tag_84:\n        /* \"#utility.yul\":6540:6546   */\n      0x00\n        /* \"#utility.yul\":6591:6593   */\n      0x1f\n        /* \"#utility.yul\":6587:6594   */\n      not\n        /* \"#utility.yul\":6582:6584   */\n      0x1f\n        /* \"#utility.yul\":6575:6580   */\n      dup4\n        /* \"#utility.yul\":6571:6585   */\n      add\n        /* \"#utility.yul\":6567:6595   */\n      and\n        /* \"#utility.yul\":6557:6595   */\n      swap1\n      pop\n        /* \"#utility.yul\":6499:6601   */\n      swap2\n      swap1\n      pop\n      jump\t// out\n        /* \"#utility.yul\":6607:6729   */\n    tag_62:\n        /* \"#utility.yul\":6680:6704   */\n      tag_133\n        /* \"#utility.yul\":6698:6703   */\n      dup2\n        /* \"#utility.yul\":6680:6704   */\n      tag_93\n      jump\t// in\n    tag_133:\n        /* \"#utility.yul\":6673:6678   */\n      dup2\n        /* \"#utility.yul\":6670:6705   */\n      eq\n        /* \"#utility.yul\":6660:6723   */\n      tag_134\n      jumpi\n        /* \"#utility.yul\":6719:6720   */\n      0x00\n        /* \"#utility.yul\":6716:6717   */\n      dup1\n        /* \"#utility.yul\":6709:6721   */\n      revert\n        /* \"#utility.yul\":6660:6723   */\n    tag_134:\n        /* \"#utility.yul\":6607:6729   */\n      pop\n      jump\t// out\n\n    auxdata: 0xa2646970667358221220c906aab6fdb31a083f0995735118383d58f6a0eef40fa89d882d710520a4633a64736f6c63430008070033\n}\n",
				"bytecode": {
					"linkReferences": {},
					"object": "608060405234801561001057600080fd5b506106ab806100206000396000f3fe608060405234801561001057600080fd5b50600436106100365760003560e01c80632cf1b1bf1461003b5780637b5f4eef14610057575b600080fd5b6100556004803603810190610050919061036e565b610075565b005b61005f6100dd565b60405161006c9190610498565b60405180910390f35b6040518060600160405280848152602001838152602001828152506000808201518160000190805190602001906100ad929190610225565b506020820151816001015560408201518160020190805190602001906100d4929190610225565b50905050505050565b6100e56102ab565b600060405180606001604052908160008201805461010290610578565b80601f016020809104026020016040519081016040528092919081815260200182805461012e90610578565b801561017b5780601f106101505761010080835404028352916020019161017b565b820191906000526020600020905b81548152906001019060200180831161015e57829003601f168201915b505050505081526020016001820154815260200160028201805461019e90610578565b80601f01602080910402602001604051908101604052809291908181526020018280546101ca90610578565b80156102175780601f106101ec57610100808354040283529160200191610217565b820191906000526020600020905b8154815290600101906020018083116101fa57829003601f168201915b505050505081525050905090565b82805461023190610578565b90600052602060002090601f016020900481019282610253576000855561029a565b82601f1061026c57805160ff191683800117855561029a565b8280016001018555821561029a579182015b8281111561029957825182559160200191906001019061027e565b5b5090506102a791906102cc565b5090565b60405180606001604052806060815260200160008152602001606081525090565b5b808211156102e55760008160009055506001016102cd565b5090565b60006102fc6102f7846104df565b6104ba565b9050828152602081018484840111156103185761031761063e565b5b610323848285610536565b509392505050565b600082601f8301126103405761033f610639565b5b81356103508482602086016102e9565b91505092915050565b6000813590506103688161065e565b92915050565b60008060006060848603121561038757610386610648565b5b600084013567ffffffffffffffff8111156103a5576103a4610643565b5b6103b18682870161032b565b93505060206103c286828701610359565b925050604084013567ffffffffffffffff8111156103e3576103e2610643565b5b6103ef8682870161032b565b9150509250925092565b600061040482610510565b61040e818561051b565b935061041e818560208601610545565b6104278161064d565b840191505092915050565b6000606083016000830151848203600086015261044f82826103f9565b91505060208301516104646020860182610489565b506040830151848203604086015261047c82826103f9565b9150508091505092915050565b6104928161052c565b82525050565b600060208201905081810360008301526104b28184610432565b905092915050565b60006104c46104d5565b90506104d082826105aa565b919050565b6000604051905090565b600067ffffffffffffffff8211156104fa576104f961060a565b5b6105038261064d565b9050602081019050919050565b600081519050919050565b600082825260208201905092915050565b6000819050919050565b82818337600083830152505050565b60005b83811015610563578082015181840152602081019050610548565b83811115610572576000848401525b50505050565b6000600282049050600182168061059057607f821691505b602082108114156105a4576105a36105db565b5b50919050565b6105b38261064d565b810181811067ffffffffffffffff821117156105d2576105d161060a565b5b80604052505050565b7f4e487b7100000000000000000000000000000000000000000000000000000000600052602260045260246000fd5b7f4e487b7100000000000000000000000000000000000000000000000000000000600052604160045260246000fd5b600080fd5b600080fd5b600080fd5b600080fd5b6000601f19601f8301169050919050565b6106678161052c565b811461067257600080fd5b5056fea2646970667358221220c906aab6fdb31a083f0995735118383d58f6a0eef40fa89d882d710520a4633a64736f6c63430008070033",
					"opcodes": "PUSH1 0x80 PUSH1 0x40 MSTORE CALLVALUE DUP1 ISZERO PUSH2 0x10 JUMPI PUSH1 0x0 DUP1 REVERT JUMPDEST POP PUSH2 0x6AB DUP1 PUSH2 0x20 PUSH1 0x0 CODECOPY PUSH1 0x0 RETURN INVALID PUSH1 0x80 PUSH1 0x40 MSTORE CALLVALUE DUP1 ISZERO PUSH2 0x10 JUMPI PUSH1 0x0 DUP1 REVERT JUMPDEST POP PUSH1 0x4 CALLDATASIZE LT PUSH2 0x36 JUMPI PUSH1 0x0 CALLDATALOAD PUSH1 0xE0 SHR DUP1 PUSH4 0x2CF1B1BF EQ PUSH2 0x3B JUMPI DUP1 PUSH4 0x7B5F4EEF EQ PUSH2 0x57 JUMPI JUMPDEST PUSH1 0x0 DUP1 REVERT JUMPDEST PUSH2 0x55 PUSH1 0x4 DUP1 CALLDATASIZE SUB DUP2 ADD SWAP1 PUSH2 0x50 SWAP2 SWAP1 PUSH2 0x36E JUMP JUMPDEST PUSH2 0x75 JUMP JUMPDEST STOP JUMPDEST PUSH2 0x5F PUSH2 0xDD JUMP JUMPDEST PUSH1 0x40 MLOAD PUSH2 0x6C SWAP2 SWAP1 PUSH2 0x498 JUMP JUMPDEST PUSH1 0x40 MLOAD DUP1 SWAP2 SUB SWAP1 RETURN JUMPDEST PUSH1 0x40 MLOAD DUP1 PUSH1 0x60 ADD PUSH1 0x40 MSTORE DUP1 DUP5 DUP2 MSTORE PUSH1 0x20 ADD DUP4 DUP2 MSTORE PUSH1 0x20 ADD DUP3 DUP2 MSTORE POP PUSH1 0x0 DUP1 DUP3 ADD MLOAD DUP2 PUSH1 0x0 ADD SWAP1 DUP1 MLOAD SWAP1 PUSH1 0x20 ADD SWAP1 PUSH2 0xAD SWAP3 SWAP2 SWAP1 PUSH2 0x225 JUMP JUMPDEST POP PUSH1 0x20 DUP3 ADD MLOAD DUP2 PUSH1 0x1 ADD SSTORE PUSH1 0x40 DUP3 ADD MLOAD DUP2 PUSH1 0x2 ADD SWAP1 DUP1 MLOAD SWAP1 PUSH1 0x20 ADD SWAP1 PUSH2 0xD4 SWAP3 SWAP2 SWAP1 PUSH2 0x225 JUMP JUMPDEST POP SWAP1 POP POP POP POP POP JUMP JUMPDEST PUSH2 0xE5 PUSH2 0x2AB JUMP JUMPDEST PUSH1 0x0 PUSH1 0x40 MLOAD DUP1 PUSH1 0x60 ADD PUSH1 0x40 MSTORE SWAP1 DUP2 PUSH1 0x0 DUP3 ADD DUP1 SLOAD PUSH2 0x102 SWAP1 PUSH2 0x578 JUMP JUMPDEST DUP1 PUSH1 0x1F ADD PUSH1 0x20 DUP1 SWAP2 DIV MUL PUSH1 0x20 ADD PUSH1 0x40 MLOAD SWAP1 DUP2 ADD PUSH1 0x40 MSTORE DUP1 SWAP3 SWAP2 SWAP1 DUP2 DUP2 MSTORE PUSH1 0x20 ADD DUP3 DUP1 SLOAD PUSH2 0x12E SWAP1 PUSH2 0x578 JUMP JUMPDEST DUP1 ISZERO PUSH2 0x17B JUMPI DUP1 PUSH1 0x1F LT PUSH2 0x150 JUMPI PUSH2 0x100 DUP1 DUP4 SLOAD DIV MUL DUP4 MSTORE SWAP2 PUSH1 0x20 ADD SWAP2 PUSH2 0x17B JUMP JUMPDEST DUP3 ADD SWAP2 SWAP1 PUSH1 0x0 MSTORE PUSH1 0x20 PUSH1 0x0 KECCAK256 SWAP1 JUMPDEST DUP2 SLOAD DUP2 MSTORE SWAP1 PUSH1 0x1 ADD SWAP1 PUSH1 0x20 ADD DUP1 DUP4 GT PUSH2 0x15E JUMPI DUP3 SWAP1 SUB PUSH1 0x1F AND DUP3 ADD SWAP2 JUMPDEST POP POP POP POP POP DUP2 MSTORE PUSH1 0x20 ADD PUSH1 0x1 DUP3 ADD SLOAD DUP2 MSTORE PUSH1 0x20 ADD PUSH1 0x2 DUP3 ADD DUP1 SLOAD PUSH2 0x19E SWAP1 PUSH2 0x578 JUMP JUMPDEST DUP1 PUSH1 0x1F ADD PUSH1 0x20 DUP1 SWAP2 DIV MUL PUSH1 0x20 ADD PUSH1 0x40 MLOAD SWAP1 DUP2 ADD PUSH1 0x40 MSTORE DUP1 SWAP3 SWAP2 SWAP1 DUP2 DUP2 MSTORE PUSH1 0x20 ADD DUP3 DUP1 SLOAD PUSH2 0x1CA SWAP1 PUSH2 0x578 JUMP JUMPDEST DUP1 ISZERO PUSH2 0x217 JUMPI DUP1 PUSH1 0x1F LT PUSH2 0x1EC JUMPI PUSH2 0x100 DUP1 DUP4 SLOAD DIV MUL DUP4 MSTORE SWAP2 PUSH1 0x20 ADD SWAP2 PUSH2 0x217 JUMP JUMPDEST DUP3 ADD SWAP2 SWAP1 PUSH1 0x0 MSTORE PUSH1 0x20 PUSH1 0x0 KECCAK256 SWAP1 JUMPDEST DUP2 SLOAD DUP2 MSTORE SWAP1 PUSH1 0x1 ADD SWAP1 PUSH1 0x20 ADD DUP1 DUP4 GT PUSH2 0x1FA JUMPI DUP3 SWAP1 SUB PUSH1 0x1F AND DUP3 ADD SWAP2 JUMPDEST POP POP POP POP POP DUP2 MSTORE POP POP SWAP1 POP SWAP1 JUMP JUMPDEST DUP3 DUP1 SLOAD PUSH2 0x231 SWAP1 PUSH2 0x578 JUMP JUMPDEST SWAP1 PUSH1 0x0 MSTORE PUSH1 0x20 PUSH1 0x0 KECCAK256 SWAP1 PUSH1 0x1F ADD PUSH1 0x20 SWAP1 DIV DUP2 ADD SWAP3 DUP3 PUSH2 0x253 JUMPI PUSH1 0x0 DUP6 SSTORE PUSH2 0x29A JUMP JUMPDEST DUP3 PUSH1 0x1F LT PUSH2 0x26C JUMPI DUP1 MLOAD PUSH1 0xFF NOT AND DUP4 DUP1 ADD OR DUP6 SSTORE PUSH2 0x29A JUMP JUMPDEST DUP3 DUP1 ADD PUSH1 0x1 ADD DUP6 SSTORE DUP3 ISZERO PUSH2 0x29A JUMPI SWAP2 DUP3 ADD JUMPDEST DUP3 DUP2 GT ISZERO PUSH2 0x299 JUMPI DUP3 MLOAD DUP3 SSTORE SWAP2 PUSH1 0x20 ADD SWAP2 SWAP1 PUSH1 0x1 ADD SWAP1 PUSH2 0x27E JUMP JUMPDEST JUMPDEST POP SWAP1 POP PUSH2 0x2A7 SWAP2 SWAP1 PUSH2 0x2CC JUMP JUMPDEST POP SWAP1 JUMP JUMPDEST PUSH1 0x40 MLOAD DUP1 PUSH1 0x60 ADD PUSH1 0x40 MSTORE DUP1 PUSH1 0x60 DUP2 MSTORE PUSH1 0x20 ADD PUSH1 0x0 DUP2 MSTORE PUSH1 0x20 ADD PUSH1 0x60 DUP2 MSTORE POP SWAP1 JUMP JUMPDEST JUMPDEST DUP1 DUP3 GT ISZERO PUSH2 0x2E5 JUMPI PUSH1 0x0 DUP2 PUSH1 0x0 SWAP1 SSTORE POP PUSH1 0x1 ADD PUSH2 0x2CD JUMP JUMPDEST POP SWAP1 JUMP JUMPDEST PUSH1 0x0 PUSH2 0x2FC PUSH2 0x2F7 DUP5 PUSH2 0x4DF JUMP JUMPDEST PUSH2 0x4BA JUMP JUMPDEST SWAP1 POP DUP3 DUP2 MSTORE PUSH1 0x20 DUP2 ADD DUP5 DUP5 DUP5 ADD GT ISZERO PUSH2 0x318 JUMPI PUSH2 0x317 PUSH2 0x63E JUMP JUMPDEST JUMPDEST PUSH2 0x323 DUP5 DUP3 DUP6 PUSH2 0x536 JUMP JUMPDEST POP SWAP4 SWAP3 POP POP POP JUMP JUMPDEST PUSH1 0x0 DUP3 PUSH1 0x1F DUP4 ADD SLT PUSH2 0x340 JUMPI PUSH2 0x33F PUSH2 0x639 JUMP JUMPDEST JUMPDEST DUP2 CALLDATALOAD PUSH2 0x350 DUP5 DUP3 PUSH1 0x20 DUP7 ADD PUSH2 0x2E9 JUMP JUMPDEST SWAP2 POP POP SWAP3 SWAP2 POP POP JUMP JUMPDEST PUSH1 0x0 DUP2 CALLDATALOAD SWAP1 POP PUSH2 0x368 DUP2 PUSH2 0x65E JUMP JUMPDEST SWAP3 SWAP2 POP POP JUMP JUMPDEST PUSH1 0x0 DUP1 PUSH1 0x0 PUSH1 0x60 DUP5 DUP7 SUB SLT ISZERO PUSH2 0x387 JUMPI PUSH2 0x386 PUSH2 0x648 JUMP JUMPDEST JUMPDEST PUSH1 0x0 DUP5 ADD CALLDATALOAD PUSH8 0xFFFFFFFFFFFFFFFF DUP2 GT ISZERO PUSH2 0x3A5 JUMPI PUSH2 0x3A4 PUSH2 0x643 JUMP JUMPDEST JUMPDEST PUSH2 0x3B1 DUP7 DUP3 DUP8 ADD PUSH2 0x32B JUMP JUMPDEST SWAP4 POP POP PUSH1 0x20 PUSH2 0x3C2 DUP7 DUP3 DUP8 ADD PUSH2 0x359 JUMP JUMPDEST SWAP3 POP POP PUSH1 0x40 DUP5 ADD CALLDATALOAD PUSH8 0xFFFFFFFFFFFFFFFF DUP2 GT ISZERO PUSH2 0x3E3 JUMPI PUSH2 0x3E2 PUSH2 0x643 JUMP JUMPDEST JUMPDEST PUSH2 0x3EF DUP7 DUP3 DUP8 ADD PUSH2 0x32B JUMP JUMPDEST SWAP2 POP POP SWAP3 POP SWAP3 POP SWAP3 JUMP JUMPDEST PUSH1 0x0 PUSH2 0x404 DUP3 PUSH2 0x510 JUMP JUMPDEST PUSH2 0x40E DUP2 DUP6 PUSH2 0x51B JUMP JUMPDEST SWAP4 POP PUSH2 0x41E DUP2 DUP6 PUSH1 0x20 DUP7 ADD PUSH2 0x545 JUMP JUMPDEST PUSH2 0x427 DUP2 PUSH2 0x64D JUMP JUMPDEST DUP5 ADD SWAP2 POP POP SWAP3 SWAP2 POP POP JUMP JUMPDEST PUSH1 0x0 PUSH1 0x60 DUP4 ADD PUSH1 0x0 DUP4 ADD MLOAD DUP5 DUP3 SUB PUSH1 0x0 DUP7 ADD MSTORE PUSH2 0x44F DUP3 DUP3 PUSH2 0x3F9 JUMP JUMPDEST SWAP2 POP POP PUSH1 0x20 DUP4 ADD MLOAD PUSH2 0x464 PUSH1 0x20 DUP7 ADD DUP3 PUSH2 0x489 JUMP JUMPDEST POP PUSH1 0x40 DUP4 ADD MLOAD DUP5 DUP3 SUB PUSH1 0x40 DUP7 ADD MSTORE PUSH2 0x47C DUP3 DUP3 PUSH2 0x3F9 JUMP JUMPDEST SWAP2 POP POP DUP1 SWAP2 POP POP SWAP3 SWAP2 POP POP JUMP JUMPDEST PUSH2 0x492 DUP2 PUSH2 0x52C JUMP JUMPDEST DUP3 MSTORE POP POP JUMP JUMPDEST PUSH1 0x0 PUSH1 0x20 DUP3 ADD SWAP1 POP DUP2 DUP2 SUB PUSH1 0x0 DUP4 ADD MSTORE PUSH2 0x4B2 DUP2 DUP5 PUSH2 0x432 JUMP JUMPDEST SWAP1 POP SWAP3 SWAP2 POP POP JUMP JUMPDEST PUSH1 0x0 PUSH2 0x4C4 PUSH2 0x4D5 JUMP JUMPDEST SWAP1 POP PUSH2 0x4D0 DUP3 DUP3 PUSH2 0x5AA JUMP JUMPDEST SWAP2 SWAP1 POP JUMP JUMPDEST PUSH1 0x0 PUSH1 0x40 MLOAD SWAP1 POP SWAP1 JUMP JUMPDEST PUSH1 0x0 PUSH8 0xFFFFFFFFFFFFFFFF DUP3 GT ISZERO PUSH2 0x4FA JUMPI PUSH2 0x4F9 PUSH2 0x60A JUMP JUMPDEST JUMPDEST PUSH2 0x503 DUP3 PUSH2 0x64D JUMP JUMPDEST SWAP1 POP PUSH1 0x20 DUP2 ADD SWAP1 POP SWAP2 SWAP1 POP JUMP JUMPDEST PUSH1 0x0 DUP2 MLOAD SWAP1 POP SWAP2 SWAP1 POP JUMP JUMPDEST PUSH1 0x0 DUP3 DUP3 MSTORE PUSH1 0x20 DUP3 ADD SWAP1 POP SWAP3 SWAP2 POP POP JUMP JUMPDEST PUSH1 0x0 DUP2 SWAP1 POP SWAP2 SWAP1 POP JUMP JUMPDEST DUP3 DUP2 DUP4 CALLDATACOPY PUSH1 0x0 DUP4 DUP4 ADD MSTORE POP POP POP JUMP JUMPDEST PUSH1 0x0 JUMPDEST DUP4 DUP2 LT ISZERO PUSH2 0x563 JUMPI DUP1 DUP3 ADD MLOAD DUP2 DUP5 ADD MSTORE PUSH1 0x20 DUP2 ADD SWAP1 POP PUSH2 0x548 JUMP JUMPDEST DUP4 DUP2 GT ISZERO PUSH2 0x572 JUMPI PUSH1 0x0 DUP5 DUP5 ADD MSTORE JUMPDEST POP POP POP POP JUMP JUMPDEST PUSH1 0x0 PUSH1 0x2 DUP3 DIV SWAP1 POP PUSH1 0x1 DUP3 AND DUP1 PUSH2 0x590 JUMPI PUSH1 0x7F DUP3 AND SWAP2 POP JUMPDEST PUSH1 0x20 DUP3 LT DUP2 EQ ISZERO PUSH2 0x5A4 JUMPI PUSH2 0x5A3 PUSH2 0x5DB JUMP JUMPDEST JUMPDEST POP SWAP2 SWAP1 POP JUMP JUMPDEST PUSH2 0x5B3 DUP3 PUSH2 0x64D JUMP JUMPDEST DUP2 ADD DUP2 DUP2 LT PUSH8 0xFFFFFFFFFFFFFFFF DUP3 GT OR ISZERO PUSH2 0x5D2 JUMPI PUSH2 0x5D1 PUSH2 0x60A JUMP JUMPDEST JUMPDEST DUP1 PUSH1 0x40 MSTORE POP POP POP JUMP JUMPDEST PUSH32 0x4E487B7100000000000000000000000000000000000000000000000000000000 PUSH1 0x0 MSTORE PUSH1 0x22 PUSH1 0x4 MSTORE PUSH1 0x24 PUSH1 0x0 REVERT JUMPDEST PUSH32 0x4E487B7100000000000000000000000000000000000000000000000000000000 PUSH1 0x0 MSTORE PUSH1 0x41 PUSH1 0x4 MSTORE PUSH1 0x24 PUSH1 0x0 REVERT JUMPDEST PUSH1 0x0 DUP1 REVERT JUMPDEST PUSH1 0x0 DUP1 REVERT JUMPDEST PUSH1 0x0 DUP1 REVERT JUMPDEST PUSH1 0x0 DUP1 REVERT JUMPDEST PUSH1 0x0 PUSH1 0x1F NOT PUSH1 0x1F DUP4 ADD AND SWAP1 POP SWAP2 SWAP1 POP JUMP JUMPDEST PUSH2 0x667 DUP2 PUSH2 0x52C JUMP JUMPDEST DUP2 EQ PUSH2 0x672 JUMPI PUSH1 0x0 DUP1 REVERT JUMPDEST POP JUMP INVALID LOG2 PUSH5 0x6970667358 0x22 SLT KECCAK256 0xC9 MOD 0xAA 0xB6 REVERT 0xB3 BYTE ADDMOD EXTCODEHASH MULMOD SWAP6 PUSH20 0x5118383D58F6A0EEF40FA89D882D710520A4633A PUSH5 0x736F6C6343 STOP ADDMOD SMOD STOP CALLER "
				},
				"gasEstimates": {
					"creation": {
						"codeDepositCost": "341400",
						"executionCost": "380",
						"totalCost": "341780"
					},
					"external": {
						"getMovie()": "infinite",
						"setAMovie(string,uint256,string)": "infinite"
					}
				},
				"methodIdentifiers": {
					"getMovie()": "7b5f4eef",
					"setAMovie(string,uint256,string)": "2cf1b1bf"
				}
			},
			"storageLayout": {
				"storage": [
					{
						"astId": 11,
						"contract": "contracts/structPractise.sol:StructPractice",
						"label": "movie",
						"offset": 0,
						"slot": "0",
						"type": "t_struct(Movie)8_storage"
					}
				],
				"types": {
					"t_string_storage": {
						"encoding": "bytes",
						"label": "string",
						"numberOfBytes": "32"
					},
					"t_struct(Movie)8_storage": {
						"encoding": "inplace",
						"label": "struct StructPractice.Movie",
						"members": [
							{
								"astId": 3,
								"contract": "contracts/structPractise.sol:StructPractice",
								"label": "title",
								"offset": 0,
								"slot": "0",
								"type": "t_string_storage"
							},
							{
								"astId": 5,
								"contract": "contracts/structPractise.sol:StructPractice",
								"label": "rating",
								"offset": 0,
								"slot": "1",
								"type": "t_uint256"
							},
							{
								"astId": 7,
								"contract": "contracts/structPractise.sol:StructPractice",
								"label": "yearOfProduction",
								"offset": 0,
								"slot": "2",
								"type": "t_string_storage"
							}
						],
						"numberOfBytes": "96"
					},
					"t_uint256": {
						"encoding": "inplace",
						"label": "uint256",
						"numberOfBytes": "32"
					}
				}
			},
			"userdoc": {
				"kind": "user",
				"methods": {},
				"version": 1
			}
		}
	}
}