{
	"contracts/oopconcepts.sol": {
		"Student": {
			"abi": [
				{
					"inputs": [
						{
							"internalType": "uint256",
							"name": "score",
							"type": "uint256"
						}
					],
					"stateMutability": "nonpayable",
					"type": "constructor"
				},
				{
					"inputs": [],
					"name": "getName",
					"outputs": [
						{
							"internalType": "string",
							"name": "",
							"type": "string"
						}
					],
					"stateMutability": "view",
					"type": "function"
				},
				{
					"inputs": [],
					"name": "getScore",
					"outputs": [
						{
							"internalType": "uint256",
							"name": "",
							"type": "uint256"
						}
					],
					"stateMutability": "view",
					"type": "function"
				},
				{
					"inputs": [
						{
							"internalType": "string",
							"name": "newname",
							"type": "string"
						}
					],
					"name": "setName",
					"outputs": [],
					"stateMutability": "nonpayable",
					"type": "function"
				}
			],
			"devdoc": {
				"kind": "dev",
				"methods": {},
				"version": 1
			},
			"evm": {
				"assembly": "    /* \"contracts/oopconcepts.sol\":577:815  contract Student is User(12, \"Owems\", '3434ewdsd', 34) {\r... */\n  mstore(0x40, 0x80)\n    /* \"contracts/oopconcepts.sol\":662:720  constructor(uint score){\r... */\n  callvalue\n  dup1\n  iszero\n  tag_1\n  jumpi\n  0x00\n  dup1\n  revert\ntag_1:\n  pop\n  mload(0x40)\n  sub(codesize, bytecodeSize)\n  dup1\n  bytecodeSize\n  dup4\n  codecopy\n  dup2\n  dup2\n  add\n  0x40\n  mstore\n  dup2\n  add\n  swap1\n  tag_2\n  swap2\n  swap1\n  tag_3\n  jump\t// in\ntag_2:\n    /* \"contracts/oopconcepts.sol\":602:604  12 */\n  0x0c\n    /* \"contracts/oopconcepts.sol\":157:377  constructor( uint salary, string memory userName, string memory wallet, uint ballance ){\r... */\n  mload(0x40)\n  dup1\n  0x40\n  add\n  0x40\n  mstore\n  dup1\n  0x05\n  dup2\n  mstore\n  0x20\n  add\n  0x4f77656d73000000000000000000000000000000000000000000000000000000\n  dup2\n  mstore\n  pop\n  mload(0x40)\n  dup1\n  0x40\n  add\n  0x40\n  mstore\n  dup1\n  0x09\n  dup2\n  mstore\n  0x20\n  add\n  0x3334333465776473640000000000000000000000000000000000000000000000\n  dup2\n  mstore\n  pop\n    /* \"contracts/oopconcepts.sol\":628:630  34 */\n  0x22\n    /* \"contracts/oopconcepts.sol\":266:272  salary */\n  dup4\n    /* \"contracts/oopconcepts.sol\":255:262  _salary */\n  0x00\n    /* \"contracts/oopconcepts.sol\":255:272  _salary  = salary */\n  dup2\n  swap1\n  sstore\n  pop\n    /* \"contracts/oopconcepts.sol\":295:303  userName */\n  dup3\n    /* \"contracts/oopconcepts.sol\":282:291  _userName */\n  0x01\n    /* \"contracts/oopconcepts.sol\":282:303  _userName  = userName */\n  swap1\n  dup1\n  mload\n  swap1\n  0x20\n  add\n  swap1\n  tag_7\n  swap3\n  swap2\n  swap1\n  tag_8\n  jump\t// in\ntag_7:\n  pop\n    /* \"contracts/oopconcepts.sol\":331:337  wallet */\n  dup2\n    /* \"contracts/oopconcepts.sol\":314:328  _walletAddress */\n  0x02\n    /* \"contracts/oopconcepts.sol\":314:337  _walletAddress = wallet */\n  swap1\n  dup1\n  mload\n  swap1\n  0x20\n  add\n  swap1\n  tag_9\n  swap3\n  swap2\n  swap1\n  tag_8\n  jump\t// in\ntag_9:\n  pop\n    /* \"contracts/oopconcepts.sol\":360:368  ballance */\n  dup1\n    /* \"contracts/oopconcepts.sol\":348:357  _ballance */\n  0x03\n    /* \"contracts/oopconcepts.sol\":348:368  _ballance = ballance */\n  dup2\n  swap1\n  sstore\n  pop\n    /* \"contracts/oopconcepts.sol\":157:377  constructor( uint salary, string memory userName, string memory wallet, uint ballance ){\r... */\n  pop\n  pop\n  pop\n  pop\n    /* \"contracts/oopconcepts.sol\":706:711  score */\n  dup1\n    /* \"contracts/oopconcepts.sol\":697:703  _score */\n  0x04\n    /* \"contracts/oopconcepts.sol\":697:711  _score = score */\n  dup2\n  swap1\n  sstore\n  pop\n    /* \"contracts/oopconcepts.sol\":662:720  constructor(uint score){\r... */\n  pop\n    /* \"contracts/oopconcepts.sol\":577:815  contract Student is User(12, \"Owems\", '3434ewdsd', 34) {\r... */\n  jump(tag_11)\ntag_8:\n  dup3\n  dup1\n  sload\n  tag_12\n  swap1\n  tag_13\n  jump\t// in\ntag_12:\n  swap1\n  0x00\n  mstore\n  keccak256(0x00, 0x20)\n  swap1\n  0x1f\n  add\n  0x20\n  swap1\n  div\n  dup2\n  add\n  swap3\n  dup3\n  tag_15\n  jumpi\n  0x00\n  dup6\n  sstore\n  jump(tag_14)\ntag_15:\n  dup3\n  0x1f\n  lt\n  tag_16\n  jumpi\n  dup1\n  mload\n  not(0xff)\n  and\n  dup4\n  dup1\n  add\n  or\n  dup6\n  sstore\n  jump(tag_14)\ntag_16:\n  dup3\n  dup1\n  add\n  0x01\n  add\n  dup6\n  sstore\n  dup3\n  iszero\n  tag_14\n  jumpi\n  swap2\n  dup3\n  add\ntag_17:\n  dup3\n  dup2\n  gt\n  iszero\n  tag_18\n  jumpi\n  dup3\n  mload\n  dup3\n  sstore\n  swap2\n  0x20\n  add\n  swap2\n  swap1\n  0x01\n  add\n  swap1\n  jump(tag_17)\ntag_18:\ntag_14:\n  pop\n  swap1\n  pop\n  tag_19\n  swap2\n  swap1\n  tag_20\n  jump\t// in\ntag_19:\n  pop\n  swap1\n  jump\t// out\ntag_20:\ntag_21:\n  dup1\n  dup3\n  gt\n  iszero\n  tag_22\n  jumpi\n  0x00\n  dup2\n  0x00\n  swap1\n  sstore\n  pop\n  0x01\n  add\n  jump(tag_21)\ntag_22:\n  pop\n  swap1\n  jump\t// out\n    /* \"#utility.yul\":7:150   */\ntag_24:\n    /* \"#utility.yul\":64:69   */\n  0x00\n    /* \"#utility.yul\":95:101   */\n  dup2\n    /* \"#utility.yul\":89:102   */\n  mload\n    /* \"#utility.yul\":80:102   */\n  swap1\n  pop\n    /* \"#utility.yul\":111:144   */\n  tag_26\n    /* \"#utility.yul\":138:143   */\n  dup2\n    /* \"#utility.yul\":111:144   */\n  tag_27\n  jump\t// in\ntag_26:\n    /* \"#utility.yul\":7:150   */\n  swap3\n  swap2\n  pop\n  pop\n  jump\t// out\n    /* \"#utility.yul\":156:507   */\ntag_3:\n    /* \"#utility.yul\":226:232   */\n  0x00\n    /* \"#utility.yul\":275:277   */\n  0x20\n    /* \"#utility.yul\":263:272   */\n  dup3\n    /* \"#utility.yul\":254:261   */\n  dup5\n    /* \"#utility.yul\":250:273   */\n  sub\n    /* \"#utility.yul\":246:278   */\n  slt\n    /* \"#utility.yul\":243:362   */\n  iszero\n  tag_29\n  jumpi\n    /* \"#utility.yul\":281:360   */\n  tag_30\n  tag_31\n  jump\t// in\ntag_30:\n    /* \"#utility.yul\":243:362   */\ntag_29:\n    /* \"#utility.yul\":401:402   */\n  0x00\n    /* \"#utility.yul\":426:490   */\n  tag_32\n    /* \"#utility.yul\":482:489   */\n  dup5\n    /* \"#utility.yul\":473:479   */\n  dup3\n    /* \"#utility.yul\":462:471   */\n  dup6\n    /* \"#utility.yul\":458:480   */\n  add\n    /* \"#utility.yul\":426:490   */\n  tag_24\n  jump\t// in\ntag_32:\n    /* \"#utility.yul\":416:490   */\n  swap2\n  pop\n    /* \"#utility.yul\":372:500   */\n  pop\n    /* \"#utility.yul\":156:507   */\n  swap3\n  swap2\n  pop\n  pop\n  jump\t// out\n    /* \"#utility.yul\":594:671   */\ntag_35:\n    /* \"#utility.yul\":631:638   */\n  0x00\n    /* \"#utility.yul\":660:665   */\n  dup2\n    /* \"#utility.yul\":649:665   */\n  swap1\n  pop\n    /* \"#utility.yul\":594:671   */\n  swap2\n  swap1\n  pop\n  jump\t// out\n    /* \"#utility.yul\":677:997   */\ntag_13:\n    /* \"#utility.yul\":721:727   */\n  0x00\n    /* \"#utility.yul\":758:759   */\n  0x02\n    /* \"#utility.yul\":752:756   */\n  dup3\n    /* \"#utility.yul\":748:760   */\n  div\n    /* \"#utility.yul\":738:760   */\n  swap1\n  pop\n    /* \"#utility.yul\":805:806   */\n  0x01\n    /* \"#utility.yul\":799:803   */\n  dup3\n    /* \"#utility.yul\":795:807   */\n  and\n    /* \"#utility.yul\":826:844   */\n  dup1\n    /* \"#utility.yul\":816:897   */\n  tag_38\n  jumpi\n    /* \"#utility.yul\":882:886   */\n  0x7f\n    /* \"#utility.yul\":874:880   */\n  dup3\n    /* \"#utility.yul\":870:887   */\n  and\n    /* \"#utility.yul\":860:887   */\n  swap2\n  pop\n    /* \"#utility.yul\":816:897   */\ntag_38:\n    /* \"#utility.yul\":944:946   */\n  0x20\n    /* \"#utility.yul\":936:942   */\n  dup3\n    /* \"#utility.yul\":933:947   */\n  lt\n    /* \"#utility.yul\":913:931   */\n  dup2\n    /* \"#utility.yul\":910:948   */\n  eq\n    /* \"#utility.yul\":907:991   */\n  iszero\n  tag_39\n  jumpi\n    /* \"#utility.yul\":963:981   */\n  tag_40\n  tag_41\n  jump\t// in\ntag_40:\n    /* \"#utility.yul\":907:991   */\ntag_39:\n    /* \"#utility.yul\":728:997   */\n  pop\n    /* \"#utility.yul\":677:997   */\n  swap2\n  swap1\n  pop\n  jump\t// out\n    /* \"#utility.yul\":1003:1183   */\ntag_41:\n    /* \"#utility.yul\":1051:1128   */\n  0x4e487b7100000000000000000000000000000000000000000000000000000000\n    /* \"#utility.yul\":1048:1049   */\n  0x00\n    /* \"#utility.yul\":1041:1129   */\n  mstore\n    /* \"#utility.yul\":1148:1152   */\n  0x22\n    /* \"#utility.yul\":1145:1146   */\n  0x04\n    /* \"#utility.yul\":1138:1153   */\n  mstore\n    /* \"#utility.yul\":1172:1176   */\n  0x24\n    /* \"#utility.yul\":1169:1170   */\n  0x00\n    /* \"#utility.yul\":1162:1177   */\n  revert\n    /* \"#utility.yul\":1312:1429   */\ntag_31:\n    /* \"#utility.yul\":1421:1422   */\n  0x00\n    /* \"#utility.yul\":1418:1419   */\n  dup1\n    /* \"#utility.yul\":1411:1423   */\n  revert\n    /* \"#utility.yul\":1435:1557   */\ntag_27:\n    /* \"#utility.yul\":1508:1532   */\n  tag_47\n    /* \"#utility.yul\":1526:1531   */\n  dup2\n    /* \"#utility.yul\":1508:1532   */\n  tag_35\n  jump\t// in\ntag_47:\n    /* \"#utility.yul\":1501:1506   */\n  dup2\n    /* \"#utility.yul\":1498:1533   */\n  eq\n    /* \"#utility.yul\":1488:1551   */\n  tag_48\n  jumpi\n    /* \"#utility.yul\":1547:1548   */\n  0x00\n    /* \"#utility.yul\":1544:1545   */\n  dup1\n    /* \"#utility.yul\":1537:1549   */\n  revert\n    /* \"#utility.yul\":1488:1551   */\ntag_48:\n    /* \"#utility.yul\":1435:1557   */\n  pop\n  jump\t// out\n    /* \"contracts/oopconcepts.sol\":577:815  contract Student is User(12, \"Owems\", '3434ewdsd', 34) {\r... */\ntag_11:\n  dataSize(sub_0)\n  dup1\n  dataOffset(sub_0)\n  0x00\n  codecopy\n  0x00\n  return\nstop\n\nsub_0: assembly {\n        /* \"contracts/oopconcepts.sol\":577:815  contract Student is User(12, \"Owems\", '3434ewdsd', 34) {\r... */\n      mstore(0x40, 0x80)\n      callvalue\n      dup1\n      iszero\n      tag_1\n      jumpi\n      0x00\n      dup1\n      revert\n    tag_1:\n      pop\n      jumpi(tag_2, lt(calldatasize, 0x04))\n      shr(0xe0, calldataload(0x00))\n      dup1\n      0x17d7de7c\n      eq\n      tag_3\n      jumpi\n      dup1\n      0xafd82067\n      eq\n      tag_4\n      jumpi\n      dup1\n      0xc47f0027\n      eq\n      tag_5\n      jumpi\n    tag_2:\n      0x00\n      dup1\n      revert\n        /* \"contracts/oopconcepts.sol\":385:475  function getName() public view returns (string memory) {\r... */\n    tag_3:\n      tag_6\n      tag_7\n      jump\t// in\n    tag_6:\n      mload(0x40)\n      tag_8\n      swap2\n      swap1\n      tag_9\n      jump\t// in\n    tag_8:\n      mload(0x40)\n      dup1\n      swap2\n      sub\n      swap1\n      return\n        /* \"contracts/oopconcepts.sol\":725:804  function getScore() public view returns (uint) {\r... */\n    tag_4:\n      tag_10\n      tag_11\n      jump\t// in\n    tag_10:\n      mload(0x40)\n      tag_12\n      swap2\n      swap1\n      tag_13\n      jump\t// in\n    tag_12:\n      mload(0x40)\n      dup1\n      swap2\n      sub\n      swap1\n      return\n        /* \"contracts/oopconcepts.sol\":483:569  function setName(string memory newname ) public {\r... */\n    tag_5:\n      tag_14\n      0x04\n      dup1\n      calldatasize\n      sub\n      dup2\n      add\n      swap1\n      tag_15\n      swap2\n      swap1\n      tag_16\n      jump\t// in\n    tag_15:\n      tag_17\n      jump\t// in\n    tag_14:\n      stop\n        /* \"contracts/oopconcepts.sol\":385:475  function getName() public view returns (string memory) {\r... */\n    tag_7:\n        /* \"contracts/oopconcepts.sol\":425:438  string memory */\n      0x60\n        /* \"contracts/oopconcepts.sol\":458:467  _userName */\n      0x01\n        /* \"contracts/oopconcepts.sol\":451:467  return _userName */\n      dup1\n      sload\n      tag_19\n      swap1\n      tag_20\n      jump\t// in\n    tag_19:\n      dup1\n      0x1f\n      add\n      0x20\n      dup1\n      swap2\n      div\n      mul\n      0x20\n      add\n      mload(0x40)\n      swap1\n      dup2\n      add\n      0x40\n      mstore\n      dup1\n      swap3\n      swap2\n      swap1\n      dup2\n      dup2\n      mstore\n      0x20\n      add\n      dup3\n      dup1\n      sload\n      tag_21\n      swap1\n      tag_20\n      jump\t// in\n    tag_21:\n      dup1\n      iszero\n      tag_22\n      jumpi\n      dup1\n      0x1f\n      lt\n      tag_23\n      jumpi\n      0x0100\n      dup1\n      dup4\n      sload\n      div\n      mul\n      dup4\n      mstore\n      swap2\n      0x20\n      add\n      swap2\n      jump(tag_22)\n    tag_23:\n      dup3\n      add\n      swap2\n      swap1\n      0x00\n      mstore\n      keccak256(0x00, 0x20)\n      swap1\n    tag_24:\n      dup2\n      sload\n      dup2\n      mstore\n      swap1\n      0x01\n      add\n      swap1\n      0x20\n      add\n      dup1\n      dup4\n      gt\n      tag_24\n      jumpi\n      dup3\n      swap1\n      sub\n      0x1f\n      and\n      dup3\n      add\n      swap2\n    tag_22:\n      pop\n      pop\n      pop\n      pop\n      pop\n      swap1\n      pop\n        /* \"contracts/oopconcepts.sol\":385:475  function getName() public view returns (string memory) {\r... */\n      swap1\n      jump\t// out\n        /* \"contracts/oopconcepts.sol\":725:804  function getScore() public view returns (uint) {\r... */\n    tag_11:\n        /* \"contracts/oopconcepts.sol\":766:770  uint */\n      0x00\n        /* \"contracts/oopconcepts.sol\":790:796  _score */\n      sload(0x04)\n        /* \"contracts/oopconcepts.sol\":783:796  return _score */\n      swap1\n      pop\n        /* \"contracts/oopconcepts.sol\":725:804  function getScore() public view returns (uint) {\r... */\n      swap1\n      jump\t// out\n        /* \"contracts/oopconcepts.sol\":483:569  function setName(string memory newname ) public {\r... */\n    tag_17:\n        /* \"contracts/oopconcepts.sol\":554:561  newname */\n      dup1\n        /* \"contracts/oopconcepts.sol\":542:551  _userName */\n      0x01\n        /* \"contracts/oopconcepts.sol\":542:561  _userName = newname */\n      swap1\n      dup1\n      mload\n      swap1\n      0x20\n      add\n      swap1\n      tag_27\n      swap3\n      swap2\n      swap1\n      tag_28\n      jump\t// in\n    tag_27:\n      pop\n        /* \"contracts/oopconcepts.sol\":483:569  function setName(string memory newname ) public {\r... */\n      pop\n      jump\t// out\n    tag_28:\n      dup3\n      dup1\n      sload\n      tag_29\n      swap1\n      tag_20\n      jump\t// in\n    tag_29:\n      swap1\n      0x00\n      mstore\n      keccak256(0x00, 0x20)\n      swap1\n      0x1f\n      add\n      0x20\n      swap1\n      div\n      dup2\n      add\n      swap3\n      dup3\n      tag_31\n      jumpi\n      0x00\n      dup6\n      sstore\n      jump(tag_30)\n    tag_31:\n      dup3\n      0x1f\n      lt\n      tag_32\n      jumpi\n      dup1\n      mload\n      not(0xff)\n      and\n      dup4\n      dup1\n      add\n      or\n      dup6\n      sstore\n      jump(tag_30)\n    tag_32:\n      dup3\n      dup1\n      add\n      0x01\n      add\n      dup6\n      sstore\n      dup3\n      iszero\n      tag_30\n      jumpi\n      swap2\n      dup3\n      add\n    tag_33:\n      dup3\n      dup2\n      gt\n      iszero\n      tag_34\n      jumpi\n      dup3\n      mload\n      dup3\n      sstore\n      swap2\n      0x20\n      add\n      swap2\n      swap1\n      0x01\n      add\n      swap1\n      jump(tag_33)\n    tag_34:\n    tag_30:\n      pop\n      swap1\n      pop\n      tag_35\n      swap2\n      swap1\n      tag_36\n      jump\t// in\n    tag_35:\n      pop\n      swap1\n      jump\t// out\n    tag_36:\n    tag_37:\n      dup1\n      dup3\n      gt\n      iszero\n      tag_38\n      jumpi\n      0x00\n      dup2\n      0x00\n      swap1\n      sstore\n      pop\n      0x01\n      add\n      jump(tag_37)\n    tag_38:\n      pop\n      swap1\n      jump\t// out\n        /* \"#utility.yul\":7:419   */\n    tag_40:\n        /* \"#utility.yul\":85:90   */\n      0x00\n        /* \"#utility.yul\":110:176   */\n      tag_42\n        /* \"#utility.yul\":126:175   */\n      tag_43\n        /* \"#utility.yul\":168:174   */\n      dup5\n        /* \"#utility.yul\":126:175   */\n      tag_44\n      jump\t// in\n    tag_43:\n        /* \"#utility.yul\":110:176   */\n      tag_45\n      jump\t// in\n    tag_42:\n        /* \"#utility.yul\":101:176   */\n      swap1\n      pop\n        /* \"#utility.yul\":199:205   */\n      dup3\n        /* \"#utility.yul\":192:197   */\n      dup2\n        /* \"#utility.yul\":185:206   */\n      mstore\n        /* \"#utility.yul\":237:241   */\n      0x20\n        /* \"#utility.yul\":230:235   */\n      dup2\n        /* \"#utility.yul\":226:242   */\n      add\n        /* \"#utility.yul\":275:278   */\n      dup5\n        /* \"#utility.yul\":266:272   */\n      dup5\n        /* \"#utility.yul\":261:264   */\n      dup5\n        /* \"#utility.yul\":257:273   */\n      add\n        /* \"#utility.yul\":254:279   */\n      gt\n        /* \"#utility.yul\":251:363   */\n      iszero\n      tag_46\n      jumpi\n        /* \"#utility.yul\":282:361   */\n      tag_47\n      tag_48\n      jump\t// in\n    tag_47:\n        /* \"#utility.yul\":251:363   */\n    tag_46:\n        /* \"#utility.yul\":372:413   */\n      tag_49\n        /* \"#utility.yul\":406:412   */\n      dup5\n        /* \"#utility.yul\":401:404   */\n      dup3\n        /* \"#utility.yul\":396:399   */\n      dup6\n        /* \"#utility.yul\":372:413   */\n      tag_50\n      jump\t// in\n    tag_49:\n        /* \"#utility.yul\":91:419   */\n      pop\n        /* \"#utility.yul\":7:419   */\n      swap4\n      swap3\n      pop\n      pop\n      pop\n      jump\t// out\n        /* \"#utility.yul\":439:779   */\n    tag_51:\n        /* \"#utility.yul\":495:500   */\n      0x00\n        /* \"#utility.yul\":544:547   */\n      dup3\n        /* \"#utility.yul\":537:541   */\n      0x1f\n        /* \"#utility.yul\":529:535   */\n      dup4\n        /* \"#utility.yul\":525:542   */\n      add\n        /* \"#utility.yul\":521:548   */\n      slt\n        /* \"#utility.yul\":511:633   */\n      tag_53\n      jumpi\n        /* \"#utility.yul\":552:631   */\n      tag_54\n      tag_55\n      jump\t// in\n    tag_54:\n        /* \"#utility.yul\":511:633   */\n    tag_53:\n        /* \"#utility.yul\":669:675   */\n      dup2\n        /* \"#utility.yul\":656:676   */\n      calldataload\n        /* \"#utility.yul\":694:773   */\n      tag_56\n        /* \"#utility.yul\":769:772   */\n      dup5\n        /* \"#utility.yul\":761:767   */\n      dup3\n        /* \"#utility.yul\":754:758   */\n      0x20\n        /* \"#utility.yul\":746:752   */\n      dup7\n        /* \"#utility.yul\":742:759   */\n      add\n        /* \"#utility.yul\":694:773   */\n      tag_40\n      jump\t// in\n    tag_56:\n        /* \"#utility.yul\":685:773   */\n      swap2\n      pop\n        /* \"#utility.yul\":501:779   */\n      pop\n        /* \"#utility.yul\":439:779   */\n      swap3\n      swap2\n      pop\n      pop\n      jump\t// out\n        /* \"#utility.yul\":785:1294   */\n    tag_16:\n        /* \"#utility.yul\":854:860   */\n      0x00\n        /* \"#utility.yul\":903:905   */\n      0x20\n        /* \"#utility.yul\":891:900   */\n      dup3\n        /* \"#utility.yul\":882:889   */\n      dup5\n        /* \"#utility.yul\":878:901   */\n      sub\n        /* \"#utility.yul\":874:906   */\n      slt\n        /* \"#utility.yul\":871:990   */\n      iszero\n      tag_58\n      jumpi\n        /* \"#utility.yul\":909:988   */\n      tag_59\n      tag_60\n      jump\t// in\n    tag_59:\n        /* \"#utility.yul\":871:990   */\n    tag_58:\n        /* \"#utility.yul\":1057:1058   */\n      0x00\n        /* \"#utility.yul\":1046:1055   */\n      dup3\n        /* \"#utility.yul\":1042:1059   */\n      add\n        /* \"#utility.yul\":1029:1060   */\n      calldataload\n        /* \"#utility.yul\":1087:1105   */\n      0xffffffffffffffff\n        /* \"#utility.yul\":1079:1085   */\n      dup2\n        /* \"#utility.yul\":1076:1106   */\n      gt\n        /* \"#utility.yul\":1073:1190   */\n      iszero\n      tag_61\n      jumpi\n        /* \"#utility.yul\":1109:1188   */\n      tag_62\n      tag_63\n      jump\t// in\n    tag_62:\n        /* \"#utility.yul\":1073:1190   */\n    tag_61:\n        /* \"#utility.yul\":1214:1277   */\n      tag_64\n        /* \"#utility.yul\":1269:1276   */\n      dup5\n        /* \"#utility.yul\":1260:1266   */\n      dup3\n        /* \"#utility.yul\":1249:1258   */\n      dup6\n        /* \"#utility.yul\":1245:1267   */\n      add\n        /* \"#utility.yul\":1214:1277   */\n      tag_51\n      jump\t// in\n    tag_64:\n        /* \"#utility.yul\":1204:1277   */\n      swap2\n      pop\n        /* \"#utility.yul\":1000:1287   */\n      pop\n        /* \"#utility.yul\":785:1294   */\n      swap3\n      swap2\n      pop\n      pop\n      jump\t// out\n        /* \"#utility.yul\":1300:1664   */\n    tag_65:\n        /* \"#utility.yul\":1388:1391   */\n      0x00\n        /* \"#utility.yul\":1416:1455   */\n      tag_67\n        /* \"#utility.yul\":1449:1454   */\n      dup3\n        /* \"#utility.yul\":1416:1455   */\n      tag_68\n      jump\t// in\n    tag_67:\n        /* \"#utility.yul\":1471:1542   */\n      tag_69\n        /* \"#utility.yul\":1535:1541   */\n      dup2\n        /* \"#utility.yul\":1530:1533   */\n      dup6\n        /* \"#utility.yul\":1471:1542   */\n      tag_70\n      jump\t// in\n    tag_69:\n        /* \"#utility.yul\":1464:1542   */\n      swap4\n      pop\n        /* \"#utility.yul\":1551:1603   */\n      tag_71\n        /* \"#utility.yul\":1596:1602   */\n      dup2\n        /* \"#utility.yul\":1591:1594   */\n      dup6\n        /* \"#utility.yul\":1584:1588   */\n      0x20\n        /* \"#utility.yul\":1577:1582   */\n      dup7\n        /* \"#utility.yul\":1573:1589   */\n      add\n        /* \"#utility.yul\":1551:1603   */\n      tag_72\n      jump\t// in\n    tag_71:\n        /* \"#utility.yul\":1628:1657   */\n      tag_73\n        /* \"#utility.yul\":1650:1656   */\n      dup2\n        /* \"#utility.yul\":1628:1657   */\n      tag_74\n      jump\t// in\n    tag_73:\n        /* \"#utility.yul\":1623:1626   */\n      dup5\n        /* \"#utility.yul\":1619:1658   */\n      add\n        /* \"#utility.yul\":1612:1658   */\n      swap2\n      pop\n        /* \"#utility.yul\":1392:1664   */\n      pop\n        /* \"#utility.yul\":1300:1664   */\n      swap3\n      swap2\n      pop\n      pop\n      jump\t// out\n        /* \"#utility.yul\":1670:1788   */\n    tag_75:\n        /* \"#utility.yul\":1757:1781   */\n      tag_77\n        /* \"#utility.yul\":1775:1780   */\n      dup2\n        /* \"#utility.yul\":1757:1781   */\n      tag_78\n      jump\t// in\n    tag_77:\n        /* \"#utility.yul\":1752:1755   */\n      dup3\n        /* \"#utility.yul\":1745:1782   */\n      mstore\n        /* \"#utility.yul\":1670:1788   */\n      pop\n      pop\n      jump\t// out\n        /* \"#utility.yul\":1794:2107   */\n    tag_9:\n        /* \"#utility.yul\":1907:1911   */\n      0x00\n        /* \"#utility.yul\":1945:1947   */\n      0x20\n        /* \"#utility.yul\":1934:1943   */\n      dup3\n        /* \"#utility.yul\":1930:1948   */\n      add\n        /* \"#utility.yul\":1922:1948   */\n      swap1\n      pop\n        /* \"#utility.yul\":1994:2003   */\n      dup2\n        /* \"#utility.yul\":1988:1992   */\n      dup2\n        /* \"#utility.yul\":1984:2004   */\n      sub\n        /* \"#utility.yul\":1980:1981   */\n      0x00\n        /* \"#utility.yul\":1969:1978   */\n      dup4\n        /* \"#utility.yul\":1965:1982   */\n      add\n        /* \"#utility.yul\":1958:2005   */\n      mstore\n        /* \"#utility.yul\":2022:2100   */\n      tag_80\n        /* \"#utility.yul\":2095:2099   */\n      dup2\n        /* \"#utility.yul\":2086:2092   */\n      dup5\n        /* \"#utility.yul\":2022:2100   */\n      tag_65\n      jump\t// in\n    tag_80:\n        /* \"#utility.yul\":2014:2100   */\n      swap1\n      pop\n        /* \"#utility.yul\":1794:2107   */\n      swap3\n      swap2\n      pop\n      pop\n      jump\t// out\n        /* \"#utility.yul\":2113:2335   */\n    tag_13:\n        /* \"#utility.yul\":2206:2210   */\n      0x00\n        /* \"#utility.yul\":2244:2246   */\n      0x20\n        /* \"#utility.yul\":2233:2242   */\n      dup3\n        /* \"#utility.yul\":2229:2247   */\n      add\n        /* \"#utility.yul\":2221:2247   */\n      swap1\n      pop\n        /* \"#utility.yul\":2257:2328   */\n      tag_82\n        /* \"#utility.yul\":2325:2326   */\n      0x00\n        /* \"#utility.yul\":2314:2323   */\n      dup4\n        /* \"#utility.yul\":2310:2327   */\n      add\n        /* \"#utility.yul\":2301:2307   */\n      dup5\n        /* \"#utility.yul\":2257:2328   */\n      tag_75\n      jump\t// in\n    tag_82:\n        /* \"#utility.yul\":2113:2335   */\n      swap3\n      swap2\n      pop\n      pop\n      jump\t// out\n        /* \"#utility.yul\":2341:2470   */\n    tag_45:\n        /* \"#utility.yul\":2375:2381   */\n      0x00\n        /* \"#utility.yul\":2402:2422   */\n      tag_84\n      tag_85\n      jump\t// in\n    tag_84:\n        /* \"#utility.yul\":2392:2422   */\n      swap1\n      pop\n        /* \"#utility.yul\":2431:2464   */\n      tag_86\n        /* \"#utility.yul\":2459:2463   */\n      dup3\n        /* \"#utility.yul\":2451:2457   */\n      dup3\n        /* \"#utility.yul\":2431:2464   */\n      tag_87\n      jump\t// in\n    tag_86:\n        /* \"#utility.yul\":2341:2470   */\n      swap2\n      swap1\n      pop\n      jump\t// out\n        /* \"#utility.yul\":2476:2551   */\n    tag_85:\n        /* \"#utility.yul\":2509:2515   */\n      0x00\n        /* \"#utility.yul\":2542:2544   */\n      0x40\n        /* \"#utility.yul\":2536:2545   */\n      mload\n        /* \"#utility.yul\":2526:2545   */\n      swap1\n      pop\n        /* \"#utility.yul\":2476:2551   */\n      swap1\n      jump\t// out\n        /* \"#utility.yul\":2557:2865   */\n    tag_44:\n        /* \"#utility.yul\":2619:2623   */\n      0x00\n        /* \"#utility.yul\":2709:2727   */\n      0xffffffffffffffff\n        /* \"#utility.yul\":2701:2707   */\n      dup3\n        /* \"#utility.yul\":2698:2728   */\n      gt\n        /* \"#utility.yul\":2695:2751   */\n      iszero\n      tag_90\n      jumpi\n        /* \"#utility.yul\":2731:2749   */\n      tag_91\n      tag_92\n      jump\t// in\n    tag_91:\n        /* \"#utility.yul\":2695:2751   */\n    tag_90:\n        /* \"#utility.yul\":2769:2798   */\n      tag_93\n        /* \"#utility.yul\":2791:2797   */\n      dup3\n        /* \"#utility.yul\":2769:2798   */\n      tag_74\n      jump\t// in\n    tag_93:\n        /* \"#utility.yul\":2761:2798   */\n      swap1\n      pop\n        /* \"#utility.yul\":2853:2857   */\n      0x20\n        /* \"#utility.yul\":2847:2851   */\n      dup2\n        /* \"#utility.yul\":2843:2858   */\n      add\n        /* \"#utility.yul\":2835:2858   */\n      swap1\n      pop\n        /* \"#utility.yul\":2557:2865   */\n      swap2\n      swap1\n      pop\n      jump\t// out\n        /* \"#utility.yul\":2871:2970   */\n    tag_68:\n        /* \"#utility.yul\":2923:2929   */\n      0x00\n        /* \"#utility.yul\":2957:2962   */\n      dup2\n        /* \"#utility.yul\":2951:2963   */\n      mload\n        /* \"#utility.yul\":2941:2963   */\n      swap1\n      pop\n        /* \"#utility.yul\":2871:2970   */\n      swap2\n      swap1\n      pop\n      jump\t// out\n        /* \"#utility.yul\":2976:3145   */\n    tag_70:\n        /* \"#utility.yul\":3060:3071   */\n      0x00\n        /* \"#utility.yul\":3094:3100   */\n      dup3\n        /* \"#utility.yul\":3089:3092   */\n      dup3\n        /* \"#utility.yul\":3082:3101   */\n      mstore\n        /* \"#utility.yul\":3134:3138   */\n      0x20\n        /* \"#utility.yul\":3129:3132   */\n      dup3\n        /* \"#utility.yul\":3125:3139   */\n      add\n        /* \"#utility.yul\":3110:3139   */\n      swap1\n      pop\n        /* \"#utility.yul\":2976:3145   */\n      swap3\n      swap2\n      pop\n      pop\n      jump\t// out\n        /* \"#utility.yul\":3151:3228   */\n    tag_78:\n        /* \"#utility.yul\":3188:3195   */\n      0x00\n        /* \"#utility.yul\":3217:3222   */\n      dup2\n        /* \"#utility.yul\":3206:3222   */\n      swap1\n      pop\n        /* \"#utility.yul\":3151:3228   */\n      swap2\n      swap1\n      pop\n      jump\t// out\n        /* \"#utility.yul\":3234:3388   */\n    tag_50:\n        /* \"#utility.yul\":3318:3324   */\n      dup3\n        /* \"#utility.yul\":3313:3316   */\n      dup2\n        /* \"#utility.yul\":3308:3311   */\n      dup4\n        /* \"#utility.yul\":3295:3325   */\n      calldatacopy\n        /* \"#utility.yul\":3380:3381   */\n      0x00\n        /* \"#utility.yul\":3371:3377   */\n      dup4\n        /* \"#utility.yul\":3366:3369   */\n      dup4\n        /* \"#utility.yul\":3362:3378   */\n      add\n        /* \"#utility.yul\":3355:3382   */\n      mstore\n        /* \"#utility.yul\":3234:3388   */\n      pop\n      pop\n      pop\n      jump\t// out\n        /* \"#utility.yul\":3394:3701   */\n    tag_72:\n        /* \"#utility.yul\":3462:3463   */\n      0x00\n        /* \"#utility.yul\":3472:3585   */\n    tag_99:\n        /* \"#utility.yul\":3486:3492   */\n      dup4\n        /* \"#utility.yul\":3483:3484   */\n      dup2\n        /* \"#utility.yul\":3480:3493   */\n      lt\n        /* \"#utility.yul\":3472:3585   */\n      iszero\n      tag_101\n      jumpi\n        /* \"#utility.yul\":3571:3572   */\n      dup1\n        /* \"#utility.yul\":3566:3569   */\n      dup3\n        /* \"#utility.yul\":3562:3573   */\n      add\n        /* \"#utility.yul\":3556:3574   */\n      mload\n        /* \"#utility.yul\":3552:3553   */\n      dup2\n        /* \"#utility.yul\":3547:3550   */\n      dup5\n        /* \"#utility.yul\":3543:3554   */\n      add\n        /* \"#utility.yul\":3536:3575   */\n      mstore\n        /* \"#utility.yul\":3508:3510   */\n      0x20\n        /* \"#utility.yul\":3505:3506   */\n      dup2\n        /* \"#utility.yul\":3501:3511   */\n      add\n        /* \"#utility.yul\":3496:3511   */\n      swap1\n      pop\n        /* \"#utility.yul\":3472:3585   */\n      jump(tag_99)\n    tag_101:\n        /* \"#utility.yul\":3603:3609   */\n      dup4\n        /* \"#utility.yul\":3600:3601   */\n      dup2\n        /* \"#utility.yul\":3597:3610   */\n      gt\n        /* \"#utility.yul\":3594:3695   */\n      iszero\n      tag_102\n      jumpi\n        /* \"#utility.yul\":3683:3684   */\n      0x00\n        /* \"#utility.yul\":3674:3680   */\n      dup5\n        /* \"#utility.yul\":3669:3672   */\n      dup5\n        /* \"#utility.yul\":3665:3681   */\n      add\n        /* \"#utility.yul\":3658:3685   */\n      mstore\n        /* \"#utility.yul\":3594:3695   */\n    tag_102:\n        /* \"#utility.yul\":3443:3701   */\n      pop\n        /* \"#utility.yul\":3394:3701   */\n      pop\n      pop\n      pop\n      jump\t// out\n        /* \"#utility.yul\":3707:4027   */\n    tag_20:\n        /* \"#utility.yul\":3751:3757   */\n      0x00\n        /* \"#utility.yul\":3788:3789   */\n      0x02\n        /* \"#utility.yul\":3782:3786   */\n      dup3\n        /* \"#utility.yul\":3778:3790   */\n      div\n        /* \"#utility.yul\":3768:3790   */\n      swap1\n      pop\n        /* \"#utility.yul\":3835:3836   */\n      0x01\n        /* \"#utility.yul\":3829:3833   */\n      dup3\n        /* \"#utility.yul\":3825:3837   */\n      and\n        /* \"#utility.yul\":3856:3874   */\n      dup1\n        /* \"#utility.yul\":3846:3927   */\n      tag_104\n      jumpi\n        /* \"#utility.yul\":3912:3916   */\n      0x7f\n        /* \"#utility.yul\":3904:3910   */\n      dup3\n        /* \"#utility.yul\":3900:3917   */\n      and\n        /* \"#utility.yul\":3890:3917   */\n      swap2\n      pop\n        /* \"#utility.yul\":3846:3927   */\n    tag_104:\n        /* \"#utility.yul\":3974:3976   */\n      0x20\n        /* \"#utility.yul\":3966:3972   */\n      dup3\n        /* \"#utility.yul\":3963:3977   */\n      lt\n        /* \"#utility.yul\":3943:3961   */\n      dup2\n        /* \"#utility.yul\":3940:3978   */\n      eq\n        /* \"#utility.yul\":3937:4021   */\n      iszero\n      tag_105\n      jumpi\n        /* \"#utility.yul\":3993:4011   */\n      tag_106\n      tag_107\n      jump\t// in\n    tag_106:\n        /* \"#utility.yul\":3937:4021   */\n    tag_105:\n        /* \"#utility.yul\":3758:4027   */\n      pop\n        /* \"#utility.yul\":3707:4027   */\n      swap2\n      swap1\n      pop\n      jump\t// out\n        /* \"#utility.yul\":4033:4314   */\n    tag_87:\n        /* \"#utility.yul\":4116:4143   */\n      tag_109\n        /* \"#utility.yul\":4138:4142   */\n      dup3\n        /* \"#utility.yul\":4116:4143   */\n      tag_74\n      jump\t// in\n    tag_109:\n        /* \"#utility.yul\":4108:4114   */\n      dup2\n        /* \"#utility.yul\":4104:4144   */\n      add\n        /* \"#utility.yul\":4246:4252   */\n      dup2\n        /* \"#utility.yul\":4234:4244   */\n      dup2\n        /* \"#utility.yul\":4231:4253   */\n      lt\n        /* \"#utility.yul\":4210:4228   */\n      0xffffffffffffffff\n        /* \"#utility.yul\":4198:4208   */\n      dup3\n        /* \"#utility.yul\":4195:4229   */\n      gt\n        /* \"#utility.yul\":4192:4254   */\n      or\n        /* \"#utility.yul\":4189:4277   */\n      iszero\n      tag_110\n      jumpi\n        /* \"#utility.yul\":4257:4275   */\n      tag_111\n      tag_92\n      jump\t// in\n    tag_111:\n        /* \"#utility.yul\":4189:4277   */\n    tag_110:\n        /* \"#utility.yul\":4297:4307   */\n      dup1\n        /* \"#utility.yul\":4293:4295   */\n      0x40\n        /* \"#utility.yul\":4286:4308   */\n      mstore\n        /* \"#utility.yul\":4076:4314   */\n      pop\n        /* \"#utility.yul\":4033:4314   */\n      pop\n      pop\n      jump\t// out\n        /* \"#utility.yul\":4320:4500   */\n    tag_107:\n        /* \"#utility.yul\":4368:4445   */\n      0x4e487b7100000000000000000000000000000000000000000000000000000000\n        /* \"#utility.yul\":4365:4366   */\n      0x00\n        /* \"#utility.yul\":4358:4446   */\n      mstore\n        /* \"#utility.yul\":4465:4469   */\n      0x22\n        /* \"#utility.yul\":4462:4463   */\n      0x04\n        /* \"#utility.yul\":4455:4470   */\n      mstore\n        /* \"#utility.yul\":4489:4493   */\n      0x24\n        /* \"#utility.yul\":4486:4487   */\n      0x00\n        /* \"#utility.yul\":4479:4494   */\n      revert\n        /* \"#utility.yul\":4506:4686   */\n    tag_92:\n        /* \"#utility.yul\":4554:4631   */\n      0x4e487b7100000000000000000000000000000000000000000000000000000000\n        /* \"#utility.yul\":4551:4552   */\n      0x00\n        /* \"#utility.yul\":4544:4632   */\n      mstore\n        /* \"#utility.yul\":4651:4655   */\n      0x41\n        /* \"#utility.yul\":4648:4649   */\n      0x04\n        /* \"#utility.yul\":4641:4656   */\n      mstore\n        /* \"#utility.yul\":4675:4679   */\n      0x24\n        /* \"#utility.yul\":4672:4673   */\n      0x00\n        /* \"#utility.yul\":4665:4680   */\n      revert\n        /* \"#utility.yul\":4692:4809   */\n    tag_55:\n        /* \"#utility.yul\":4801:4802   */\n      0x00\n        /* \"#utility.yul\":4798:4799   */\n      dup1\n        /* \"#utility.yul\":4791:4803   */\n      revert\n        /* \"#utility.yul\":4815:4932   */\n    tag_48:\n        /* \"#utility.yul\":4924:4925   */\n      0x00\n        /* \"#utility.yul\":4921:4922   */\n      dup1\n        /* \"#utility.yul\":4914:4926   */\n      revert\n        /* \"#utility.yul\":4938:5055   */\n    tag_63:\n        /* \"#utility.yul\":5047:5048   */\n      0x00\n        /* \"#utility.yul\":5044:5045   */\n      dup1\n        /* \"#utility.yul\":5037:5049   */\n      revert\n        /* \"#utility.yul\":5061:5178   */\n    tag_60:\n        /* \"#utility.yul\":5170:5171   */\n      0x00\n        /* \"#utility.yul\":5167:5168   */\n      dup1\n        /* \"#utility.yul\":5160:5172   */\n      revert\n        /* \"#utility.yul\":5184:5286   */\n    tag_74:\n        /* \"#utility.yul\":5225:5231   */\n      0x00\n        /* \"#utility.yul\":5276:5278   */\n      0x1f\n        /* \"#utility.yul\":5272:5279   */\n      not\n        /* \"#utility.yul\":5267:5269   */\n      0x1f\n        /* \"#utility.yul\":5260:5265   */\n      dup4\n        /* \"#utility.yul\":5256:5270   */\n      add\n        /* \"#utility.yul\":5252:5280   */\n      and\n        /* \"#utility.yul\":5242:5280   */\n      swap1\n      pop\n        /* \"#utility.yul\":5184:5286   */\n      swap2\n      swap1\n      pop\n      jump\t// out\n\n    auxdata: 0xa2646970667358221220fcf7dae093bb9effe670cddc35fd24eebeb8c16868e3787085ce2839b2b1701964736f6c63430008070033\n}\n",
				"bytecode": {
					"linkReferences": {},
					"object": "608060405234801561001057600080fd5b50604051610779380380610779833981810160405281019061003291906101a7565b600c6040518060400160405280600581526020017f4f77656d730000000000000000000000000000000000000000000000000000008152506040518060400160405280600981526020017f333433346577647364000000000000000000000000000000000000000000000081525060228360008190555082600190805190602001906100bf9291906100ef565b5081600290805190602001906100d69291906100ef565b508060038190555050505050806004819055505061025b565b8280546100fb906101de565b90600052602060002090601f01602090048101928261011d5760008555610164565b82601f1061013657805160ff1916838001178555610164565b82800160010185558215610164579182015b82811115610163578251825591602001919060010190610148565b5b5090506101719190610175565b5090565b5b8082111561018e576000816000905550600101610176565b5090565b6000815190506101a181610244565b92915050565b6000602082840312156101bd576101bc61023f565b5b60006101cb84828501610192565b91505092915050565b6000819050919050565b600060028204905060018216806101f657607f821691505b6020821081141561020a57610209610210565b5b50919050565b7f4e487b7100000000000000000000000000000000000000000000000000000000600052602260045260246000fd5b600080fd5b61024d816101d4565b811461025857600080fd5b50565b61050f8061026a6000396000f3fe608060405234801561001057600080fd5b50600436106100415760003560e01c806317d7de7c14610046578063afd8206714610064578063c47f002714610082575b600080fd5b61004e61009e565b60405161005b91906102f8565b60405180910390f35b61006c610130565b604051610079919061031a565b60405180910390f35b61009c60048036038101906100979190610267565b61013a565b005b6060600180546100ad906103f3565b80601f01602080910402602001604051908101604052809291908181526020018280546100d9906103f3565b80156101265780601f106100fb57610100808354040283529160200191610126565b820191906000526020600020905b81548152906001019060200180831161010957829003601f168201915b5050505050905090565b6000600454905090565b8060019080519060200190610150929190610154565b5050565b828054610160906103f3565b90600052602060002090601f01602090048101928261018257600085556101c9565b82601f1061019b57805160ff19168380011785556101c9565b828001600101855582156101c9579182015b828111156101c85782518255916020019190600101906101ad565b5b5090506101d691906101da565b5090565b5b808211156101f35760008160009055506001016101db565b5090565b600061020a6102058461035a565b610335565b905082815260208101848484011115610226576102256104b9565b5b6102318482856103b1565b509392505050565b600082601f83011261024e5761024d6104b4565b5b813561025e8482602086016101f7565b91505092915050565b60006020828403121561027d5761027c6104c3565b5b600082013567ffffffffffffffff81111561029b5761029a6104be565b5b6102a784828501610239565b91505092915050565b60006102bb8261038b565b6102c58185610396565b93506102d58185602086016103c0565b6102de816104c8565b840191505092915050565b6102f2816103a7565b82525050565b6000602082019050818103600083015261031281846102b0565b905092915050565b600060208201905061032f60008301846102e9565b92915050565b600061033f610350565b905061034b8282610425565b919050565b6000604051905090565b600067ffffffffffffffff82111561037557610374610485565b5b61037e826104c8565b9050602081019050919050565b600081519050919050565b600082825260208201905092915050565b6000819050919050565b82818337600083830152505050565b60005b838110156103de5780820151818401526020810190506103c3565b838111156103ed576000848401525b50505050565b6000600282049050600182168061040b57607f821691505b6020821081141561041f5761041e610456565b5b50919050565b61042e826104c8565b810181811067ffffffffffffffff8211171561044d5761044c610485565b5b80604052505050565b7f4e487b7100000000000000000000000000000000000000000000000000000000600052602260045260246000fd5b7f4e487b7100000000000000000000000000000000000000000000000000000000600052604160045260246000fd5b600080fd5b600080fd5b600080fd5b600080fd5b6000601f19601f830116905091905056fea2646970667358221220fcf7dae093bb9effe670cddc35fd24eebeb8c16868e3787085ce2839b2b1701964736f6c63430008070033",
					"opcodes": "PUSH1 0x80 PUSH1 0x40 MSTORE CALLVALUE DUP1 ISZERO PUSH2 0x10 JUMPI PUSH1 0x0 DUP1 REVERT JUMPDEST POP PUSH1 0x40 MLOAD PUSH2 0x779 CODESIZE SUB DUP1 PUSH2 0x779 DUP4 CODECOPY DUP2 DUP2 ADD PUSH1 0x40 MSTORE DUP2 ADD SWAP1 PUSH2 0x32 SWAP2 SWAP1 PUSH2 0x1A7 JUMP JUMPDEST PUSH1 0xC PUSH1 0x40 MLOAD DUP1 PUSH1 0x40 ADD PUSH1 0x40 MSTORE DUP1 PUSH1 0x5 DUP2 MSTORE PUSH1 0x20 ADD PUSH32 0x4F77656D73000000000000000000000000000000000000000000000000000000 DUP2 MSTORE POP PUSH1 0x40 MLOAD DUP1 PUSH1 0x40 ADD PUSH1 0x40 MSTORE DUP1 PUSH1 0x9 DUP2 MSTORE PUSH1 0x20 ADD PUSH32 0x3334333465776473640000000000000000000000000000000000000000000000 DUP2 MSTORE POP PUSH1 0x22 DUP4 PUSH1 0x0 DUP2 SWAP1 SSTORE POP DUP3 PUSH1 0x1 SWAP1 DUP1 MLOAD SWAP1 PUSH1 0x20 ADD SWAP1 PUSH2 0xBF SWAP3 SWAP2 SWAP1 PUSH2 0xEF JUMP JUMPDEST POP DUP2 PUSH1 0x2 SWAP1 DUP1 MLOAD SWAP1 PUSH1 0x20 ADD SWAP1 PUSH2 0xD6 SWAP3 SWAP2 SWAP1 PUSH2 0xEF JUMP JUMPDEST POP DUP1 PUSH1 0x3 DUP2 SWAP1 SSTORE POP POP POP POP POP DUP1 PUSH1 0x4 DUP2 SWAP1 SSTORE POP POP PUSH2 0x25B JUMP JUMPDEST DUP3 DUP1 SLOAD PUSH2 0xFB SWAP1 PUSH2 0x1DE JUMP JUMPDEST SWAP1 PUSH1 0x0 MSTORE PUSH1 0x20 PUSH1 0x0 KECCAK256 SWAP1 PUSH1 0x1F ADD PUSH1 0x20 SWAP1 DIV DUP2 ADD SWAP3 DUP3 PUSH2 0x11D JUMPI PUSH1 0x0 DUP6 SSTORE PUSH2 0x164 JUMP JUMPDEST DUP3 PUSH1 0x1F LT PUSH2 0x136 JUMPI DUP1 MLOAD PUSH1 0xFF NOT AND DUP4 DUP1 ADD OR DUP6 SSTORE PUSH2 0x164 JUMP JUMPDEST DUP3 DUP1 ADD PUSH1 0x1 ADD DUP6 SSTORE DUP3 ISZERO PUSH2 0x164 JUMPI SWAP2 DUP3 ADD JUMPDEST DUP3 DUP2 GT ISZERO PUSH2 0x163 JUMPI DUP3 MLOAD DUP3 SSTORE SWAP2 PUSH1 0x20 ADD SWAP2 SWAP1 PUSH1 0x1 ADD SWAP1 PUSH2 0x148 JUMP JUMPDEST JUMPDEST POP SWAP1 POP PUSH2 0x171 SWAP2 SWAP1 PUSH2 0x175 JUMP JUMPDEST POP SWAP1 JUMP JUMPDEST JUMPDEST DUP1 DUP3 GT ISZERO PUSH2 0x18E JUMPI PUSH1 0x0 DUP2 PUSH1 0x0 SWAP1 SSTORE POP PUSH1 0x1 ADD PUSH2 0x176 JUMP JUMPDEST POP SWAP1 JUMP JUMPDEST PUSH1 0x0 DUP2 MLOAD SWAP1 POP PUSH2 0x1A1 DUP2 PUSH2 0x244 JUMP JUMPDEST SWAP3 SWAP2 POP POP JUMP JUMPDEST PUSH1 0x0 PUSH1 0x20 DUP3 DUP5 SUB SLT ISZERO PUSH2 0x1BD JUMPI PUSH2 0x1BC PUSH2 0x23F JUMP JUMPDEST JUMPDEST PUSH1 0x0 PUSH2 0x1CB DUP5 DUP3 DUP6 ADD PUSH2 0x192 JUMP JUMPDEST SWAP2 POP POP SWAP3 SWAP2 POP POP JUMP JUMPDEST PUSH1 0x0 DUP2 SWAP1 POP SWAP2 SWAP1 POP JUMP JUMPDEST PUSH1 0x0 PUSH1 0x2 DUP3 DIV SWAP1 POP PUSH1 0x1 DUP3 AND DUP1 PUSH2 0x1F6 JUMPI PUSH1 0x7F DUP3 AND SWAP2 POP JUMPDEST PUSH1 0x20 DUP3 LT DUP2 EQ ISZERO PUSH2 0x20A JUMPI PUSH2 0x209 PUSH2 0x210 JUMP JUMPDEST JUMPDEST POP SWAP2 SWAP1 POP JUMP JUMPDEST PUSH32 0x4E487B7100000000000000000000000000000000000000000000000000000000 PUSH1 0x0 MSTORE PUSH1 0x22 PUSH1 0x4 MSTORE PUSH1 0x24 PUSH1 0x0 REVERT JUMPDEST PUSH1 0x0 DUP1 REVERT JUMPDEST PUSH2 0x24D DUP2 PUSH2 0x1D4 JUMP JUMPDEST DUP2 EQ PUSH2 0x258 JUMPI PUSH1 0x0 DUP1 REVERT JUMPDEST POP JUMP JUMPDEST PUSH2 0x50F DUP1 PUSH2 0x26A PUSH1 0x0 CODECOPY PUSH1 0x0 RETURN INVALID PUSH1 0x80 PUSH1 0x40 MSTORE CALLVALUE DUP1 ISZERO PUSH2 0x10 JUMPI PUSH1 0x0 DUP1 REVERT JUMPDEST POP PUSH1 0x4 CALLDATASIZE LT PUSH2 0x41 JUMPI PUSH1 0x0 CALLDATALOAD PUSH1 0xE0 SHR DUP1 PUSH4 0x17D7DE7C EQ PUSH2 0x46 JUMPI DUP1 PUSH4 0xAFD82067 EQ PUSH2 0x64 JUMPI DUP1 PUSH4 0xC47F0027 EQ PUSH2 0x82 JUMPI JUMPDEST PUSH1 0x0 DUP1 REVERT JUMPDEST PUSH2 0x4E PUSH2 0x9E JUMP JUMPDEST PUSH1 0x40 MLOAD PUSH2 0x5B SWAP2 SWAP1 PUSH2 0x2F8 JUMP JUMPDEST PUSH1 0x40 MLOAD DUP1 SWAP2 SUB SWAP1 RETURN JUMPDEST PUSH2 0x6C PUSH2 0x130 JUMP JUMPDEST PUSH1 0x40 MLOAD PUSH2 0x79 SWAP2 SWAP1 PUSH2 0x31A JUMP JUMPDEST PUSH1 0x40 MLOAD DUP1 SWAP2 SUB SWAP1 RETURN JUMPDEST PUSH2 0x9C PUSH1 0x4 DUP1 CALLDATASIZE SUB DUP2 ADD SWAP1 PUSH2 0x97 SWAP2 SWAP1 PUSH2 0x267 JUMP JUMPDEST PUSH2 0x13A JUMP JUMPDEST STOP JUMPDEST PUSH1 0x60 PUSH1 0x1 DUP1 SLOAD PUSH2 0xAD SWAP1 PUSH2 0x3F3 JUMP JUMPDEST DUP1 PUSH1 0x1F ADD PUSH1 0x20 DUP1 SWAP2 DIV MUL PUSH1 0x20 ADD PUSH1 0x40 MLOAD SWAP1 DUP2 ADD PUSH1 0x40 MSTORE DUP1 SWAP3 SWAP2 SWAP1 DUP2 DUP2 MSTORE PUSH1 0x20 ADD DUP3 DUP1 SLOAD PUSH2 0xD9 SWAP1 PUSH2 0x3F3 JUMP JUMPDEST DUP1 ISZERO PUSH2 0x126 JUMPI DUP1 PUSH1 0x1F LT PUSH2 0xFB JUMPI PUSH2 0x100 DUP1 DUP4 SLOAD DIV MUL DUP4 MSTORE SWAP2 PUSH1 0x20 ADD SWAP2 PUSH2 0x126 JUMP JUMPDEST DUP3 ADD SWAP2 SWAP1 PUSH1 0x0 MSTORE PUSH1 0x20 PUSH1 0x0 KECCAK256 SWAP1 JUMPDEST DUP2 SLOAD DUP2 MSTORE SWAP1 PUSH1 0x1 ADD SWAP1 PUSH1 0x20 ADD DUP1 DUP4 GT PUSH2 0x109 JUMPI DUP3 SWAP1 SUB PUSH1 0x1F AND DUP3 ADD SWAP2 JUMPDEST POP POP POP POP POP SWAP1 POP SWAP1 JUMP JUMPDEST PUSH1 0x0 PUSH1 0x4 SLOAD SWAP1 POP SWAP1 JUMP JUMPDEST DUP1 PUSH1 0x1 SWAP1 DUP1 MLOAD SWAP1 PUSH1 0x20 ADD SWAP1 PUSH2 0x150 SWAP3 SWAP2 SWAP1 PUSH2 0x154 JUMP JUMPDEST POP POP JUMP JUMPDEST DUP3 DUP1 SLOAD PUSH2 0x160 SWAP1 PUSH2 0x3F3 JUMP JUMPDEST SWAP1 PUSH1 0x0 MSTORE PUSH1 0x20 PUSH1 0x0 KECCAK256 SWAP1 PUSH1 0x1F ADD PUSH1 0x20 SWAP1 DIV DUP2 ADD SWAP3 DUP3 PUSH2 0x182 JUMPI PUSH1 0x0 DUP6 SSTORE PUSH2 0x1C9 JUMP JUMPDEST DUP3 PUSH1 0x1F LT PUSH2 0x19B JUMPI DUP1 MLOAD PUSH1 0xFF NOT AND DUP4 DUP1 ADD OR DUP6 SSTORE PUSH2 0x1C9 JUMP JUMPDEST DUP3 DUP1 ADD PUSH1 0x1 ADD DUP6 SSTORE DUP3 ISZERO PUSH2 0x1C9 JUMPI SWAP2 DUP3 ADD JUMPDEST DUP3 DUP2 GT ISZERO PUSH2 0x1C8 JUMPI DUP3 MLOAD DUP3 SSTORE SWAP2 PUSH1 0x20 ADD SWAP2 SWAP1 PUSH1 0x1 ADD SWAP1 PUSH2 0x1AD JUMP JUMPDEST JUMPDEST POP SWAP1 POP PUSH2 0x1D6 SWAP2 SWAP1 PUSH2 0x1DA JUMP JUMPDEST POP SWAP1 JUMP JUMPDEST JUMPDEST DUP1 DUP3 GT ISZERO PUSH2 0x1F3 JUMPI PUSH1 0x0 DUP2 PUSH1 0x0 SWAP1 SSTORE POP PUSH1 0x1 ADD PUSH2 0x1DB JUMP JUMPDEST POP SWAP1 JUMP JUMPDEST PUSH1 0x0 PUSH2 0x20A PUSH2 0x205 DUP5 PUSH2 0x35A JUMP JUMPDEST PUSH2 0x335 JUMP JUMPDEST SWAP1 POP DUP3 DUP2 MSTORE PUSH1 0x20 DUP2 ADD DUP5 DUP5 DUP5 ADD GT ISZERO PUSH2 0x226 JUMPI PUSH2 0x225 PUSH2 0x4B9 JUMP JUMPDEST JUMPDEST PUSH2 0x231 DUP5 DUP3 DUP6 PUSH2 0x3B1 JUMP JUMPDEST POP SWAP4 SWAP3 POP POP POP JUMP JUMPDEST PUSH1 0x0 DUP3 PUSH1 0x1F DUP4 ADD SLT PUSH2 0x24E JUMPI PUSH2 0x24D PUSH2 0x4B4 JUMP JUMPDEST JUMPDEST DUP2 CALLDATALOAD PUSH2 0x25E DUP5 DUP3 PUSH1 0x20 DUP7 ADD PUSH2 0x1F7 JUMP JUMPDEST SWAP2 POP POP SWAP3 SWAP2 POP POP JUMP JUMPDEST PUSH1 0x0 PUSH1 0x20 DUP3 DUP5 SUB SLT ISZERO PUSH2 0x27D JUMPI PUSH2 0x27C PUSH2 0x4C3 JUMP JUMPDEST JUMPDEST PUSH1 0x0 DUP3 ADD CALLDATALOAD PUSH8 0xFFFFFFFFFFFFFFFF DUP2 GT ISZERO PUSH2 0x29B JUMPI PUSH2 0x29A PUSH2 0x4BE JUMP JUMPDEST JUMPDEST PUSH2 0x2A7 DUP5 DUP3 DUP6 ADD PUSH2 0x239 JUMP JUMPDEST SWAP2 POP POP SWAP3 SWAP2 POP POP JUMP JUMPDEST PUSH1 0x0 PUSH2 0x2BB DUP3 PUSH2 0x38B JUMP JUMPDEST PUSH2 0x2C5 DUP2 DUP6 PUSH2 0x396 JUMP JUMPDEST SWAP4 POP PUSH2 0x2D5 DUP2 DUP6 PUSH1 0x20 DUP7 ADD PUSH2 0x3C0 JUMP JUMPDEST PUSH2 0x2DE DUP2 PUSH2 0x4C8 JUMP JUMPDEST DUP5 ADD SWAP2 POP POP SWAP3 SWAP2 POP POP JUMP JUMPDEST PUSH2 0x2F2 DUP2 PUSH2 0x3A7 JUMP JUMPDEST DUP3 MSTORE POP POP JUMP JUMPDEST PUSH1 0x0 PUSH1 0x20 DUP3 ADD SWAP1 POP DUP2 DUP2 SUB PUSH1 0x0 DUP4 ADD MSTORE PUSH2 0x312 DUP2 DUP5 PUSH2 0x2B0 JUMP JUMPDEST SWAP1 POP SWAP3 SWAP2 POP POP JUMP JUMPDEST PUSH1 0x0 PUSH1 0x20 DUP3 ADD SWAP1 POP PUSH2 0x32F PUSH1 0x0 DUP4 ADD DUP5 PUSH2 0x2E9 JUMP JUMPDEST SWAP3 SWAP2 POP POP JUMP JUMPDEST PUSH1 0x0 PUSH2 0x33F PUSH2 0x350 JUMP JUMPDEST SWAP1 POP PUSH2 0x34B DUP3 DUP3 PUSH2 0x425 JUMP JUMPDEST SWAP2 SWAP1 POP JUMP JUMPDEST PUSH1 0x0 PUSH1 0x40 MLOAD SWAP1 POP SWAP1 JUMP JUMPDEST PUSH1 0x0 PUSH8 0xFFFFFFFFFFFFFFFF DUP3 GT ISZERO PUSH2 0x375 JUMPI PUSH2 0x374 PUSH2 0x485 JUMP JUMPDEST JUMPDEST PUSH2 0x37E DUP3 PUSH2 0x4C8 JUMP JUMPDEST SWAP1 POP PUSH1 0x20 DUP2 ADD SWAP1 POP SWAP2 SWAP1 POP JUMP JUMPDEST PUSH1 0x0 DUP2 MLOAD SWAP1 POP SWAP2 SWAP1 POP JUMP JUMPDEST PUSH1 0x0 DUP3 DUP3 MSTORE PUSH1 0x20 DUP3 ADD SWAP1 POP SWAP3 SWAP2 POP POP JUMP JUMPDEST PUSH1 0x0 DUP2 SWAP1 POP SWAP2 SWAP1 POP JUMP JUMPDEST DUP3 DUP2 DUP4 CALLDATACOPY PUSH1 0x0 DUP4 DUP4 ADD MSTORE POP POP POP JUMP JUMPDEST PUSH1 0x0 JUMPDEST DUP4 DUP2 LT ISZERO PUSH2 0x3DE JUMPI DUP1 DUP3 ADD MLOAD DUP2 DUP5 ADD MSTORE PUSH1 0x20 DUP2 ADD SWAP1 POP PUSH2 0x3C3 JUMP JUMPDEST DUP4 DUP2 GT ISZERO PUSH2 0x3ED JUMPI PUSH1 0x0 DUP5 DUP5 ADD MSTORE JUMPDEST POP POP POP POP JUMP JUMPDEST PUSH1 0x0 PUSH1 0x2 DUP3 DIV SWAP1 POP PUSH1 0x1 DUP3 AND DUP1 PUSH2 0x40B JUMPI PUSH1 0x7F DUP3 AND SWAP2 POP JUMPDEST PUSH1 0x20 DUP3 LT DUP2 EQ ISZERO PUSH2 0x41F JUMPI PUSH2 0x41E PUSH2 0x456 JUMP JUMPDEST JUMPDEST POP SWAP2 SWAP1 POP JUMP JUMPDEST PUSH2 0x42E DUP3 PUSH2 0x4C8 JUMP JUMPDEST DUP2 ADD DUP2 DUP2 LT PUSH8 0xFFFFFFFFFFFFFFFF DUP3 GT OR ISZERO PUSH2 0x44D JUMPI PUSH2 0x44C PUSH2 0x485 JUMP JUMPDEST JUMPDEST DUP1 PUSH1 0x40 MSTORE POP POP POP JUMP JUMPDEST PUSH32 0x4E487B7100000000000000000000000000000000000000000000000000000000 PUSH1 0x0 MSTORE PUSH1 0x22 PUSH1 0x4 MSTORE PUSH1 0x24 PUSH1 0x0 REVERT JUMPDEST PUSH32 0x4E487B7100000000000000000000000000000000000000000000000000000000 PUSH1 0x0 MSTORE PUSH1 0x41 PUSH1 0x4 MSTORE PUSH1 0x24 PUSH1 0x0 REVERT JUMPDEST PUSH1 0x0 DUP1 REVERT JUMPDEST PUSH1 0x0 DUP1 REVERT JUMPDEST PUSH1 0x0 DUP1 REVERT JUMPDEST PUSH1 0x0 DUP1 REVERT JUMPDEST PUSH1 0x0 PUSH1 0x1F NOT PUSH1 0x1F DUP4 ADD AND SWAP1 POP SWAP2 SWAP1 POP JUMP INVALID LOG2 PUSH5 0x6970667358 0x22 SLT KECCAK256 0xFC 0xF7 0xDA 0xE0 SWAP4 0xBB SWAP15 SELFDESTRUCT 0xE6 PUSH17 0xCDDC35FD24EEBEB8C16868E3787085CE28 CODECOPY 0xB2 0xB1 PUSH17 0x1964736F6C634300080700330000000000 "
				},
				"gasEstimates": {
					"creation": {
						"codeDepositCost": "259000",
						"executionCost": "infinite",
						"totalCost": "infinite"
					},
					"external": {
						"getName()": "infinite",
						"getScore()": "2437",
						"setName(string)": "infinite"
					}
				},
				"methodIdentifiers": {
					"getName()": "17d7de7c",
					"getScore()": "afd82067",
					"setName(string)": "c47f0027"
				}
			},
			"storageLayout": {
				"storage": [
					{
						"astId": 3,
						"contract": "contracts/oopconcepts.sol:Student",
						"label": "_salary",
						"offset": 0,
						"slot": "0",
						"type": "t_uint256"
					},
					{
						"astId": 5,
						"contract": "contracts/oopconcepts.sol:Student",
						"label": "_userName",
						"offset": 0,
						"slot": "1",
						"type": "t_string_storage"
					},
					{
						"astId": 7,
						"contract": "contracts/oopconcepts.sol:Student",
						"label": "_walletAddress",
						"offset": 0,
						"slot": "2",
						"type": "t_string_storage"
					},
					{
						"astId": 9,
						"contract": "contracts/oopconcepts.sol:Student",
						"label": "_ballance",
						"offset": 0,
						"slot": "3",
						"type": "t_uint256"
					},
					{
						"astId": 64,
						"contract": "contracts/oopconcepts.sol:Student",
						"label": "_score",
						"offset": 0,
						"slot": "4",
						"type": "t_uint256"
					}
				],
				"types": {
					"t_string_storage": {
						"encoding": "bytes",
						"label": "string",
						"numberOfBytes": "32"
					},
					"t_uint256": {
						"encoding": "inplace",
						"label": "uint256",
						"numberOfBytes": "32"
					}
				}
			},
			"userdoc": {
				"kind": "user",
				"methods": {},
				"version": 1
			}
		}
	}
}