{
	"contracts/arraysPractice.sol": {
		"ArrayPractice": {
			"abi": [
				{
					"inputs": [
						{
							"internalType": "uint256",
							"name": "newNumber",
							"type": "uint256"
						}
					],
					"name": "addToList",
					"outputs": [],
					"stateMutability": "nonpayable",
					"type": "function"
				},
				{
					"inputs": [
						{
							"internalType": "uint256",
							"name": "index",
							"type": "uint256"
						}
					],
					"name": "deleteElement",
					"outputs": [],
					"stateMutability": "nonpayable",
					"type": "function"
				},
				{
					"inputs": [],
					"name": "getList",
					"outputs": [
						{
							"internalType": "uint256[]",
							"name": "",
							"type": "uint256[]"
						}
					],
					"stateMutability": "view",
					"type": "function"
				},
				{
					"inputs": [
						{
							"internalType": "uint256",
							"name": "",
							"type": "uint256"
						}
					],
					"name": "myList",
					"outputs": [
						{
							"internalType": "uint256",
							"name": "",
							"type": "uint256"
						}
					],
					"stateMutability": "view",
					"type": "function"
				}
			],
			"devdoc": {
				"kind": "dev",
				"methods": {},
				"version": 1
			},
			"evm": {
				"assembly": "    /* \"contracts/arraysPractice.sol\":37:441  contract ArrayPractice {\r... */\n  mstore(0x40, 0x80)\n  callvalue\n  dup1\n  iszero\n  tag_1\n  jumpi\n  0x00\n  dup1\n  revert\ntag_1:\n  pop\n  dataSize(sub_0)\n  dup1\n  dataOffset(sub_0)\n  0x00\n  codecopy\n  0x00\n  return\nstop\n\nsub_0: assembly {\n        /* \"contracts/arraysPractice.sol\":37:441  contract ArrayPractice {\r... */\n      mstore(0x40, 0x80)\n      callvalue\n      dup1\n      iszero\n      tag_1\n      jumpi\n      0x00\n      dup1\n      revert\n    tag_1:\n      pop\n      jumpi(tag_2, lt(calldatasize, 0x04))\n      shr(0xe0, calldataload(0x00))\n      dup1\n      0x57499698\n      eq\n      tag_3\n      jumpi\n      dup1\n      0x5c585462\n      eq\n      tag_4\n      jumpi\n      dup1\n      0x792de6f3\n      eq\n      tag_5\n      jumpi\n      dup1\n      0x942b765a\n      eq\n      tag_6\n      jumpi\n    tag_2:\n      0x00\n      dup1\n      revert\n        /* \"contracts/arraysPractice.sol\":273:352  function addToList(uint newNumber) public {\r... */\n    tag_3:\n      tag_7\n      0x04\n      dup1\n      calldatasize\n      sub\n      dup2\n      add\n      swap1\n      tag_8\n      swap2\n      swap1\n      tag_9\n      jump\t// in\n    tag_8:\n      tag_10\n      jump\t// in\n    tag_7:\n      stop\n        /* \"contracts/arraysPractice.sol\":69:90  uint [] public myList */\n    tag_4:\n      tag_11\n      0x04\n      dup1\n      calldatasize\n      sub\n      dup2\n      add\n      swap1\n      tag_12\n      swap2\n      swap1\n      tag_9\n      jump\t// in\n    tag_12:\n      tag_13\n      jump\t// in\n    tag_11:\n      mload(0x40)\n      tag_14\n      swap2\n      swap1\n      tag_15\n      jump\t// in\n    tag_14:\n      mload(0x40)\n      dup1\n      swap2\n      sub\n      swap1\n      return\n        /* \"contracts/arraysPractice.sol\":104:269  function deleteElement(uint index) public {\r... */\n    tag_5:\n      tag_16\n      0x04\n      dup1\n      calldatasize\n      sub\n      dup2\n      add\n      swap1\n      tag_17\n      swap2\n      swap1\n      tag_9\n      jump\t// in\n    tag_17:\n      tag_18\n      jump\t// in\n    tag_16:\n      stop\n        /* \"contracts/arraysPractice.sol\":356:436  function getList () public view returns( uint [] memory){\r... */\n    tag_6:\n      tag_19\n      tag_20\n      jump\t// in\n    tag_19:\n      mload(0x40)\n      tag_21\n      swap2\n      swap1\n      tag_22\n      jump\t// in\n    tag_21:\n      mload(0x40)\n      dup1\n      swap2\n      sub\n      swap1\n      return\n        /* \"contracts/arraysPractice.sol\":273:352  function addToList(uint newNumber) public {\r... */\n    tag_10:\n        /* \"contracts/arraysPractice.sol\":326:332  myList */\n      0x00\n        /* \"contracts/arraysPractice.sol\":338:347  newNumber */\n      dup2\n        /* \"contracts/arraysPractice.sol\":326:348  myList.push(newNumber) */\n      swap1\n      dup1\n      0x01\n      dup2\n      sload\n      add\n      dup1\n      dup3\n      sstore\n      dup1\n      swap2\n      pop\n      pop\n      0x01\n      swap1\n      sub\n      swap1\n      0x00\n      mstore\n      keccak256(0x00, 0x20)\n      add\n      0x00\n      swap1\n      swap2\n      swap1\n      swap2\n      swap1\n      swap2\n      pop\n      sstore\n        /* \"contracts/arraysPractice.sol\":273:352  function addToList(uint newNumber) public {\r... */\n      pop\n      jump\t// out\n        /* \"contracts/arraysPractice.sol\":69:90  uint [] public myList */\n    tag_13:\n      0x00\n      dup2\n      dup2\n      sload\n      dup2\n      lt\n      tag_25\n      jumpi\n      0x00\n      dup1\n      revert\n    tag_25:\n      swap1\n      0x00\n      mstore\n      keccak256(0x00, 0x20)\n      add\n      0x00\n      swap2\n      pop\n      swap1\n      pop\n      sload\n      dup2\n      jump\t// out\n        /* \"contracts/arraysPractice.sol\":104:269  function deleteElement(uint index) public {\r... */\n    tag_18:\n        /* \"contracts/arraysPractice.sol\":156:172  uint arrayLenght */\n      0x00\n        /* \"contracts/arraysPractice.sol\":175:181  myList */\n      dup1\n        /* \"contracts/arraysPractice.sol\":175:188  myList.length */\n      dup1\n      sload\n      swap1\n      pop\n        /* \"contracts/arraysPractice.sol\":156:188  uint arrayLenght = myList.length */\n      swap1\n      pop\n        /* \"contracts/arraysPractice.sol\":215:221  myList */\n      0x00\n        /* \"contracts/arraysPractice.sol\":235:236  1 */\n      0x01\n        /* \"contracts/arraysPractice.sol\":222:233  arrayLenght */\n      dup3\n        /* \"contracts/arraysPractice.sol\":222:236  arrayLenght -1 */\n      tag_28\n      swap2\n      swap1\n      tag_29\n      jump\t// in\n    tag_28:\n        /* \"contracts/arraysPractice.sol\":215:237  myList[arrayLenght -1] */\n      dup2\n      sload\n      dup2\n      lt\n      tag_30\n      jumpi\n      tag_31\n      tag_32\n      jump\t// in\n    tag_31:\n    tag_30:\n      swap1\n      0x00\n      mstore\n      keccak256(0x00, 0x20)\n      add\n      sload\n        /* \"contracts/arraysPractice.sol\":199:205  myList */\n      0x00\n        /* \"contracts/arraysPractice.sol\":206:211  index */\n      dup4\n        /* \"contracts/arraysPractice.sol\":199:212  myList[index] */\n      dup2\n      sload\n      dup2\n      lt\n      tag_34\n      jumpi\n      tag_35\n      tag_32\n      jump\t// in\n    tag_35:\n    tag_34:\n      swap1\n      0x00\n      mstore\n      keccak256(0x00, 0x20)\n      add\n        /* \"contracts/arraysPractice.sol\":199:237  myList[index] = myList[arrayLenght -1] */\n      dup2\n      swap1\n      sstore\n      pop\n        /* \"contracts/arraysPractice.sol\":146:269  {\r... */\n      pop\n        /* \"contracts/arraysPractice.sol\":104:269  function deleteElement(uint index) public {\r... */\n      pop\n      jump\t// out\n        /* \"contracts/arraysPractice.sol\":356:436  function getList () public view returns( uint [] memory){\r... */\n    tag_20:\n        /* \"contracts/arraysPractice.sol\":397:411  uint [] memory */\n      0x60\n        /* \"contracts/arraysPractice.sol\":426:432  myList */\n      0x00\n        /* \"contracts/arraysPractice.sol\":419:432  return myList */\n      dup1\n      sload\n      dup1\n      0x20\n      mul\n      0x20\n      add\n      mload(0x40)\n      swap1\n      dup2\n      add\n      0x40\n      mstore\n      dup1\n      swap3\n      swap2\n      swap1\n      dup2\n      dup2\n      mstore\n      0x20\n      add\n      dup3\n      dup1\n      sload\n      dup1\n      iszero\n      tag_38\n      jumpi\n      0x20\n      mul\n      dup3\n      add\n      swap2\n      swap1\n      0x00\n      mstore\n      keccak256(0x00, 0x20)\n      swap1\n    tag_39:\n      dup2\n      sload\n      dup2\n      mstore\n      0x20\n      add\n      swap1\n      0x01\n      add\n      swap1\n      dup1\n      dup4\n      gt\n      tag_39\n      jumpi\n    tag_38:\n      pop\n      pop\n      pop\n      pop\n      pop\n      swap1\n      pop\n        /* \"contracts/arraysPractice.sol\":356:436  function getList () public view returns( uint [] memory){\r... */\n      swap1\n      jump\t// out\n        /* \"#utility.yul\":7:146   */\n    tag_41:\n        /* \"#utility.yul\":53:58   */\n      0x00\n        /* \"#utility.yul\":91:97   */\n      dup2\n        /* \"#utility.yul\":78:98   */\n      calldataload\n        /* \"#utility.yul\":69:98   */\n      swap1\n      pop\n        /* \"#utility.yul\":107:140   */\n      tag_43\n        /* \"#utility.yul\":134:139   */\n      dup2\n        /* \"#utility.yul\":107:140   */\n      tag_44\n      jump\t// in\n    tag_43:\n        /* \"#utility.yul\":7:146   */\n      swap3\n      swap2\n      pop\n      pop\n      jump\t// out\n        /* \"#utility.yul\":152:481   */\n    tag_9:\n        /* \"#utility.yul\":211:217   */\n      0x00\n        /* \"#utility.yul\":260:262   */\n      0x20\n        /* \"#utility.yul\":248:257   */\n      dup3\n        /* \"#utility.yul\":239:246   */\n      dup5\n        /* \"#utility.yul\":235:258   */\n      sub\n        /* \"#utility.yul\":231:263   */\n      slt\n        /* \"#utility.yul\":228:347   */\n      iszero\n      tag_46\n      jumpi\n        /* \"#utility.yul\":266:345   */\n      tag_47\n      tag_48\n      jump\t// in\n    tag_47:\n        /* \"#utility.yul\":228:347   */\n    tag_46:\n        /* \"#utility.yul\":386:387   */\n      0x00\n        /* \"#utility.yul\":411:464   */\n      tag_49\n        /* \"#utility.yul\":456:463   */\n      dup5\n        /* \"#utility.yul\":447:453   */\n      dup3\n        /* \"#utility.yul\":436:445   */\n      dup6\n        /* \"#utility.yul\":432:454   */\n      add\n        /* \"#utility.yul\":411:464   */\n      tag_41\n      jump\t// in\n    tag_49:\n        /* \"#utility.yul\":401:464   */\n      swap2\n      pop\n        /* \"#utility.yul\":357:474   */\n      pop\n        /* \"#utility.yul\":152:481   */\n      swap3\n      swap2\n      pop\n      pop\n      jump\t// out\n        /* \"#utility.yul\":487:666   */\n    tag_50:\n        /* \"#utility.yul\":556:566   */\n      0x00\n        /* \"#utility.yul\":577:623   */\n      tag_52\n        /* \"#utility.yul\":619:622   */\n      dup4\n        /* \"#utility.yul\":611:617   */\n      dup4\n        /* \"#utility.yul\":577:623   */\n      tag_53\n      jump\t// in\n    tag_52:\n        /* \"#utility.yul\":655:659   */\n      0x20\n        /* \"#utility.yul\":650:653   */\n      dup4\n        /* \"#utility.yul\":646:660   */\n      add\n        /* \"#utility.yul\":632:660   */\n      swap1\n      pop\n        /* \"#utility.yul\":487:666   */\n      swap3\n      swap2\n      pop\n      pop\n      jump\t// out\n        /* \"#utility.yul\":702:1434   */\n    tag_54:\n        /* \"#utility.yul\":821:824   */\n      0x00\n        /* \"#utility.yul\":850:904   */\n      tag_56\n        /* \"#utility.yul\":898:903   */\n      dup3\n        /* \"#utility.yul\":850:904   */\n      tag_57\n      jump\t// in\n    tag_56:\n        /* \"#utility.yul\":920:1006   */\n      tag_58\n        /* \"#utility.yul\":999:1005   */\n      dup2\n        /* \"#utility.yul\":994:997   */\n      dup6\n        /* \"#utility.yul\":920:1006   */\n      tag_59\n      jump\t// in\n    tag_58:\n        /* \"#utility.yul\":913:1006   */\n      swap4\n      pop\n        /* \"#utility.yul\":1030:1086   */\n      tag_60\n        /* \"#utility.yul\":1080:1085   */\n      dup4\n        /* \"#utility.yul\":1030:1086   */\n      tag_61\n      jump\t// in\n    tag_60:\n        /* \"#utility.yul\":1109:1116   */\n      dup1\n        /* \"#utility.yul\":1140:1141   */\n      0x00\n        /* \"#utility.yul\":1125:1409   */\n    tag_62:\n        /* \"#utility.yul\":1150:1156   */\n      dup4\n        /* \"#utility.yul\":1147:1148   */\n      dup2\n        /* \"#utility.yul\":1144:1157   */\n      lt\n        /* \"#utility.yul\":1125:1409   */\n      iszero\n      tag_64\n      jumpi\n        /* \"#utility.yul\":1226:1232   */\n      dup2\n        /* \"#utility.yul\":1220:1233   */\n      mload\n        /* \"#utility.yul\":1253:1316   */\n      tag_65\n        /* \"#utility.yul\":1312:1315   */\n      dup9\n        /* \"#utility.yul\":1297:1310   */\n      dup3\n        /* \"#utility.yul\":1253:1316   */\n      tag_50\n      jump\t// in\n    tag_65:\n        /* \"#utility.yul\":1246:1316   */\n      swap8\n      pop\n        /* \"#utility.yul\":1339:1399   */\n      tag_66\n        /* \"#utility.yul\":1392:1398   */\n      dup4\n        /* \"#utility.yul\":1339:1399   */\n      tag_67\n      jump\t// in\n    tag_66:\n        /* \"#utility.yul\":1329:1399   */\n      swap3\n      pop\n        /* \"#utility.yul\":1185:1409   */\n      pop\n        /* \"#utility.yul\":1172:1173   */\n      0x01\n        /* \"#utility.yul\":1169:1170   */\n      dup2\n        /* \"#utility.yul\":1165:1174   */\n      add\n        /* \"#utility.yul\":1160:1174   */\n      swap1\n      pop\n        /* \"#utility.yul\":1125:1409   */\n      jump(tag_62)\n    tag_64:\n        /* \"#utility.yul\":1129:1143   */\n      pop\n        /* \"#utility.yul\":1425:1428   */\n      dup6\n        /* \"#utility.yul\":1418:1428   */\n      swap4\n      pop\n        /* \"#utility.yul\":826:1434   */\n      pop\n      pop\n      pop\n        /* \"#utility.yul\":702:1434   */\n      swap3\n      swap2\n      pop\n      pop\n      jump\t// out\n        /* \"#utility.yul\":1440:1548   */\n    tag_53:\n        /* \"#utility.yul\":1517:1541   */\n      tag_69\n        /* \"#utility.yul\":1535:1540   */\n      dup2\n        /* \"#utility.yul\":1517:1541   */\n      tag_70\n      jump\t// in\n    tag_69:\n        /* \"#utility.yul\":1512:1515   */\n      dup3\n        /* \"#utility.yul\":1505:1542   */\n      mstore\n        /* \"#utility.yul\":1440:1548   */\n      pop\n      pop\n      jump\t// out\n        /* \"#utility.yul\":1554:1672   */\n    tag_71:\n        /* \"#utility.yul\":1641:1665   */\n      tag_73\n        /* \"#utility.yul\":1659:1664   */\n      dup2\n        /* \"#utility.yul\":1641:1665   */\n      tag_70\n      jump\t// in\n    tag_73:\n        /* \"#utility.yul\":1636:1639   */\n      dup3\n        /* \"#utility.yul\":1629:1666   */\n      mstore\n        /* \"#utility.yul\":1554:1672   */\n      pop\n      pop\n      jump\t// out\n        /* \"#utility.yul\":1678:2051   */\n    tag_22:\n        /* \"#utility.yul\":1821:1825   */\n      0x00\n        /* \"#utility.yul\":1859:1861   */\n      0x20\n        /* \"#utility.yul\":1848:1857   */\n      dup3\n        /* \"#utility.yul\":1844:1862   */\n      add\n        /* \"#utility.yul\":1836:1862   */\n      swap1\n      pop\n        /* \"#utility.yul\":1908:1917   */\n      dup2\n        /* \"#utility.yul\":1902:1906   */\n      dup2\n        /* \"#utility.yul\":1898:1918   */\n      sub\n        /* \"#utility.yul\":1894:1895   */\n      0x00\n        /* \"#utility.yul\":1883:1892   */\n      dup4\n        /* \"#utility.yul\":1879:1896   */\n      add\n        /* \"#utility.yul\":1872:1919   */\n      mstore\n        /* \"#utility.yul\":1936:2044   */\n      tag_75\n        /* \"#utility.yul\":2039:2043   */\n      dup2\n        /* \"#utility.yul\":2030:2036   */\n      dup5\n        /* \"#utility.yul\":1936:2044   */\n      tag_54\n      jump\t// in\n    tag_75:\n        /* \"#utility.yul\":1928:2044   */\n      swap1\n      pop\n        /* \"#utility.yul\":1678:2051   */\n      swap3\n      swap2\n      pop\n      pop\n      jump\t// out\n        /* \"#utility.yul\":2057:2279   */\n    tag_15:\n        /* \"#utility.yul\":2150:2154   */\n      0x00\n        /* \"#utility.yul\":2188:2190   */\n      0x20\n        /* \"#utility.yul\":2177:2186   */\n      dup3\n        /* \"#utility.yul\":2173:2191   */\n      add\n        /* \"#utility.yul\":2165:2191   */\n      swap1\n      pop\n        /* \"#utility.yul\":2201:2272   */\n      tag_77\n        /* \"#utility.yul\":2269:2270   */\n      0x00\n        /* \"#utility.yul\":2258:2267   */\n      dup4\n        /* \"#utility.yul\":2254:2271   */\n      add\n        /* \"#utility.yul\":2245:2251   */\n      dup5\n        /* \"#utility.yul\":2201:2272   */\n      tag_71\n      jump\t// in\n    tag_77:\n        /* \"#utility.yul\":2057:2279   */\n      swap3\n      swap2\n      pop\n      pop\n      jump\t// out\n        /* \"#utility.yul\":2366:2498   */\n    tag_61:\n        /* \"#utility.yul\":2433:2437   */\n      0x00\n        /* \"#utility.yul\":2456:2459   */\n      dup2\n        /* \"#utility.yul\":2448:2459   */\n      swap1\n      pop\n        /* \"#utility.yul\":2486:2490   */\n      0x20\n        /* \"#utility.yul\":2481:2484   */\n      dup3\n        /* \"#utility.yul\":2477:2491   */\n      add\n        /* \"#utility.yul\":2469:2491   */\n      swap1\n      pop\n        /* \"#utility.yul\":2366:2498   */\n      swap2\n      swap1\n      pop\n      jump\t// out\n        /* \"#utility.yul\":2504:2618   */\n    tag_57:\n        /* \"#utility.yul\":2571:2577   */\n      0x00\n        /* \"#utility.yul\":2605:2610   */\n      dup2\n        /* \"#utility.yul\":2599:2611   */\n      mload\n        /* \"#utility.yul\":2589:2611   */\n      swap1\n      pop\n        /* \"#utility.yul\":2504:2618   */\n      swap2\n      swap1\n      pop\n      jump\t// out\n        /* \"#utility.yul\":2624:2737   */\n    tag_67:\n        /* \"#utility.yul\":2694:2698   */\n      0x00\n        /* \"#utility.yul\":2726:2730   */\n      0x20\n        /* \"#utility.yul\":2721:2724   */\n      dup3\n        /* \"#utility.yul\":2717:2731   */\n      add\n        /* \"#utility.yul\":2709:2731   */\n      swap1\n      pop\n        /* \"#utility.yul\":2624:2737   */\n      swap2\n      swap1\n      pop\n      jump\t// out\n        /* \"#utility.yul\":2743:2927   */\n    tag_59:\n        /* \"#utility.yul\":2842:2853   */\n      0x00\n        /* \"#utility.yul\":2876:2882   */\n      dup3\n        /* \"#utility.yul\":2871:2874   */\n      dup3\n        /* \"#utility.yul\":2864:2883   */\n      mstore\n        /* \"#utility.yul\":2916:2920   */\n      0x20\n        /* \"#utility.yul\":2911:2914   */\n      dup3\n        /* \"#utility.yul\":2907:2921   */\n      add\n        /* \"#utility.yul\":2892:2921   */\n      swap1\n      pop\n        /* \"#utility.yul\":2743:2927   */\n      swap3\n      swap2\n      pop\n      pop\n      jump\t// out\n        /* \"#utility.yul\":2933:3124   */\n    tag_29:\n        /* \"#utility.yul\":2973:2977   */\n      0x00\n        /* \"#utility.yul\":2993:3013   */\n      tag_85\n        /* \"#utility.yul\":3011:3012   */\n      dup3\n        /* \"#utility.yul\":2993:3013   */\n      tag_70\n      jump\t// in\n    tag_85:\n        /* \"#utility.yul\":2988:3013   */\n      swap2\n      pop\n        /* \"#utility.yul\":3027:3047   */\n      tag_86\n        /* \"#utility.yul\":3045:3046   */\n      dup4\n        /* \"#utility.yul\":3027:3047   */\n      tag_70\n      jump\t// in\n    tag_86:\n        /* \"#utility.yul\":3022:3047   */\n      swap3\n      pop\n        /* \"#utility.yul\":3066:3067   */\n      dup3\n        /* \"#utility.yul\":3063:3064   */\n      dup3\n        /* \"#utility.yul\":3060:3068   */\n      lt\n        /* \"#utility.yul\":3057:3091   */\n      iszero\n      tag_87\n      jumpi\n        /* \"#utility.yul\":3071:3089   */\n      tag_88\n      tag_89\n      jump\t// in\n    tag_88:\n        /* \"#utility.yul\":3057:3091   */\n    tag_87:\n        /* \"#utility.yul\":3116:3117   */\n      dup3\n        /* \"#utility.yul\":3113:3114   */\n      dup3\n        /* \"#utility.yul\":3109:3118   */\n      sub\n        /* \"#utility.yul\":3101:3118   */\n      swap1\n      pop\n        /* \"#utility.yul\":2933:3124   */\n      swap3\n      swap2\n      pop\n      pop\n      jump\t// out\n        /* \"#utility.yul\":3130:3207   */\n    tag_70:\n        /* \"#utility.yul\":3167:3174   */\n      0x00\n        /* \"#utility.yul\":3196:3201   */\n      dup2\n        /* \"#utility.yul\":3185:3201   */\n      swap1\n      pop\n        /* \"#utility.yul\":3130:3207   */\n      swap2\n      swap1\n      pop\n      jump\t// out\n        /* \"#utility.yul\":3213:3393   */\n    tag_89:\n        /* \"#utility.yul\":3261:3338   */\n      0x4e487b7100000000000000000000000000000000000000000000000000000000\n        /* \"#utility.yul\":3258:3259   */\n      0x00\n        /* \"#utility.yul\":3251:3339   */\n      mstore\n        /* \"#utility.yul\":3358:3362   */\n      0x11\n        /* \"#utility.yul\":3355:3356   */\n      0x04\n        /* \"#utility.yul\":3348:3363   */\n      mstore\n        /* \"#utility.yul\":3382:3386   */\n      0x24\n        /* \"#utility.yul\":3379:3380   */\n      0x00\n        /* \"#utility.yul\":3372:3387   */\n      revert\n        /* \"#utility.yul\":3399:3579   */\n    tag_32:\n        /* \"#utility.yul\":3447:3524   */\n      0x4e487b7100000000000000000000000000000000000000000000000000000000\n        /* \"#utility.yul\":3444:3445   */\n      0x00\n        /* \"#utility.yul\":3437:3525   */\n      mstore\n        /* \"#utility.yul\":3544:3548   */\n      0x32\n        /* \"#utility.yul\":3541:3542   */\n      0x04\n        /* \"#utility.yul\":3534:3549   */\n      mstore\n        /* \"#utility.yul\":3568:3572   */\n      0x24\n        /* \"#utility.yul\":3565:3566   */\n      0x00\n        /* \"#utility.yul\":3558:3573   */\n      revert\n        /* \"#utility.yul\":3708:3825   */\n    tag_48:\n        /* \"#utility.yul\":3817:3818   */\n      0x00\n        /* \"#utility.yul\":3814:3815   */\n      dup1\n        /* \"#utility.yul\":3807:3819   */\n      revert\n        /* \"#utility.yul\":3831:3953   */\n    tag_44:\n        /* \"#utility.yul\":3904:3928   */\n      tag_97\n        /* \"#utility.yul\":3922:3927   */\n      dup2\n        /* \"#utility.yul\":3904:3928   */\n      tag_70\n      jump\t// in\n    tag_97:\n        /* \"#utility.yul\":3897:3902   */\n      dup2\n        /* \"#utility.yul\":3894:3929   */\n      eq\n        /* \"#utility.yul\":3884:3947   */\n      tag_98\n      jumpi\n        /* \"#utility.yul\":3943:3944   */\n      0x00\n        /* \"#utility.yul\":3940:3941   */\n      dup1\n        /* \"#utility.yul\":3933:3945   */\n      revert\n        /* \"#utility.yul\":3884:3947   */\n    tag_98:\n        /* \"#utility.yul\":3831:3953   */\n      pop\n      jump\t// out\n\n    auxdata: 0xa2646970667358221220f23df1c833fb998b33f7f6b5fe7893630a7049695c3a828240d5d1da5e1c536264736f6c63430008070033\n}\n",
				"bytecode": {
					"linkReferences": {},
					"object": "608060405234801561001057600080fd5b50610413806100206000396000f3fe608060405234801561001057600080fd5b506004361061004c5760003560e01c806357499698146100515780635c5854621461006d578063792de6f31461009d578063942b765a146100b9575b600080fd5b61006b600480360381019061006691906101ee565b6100d7565b005b610087600480360381019061008291906101ee565b610103565b60405161009491906102d1565b60405180910390f35b6100b760048036038101906100b291906101ee565b610127565b005b6100c1610181565b6040516100ce91906102af565b60405180910390f35b600081908060018154018082558091505060019003906000526020600020016000909190919091505550565b6000818154811061011357600080fd5b906000526020600020016000915090505481565b600080805490509050600060018261013f9190610325565b815481106101505761014f610392565b5b90600052602060002001546000838154811061016f5761016e610392565b5b90600052602060002001819055505050565b606060008054806020026020016040519081016040528092919081815260200182805480156101cf57602002820191906000526020600020905b8154815260200190600101908083116101bb575b5050505050905090565b6000813590506101e8816103c6565b92915050565b600060208284031215610204576102036103c1565b5b6000610212848285016101d9565b91505092915050565b60006102278383610291565b60208301905092915050565b600061023e826102fc565b6102488185610314565b9350610253836102ec565b8060005b8381101561028457815161026b888261021b565b975061027683610307565b925050600181019050610257565b5085935050505092915050565b61029a81610359565b82525050565b6102a981610359565b82525050565b600060208201905081810360008301526102c98184610233565b905092915050565b60006020820190506102e660008301846102a0565b92915050565b6000819050602082019050919050565b600081519050919050565b6000602082019050919050565b600082825260208201905092915050565b600061033082610359565b915061033b83610359565b92508282101561034e5761034d610363565b5b828203905092915050565b6000819050919050565b7f4e487b7100000000000000000000000000000000000000000000000000000000600052601160045260246000fd5b7f4e487b7100000000000000000000000000000000000000000000000000000000600052603260045260246000fd5b600080fd5b6103cf81610359565b81146103da57600080fd5b5056fea2646970667358221220f23df1c833fb998b33f7f6b5fe7893630a7049695c3a828240d5d1da5e1c536264736f6c63430008070033",
					"opcodes": "PUSH1 0x80 PUSH1 0x40 MSTORE CALLVALUE DUP1 ISZERO PUSH2 0x10 JUMPI PUSH1 0x0 DUP1 REVERT JUMPDEST POP PUSH2 0x413 DUP1 PUSH2 0x20 PUSH1 0x0 CODECOPY PUSH1 0x0 RETURN INVALID PUSH1 0x80 PUSH1 0x40 MSTORE CALLVALUE DUP1 ISZERO PUSH2 0x10 JUMPI PUSH1 0x0 DUP1 REVERT JUMPDEST POP PUSH1 0x4 CALLDATASIZE LT PUSH2 0x4C JUMPI PUSH1 0x0 CALLDATALOAD PUSH1 0xE0 SHR DUP1 PUSH4 0x57499698 EQ PUSH2 0x51 JUMPI DUP1 PUSH4 0x5C585462 EQ PUSH2 0x6D JUMPI DUP1 PUSH4 0x792DE6F3 EQ PUSH2 0x9D JUMPI DUP1 PUSH4 0x942B765A EQ PUSH2 0xB9 JUMPI JUMPDEST PUSH1 0x0 DUP1 REVERT JUMPDEST PUSH2 0x6B PUSH1 0x4 DUP1 CALLDATASIZE SUB DUP2 ADD SWAP1 PUSH2 0x66 SWAP2 SWAP1 PUSH2 0x1EE JUMP JUMPDEST PUSH2 0xD7 JUMP JUMPDEST STOP JUMPDEST PUSH2 0x87 PUSH1 0x4 DUP1 CALLDATASIZE SUB DUP2 ADD SWAP1 PUSH2 0x82 SWAP2 SWAP1 PUSH2 0x1EE JUMP JUMPDEST PUSH2 0x103 JUMP JUMPDEST PUSH1 0x40 MLOAD PUSH2 0x94 SWAP2 SWAP1 PUSH2 0x2D1 JUMP JUMPDEST PUSH1 0x40 MLOAD DUP1 SWAP2 SUB SWAP1 RETURN JUMPDEST PUSH2 0xB7 PUSH1 0x4 DUP1 CALLDATASIZE SUB DUP2 ADD SWAP1 PUSH2 0xB2 SWAP2 SWAP1 PUSH2 0x1EE JUMP JUMPDEST PUSH2 0x127 JUMP JUMPDEST STOP JUMPDEST PUSH2 0xC1 PUSH2 0x181 JUMP JUMPDEST PUSH1 0x40 MLOAD PUSH2 0xCE SWAP2 SWAP1 PUSH2 0x2AF JUMP JUMPDEST PUSH1 0x40 MLOAD DUP1 SWAP2 SUB SWAP1 RETURN JUMPDEST PUSH1 0x0 DUP2 SWAP1 DUP1 PUSH1 0x1 DUP2 SLOAD ADD DUP1 DUP3 SSTORE DUP1 SWAP2 POP POP PUSH1 0x1 SWAP1 SUB SWAP1 PUSH1 0x0 MSTORE PUSH1 0x20 PUSH1 0x0 KECCAK256 ADD PUSH1 0x0 SWAP1 SWAP2 SWAP1 SWAP2 SWAP1 SWAP2 POP SSTORE POP JUMP JUMPDEST PUSH1 0x0 DUP2 DUP2 SLOAD DUP2 LT PUSH2 0x113 JUMPI PUSH1 0x0 DUP1 REVERT JUMPDEST SWAP1 PUSH1 0x0 MSTORE PUSH1 0x20 PUSH1 0x0 KECCAK256 ADD PUSH1 0x0 SWAP2 POP SWAP1 POP SLOAD DUP2 JUMP JUMPDEST PUSH1 0x0 DUP1 DUP1 SLOAD SWAP1 POP SWAP1 POP PUSH1 0x0 PUSH1 0x1 DUP3 PUSH2 0x13F SWAP2 SWAP1 PUSH2 0x325 JUMP JUMPDEST DUP2 SLOAD DUP2 LT PUSH2 0x150 JUMPI PUSH2 0x14F PUSH2 0x392 JUMP JUMPDEST JUMPDEST SWAP1 PUSH1 0x0 MSTORE PUSH1 0x20 PUSH1 0x0 KECCAK256 ADD SLOAD PUSH1 0x0 DUP4 DUP2 SLOAD DUP2 LT PUSH2 0x16F JUMPI PUSH2 0x16E PUSH2 0x392 JUMP JUMPDEST JUMPDEST SWAP1 PUSH1 0x0 MSTORE PUSH1 0x20 PUSH1 0x0 KECCAK256 ADD DUP2 SWAP1 SSTORE POP POP POP JUMP JUMPDEST PUSH1 0x60 PUSH1 0x0 DUP1 SLOAD DUP1 PUSH1 0x20 MUL PUSH1 0x20 ADD PUSH1 0x40 MLOAD SWAP1 DUP2 ADD PUSH1 0x40 MSTORE DUP1 SWAP3 SWAP2 SWAP1 DUP2 DUP2 MSTORE PUSH1 0x20 ADD DUP3 DUP1 SLOAD DUP1 ISZERO PUSH2 0x1CF JUMPI PUSH1 0x20 MUL DUP3 ADD SWAP2 SWAP1 PUSH1 0x0 MSTORE PUSH1 0x20 PUSH1 0x0 KECCAK256 SWAP1 JUMPDEST DUP2 SLOAD DUP2 MSTORE PUSH1 0x20 ADD SWAP1 PUSH1 0x1 ADD SWAP1 DUP1 DUP4 GT PUSH2 0x1BB JUMPI JUMPDEST POP POP POP POP POP SWAP1 POP SWAP1 JUMP JUMPDEST PUSH1 0x0 DUP2 CALLDATALOAD SWAP1 POP PUSH2 0x1E8 DUP2 PUSH2 0x3C6 JUMP JUMPDEST SWAP3 SWAP2 POP POP JUMP JUMPDEST PUSH1 0x0 PUSH1 0x20 DUP3 DUP5 SUB SLT ISZERO PUSH2 0x204 JUMPI PUSH2 0x203 PUSH2 0x3C1 JUMP JUMPDEST JUMPDEST PUSH1 0x0 PUSH2 0x212 DUP5 DUP3 DUP6 ADD PUSH2 0x1D9 JUMP JUMPDEST SWAP2 POP POP SWAP3 SWAP2 POP POP JUMP JUMPDEST PUSH1 0x0 PUSH2 0x227 DUP4 DUP4 PUSH2 0x291 JUMP JUMPDEST PUSH1 0x20 DUP4 ADD SWAP1 POP SWAP3 SWAP2 POP POP JUMP JUMPDEST PUSH1 0x0 PUSH2 0x23E DUP3 PUSH2 0x2FC JUMP JUMPDEST PUSH2 0x248 DUP2 DUP6 PUSH2 0x314 JUMP JUMPDEST SWAP4 POP PUSH2 0x253 DUP4 PUSH2 0x2EC JUMP JUMPDEST DUP1 PUSH1 0x0 JUMPDEST DUP4 DUP2 LT ISZERO PUSH2 0x284 JUMPI DUP2 MLOAD PUSH2 0x26B DUP9 DUP3 PUSH2 0x21B JUMP JUMPDEST SWAP8 POP PUSH2 0x276 DUP4 PUSH2 0x307 JUMP JUMPDEST SWAP3 POP POP PUSH1 0x1 DUP2 ADD SWAP1 POP PUSH2 0x257 JUMP JUMPDEST POP DUP6 SWAP4 POP POP POP POP SWAP3 SWAP2 POP POP JUMP JUMPDEST PUSH2 0x29A DUP2 PUSH2 0x359 JUMP JUMPDEST DUP3 MSTORE POP POP JUMP JUMPDEST PUSH2 0x2A9 DUP2 PUSH2 0x359 JUMP JUMPDEST DUP3 MSTORE POP POP JUMP JUMPDEST PUSH1 0x0 PUSH1 0x20 DUP3 ADD SWAP1 POP DUP2 DUP2 SUB PUSH1 0x0 DUP4 ADD MSTORE PUSH2 0x2C9 DUP2 DUP5 PUSH2 0x233 JUMP JUMPDEST SWAP1 POP SWAP3 SWAP2 POP POP JUMP JUMPDEST PUSH1 0x0 PUSH1 0x20 DUP3 ADD SWAP1 POP PUSH2 0x2E6 PUSH1 0x0 DUP4 ADD DUP5 PUSH2 0x2A0 JUMP JUMPDEST SWAP3 SWAP2 POP POP JUMP JUMPDEST PUSH1 0x0 DUP2 SWAP1 POP PUSH1 0x20 DUP3 ADD SWAP1 POP SWAP2 SWAP1 POP JUMP JUMPDEST PUSH1 0x0 DUP2 MLOAD SWAP1 POP SWAP2 SWAP1 POP JUMP JUMPDEST PUSH1 0x0 PUSH1 0x20 DUP3 ADD SWAP1 POP SWAP2 SWAP1 POP JUMP JUMPDEST PUSH1 0x0 DUP3 DUP3 MSTORE PUSH1 0x20 DUP3 ADD SWAP1 POP SWAP3 SWAP2 POP POP JUMP JUMPDEST PUSH1 0x0 PUSH2 0x330 DUP3 PUSH2 0x359 JUMP JUMPDEST SWAP2 POP PUSH2 0x33B DUP4 PUSH2 0x359 JUMP JUMPDEST SWAP3 POP DUP3 DUP3 LT ISZERO PUSH2 0x34E JUMPI PUSH2 0x34D PUSH2 0x363 JUMP JUMPDEST JUMPDEST DUP3 DUP3 SUB SWAP1 POP SWAP3 SWAP2 POP POP JUMP JUMPDEST PUSH1 0x0 DUP2 SWAP1 POP SWAP2 SWAP1 POP JUMP JUMPDEST PUSH32 0x4E487B7100000000000000000000000000000000000000000000000000000000 PUSH1 0x0 MSTORE PUSH1 0x11 PUSH1 0x4 MSTORE PUSH1 0x24 PUSH1 0x0 REVERT JUMPDEST PUSH32 0x4E487B7100000000000000000000000000000000000000000000000000000000 PUSH1 0x0 MSTORE PUSH1 0x32 PUSH1 0x4 MSTORE PUSH1 0x24 PUSH1 0x0 REVERT JUMPDEST PUSH1 0x0 DUP1 REVERT JUMPDEST PUSH2 0x3CF DUP2 PUSH2 0x359 JUMP JUMPDEST DUP2 EQ PUSH2 0x3DA JUMPI PUSH1 0x0 DUP1 REVERT JUMPDEST POP JUMP INVALID LOG2 PUSH5 0x6970667358 0x22 SLT KECCAK256 CALLCODE RETURNDATASIZE CALL 0xC8 CALLER 0xFB SWAP10 DUP12 CALLER 0xF7 0xF6 0xB5 INVALID PUSH25 0x93630A7049695C3A828240D5D1DA5E1C536264736F6C634300 ADDMOD SMOD STOP CALLER "
				},
				"gasEstimates": {
					"creation": {
						"codeDepositCost": "208600",
						"executionCost": "251",
						"totalCost": "208851"
					},
					"external": {
						"addToList(uint256)": "46807",
						"deleteElement(uint256)": "infinite",
						"getList()": "infinite",
						"myList(uint256)": "infinite"
					}
				},
				"methodIdentifiers": {
					"addToList(uint256)": "57499698",
					"deleteElement(uint256)": "792de6f3",
					"getList()": "942b765a",
					"myList(uint256)": "5c585462"
				}
			},
			"storageLayout": {
				"storage": [
					{
						"astId": 4,
						"contract": "contracts/arraysPractice.sol:ArrayPractice",
						"label": "myList",
						"offset": 0,
						"slot": "0",
						"type": "t_array(t_uint256)dyn_storage"
					}
				],
				"types": {
					"t_array(t_uint256)dyn_storage": {
						"base": "t_uint256",
						"encoding": "dynamic_array",
						"label": "uint256[]",
						"numberOfBytes": "32"
					},
					"t_uint256": {
						"encoding": "inplace",
						"label": "uint256",
						"numberOfBytes": "32"
					}
				}
			},
			"userdoc": {
				"kind": "user",
				"methods": {},
				"version": 1
			}
		}
	}
}