{
	"contracts/nestedMaps.sol": {
		"NestedMaps": {
			"abi": [
				{
					"inputs": [
						{
							"internalType": "uint256",
							"name": "number",
							"type": "uint256"
						},
						{
							"internalType": "string",
							"name": "name",
							"type": "string"
						},
						{
							"internalType": "uint256",
							"name": "index",
							"type": "uint256"
						}
					],
					"name": "addContact",
					"outputs": [],
					"stateMutability": "nonpayable",
					"type": "function"
				},
				{
					"inputs": [
						{
							"internalType": "address",
							"name": "",
							"type": "address"
						},
						{
							"internalType": "uint256",
							"name": "",
							"type": "uint256"
						}
					],
					"name": "contactList",
					"outputs": [
						{
							"internalType": "string",
							"name": "name",
							"type": "string"
						},
						{
							"internalType": "uint256",
							"name": "number",
							"type": "uint256"
						}
					],
					"stateMutability": "view",
					"type": "function"
				},
				{
					"inputs": [
						{
							"internalType": "uint256",
							"name": "index",
							"type": "uint256"
						}
					],
					"name": "retriveContact",
					"outputs": [
						{
							"components": [
								{
									"internalType": "string",
									"name": "name",
									"type": "string"
								},
								{
									"internalType": "uint256",
									"name": "number",
									"type": "uint256"
								}
							],
							"internalType": "struct NestedMaps.Contact",
							"name": "",
							"type": "tuple"
						}
					],
					"stateMutability": "view",
					"type": "function"
				}
			],
			"devdoc": {
				"kind": "dev",
				"methods": {},
				"version": 1
			},
			"evm": {
				"assembly": "    /* \"contracts/nestedMaps.sol\":35:642  contract NestedMaps {\r... */\n  mstore(0x40, 0x80)\n  callvalue\n  dup1\n  iszero\n  tag_1\n  jumpi\n  0x00\n  dup1\n  revert\ntag_1:\n  pop\n  dataSize(sub_0)\n  dup1\n  dataOffset(sub_0)\n  0x00\n  codecopy\n  0x00\n  return\nstop\n\nsub_0: assembly {\n        /* \"contracts/nestedMaps.sol\":35:642  contract NestedMaps {\r... */\n      mstore(0x40, 0x80)\n      callvalue\n      dup1\n      iszero\n      tag_1\n      jumpi\n      0x00\n      dup1\n      revert\n    tag_1:\n      pop\n      jumpi(tag_2, lt(calldatasize, 0x04))\n      shr(0xe0, calldataload(0x00))\n      dup1\n      0x07bb6260\n      eq\n      tag_3\n      jumpi\n      dup1\n      0x2454ce4f\n      eq\n      tag_4\n      jumpi\n      dup1\n      0x82d309e5\n      eq\n      tag_5\n      jumpi\n    tag_2:\n      0x00\n      dup1\n      revert\n        /* \"contracts/nestedMaps.sol\":178:241  mapping(address => mapping(uint => Contact)) public contactList */\n    tag_3:\n      tag_6\n      0x04\n      dup1\n      calldatasize\n      sub\n      dup2\n      add\n      swap1\n      tag_7\n      swap2\n      swap1\n      tag_8\n      jump\t// in\n    tag_7:\n      tag_9\n      jump\t// in\n    tag_6:\n      mload(0x40)\n      tag_10\n      swap3\n      swap2\n      swap1\n      tag_11\n      jump\t// in\n    tag_10:\n      mload(0x40)\n      dup1\n      swap2\n      sub\n      swap1\n      return\n        /* \"contracts/nestedMaps.sol\":507:637  function retriveContact (uint index) public view returns (Contact memory){\r... */\n    tag_4:\n      tag_12\n      0x04\n      dup1\n      calldatasize\n      sub\n      dup2\n      add\n      swap1\n      tag_13\n      swap2\n      swap1\n      tag_14\n      jump\t// in\n    tag_13:\n      tag_15\n      jump\t// in\n    tag_12:\n      mload(0x40)\n      tag_16\n      swap2\n      swap1\n      tag_17\n      jump\t// in\n    tag_16:\n      mload(0x40)\n      dup1\n      swap2\n      sub\n      swap1\n      return\n        /* \"contracts/nestedMaps.sol\":295:444  function addContact ( uint number, string memory name , uint index) public {\r... */\n    tag_5:\n      tag_18\n      0x04\n      dup1\n      calldatasize\n      sub\n      dup2\n      add\n      swap1\n      tag_19\n      swap2\n      swap1\n      tag_20\n      jump\t// in\n    tag_19:\n      tag_21\n      jump\t// in\n    tag_18:\n      stop\n        /* \"contracts/nestedMaps.sol\":178:241  mapping(address => mapping(uint => Contact)) public contactList */\n    tag_9:\n      mstore(0x20, 0x00)\n      dup2\n      0x00\n      mstore\n      mstore(0x20, keccak256(0x00, 0x40))\n      dup1\n      0x00\n      mstore\n      keccak256(0x00, 0x40)\n      0x00\n      swap2\n      pop\n      swap2\n      pop\n      pop\n      dup1\n      0x00\n      add\n      dup1\n      sload\n      tag_22\n      swap1\n      tag_23\n      jump\t// in\n    tag_22:\n      dup1\n      0x1f\n      add\n      0x20\n      dup1\n      swap2\n      div\n      mul\n      0x20\n      add\n      mload(0x40)\n      swap1\n      dup2\n      add\n      0x40\n      mstore\n      dup1\n      swap3\n      swap2\n      swap1\n      dup2\n      dup2\n      mstore\n      0x20\n      add\n      dup3\n      dup1\n      sload\n      tag_24\n      swap1\n      tag_23\n      jump\t// in\n    tag_24:\n      dup1\n      iszero\n      tag_25\n      jumpi\n      dup1\n      0x1f\n      lt\n      tag_26\n      jumpi\n      0x0100\n      dup1\n      dup4\n      sload\n      div\n      mul\n      dup4\n      mstore\n      swap2\n      0x20\n      add\n      swap2\n      jump(tag_25)\n    tag_26:\n      dup3\n      add\n      swap2\n      swap1\n      0x00\n      mstore\n      keccak256(0x00, 0x20)\n      swap1\n    tag_27:\n      dup2\n      sload\n      dup2\n      mstore\n      swap1\n      0x01\n      add\n      swap1\n      0x20\n      add\n      dup1\n      dup4\n      gt\n      tag_27\n      jumpi\n      dup3\n      swap1\n      sub\n      0x1f\n      and\n      dup3\n      add\n      swap2\n    tag_25:\n      pop\n      pop\n      pop\n      pop\n      pop\n      swap1\n      dup1\n      0x01\n      add\n      sload\n      swap1\n      pop\n      dup3\n      jump\t// out\n        /* \"contracts/nestedMaps.sol\":507:637  function retriveContact (uint index) public view returns (Contact memory){\r... */\n    tag_15:\n        /* \"contracts/nestedMaps.sol\":565:579  Contact memory */\n      tag_28\n      tag_29\n      jump\t// in\n    tag_28:\n        /* \"contracts/nestedMaps.sol\":598:609  contactList */\n      0x00\n        /* \"contracts/nestedMaps.sol\":598:621  contactList[msg.sender] */\n      dup1\n        /* \"contracts/nestedMaps.sol\":610:620  msg.sender */\n      caller\n        /* \"contracts/nestedMaps.sol\":598:621  contactList[msg.sender] */\n      0xffffffffffffffffffffffffffffffffffffffff\n      and\n      0xffffffffffffffffffffffffffffffffffffffff\n      and\n      dup2\n      mstore\n      0x20\n      add\n      swap1\n      dup2\n      mstore\n      0x20\n      add\n      0x00\n      keccak256\n        /* \"contracts/nestedMaps.sol\":598:628  contactList[msg.sender][index] */\n      0x00\n        /* \"contracts/nestedMaps.sol\":622:627  index */\n      dup4\n        /* \"contracts/nestedMaps.sol\":598:628  contactList[msg.sender][index] */\n      dup2\n      mstore\n      0x20\n      add\n      swap1\n      dup2\n      mstore\n      0x20\n      add\n      0x00\n      keccak256\n        /* \"contracts/nestedMaps.sol\":591:628  return contactList[msg.sender][index] */\n      mload(0x40)\n      dup1\n      0x40\n      add\n      0x40\n      mstore\n      swap1\n      dup2\n      0x00\n      dup3\n      add\n      dup1\n      sload\n      tag_31\n      swap1\n      tag_23\n      jump\t// in\n    tag_31:\n      dup1\n      0x1f\n      add\n      0x20\n      dup1\n      swap2\n      div\n      mul\n      0x20\n      add\n      mload(0x40)\n      swap1\n      dup2\n      add\n      0x40\n      mstore\n      dup1\n      swap3\n      swap2\n      swap1\n      dup2\n      dup2\n      mstore\n      0x20\n      add\n      dup3\n      dup1\n      sload\n      tag_32\n      swap1\n      tag_23\n      jump\t// in\n    tag_32:\n      dup1\n      iszero\n      tag_33\n      jumpi\n      dup1\n      0x1f\n      lt\n      tag_34\n      jumpi\n      0x0100\n      dup1\n      dup4\n      sload\n      div\n      mul\n      dup4\n      mstore\n      swap2\n      0x20\n      add\n      swap2\n      jump(tag_33)\n    tag_34:\n      dup3\n      add\n      swap2\n      swap1\n      0x00\n      mstore\n      keccak256(0x00, 0x20)\n      swap1\n    tag_35:\n      dup2\n      sload\n      dup2\n      mstore\n      swap1\n      0x01\n      add\n      swap1\n      0x20\n      add\n      dup1\n      dup4\n      gt\n      tag_35\n      jumpi\n      dup3\n      swap1\n      sub\n      0x1f\n      and\n      dup3\n      add\n      swap2\n    tag_33:\n      pop\n      pop\n      pop\n      pop\n      pop\n      dup2\n      mstore\n      0x20\n      add\n      0x01\n      dup3\n      add\n      sload\n      dup2\n      mstore\n      pop\n      pop\n      swap1\n      pop\n        /* \"contracts/nestedMaps.sol\":507:637  function retriveContact (uint index) public view returns (Contact memory){\r... */\n      swap2\n      swap1\n      pop\n      jump\t// out\n        /* \"contracts/nestedMaps.sol\":295:444  function addContact ( uint number, string memory name , uint index) public {\r... */\n    tag_21:\n        /* \"contracts/nestedMaps.sol\":414:435  Contact(name, number) */\n      mload(0x40)\n      dup1\n      0x40\n      add\n      0x40\n      mstore\n      dup1\n        /* \"contracts/nestedMaps.sol\":422:426  name */\n      dup4\n        /* \"contracts/nestedMaps.sol\":414:435  Contact(name, number) */\n      dup2\n      mstore\n      0x20\n      add\n        /* \"contracts/nestedMaps.sol\":428:434  number */\n      dup5\n        /* \"contracts/nestedMaps.sol\":414:435  Contact(name, number) */\n      dup2\n      mstore\n      pop\n        /* \"contracts/nestedMaps.sol\":381:392  contactList */\n      0x00\n        /* \"contracts/nestedMaps.sol\":381:404  contactList[msg.sender] */\n      dup1\n        /* \"contracts/nestedMaps.sol\":393:403  msg.sender */\n      caller\n        /* \"contracts/nestedMaps.sol\":381:404  contactList[msg.sender] */\n      0xffffffffffffffffffffffffffffffffffffffff\n      and\n      0xffffffffffffffffffffffffffffffffffffffff\n      and\n      dup2\n      mstore\n      0x20\n      add\n      swap1\n      dup2\n      mstore\n      0x20\n      add\n      0x00\n      keccak256\n        /* \"contracts/nestedMaps.sol\":381:411  contactList[msg.sender][index] */\n      0x00\n        /* \"contracts/nestedMaps.sol\":405:410  index */\n      dup4\n        /* \"contracts/nestedMaps.sol\":381:411  contactList[msg.sender][index] */\n      dup2\n      mstore\n      0x20\n      add\n      swap1\n      dup2\n      mstore\n      0x20\n      add\n      0x00\n      keccak256\n        /* \"contracts/nestedMaps.sol\":381:435  contactList[msg.sender][index] = Contact(name, number) */\n      0x00\n      dup3\n      add\n      mload\n      dup2\n      0x00\n      add\n      swap1\n      dup1\n      mload\n      swap1\n      0x20\n      add\n      swap1\n      tag_37\n      swap3\n      swap2\n      swap1\n      tag_38\n      jump\t// in\n    tag_37:\n      pop\n      0x20\n      dup3\n      add\n      mload\n      dup2\n      0x01\n      add\n      sstore\n      swap1\n      pop\n      pop\n        /* \"contracts/nestedMaps.sol\":295:444  function addContact ( uint number, string memory name , uint index) public {\r... */\n      pop\n      pop\n      pop\n      jump\t// out\n    tag_29:\n      mload(0x40)\n      dup1\n      0x40\n      add\n      0x40\n      mstore\n      dup1\n      0x60\n      dup2\n      mstore\n      0x20\n      add\n      0x00\n      dup2\n      mstore\n      pop\n      swap1\n      jump\t// out\n    tag_38:\n      dup3\n      dup1\n      sload\n      tag_39\n      swap1\n      tag_23\n      jump\t// in\n    tag_39:\n      swap1\n      0x00\n      mstore\n      keccak256(0x00, 0x20)\n      swap1\n      0x1f\n      add\n      0x20\n      swap1\n      div\n      dup2\n      add\n      swap3\n      dup3\n      tag_41\n      jumpi\n      0x00\n      dup6\n      sstore\n      jump(tag_40)\n    tag_41:\n      dup3\n      0x1f\n      lt\n      tag_42\n      jumpi\n      dup1\n      mload\n      not(0xff)\n      and\n      dup4\n      dup1\n      add\n      or\n      dup6\n      sstore\n      jump(tag_40)\n    tag_42:\n      dup3\n      dup1\n      add\n      0x01\n      add\n      dup6\n      sstore\n      dup3\n      iszero\n      tag_40\n      jumpi\n      swap2\n      dup3\n      add\n    tag_43:\n      dup3\n      dup2\n      gt\n      iszero\n      tag_44\n      jumpi\n      dup3\n      mload\n      dup3\n      sstore\n      swap2\n      0x20\n      add\n      swap2\n      swap1\n      0x01\n      add\n      swap1\n      jump(tag_43)\n    tag_44:\n    tag_40:\n      pop\n      swap1\n      pop\n      tag_45\n      swap2\n      swap1\n      tag_46\n      jump\t// in\n    tag_45:\n      pop\n      swap1\n      jump\t// out\n    tag_46:\n    tag_47:\n      dup1\n      dup3\n      gt\n      iszero\n      tag_48\n      jumpi\n      0x00\n      dup2\n      0x00\n      swap1\n      sstore\n      pop\n      0x01\n      add\n      jump(tag_47)\n    tag_48:\n      pop\n      swap1\n      jump\t// out\n        /* \"#utility.yul\":7:419   */\n    tag_50:\n        /* \"#utility.yul\":85:90   */\n      0x00\n        /* \"#utility.yul\":110:176   */\n      tag_52\n        /* \"#utility.yul\":126:175   */\n      tag_53\n        /* \"#utility.yul\":168:174   */\n      dup5\n        /* \"#utility.yul\":126:175   */\n      tag_54\n      jump\t// in\n    tag_53:\n        /* \"#utility.yul\":110:176   */\n      tag_55\n      jump\t// in\n    tag_52:\n        /* \"#utility.yul\":101:176   */\n      swap1\n      pop\n        /* \"#utility.yul\":199:205   */\n      dup3\n        /* \"#utility.yul\":192:197   */\n      dup2\n        /* \"#utility.yul\":185:206   */\n      mstore\n        /* \"#utility.yul\":237:241   */\n      0x20\n        /* \"#utility.yul\":230:235   */\n      dup2\n        /* \"#utility.yul\":226:242   */\n      add\n        /* \"#utility.yul\":275:278   */\n      dup5\n        /* \"#utility.yul\":266:272   */\n      dup5\n        /* \"#utility.yul\":261:264   */\n      dup5\n        /* \"#utility.yul\":257:273   */\n      add\n        /* \"#utility.yul\":254:279   */\n      gt\n        /* \"#utility.yul\":251:363   */\n      iszero\n      tag_56\n      jumpi\n        /* \"#utility.yul\":282:361   */\n      tag_57\n      tag_58\n      jump\t// in\n    tag_57:\n        /* \"#utility.yul\":251:363   */\n    tag_56:\n        /* \"#utility.yul\":372:413   */\n      tag_59\n        /* \"#utility.yul\":406:412   */\n      dup5\n        /* \"#utility.yul\":401:404   */\n      dup3\n        /* \"#utility.yul\":396:399   */\n      dup6\n        /* \"#utility.yul\":372:413   */\n      tag_60\n      jump\t// in\n    tag_59:\n        /* \"#utility.yul\":91:419   */\n      pop\n        /* \"#utility.yul\":7:419   */\n      swap4\n      swap3\n      pop\n      pop\n      pop\n      jump\t// out\n        /* \"#utility.yul\":425:564   */\n    tag_61:\n        /* \"#utility.yul\":471:476   */\n      0x00\n        /* \"#utility.yul\":509:515   */\n      dup2\n        /* \"#utility.yul\":496:516   */\n      calldataload\n        /* \"#utility.yul\":487:516   */\n      swap1\n      pop\n        /* \"#utility.yul\":525:558   */\n      tag_63\n        /* \"#utility.yul\":552:557   */\n      dup2\n        /* \"#utility.yul\":525:558   */\n      tag_64\n      jump\t// in\n    tag_63:\n        /* \"#utility.yul\":425:564   */\n      swap3\n      swap2\n      pop\n      pop\n      jump\t// out\n        /* \"#utility.yul\":584:924   */\n    tag_65:\n        /* \"#utility.yul\":640:645   */\n      0x00\n        /* \"#utility.yul\":689:692   */\n      dup3\n        /* \"#utility.yul\":682:686   */\n      0x1f\n        /* \"#utility.yul\":674:680   */\n      dup4\n        /* \"#utility.yul\":670:687   */\n      add\n        /* \"#utility.yul\":666:693   */\n      slt\n        /* \"#utility.yul\":656:778   */\n      tag_67\n      jumpi\n        /* \"#utility.yul\":697:776   */\n      tag_68\n      tag_69\n      jump\t// in\n    tag_68:\n        /* \"#utility.yul\":656:778   */\n    tag_67:\n        /* \"#utility.yul\":814:820   */\n      dup2\n        /* \"#utility.yul\":801:821   */\n      calldataload\n        /* \"#utility.yul\":839:918   */\n      tag_70\n        /* \"#utility.yul\":914:917   */\n      dup5\n        /* \"#utility.yul\":906:912   */\n      dup3\n        /* \"#utility.yul\":899:903   */\n      0x20\n        /* \"#utility.yul\":891:897   */\n      dup7\n        /* \"#utility.yul\":887:904   */\n      add\n        /* \"#utility.yul\":839:918   */\n      tag_50\n      jump\t// in\n    tag_70:\n        /* \"#utility.yul\":830:918   */\n      swap2\n      pop\n        /* \"#utility.yul\":646:924   */\n      pop\n        /* \"#utility.yul\":584:924   */\n      swap3\n      swap2\n      pop\n      pop\n      jump\t// out\n        /* \"#utility.yul\":930:1069   */\n    tag_71:\n        /* \"#utility.yul\":976:981   */\n      0x00\n        /* \"#utility.yul\":1014:1020   */\n      dup2\n        /* \"#utility.yul\":1001:1021   */\n      calldataload\n        /* \"#utility.yul\":992:1021   */\n      swap1\n      pop\n        /* \"#utility.yul\":1030:1063   */\n      tag_73\n        /* \"#utility.yul\":1057:1062   */\n      dup2\n        /* \"#utility.yul\":1030:1063   */\n      tag_74\n      jump\t// in\n    tag_73:\n        /* \"#utility.yul\":930:1069   */\n      swap3\n      swap2\n      pop\n      pop\n      jump\t// out\n        /* \"#utility.yul\":1075:1549   */\n    tag_8:\n        /* \"#utility.yul\":1143:1149   */\n      0x00\n        /* \"#utility.yul\":1151:1157   */\n      dup1\n        /* \"#utility.yul\":1200:1202   */\n      0x40\n        /* \"#utility.yul\":1188:1197   */\n      dup4\n        /* \"#utility.yul\":1179:1186   */\n      dup6\n        /* \"#utility.yul\":1175:1198   */\n      sub\n        /* \"#utility.yul\":1171:1203   */\n      slt\n        /* \"#utility.yul\":1168:1287   */\n      iszero\n      tag_76\n      jumpi\n        /* \"#utility.yul\":1206:1285   */\n      tag_77\n      tag_78\n      jump\t// in\n    tag_77:\n        /* \"#utility.yul\":1168:1287   */\n    tag_76:\n        /* \"#utility.yul\":1326:1327   */\n      0x00\n        /* \"#utility.yul\":1351:1404   */\n      tag_79\n        /* \"#utility.yul\":1396:1403   */\n      dup6\n        /* \"#utility.yul\":1387:1393   */\n      dup3\n        /* \"#utility.yul\":1376:1385   */\n      dup7\n        /* \"#utility.yul\":1372:1394   */\n      add\n        /* \"#utility.yul\":1351:1404   */\n      tag_61\n      jump\t// in\n    tag_79:\n        /* \"#utility.yul\":1341:1404   */\n      swap3\n      pop\n        /* \"#utility.yul\":1297:1414   */\n      pop\n        /* \"#utility.yul\":1453:1455   */\n      0x20\n        /* \"#utility.yul\":1479:1532   */\n      tag_80\n        /* \"#utility.yul\":1524:1531   */\n      dup6\n        /* \"#utility.yul\":1515:1521   */\n      dup3\n        /* \"#utility.yul\":1504:1513   */\n      dup7\n        /* \"#utility.yul\":1500:1522   */\n      add\n        /* \"#utility.yul\":1479:1532   */\n      tag_71\n      jump\t// in\n    tag_80:\n        /* \"#utility.yul\":1469:1532   */\n      swap2\n      pop\n        /* \"#utility.yul\":1424:1542   */\n      pop\n        /* \"#utility.yul\":1075:1549   */\n      swap3\n      pop\n      swap3\n      swap1\n      pop\n      jump\t// out\n        /* \"#utility.yul\":1555:1884   */\n    tag_14:\n        /* \"#utility.yul\":1614:1620   */\n      0x00\n        /* \"#utility.yul\":1663:1665   */\n      0x20\n        /* \"#utility.yul\":1651:1660   */\n      dup3\n        /* \"#utility.yul\":1642:1649   */\n      dup5\n        /* \"#utility.yul\":1638:1661   */\n      sub\n        /* \"#utility.yul\":1634:1666   */\n      slt\n        /* \"#utility.yul\":1631:1750   */\n      iszero\n      tag_82\n      jumpi\n        /* \"#utility.yul\":1669:1748   */\n      tag_83\n      tag_78\n      jump\t// in\n    tag_83:\n        /* \"#utility.yul\":1631:1750   */\n    tag_82:\n        /* \"#utility.yul\":1789:1790   */\n      0x00\n        /* \"#utility.yul\":1814:1867   */\n      tag_84\n        /* \"#utility.yul\":1859:1866   */\n      dup5\n        /* \"#utility.yul\":1850:1856   */\n      dup3\n        /* \"#utility.yul\":1839:1848   */\n      dup6\n        /* \"#utility.yul\":1835:1857   */\n      add\n        /* \"#utility.yul\":1814:1867   */\n      tag_71\n      jump\t// in\n    tag_84:\n        /* \"#utility.yul\":1804:1867   */\n      swap2\n      pop\n        /* \"#utility.yul\":1760:1877   */\n      pop\n        /* \"#utility.yul\":1555:1884   */\n      swap3\n      swap2\n      pop\n      pop\n      jump\t// out\n        /* \"#utility.yul\":1890:2689   */\n    tag_20:\n        /* \"#utility.yul\":1977:1983   */\n      0x00\n        /* \"#utility.yul\":1985:1991   */\n      dup1\n        /* \"#utility.yul\":1993:1999   */\n      0x00\n        /* \"#utility.yul\":2042:2044   */\n      0x60\n        /* \"#utility.yul\":2030:2039   */\n      dup5\n        /* \"#utility.yul\":2021:2028   */\n      dup7\n        /* \"#utility.yul\":2017:2040   */\n      sub\n        /* \"#utility.yul\":2013:2045   */\n      slt\n        /* \"#utility.yul\":2010:2129   */\n      iszero\n      tag_86\n      jumpi\n        /* \"#utility.yul\":2048:2127   */\n      tag_87\n      tag_78\n      jump\t// in\n    tag_87:\n        /* \"#utility.yul\":2010:2129   */\n    tag_86:\n        /* \"#utility.yul\":2168:2169   */\n      0x00\n        /* \"#utility.yul\":2193:2246   */\n      tag_88\n        /* \"#utility.yul\":2238:2245   */\n      dup7\n        /* \"#utility.yul\":2229:2235   */\n      dup3\n        /* \"#utility.yul\":2218:2227   */\n      dup8\n        /* \"#utility.yul\":2214:2236   */\n      add\n        /* \"#utility.yul\":2193:2246   */\n      tag_71\n      jump\t// in\n    tag_88:\n        /* \"#utility.yul\":2183:2246   */\n      swap4\n      pop\n        /* \"#utility.yul\":2139:2256   */\n      pop\n        /* \"#utility.yul\":2323:2325   */\n      0x20\n        /* \"#utility.yul\":2312:2321   */\n      dup5\n        /* \"#utility.yul\":2308:2326   */\n      add\n        /* \"#utility.yul\":2295:2327   */\n      calldataload\n        /* \"#utility.yul\":2354:2372   */\n      0xffffffffffffffff\n        /* \"#utility.yul\":2346:2352   */\n      dup2\n        /* \"#utility.yul\":2343:2373   */\n      gt\n        /* \"#utility.yul\":2340:2457   */\n      iszero\n      tag_89\n      jumpi\n        /* \"#utility.yul\":2376:2455   */\n      tag_90\n      tag_91\n      jump\t// in\n    tag_90:\n        /* \"#utility.yul\":2340:2457   */\n    tag_89:\n        /* \"#utility.yul\":2481:2544   */\n      tag_92\n        /* \"#utility.yul\":2536:2543   */\n      dup7\n        /* \"#utility.yul\":2527:2533   */\n      dup3\n        /* \"#utility.yul\":2516:2525   */\n      dup8\n        /* \"#utility.yul\":2512:2534   */\n      add\n        /* \"#utility.yul\":2481:2544   */\n      tag_65\n      jump\t// in\n    tag_92:\n        /* \"#utility.yul\":2471:2544   */\n      swap3\n      pop\n        /* \"#utility.yul\":2266:2554   */\n      pop\n        /* \"#utility.yul\":2593:2595   */\n      0x40\n        /* \"#utility.yul\":2619:2672   */\n      tag_93\n        /* \"#utility.yul\":2664:2671   */\n      dup7\n        /* \"#utility.yul\":2655:2661   */\n      dup3\n        /* \"#utility.yul\":2644:2653   */\n      dup8\n        /* \"#utility.yul\":2640:2662   */\n      add\n        /* \"#utility.yul\":2619:2672   */\n      tag_71\n      jump\t// in\n    tag_93:\n        /* \"#utility.yul\":2609:2672   */\n      swap2\n      pop\n        /* \"#utility.yul\":2564:2682   */\n      pop\n        /* \"#utility.yul\":1890:2689   */\n      swap3\n      pop\n      swap3\n      pop\n      swap3\n      jump\t// out\n        /* \"#utility.yul\":2695:3039   */\n    tag_94:\n        /* \"#utility.yul\":2773:2776   */\n      0x00\n        /* \"#utility.yul\":2801:2840   */\n      tag_96\n        /* \"#utility.yul\":2834:2839   */\n      dup3\n        /* \"#utility.yul\":2801:2840   */\n      tag_97\n      jump\t// in\n    tag_96:\n        /* \"#utility.yul\":2856:2917   */\n      tag_98\n        /* \"#utility.yul\":2910:2916   */\n      dup2\n        /* \"#utility.yul\":2905:2908   */\n      dup6\n        /* \"#utility.yul\":2856:2917   */\n      tag_99\n      jump\t// in\n    tag_98:\n        /* \"#utility.yul\":2849:2917   */\n      swap4\n      pop\n        /* \"#utility.yul\":2926:2978   */\n      tag_100\n        /* \"#utility.yul\":2971:2977   */\n      dup2\n        /* \"#utility.yul\":2966:2969   */\n      dup6\n        /* \"#utility.yul\":2959:2963   */\n      0x20\n        /* \"#utility.yul\":2952:2957   */\n      dup7\n        /* \"#utility.yul\":2948:2964   */\n      add\n        /* \"#utility.yul\":2926:2978   */\n      tag_101\n      jump\t// in\n    tag_100:\n        /* \"#utility.yul\":3003:3032   */\n      tag_102\n        /* \"#utility.yul\":3025:3031   */\n      dup2\n        /* \"#utility.yul\":3003:3032   */\n      tag_103\n      jump\t// in\n    tag_102:\n        /* \"#utility.yul\":2998:3001   */\n      dup5\n        /* \"#utility.yul\":2994:3033   */\n      add\n        /* \"#utility.yul\":2987:3033   */\n      swap2\n      pop\n        /* \"#utility.yul\":2777:3039   */\n      pop\n        /* \"#utility.yul\":2695:3039   */\n      swap3\n      swap2\n      pop\n      pop\n      jump\t// out\n        /* \"#utility.yul\":3045:3409   */\n    tag_104:\n        /* \"#utility.yul\":3133:3136   */\n      0x00\n        /* \"#utility.yul\":3161:3200   */\n      tag_106\n        /* \"#utility.yul\":3194:3199   */\n      dup3\n        /* \"#utility.yul\":3161:3200   */\n      tag_97\n      jump\t// in\n    tag_106:\n        /* \"#utility.yul\":3216:3287   */\n      tag_107\n        /* \"#utility.yul\":3280:3286   */\n      dup2\n        /* \"#utility.yul\":3275:3278   */\n      dup6\n        /* \"#utility.yul\":3216:3287   */\n      tag_108\n      jump\t// in\n    tag_107:\n        /* \"#utility.yul\":3209:3287   */\n      swap4\n      pop\n        /* \"#utility.yul\":3296:3348   */\n      tag_109\n        /* \"#utility.yul\":3341:3347   */\n      dup2\n        /* \"#utility.yul\":3336:3339   */\n      dup6\n        /* \"#utility.yul\":3329:3333   */\n      0x20\n        /* \"#utility.yul\":3322:3327   */\n      dup7\n        /* \"#utility.yul\":3318:3334   */\n      add\n        /* \"#utility.yul\":3296:3348   */\n      tag_101\n      jump\t// in\n    tag_109:\n        /* \"#utility.yul\":3373:3402   */\n      tag_110\n        /* \"#utility.yul\":3395:3401   */\n      dup2\n        /* \"#utility.yul\":3373:3402   */\n      tag_103\n      jump\t// in\n    tag_110:\n        /* \"#utility.yul\":3368:3371   */\n      dup5\n        /* \"#utility.yul\":3364:3403   */\n      add\n        /* \"#utility.yul\":3357:3403   */\n      swap2\n      pop\n        /* \"#utility.yul\":3137:3409   */\n      pop\n        /* \"#utility.yul\":3045:3409   */\n      swap3\n      swap2\n      pop\n      pop\n      jump\t// out\n        /* \"#utility.yul\":3477:4079   */\n    tag_111:\n        /* \"#utility.yul\":3590:3593   */\n      0x00\n        /* \"#utility.yul\":3626:3630   */\n      0x40\n        /* \"#utility.yul\":3621:3624   */\n      dup4\n        /* \"#utility.yul\":3617:3631   */\n      add\n        /* \"#utility.yul\":3713:3717   */\n      0x00\n        /* \"#utility.yul\":3706:3711   */\n      dup4\n        /* \"#utility.yul\":3702:3718   */\n      add\n        /* \"#utility.yul\":3696:3719   */\n      mload\n        /* \"#utility.yul\":3766:3769   */\n      dup5\n        /* \"#utility.yul\":3760:3764   */\n      dup3\n        /* \"#utility.yul\":3756:3770   */\n      sub\n        /* \"#utility.yul\":3749:3753   */\n      0x00\n        /* \"#utility.yul\":3744:3747   */\n      dup7\n        /* \"#utility.yul\":3740:3754   */\n      add\n        /* \"#utility.yul\":3733:3771   */\n      mstore\n        /* \"#utility.yul\":3792:3865   */\n      tag_113\n        /* \"#utility.yul\":3860:3864   */\n      dup3\n        /* \"#utility.yul\":3846:3858   */\n      dup3\n        /* \"#utility.yul\":3792:3865   */\n      tag_94\n      jump\t// in\n    tag_113:\n        /* \"#utility.yul\":3784:3865   */\n      swap2\n      pop\n        /* \"#utility.yul\":3641:3876   */\n      pop\n        /* \"#utility.yul\":3960:3964   */\n      0x20\n        /* \"#utility.yul\":3953:3958   */\n      dup4\n        /* \"#utility.yul\":3949:3965   */\n      add\n        /* \"#utility.yul\":3943:3966   */\n      mload\n        /* \"#utility.yul\":3979:4042   */\n      tag_114\n        /* \"#utility.yul\":4036:4040   */\n      0x20\n        /* \"#utility.yul\":4031:4034   */\n      dup7\n        /* \"#utility.yul\":4027:4041   */\n      add\n        /* \"#utility.yul\":4013:4025   */\n      dup3\n        /* \"#utility.yul\":3979:4042   */\n      tag_115\n      jump\t// in\n    tag_114:\n        /* \"#utility.yul\":3886:4052   */\n      pop\n        /* \"#utility.yul\":4069:4073   */\n      dup1\n        /* \"#utility.yul\":4062:4073   */\n      swap2\n      pop\n        /* \"#utility.yul\":3595:4079   */\n      pop\n        /* \"#utility.yul\":3477:4079   */\n      swap3\n      swap2\n      pop\n      pop\n      jump\t// out\n        /* \"#utility.yul\":4085:4193   */\n    tag_115:\n        /* \"#utility.yul\":4162:4186   */\n      tag_117\n        /* \"#utility.yul\":4180:4185   */\n      dup2\n        /* \"#utility.yul\":4162:4186   */\n      tag_118\n      jump\t// in\n    tag_117:\n        /* \"#utility.yul\":4157:4160   */\n      dup3\n        /* \"#utility.yul\":4150:4187   */\n      mstore\n        /* \"#utility.yul\":4085:4193   */\n      pop\n      pop\n      jump\t// out\n        /* \"#utility.yul\":4199:4317   */\n    tag_119:\n        /* \"#utility.yul\":4286:4310   */\n      tag_121\n        /* \"#utility.yul\":4304:4309   */\n      dup2\n        /* \"#utility.yul\":4286:4310   */\n      tag_118\n      jump\t// in\n    tag_121:\n        /* \"#utility.yul\":4281:4284   */\n      dup3\n        /* \"#utility.yul\":4274:4311   */\n      mstore\n        /* \"#utility.yul\":4199:4317   */\n      pop\n      pop\n      jump\t// out\n        /* \"#utility.yul\":4323:4746   */\n    tag_11:\n        /* \"#utility.yul\":4464:4468   */\n      0x00\n        /* \"#utility.yul\":4502:4504   */\n      0x40\n        /* \"#utility.yul\":4491:4500   */\n      dup3\n        /* \"#utility.yul\":4487:4505   */\n      add\n        /* \"#utility.yul\":4479:4505   */\n      swap1\n      pop\n        /* \"#utility.yul\":4551:4560   */\n      dup2\n        /* \"#utility.yul\":4545:4549   */\n      dup2\n        /* \"#utility.yul\":4541:4561   */\n      sub\n        /* \"#utility.yul\":4537:4538   */\n      0x00\n        /* \"#utility.yul\":4526:4535   */\n      dup4\n        /* \"#utility.yul\":4522:4539   */\n      add\n        /* \"#utility.yul\":4515:4562   */\n      mstore\n        /* \"#utility.yul\":4579:4657   */\n      tag_123\n        /* \"#utility.yul\":4652:4656   */\n      dup2\n        /* \"#utility.yul\":4643:4649   */\n      dup6\n        /* \"#utility.yul\":4579:4657   */\n      tag_104\n      jump\t// in\n    tag_123:\n        /* \"#utility.yul\":4571:4657   */\n      swap1\n      pop\n        /* \"#utility.yul\":4667:4739   */\n      tag_124\n        /* \"#utility.yul\":4735:4737   */\n      0x20\n        /* \"#utility.yul\":4724:4733   */\n      dup4\n        /* \"#utility.yul\":4720:4738   */\n      add\n        /* \"#utility.yul\":4711:4717   */\n      dup5\n        /* \"#utility.yul\":4667:4739   */\n      tag_119\n      jump\t// in\n    tag_124:\n        /* \"#utility.yul\":4323:4746   */\n      swap4\n      swap3\n      pop\n      pop\n      pop\n      jump\t// out\n        /* \"#utility.yul\":4752:5113   */\n    tag_17:\n        /* \"#utility.yul\":4889:4893   */\n      0x00\n        /* \"#utility.yul\":4927:4929   */\n      0x20\n        /* \"#utility.yul\":4916:4925   */\n      dup3\n        /* \"#utility.yul\":4912:4930   */\n      add\n        /* \"#utility.yul\":4904:4930   */\n      swap1\n      pop\n        /* \"#utility.yul\":4976:4985   */\n      dup2\n        /* \"#utility.yul\":4970:4974   */\n      dup2\n        /* \"#utility.yul\":4966:4986   */\n      sub\n        /* \"#utility.yul\":4962:4963   */\n      0x00\n        /* \"#utility.yul\":4951:4960   */\n      dup4\n        /* \"#utility.yul\":4947:4964   */\n      add\n        /* \"#utility.yul\":4940:4987   */\n      mstore\n        /* \"#utility.yul\":5004:5106   */\n      tag_126\n        /* \"#utility.yul\":5101:5105   */\n      dup2\n        /* \"#utility.yul\":5092:5098   */\n      dup5\n        /* \"#utility.yul\":5004:5106   */\n      tag_111\n      jump\t// in\n    tag_126:\n        /* \"#utility.yul\":4996:5106   */\n      swap1\n      pop\n        /* \"#utility.yul\":4752:5113   */\n      swap3\n      swap2\n      pop\n      pop\n      jump\t// out\n        /* \"#utility.yul\":5119:5248   */\n    tag_55:\n        /* \"#utility.yul\":5153:5159   */\n      0x00\n        /* \"#utility.yul\":5180:5200   */\n      tag_128\n      tag_129\n      jump\t// in\n    tag_128:\n        /* \"#utility.yul\":5170:5200   */\n      swap1\n      pop\n        /* \"#utility.yul\":5209:5242   */\n      tag_130\n        /* \"#utility.yul\":5237:5241   */\n      dup3\n        /* \"#utility.yul\":5229:5235   */\n      dup3\n        /* \"#utility.yul\":5209:5242   */\n      tag_131\n      jump\t// in\n    tag_130:\n        /* \"#utility.yul\":5119:5248   */\n      swap2\n      swap1\n      pop\n      jump\t// out\n        /* \"#utility.yul\":5254:5329   */\n    tag_129:\n        /* \"#utility.yul\":5287:5293   */\n      0x00\n        /* \"#utility.yul\":5320:5322   */\n      0x40\n        /* \"#utility.yul\":5314:5323   */\n      mload\n        /* \"#utility.yul\":5304:5323   */\n      swap1\n      pop\n        /* \"#utility.yul\":5254:5329   */\n      swap1\n      jump\t// out\n        /* \"#utility.yul\":5335:5643   */\n    tag_54:\n        /* \"#utility.yul\":5397:5401   */\n      0x00\n        /* \"#utility.yul\":5487:5505   */\n      0xffffffffffffffff\n        /* \"#utility.yul\":5479:5485   */\n      dup3\n        /* \"#utility.yul\":5476:5506   */\n      gt\n        /* \"#utility.yul\":5473:5529   */\n      iszero\n      tag_134\n      jumpi\n        /* \"#utility.yul\":5509:5527   */\n      tag_135\n      tag_136\n      jump\t// in\n    tag_135:\n        /* \"#utility.yul\":5473:5529   */\n    tag_134:\n        /* \"#utility.yul\":5547:5576   */\n      tag_137\n        /* \"#utility.yul\":5569:5575   */\n      dup3\n        /* \"#utility.yul\":5547:5576   */\n      tag_103\n      jump\t// in\n    tag_137:\n        /* \"#utility.yul\":5539:5576   */\n      swap1\n      pop\n        /* \"#utility.yul\":5631:5635   */\n      0x20\n        /* \"#utility.yul\":5625:5629   */\n      dup2\n        /* \"#utility.yul\":5621:5636   */\n      add\n        /* \"#utility.yul\":5613:5636   */\n      swap1\n      pop\n        /* \"#utility.yul\":5335:5643   */\n      swap2\n      swap1\n      pop\n      jump\t// out\n        /* \"#utility.yul\":5649:5748   */\n    tag_97:\n        /* \"#utility.yul\":5701:5707   */\n      0x00\n        /* \"#utility.yul\":5735:5740   */\n      dup2\n        /* \"#utility.yul\":5729:5741   */\n      mload\n        /* \"#utility.yul\":5719:5741   */\n      swap1\n      pop\n        /* \"#utility.yul\":5649:5748   */\n      swap2\n      swap1\n      pop\n      jump\t// out\n        /* \"#utility.yul\":5754:5913   */\n    tag_99:\n        /* \"#utility.yul\":5828:5839   */\n      0x00\n        /* \"#utility.yul\":5862:5868   */\n      dup3\n        /* \"#utility.yul\":5857:5860   */\n      dup3\n        /* \"#utility.yul\":5850:5869   */\n      mstore\n        /* \"#utility.yul\":5902:5906   */\n      0x20\n        /* \"#utility.yul\":5897:5900   */\n      dup3\n        /* \"#utility.yul\":5893:5907   */\n      add\n        /* \"#utility.yul\":5878:5907   */\n      swap1\n      pop\n        /* \"#utility.yul\":5754:5913   */\n      swap3\n      swap2\n      pop\n      pop\n      jump\t// out\n        /* \"#utility.yul\":5919:6088   */\n    tag_108:\n        /* \"#utility.yul\":6003:6014   */\n      0x00\n        /* \"#utility.yul\":6037:6043   */\n      dup3\n        /* \"#utility.yul\":6032:6035   */\n      dup3\n        /* \"#utility.yul\":6025:6044   */\n      mstore\n        /* \"#utility.yul\":6077:6081   */\n      0x20\n        /* \"#utility.yul\":6072:6075   */\n      dup3\n        /* \"#utility.yul\":6068:6082   */\n      add\n        /* \"#utility.yul\":6053:6082   */\n      swap1\n      pop\n        /* \"#utility.yul\":5919:6088   */\n      swap3\n      swap2\n      pop\n      pop\n      jump\t// out\n        /* \"#utility.yul\":6094:6190   */\n    tag_141:\n        /* \"#utility.yul\":6131:6138   */\n      0x00\n        /* \"#utility.yul\":6160:6184   */\n      tag_143\n        /* \"#utility.yul\":6178:6183   */\n      dup3\n        /* \"#utility.yul\":6160:6184   */\n      tag_144\n      jump\t// in\n    tag_143:\n        /* \"#utility.yul\":6149:6184   */\n      swap1\n      pop\n        /* \"#utility.yul\":6094:6190   */\n      swap2\n      swap1\n      pop\n      jump\t// out\n        /* \"#utility.yul\":6196:6322   */\n    tag_144:\n        /* \"#utility.yul\":6233:6240   */\n      0x00\n        /* \"#utility.yul\":6273:6315   */\n      0xffffffffffffffffffffffffffffffffffffffff\n        /* \"#utility.yul\":6266:6271   */\n      dup3\n        /* \"#utility.yul\":6262:6316   */\n      and\n        /* \"#utility.yul\":6251:6316   */\n      swap1\n      pop\n        /* \"#utility.yul\":6196:6322   */\n      swap2\n      swap1\n      pop\n      jump\t// out\n        /* \"#utility.yul\":6328:6405   */\n    tag_118:\n        /* \"#utility.yul\":6365:6372   */\n      0x00\n        /* \"#utility.yul\":6394:6399   */\n      dup2\n        /* \"#utility.yul\":6383:6399   */\n      swap1\n      pop\n        /* \"#utility.yul\":6328:6405   */\n      swap2\n      swap1\n      pop\n      jump\t// out\n        /* \"#utility.yul\":6411:6565   */\n    tag_60:\n        /* \"#utility.yul\":6495:6501   */\n      dup3\n        /* \"#utility.yul\":6490:6493   */\n      dup2\n        /* \"#utility.yul\":6485:6488   */\n      dup4\n        /* \"#utility.yul\":6472:6502   */\n      calldatacopy\n        /* \"#utility.yul\":6557:6558   */\n      0x00\n        /* \"#utility.yul\":6548:6554   */\n      dup4\n        /* \"#utility.yul\":6543:6546   */\n      dup4\n        /* \"#utility.yul\":6539:6555   */\n      add\n        /* \"#utility.yul\":6532:6559   */\n      mstore\n        /* \"#utility.yul\":6411:6565   */\n      pop\n      pop\n      pop\n      jump\t// out\n        /* \"#utility.yul\":6571:6878   */\n    tag_101:\n        /* \"#utility.yul\":6639:6640   */\n      0x00\n        /* \"#utility.yul\":6649:6762   */\n    tag_149:\n        /* \"#utility.yul\":6663:6669   */\n      dup4\n        /* \"#utility.yul\":6660:6661   */\n      dup2\n        /* \"#utility.yul\":6657:6670   */\n      lt\n        /* \"#utility.yul\":6649:6762   */\n      iszero\n      tag_151\n      jumpi\n        /* \"#utility.yul\":6748:6749   */\n      dup1\n        /* \"#utility.yul\":6743:6746   */\n      dup3\n        /* \"#utility.yul\":6739:6750   */\n      add\n        /* \"#utility.yul\":6733:6751   */\n      mload\n        /* \"#utility.yul\":6729:6730   */\n      dup2\n        /* \"#utility.yul\":6724:6727   */\n      dup5\n        /* \"#utility.yul\":6720:6731   */\n      add\n        /* \"#utility.yul\":6713:6752   */\n      mstore\n        /* \"#utility.yul\":6685:6687   */\n      0x20\n        /* \"#utility.yul\":6682:6683   */\n      dup2\n        /* \"#utility.yul\":6678:6688   */\n      add\n        /* \"#utility.yul\":6673:6688   */\n      swap1\n      pop\n        /* \"#utility.yul\":6649:6762   */\n      jump(tag_149)\n    tag_151:\n        /* \"#utility.yul\":6780:6786   */\n      dup4\n        /* \"#utility.yul\":6777:6778   */\n      dup2\n        /* \"#utility.yul\":6774:6787   */\n      gt\n        /* \"#utility.yul\":6771:6872   */\n      iszero\n      tag_152\n      jumpi\n        /* \"#utility.yul\":6860:6861   */\n      0x00\n        /* \"#utility.yul\":6851:6857   */\n      dup5\n        /* \"#utility.yul\":6846:6849   */\n      dup5\n        /* \"#utility.yul\":6842:6858   */\n      add\n        /* \"#utility.yul\":6835:6862   */\n      mstore\n        /* \"#utility.yul\":6771:6872   */\n    tag_152:\n        /* \"#utility.yul\":6620:6878   */\n      pop\n        /* \"#utility.yul\":6571:6878   */\n      pop\n      pop\n      pop\n      jump\t// out\n        /* \"#utility.yul\":6884:7204   */\n    tag_23:\n        /* \"#utility.yul\":6928:6934   */\n      0x00\n        /* \"#utility.yul\":6965:6966   */\n      0x02\n        /* \"#utility.yul\":6959:6963   */\n      dup3\n        /* \"#utility.yul\":6955:6967   */\n      div\n        /* \"#utility.yul\":6945:6967   */\n      swap1\n      pop\n        /* \"#utility.yul\":7012:7013   */\n      0x01\n        /* \"#utility.yul\":7006:7010   */\n      dup3\n        /* \"#utility.yul\":7002:7014   */\n      and\n        /* \"#utility.yul\":7033:7051   */\n      dup1\n        /* \"#utility.yul\":7023:7104   */\n      tag_154\n      jumpi\n        /* \"#utility.yul\":7089:7093   */\n      0x7f\n        /* \"#utility.yul\":7081:7087   */\n      dup3\n        /* \"#utility.yul\":7077:7094   */\n      and\n        /* \"#utility.yul\":7067:7094   */\n      swap2\n      pop\n        /* \"#utility.yul\":7023:7104   */\n    tag_154:\n        /* \"#utility.yul\":7151:7153   */\n      0x20\n        /* \"#utility.yul\":7143:7149   */\n      dup3\n        /* \"#utility.yul\":7140:7154   */\n      lt\n        /* \"#utility.yul\":7120:7138   */\n      dup2\n        /* \"#utility.yul\":7117:7155   */\n      eq\n        /* \"#utility.yul\":7114:7198   */\n      iszero\n      tag_155\n      jumpi\n        /* \"#utility.yul\":7170:7188   */\n      tag_156\n      tag_157\n      jump\t// in\n    tag_156:\n        /* \"#utility.yul\":7114:7198   */\n    tag_155:\n        /* \"#utility.yul\":6935:7204   */\n      pop\n        /* \"#utility.yul\":6884:7204   */\n      swap2\n      swap1\n      pop\n      jump\t// out\n        /* \"#utility.yul\":7210:7491   */\n    tag_131:\n        /* \"#utility.yul\":7293:7320   */\n      tag_159\n        /* \"#utility.yul\":7315:7319   */\n      dup3\n        /* \"#utility.yul\":7293:7320   */\n      tag_103\n      jump\t// in\n    tag_159:\n        /* \"#utility.yul\":7285:7291   */\n      dup2\n        /* \"#utility.yul\":7281:7321   */\n      add\n        /* \"#utility.yul\":7423:7429   */\n      dup2\n        /* \"#utility.yul\":7411:7421   */\n      dup2\n        /* \"#utility.yul\":7408:7430   */\n      lt\n        /* \"#utility.yul\":7387:7405   */\n      0xffffffffffffffff\n        /* \"#utility.yul\":7375:7385   */\n      dup3\n        /* \"#utility.yul\":7372:7406   */\n      gt\n        /* \"#utility.yul\":7369:7431   */\n      or\n        /* \"#utility.yul\":7366:7454   */\n      iszero\n      tag_160\n      jumpi\n        /* \"#utility.yul\":7434:7452   */\n      tag_161\n      tag_136\n      jump\t// in\n    tag_161:\n        /* \"#utility.yul\":7366:7454   */\n    tag_160:\n        /* \"#utility.yul\":7474:7484   */\n      dup1\n        /* \"#utility.yul\":7470:7472   */\n      0x40\n        /* \"#utility.yul\":7463:7485   */\n      mstore\n        /* \"#utility.yul\":7253:7491   */\n      pop\n        /* \"#utility.yul\":7210:7491   */\n      pop\n      pop\n      jump\t// out\n        /* \"#utility.yul\":7497:7677   */\n    tag_157:\n        /* \"#utility.yul\":7545:7622   */\n      0x4e487b7100000000000000000000000000000000000000000000000000000000\n        /* \"#utility.yul\":7542:7543   */\n      0x00\n        /* \"#utility.yul\":7535:7623   */\n      mstore\n        /* \"#utility.yul\":7642:7646   */\n      0x22\n        /* \"#utility.yul\":7639:7640   */\n      0x04\n        /* \"#utility.yul\":7632:7647   */\n      mstore\n        /* \"#utility.yul\":7666:7670   */\n      0x24\n        /* \"#utility.yul\":7663:7664   */\n      0x00\n        /* \"#utility.yul\":7656:7671   */\n      revert\n        /* \"#utility.yul\":7683:7863   */\n    tag_136:\n        /* \"#utility.yul\":7731:7808   */\n      0x4e487b7100000000000000000000000000000000000000000000000000000000\n        /* \"#utility.yul\":7728:7729   */\n      0x00\n        /* \"#utility.yul\":7721:7809   */\n      mstore\n        /* \"#utility.yul\":7828:7832   */\n      0x41\n        /* \"#utility.yul\":7825:7826   */\n      0x04\n        /* \"#utility.yul\":7818:7833   */\n      mstore\n        /* \"#utility.yul\":7852:7856   */\n      0x24\n        /* \"#utility.yul\":7849:7850   */\n      0x00\n        /* \"#utility.yul\":7842:7857   */\n      revert\n        /* \"#utility.yul\":7869:7986   */\n    tag_69:\n        /* \"#utility.yul\":7978:7979   */\n      0x00\n        /* \"#utility.yul\":7975:7976   */\n      dup1\n        /* \"#utility.yul\":7968:7980   */\n      revert\n        /* \"#utility.yul\":7992:8109   */\n    tag_58:\n        /* \"#utility.yul\":8101:8102   */\n      0x00\n        /* \"#utility.yul\":8098:8099   */\n      dup1\n        /* \"#utility.yul\":8091:8103   */\n      revert\n        /* \"#utility.yul\":8115:8232   */\n    tag_91:\n        /* \"#utility.yul\":8224:8225   */\n      0x00\n        /* \"#utility.yul\":8221:8222   */\n      dup1\n        /* \"#utility.yul\":8214:8226   */\n      revert\n        /* \"#utility.yul\":8238:8355   */\n    tag_78:\n        /* \"#utility.yul\":8347:8348   */\n      0x00\n        /* \"#utility.yul\":8344:8345   */\n      dup1\n        /* \"#utility.yul\":8337:8349   */\n      revert\n        /* \"#utility.yul\":8361:8463   */\n    tag_103:\n        /* \"#utility.yul\":8402:8408   */\n      0x00\n        /* \"#utility.yul\":8453:8455   */\n      0x1f\n        /* \"#utility.yul\":8449:8456   */\n      not\n        /* \"#utility.yul\":8444:8446   */\n      0x1f\n        /* \"#utility.yul\":8437:8442   */\n      dup4\n        /* \"#utility.yul\":8433:8447   */\n      add\n        /* \"#utility.yul\":8429:8457   */\n      and\n        /* \"#utility.yul\":8419:8457   */\n      swap1\n      pop\n        /* \"#utility.yul\":8361:8463   */\n      swap2\n      swap1\n      pop\n      jump\t// out\n        /* \"#utility.yul\":8469:8591   */\n    tag_64:\n        /* \"#utility.yul\":8542:8566   */\n      tag_170\n        /* \"#utility.yul\":8560:8565   */\n      dup2\n        /* \"#utility.yul\":8542:8566   */\n      tag_141\n      jump\t// in\n    tag_170:\n        /* \"#utility.yul\":8535:8540   */\n      dup2\n        /* \"#utility.yul\":8532:8567   */\n      eq\n        /* \"#utility.yul\":8522:8585   */\n      tag_171\n      jumpi\n        /* \"#utility.yul\":8581:8582   */\n      0x00\n        /* \"#utility.yul\":8578:8579   */\n      dup1\n        /* \"#utility.yul\":8571:8583   */\n      revert\n        /* \"#utility.yul\":8522:8585   */\n    tag_171:\n        /* \"#utility.yul\":8469:8591   */\n      pop\n      jump\t// out\n        /* \"#utility.yul\":8597:8719   */\n    tag_74:\n        /* \"#utility.yul\":8670:8694   */\n      tag_173\n        /* \"#utility.yul\":8688:8693   */\n      dup2\n        /* \"#utility.yul\":8670:8694   */\n      tag_118\n      jump\t// in\n    tag_173:\n        /* \"#utility.yul\":8663:8668   */\n      dup2\n        /* \"#utility.yul\":8660:8695   */\n      eq\n        /* \"#utility.yul\":8650:8713   */\n      tag_174\n      jumpi\n        /* \"#utility.yul\":8709:8710   */\n      0x00\n        /* \"#utility.yul\":8706:8707   */\n      dup1\n        /* \"#utility.yul\":8699:8711   */\n      revert\n        /* \"#utility.yul\":8650:8713   */\n    tag_174:\n        /* \"#utility.yul\":8597:8719   */\n      pop\n      jump\t// out\n\n    auxdata: 0xa26469706673582212208f3d482be5073c46c00f67bbc74edcec89f9a35baf3c6ae47c7cb24f1def08d164736f6c63430008070033\n}\n",
				"bytecode": {
					"linkReferences": {},
					"object": "608060405234801561001057600080fd5b506108b1806100206000396000f3fe608060405234801561001057600080fd5b50600436106100415760003560e01c806307bb6260146100465780632454ce4f1461007757806382d309e5146100a7575b600080fd5b610060600480360381019061005b919061046b565b6100c3565b60405161006e929190610614565b60405180910390f35b610091600480360381019061008c91906104ab565b61017c565b60405161009e9190610644565b60405180910390f35b6100c160048036038101906100bc91906104d8565b610281565b005b6000602052816000526040600020602052806000526040600020600091509150508060000180546100f390610767565b80601f016020809104026020016040519081016040528092919081815260200182805461011f90610767565b801561016c5780601f106101415761010080835404028352916020019161016c565b820191906000526020600020905b81548152906001019060200180831161014f57829003601f168201915b5050505050908060010154905082565b610184610314565b6000803373ffffffffffffffffffffffffffffffffffffffff1673ffffffffffffffffffffffffffffffffffffffff16815260200190815260200160002060008381526020019081526020016000206040518060400160405290816000820180546101ee90610767565b80601f016020809104026020016040519081016040528092919081815260200182805461021a90610767565b80156102675780601f1061023c57610100808354040283529160200191610267565b820191906000526020600020905b81548152906001019060200180831161024a57829003601f168201915b505050505081526020016001820154815250509050919050565b6040518060400160405280838152602001848152506000803373ffffffffffffffffffffffffffffffffffffffff1673ffffffffffffffffffffffffffffffffffffffff1681526020019081526020016000206000838152602001908152602001600020600082015181600001908051906020019061030192919061032e565b5060208201518160010155905050505050565b604051806040016040528060608152602001600081525090565b82805461033a90610767565b90600052602060002090601f01602090048101928261035c57600085556103a3565b82601f1061037557805160ff19168380011785556103a3565b828001600101855582156103a3579182015b828111156103a2578251825591602001919060010190610387565b5b5090506103b091906103b4565b5090565b5b808211156103cd5760008160009055506001016103b5565b5090565b60006103e46103df8461068b565b610666565b905082815260208101848484011115610400576103ff61082d565b5b61040b848285610725565b509392505050565b6000813590506104228161084d565b92915050565b600082601f83011261043d5761043c610828565b5b813561044d8482602086016103d1565b91505092915050565b60008135905061046581610864565b92915050565b6000806040838503121561048257610481610837565b5b600061049085828601610413565b92505060206104a185828601610456565b9150509250929050565b6000602082840312156104c1576104c0610837565b5b60006104cf84828501610456565b91505092915050565b6000806000606084860312156104f1576104f0610837565b5b60006104ff86828701610456565b935050602084013567ffffffffffffffff8111156105205761051f610832565b5b61052c86828701610428565b925050604061053d86828701610456565b9150509250925092565b6000610552826106bc565b61055c81856106c7565b935061056c818560208601610734565b6105758161083c565b840191505092915050565b600061058b826106bc565b61059581856106d8565b93506105a5818560208601610734565b6105ae8161083c565b840191505092915050565b600060408301600083015184820360008601526105d68282610547565b91505060208301516105eb60208601826105f6565b508091505092915050565b6105ff8161071b565b82525050565b61060e8161071b565b82525050565b6000604082019050818103600083015261062e8185610580565b905061063d6020830184610605565b9392505050565b6000602082019050818103600083015261065e81846105b9565b905092915050565b6000610670610681565b905061067c8282610799565b919050565b6000604051905090565b600067ffffffffffffffff8211156106a6576106a56107f9565b5b6106af8261083c565b9050602081019050919050565b600081519050919050565b600082825260208201905092915050565b600082825260208201905092915050565b60006106f4826106fb565b9050919050565b600073ffffffffffffffffffffffffffffffffffffffff82169050919050565b6000819050919050565b82818337600083830152505050565b60005b83811015610752578082015181840152602081019050610737565b83811115610761576000848401525b50505050565b6000600282049050600182168061077f57607f821691505b60208210811415610793576107926107ca565b5b50919050565b6107a28261083c565b810181811067ffffffffffffffff821117156107c1576107c06107f9565b5b80604052505050565b7f4e487b7100000000000000000000000000000000000000000000000000000000600052602260045260246000fd5b7f4e487b7100000000000000000000000000000000000000000000000000000000600052604160045260246000fd5b600080fd5b600080fd5b600080fd5b600080fd5b6000601f19601f8301169050919050565b610856816106e9565b811461086157600080fd5b50565b61086d8161071b565b811461087857600080fd5b5056fea26469706673582212208f3d482be5073c46c00f67bbc74edcec89f9a35baf3c6ae47c7cb24f1def08d164736f6c63430008070033",
					"opcodes": "PUSH1 0x80 PUSH1 0x40 MSTORE CALLVALUE DUP1 ISZERO PUSH2 0x10 JUMPI PUSH1 0x0 DUP1 REVERT JUMPDEST POP PUSH2 0x8B1 DUP1 PUSH2 0x20 PUSH1 0x0 CODECOPY PUSH1 0x0 RETURN INVALID PUSH1 0x80 PUSH1 0x40 MSTORE CALLVALUE DUP1 ISZERO PUSH2 0x10 JUMPI PUSH1 0x0 DUP1 REVERT JUMPDEST POP PUSH1 0x4 CALLDATASIZE LT PUSH2 0x41 JUMPI PUSH1 0x0 CALLDATALOAD PUSH1 0xE0 SHR DUP1 PUSH4 0x7BB6260 EQ PUSH2 0x46 JUMPI DUP1 PUSH4 0x2454CE4F EQ PUSH2 0x77 JUMPI DUP1 PUSH4 0x82D309E5 EQ PUSH2 0xA7 JUMPI JUMPDEST PUSH1 0x0 DUP1 REVERT JUMPDEST PUSH2 0x60 PUSH1 0x4 DUP1 CALLDATASIZE SUB DUP2 ADD SWAP1 PUSH2 0x5B SWAP2 SWAP1 PUSH2 0x46B JUMP JUMPDEST PUSH2 0xC3 JUMP JUMPDEST PUSH1 0x40 MLOAD PUSH2 0x6E SWAP3 SWAP2 SWAP1 PUSH2 0x614 JUMP JUMPDEST PUSH1 0x40 MLOAD DUP1 SWAP2 SUB SWAP1 RETURN JUMPDEST PUSH2 0x91 PUSH1 0x4 DUP1 CALLDATASIZE SUB DUP2 ADD SWAP1 PUSH2 0x8C SWAP2 SWAP1 PUSH2 0x4AB JUMP JUMPDEST PUSH2 0x17C JUMP JUMPDEST PUSH1 0x40 MLOAD PUSH2 0x9E SWAP2 SWAP1 PUSH2 0x644 JUMP JUMPDEST PUSH1 0x40 MLOAD DUP1 SWAP2 SUB SWAP1 RETURN JUMPDEST PUSH2 0xC1 PUSH1 0x4 DUP1 CALLDATASIZE SUB DUP2 ADD SWAP1 PUSH2 0xBC SWAP2 SWAP1 PUSH2 0x4D8 JUMP JUMPDEST PUSH2 0x281 JUMP JUMPDEST STOP JUMPDEST PUSH1 0x0 PUSH1 0x20 MSTORE DUP2 PUSH1 0x0 MSTORE PUSH1 0x40 PUSH1 0x0 KECCAK256 PUSH1 0x20 MSTORE DUP1 PUSH1 0x0 MSTORE PUSH1 0x40 PUSH1 0x0 KECCAK256 PUSH1 0x0 SWAP2 POP SWAP2 POP POP DUP1 PUSH1 0x0 ADD DUP1 SLOAD PUSH2 0xF3 SWAP1 PUSH2 0x767 JUMP JUMPDEST DUP1 PUSH1 0x1F ADD PUSH1 0x20 DUP1 SWAP2 DIV MUL PUSH1 0x20 ADD PUSH1 0x40 MLOAD SWAP1 DUP2 ADD PUSH1 0x40 MSTORE DUP1 SWAP3 SWAP2 SWAP1 DUP2 DUP2 MSTORE PUSH1 0x20 ADD DUP3 DUP1 SLOAD PUSH2 0x11F SWAP1 PUSH2 0x767 JUMP JUMPDEST DUP1 ISZERO PUSH2 0x16C JUMPI DUP1 PUSH1 0x1F LT PUSH2 0x141 JUMPI PUSH2 0x100 DUP1 DUP4 SLOAD DIV MUL DUP4 MSTORE SWAP2 PUSH1 0x20 ADD SWAP2 PUSH2 0x16C JUMP JUMPDEST DUP3 ADD SWAP2 SWAP1 PUSH1 0x0 MSTORE PUSH1 0x20 PUSH1 0x0 KECCAK256 SWAP1 JUMPDEST DUP2 SLOAD DUP2 MSTORE SWAP1 PUSH1 0x1 ADD SWAP1 PUSH1 0x20 ADD DUP1 DUP4 GT PUSH2 0x14F JUMPI DUP3 SWAP1 SUB PUSH1 0x1F AND DUP3 ADD SWAP2 JUMPDEST POP POP POP POP POP SWAP1 DUP1 PUSH1 0x1 ADD SLOAD SWAP1 POP DUP3 JUMP JUMPDEST PUSH2 0x184 PUSH2 0x314 JUMP JUMPDEST PUSH1 0x0 DUP1 CALLER PUSH20 0xFFFFFFFFFFFFFFFFFFFFFFFFFFFFFFFFFFFFFFFF AND PUSH20 0xFFFFFFFFFFFFFFFFFFFFFFFFFFFFFFFFFFFFFFFF AND DUP2 MSTORE PUSH1 0x20 ADD SWAP1 DUP2 MSTORE PUSH1 0x20 ADD PUSH1 0x0 KECCAK256 PUSH1 0x0 DUP4 DUP2 MSTORE PUSH1 0x20 ADD SWAP1 DUP2 MSTORE PUSH1 0x20 ADD PUSH1 0x0 KECCAK256 PUSH1 0x40 MLOAD DUP1 PUSH1 0x40 ADD PUSH1 0x40 MSTORE SWAP1 DUP2 PUSH1 0x0 DUP3 ADD DUP1 SLOAD PUSH2 0x1EE SWAP1 PUSH2 0x767 JUMP JUMPDEST DUP1 PUSH1 0x1F ADD PUSH1 0x20 DUP1 SWAP2 DIV MUL PUSH1 0x20 ADD PUSH1 0x40 MLOAD SWAP1 DUP2 ADD PUSH1 0x40 MSTORE DUP1 SWAP3 SWAP2 SWAP1 DUP2 DUP2 MSTORE PUSH1 0x20 ADD DUP3 DUP1 SLOAD PUSH2 0x21A SWAP1 PUSH2 0x767 JUMP JUMPDEST DUP1 ISZERO PUSH2 0x267 JUMPI DUP1 PUSH1 0x1F LT PUSH2 0x23C JUMPI PUSH2 0x100 DUP1 DUP4 SLOAD DIV MUL DUP4 MSTORE SWAP2 PUSH1 0x20 ADD SWAP2 PUSH2 0x267 JUMP JUMPDEST DUP3 ADD SWAP2 SWAP1 PUSH1 0x0 MSTORE PUSH1 0x20 PUSH1 0x0 KECCAK256 SWAP1 JUMPDEST DUP2 SLOAD DUP2 MSTORE SWAP1 PUSH1 0x1 ADD SWAP1 PUSH1 0x20 ADD DUP1 DUP4 GT PUSH2 0x24A JUMPI DUP3 SWAP1 SUB PUSH1 0x1F AND DUP3 ADD SWAP2 JUMPDEST POP POP POP POP POP DUP2 MSTORE PUSH1 0x20 ADD PUSH1 0x1 DUP3 ADD SLOAD DUP2 MSTORE POP POP SWAP1 POP SWAP2 SWAP1 POP JUMP JUMPDEST PUSH1 0x40 MLOAD DUP1 PUSH1 0x40 ADD PUSH1 0x40 MSTORE DUP1 DUP4 DUP2 MSTORE PUSH1 0x20 ADD DUP5 DUP2 MSTORE POP PUSH1 0x0 DUP1 CALLER PUSH20 0xFFFFFFFFFFFFFFFFFFFFFFFFFFFFFFFFFFFFFFFF AND PUSH20 0xFFFFFFFFFFFFFFFFFFFFFFFFFFFFFFFFFFFFFFFF AND DUP2 MSTORE PUSH1 0x20 ADD SWAP1 DUP2 MSTORE PUSH1 0x20 ADD PUSH1 0x0 KECCAK256 PUSH1 0x0 DUP4 DUP2 MSTORE PUSH1 0x20 ADD SWAP1 DUP2 MSTORE PUSH1 0x20 ADD PUSH1 0x0 KECCAK256 PUSH1 0x0 DUP3 ADD MLOAD DUP2 PUSH1 0x0 ADD SWAP1 DUP1 MLOAD SWAP1 PUSH1 0x20 ADD SWAP1 PUSH2 0x301 SWAP3 SWAP2 SWAP1 PUSH2 0x32E JUMP JUMPDEST POP PUSH1 0x20 DUP3 ADD MLOAD DUP2 PUSH1 0x1 ADD SSTORE SWAP1 POP POP POP POP POP JUMP JUMPDEST PUSH1 0x40 MLOAD DUP1 PUSH1 0x40 ADD PUSH1 0x40 MSTORE DUP1 PUSH1 0x60 DUP2 MSTORE PUSH1 0x20 ADD PUSH1 0x0 DUP2 MSTORE POP SWAP1 JUMP JUMPDEST DUP3 DUP1 SLOAD PUSH2 0x33A SWAP1 PUSH2 0x767 JUMP JUMPDEST SWAP1 PUSH1 0x0 MSTORE PUSH1 0x20 PUSH1 0x0 KECCAK256 SWAP1 PUSH1 0x1F ADD PUSH1 0x20 SWAP1 DIV DUP2 ADD SWAP3 DUP3 PUSH2 0x35C JUMPI PUSH1 0x0 DUP6 SSTORE PUSH2 0x3A3 JUMP JUMPDEST DUP3 PUSH1 0x1F LT PUSH2 0x375 JUMPI DUP1 MLOAD PUSH1 0xFF NOT AND DUP4 DUP1 ADD OR DUP6 SSTORE PUSH2 0x3A3 JUMP JUMPDEST DUP3 DUP1 ADD PUSH1 0x1 ADD DUP6 SSTORE DUP3 ISZERO PUSH2 0x3A3 JUMPI SWAP2 DUP3 ADD JUMPDEST DUP3 DUP2 GT ISZERO PUSH2 0x3A2 JUMPI DUP3 MLOAD DUP3 SSTORE SWAP2 PUSH1 0x20 ADD SWAP2 SWAP1 PUSH1 0x1 ADD SWAP1 PUSH2 0x387 JUMP JUMPDEST JUMPDEST POP SWAP1 POP PUSH2 0x3B0 SWAP2 SWAP1 PUSH2 0x3B4 JUMP JUMPDEST POP SWAP1 JUMP JUMPDEST JUMPDEST DUP1 DUP3 GT ISZERO PUSH2 0x3CD JUMPI PUSH1 0x0 DUP2 PUSH1 0x0 SWAP1 SSTORE POP PUSH1 0x1 ADD PUSH2 0x3B5 JUMP JUMPDEST POP SWAP1 JUMP JUMPDEST PUSH1 0x0 PUSH2 0x3E4 PUSH2 0x3DF DUP5 PUSH2 0x68B JUMP JUMPDEST PUSH2 0x666 JUMP JUMPDEST SWAP1 POP DUP3 DUP2 MSTORE PUSH1 0x20 DUP2 ADD DUP5 DUP5 DUP5 ADD GT ISZERO PUSH2 0x400 JUMPI PUSH2 0x3FF PUSH2 0x82D JUMP JUMPDEST JUMPDEST PUSH2 0x40B DUP5 DUP3 DUP6 PUSH2 0x725 JUMP JUMPDEST POP SWAP4 SWAP3 POP POP POP JUMP JUMPDEST PUSH1 0x0 DUP2 CALLDATALOAD SWAP1 POP PUSH2 0x422 DUP2 PUSH2 0x84D JUMP JUMPDEST SWAP3 SWAP2 POP POP JUMP JUMPDEST PUSH1 0x0 DUP3 PUSH1 0x1F DUP4 ADD SLT PUSH2 0x43D JUMPI PUSH2 0x43C PUSH2 0x828 JUMP JUMPDEST JUMPDEST DUP2 CALLDATALOAD PUSH2 0x44D DUP5 DUP3 PUSH1 0x20 DUP7 ADD PUSH2 0x3D1 JUMP JUMPDEST SWAP2 POP POP SWAP3 SWAP2 POP POP JUMP JUMPDEST PUSH1 0x0 DUP2 CALLDATALOAD SWAP1 POP PUSH2 0x465 DUP2 PUSH2 0x864 JUMP JUMPDEST SWAP3 SWAP2 POP POP JUMP JUMPDEST PUSH1 0x0 DUP1 PUSH1 0x40 DUP4 DUP6 SUB SLT ISZERO PUSH2 0x482 JUMPI PUSH2 0x481 PUSH2 0x837 JUMP JUMPDEST JUMPDEST PUSH1 0x0 PUSH2 0x490 DUP6 DUP3 DUP7 ADD PUSH2 0x413 JUMP JUMPDEST SWAP3 POP POP PUSH1 0x20 PUSH2 0x4A1 DUP6 DUP3 DUP7 ADD PUSH2 0x456 JUMP JUMPDEST SWAP2 POP POP SWAP3 POP SWAP3 SWAP1 POP JUMP JUMPDEST PUSH1 0x0 PUSH1 0x20 DUP3 DUP5 SUB SLT ISZERO PUSH2 0x4C1 JUMPI PUSH2 0x4C0 PUSH2 0x837 JUMP JUMPDEST JUMPDEST PUSH1 0x0 PUSH2 0x4CF DUP5 DUP3 DUP6 ADD PUSH2 0x456 JUMP JUMPDEST SWAP2 POP POP SWAP3 SWAP2 POP POP JUMP JUMPDEST PUSH1 0x0 DUP1 PUSH1 0x0 PUSH1 0x60 DUP5 DUP7 SUB SLT ISZERO PUSH2 0x4F1 JUMPI PUSH2 0x4F0 PUSH2 0x837 JUMP JUMPDEST JUMPDEST PUSH1 0x0 PUSH2 0x4FF DUP7 DUP3 DUP8 ADD PUSH2 0x456 JUMP JUMPDEST SWAP4 POP POP PUSH1 0x20 DUP5 ADD CALLDATALOAD PUSH8 0xFFFFFFFFFFFFFFFF DUP2 GT ISZERO PUSH2 0x520 JUMPI PUSH2 0x51F PUSH2 0x832 JUMP JUMPDEST JUMPDEST PUSH2 0x52C DUP7 DUP3 DUP8 ADD PUSH2 0x428 JUMP JUMPDEST SWAP3 POP POP PUSH1 0x40 PUSH2 0x53D DUP7 DUP3 DUP8 ADD PUSH2 0x456 JUMP JUMPDEST SWAP2 POP POP SWAP3 POP SWAP3 POP SWAP3 JUMP JUMPDEST PUSH1 0x0 PUSH2 0x552 DUP3 PUSH2 0x6BC JUMP JUMPDEST PUSH2 0x55C DUP2 DUP6 PUSH2 0x6C7 JUMP JUMPDEST SWAP4 POP PUSH2 0x56C DUP2 DUP6 PUSH1 0x20 DUP7 ADD PUSH2 0x734 JUMP JUMPDEST PUSH2 0x575 DUP2 PUSH2 0x83C JUMP JUMPDEST DUP5 ADD SWAP2 POP POP SWAP3 SWAP2 POP POP JUMP JUMPDEST PUSH1 0x0 PUSH2 0x58B DUP3 PUSH2 0x6BC JUMP JUMPDEST PUSH2 0x595 DUP2 DUP6 PUSH2 0x6D8 JUMP JUMPDEST SWAP4 POP PUSH2 0x5A5 DUP2 DUP6 PUSH1 0x20 DUP7 ADD PUSH2 0x734 JUMP JUMPDEST PUSH2 0x5AE DUP2 PUSH2 0x83C JUMP JUMPDEST DUP5 ADD SWAP2 POP POP SWAP3 SWAP2 POP POP JUMP JUMPDEST PUSH1 0x0 PUSH1 0x40 DUP4 ADD PUSH1 0x0 DUP4 ADD MLOAD DUP5 DUP3 SUB PUSH1 0x0 DUP7 ADD MSTORE PUSH2 0x5D6 DUP3 DUP3 PUSH2 0x547 JUMP JUMPDEST SWAP2 POP POP PUSH1 0x20 DUP4 ADD MLOAD PUSH2 0x5EB PUSH1 0x20 DUP7 ADD DUP3 PUSH2 0x5F6 JUMP JUMPDEST POP DUP1 SWAP2 POP POP SWAP3 SWAP2 POP POP JUMP JUMPDEST PUSH2 0x5FF DUP2 PUSH2 0x71B JUMP JUMPDEST DUP3 MSTORE POP POP JUMP JUMPDEST PUSH2 0x60E DUP2 PUSH2 0x71B JUMP JUMPDEST DUP3 MSTORE POP POP JUMP JUMPDEST PUSH1 0x0 PUSH1 0x40 DUP3 ADD SWAP1 POP DUP2 DUP2 SUB PUSH1 0x0 DUP4 ADD MSTORE PUSH2 0x62E DUP2 DUP6 PUSH2 0x580 JUMP JUMPDEST SWAP1 POP PUSH2 0x63D PUSH1 0x20 DUP4 ADD DUP5 PUSH2 0x605 JUMP JUMPDEST SWAP4 SWAP3 POP POP POP JUMP JUMPDEST PUSH1 0x0 PUSH1 0x20 DUP3 ADD SWAP1 POP DUP2 DUP2 SUB PUSH1 0x0 DUP4 ADD MSTORE PUSH2 0x65E DUP2 DUP5 PUSH2 0x5B9 JUMP JUMPDEST SWAP1 POP SWAP3 SWAP2 POP POP JUMP JUMPDEST PUSH1 0x0 PUSH2 0x670 PUSH2 0x681 JUMP JUMPDEST SWAP1 POP PUSH2 0x67C DUP3 DUP3 PUSH2 0x799 JUMP JUMPDEST SWAP2 SWAP1 POP JUMP JUMPDEST PUSH1 0x0 PUSH1 0x40 MLOAD SWAP1 POP SWAP1 JUMP JUMPDEST PUSH1 0x0 PUSH8 0xFFFFFFFFFFFFFFFF DUP3 GT ISZERO PUSH2 0x6A6 JUMPI PUSH2 0x6A5 PUSH2 0x7F9 JUMP JUMPDEST JUMPDEST PUSH2 0x6AF DUP3 PUSH2 0x83C JUMP JUMPDEST SWAP1 POP PUSH1 0x20 DUP2 ADD SWAP1 POP SWAP2 SWAP1 POP JUMP JUMPDEST PUSH1 0x0 DUP2 MLOAD SWAP1 POP SWAP2 SWAP1 POP JUMP JUMPDEST PUSH1 0x0 DUP3 DUP3 MSTORE PUSH1 0x20 DUP3 ADD SWAP1 POP SWAP3 SWAP2 POP POP JUMP JUMPDEST PUSH1 0x0 DUP3 DUP3 MSTORE PUSH1 0x20 DUP3 ADD SWAP1 POP SWAP3 SWAP2 POP POP JUMP JUMPDEST PUSH1 0x0 PUSH2 0x6F4 DUP3 PUSH2 0x6FB JUMP JUMPDEST SWAP1 POP SWAP2 SWAP1 POP JUMP JUMPDEST PUSH1 0x0 PUSH20 0xFFFFFFFFFFFFFFFFFFFFFFFFFFFFFFFFFFFFFFFF DUP3 AND SWAP1 POP SWAP2 SWAP1 POP JUMP JUMPDEST PUSH1 0x0 DUP2 SWAP1 POP SWAP2 SWAP1 POP JUMP JUMPDEST DUP3 DUP2 DUP4 CALLDATACOPY PUSH1 0x0 DUP4 DUP4 ADD MSTORE POP POP POP JUMP JUMPDEST PUSH1 0x0 JUMPDEST DUP4 DUP2 LT ISZERO PUSH2 0x752 JUMPI DUP1 DUP3 ADD MLOAD DUP2 DUP5 ADD MSTORE PUSH1 0x20 DUP2 ADD SWAP1 POP PUSH2 0x737 JUMP JUMPDEST DUP4 DUP2 GT ISZERO PUSH2 0x761 JUMPI PUSH1 0x0 DUP5 DUP5 ADD MSTORE JUMPDEST POP POP POP POP JUMP JUMPDEST PUSH1 0x0 PUSH1 0x2 DUP3 DIV SWAP1 POP PUSH1 0x1 DUP3 AND DUP1 PUSH2 0x77F JUMPI PUSH1 0x7F DUP3 AND SWAP2 POP JUMPDEST PUSH1 0x20 DUP3 LT DUP2 EQ ISZERO PUSH2 0x793 JUMPI PUSH2 0x792 PUSH2 0x7CA JUMP JUMPDEST JUMPDEST POP SWAP2 SWAP1 POP JUMP JUMPDEST PUSH2 0x7A2 DUP3 PUSH2 0x83C JUMP JUMPDEST DUP2 ADD DUP2 DUP2 LT PUSH8 0xFFFFFFFFFFFFFFFF DUP3 GT OR ISZERO PUSH2 0x7C1 JUMPI PUSH2 0x7C0 PUSH2 0x7F9 JUMP JUMPDEST JUMPDEST DUP1 PUSH1 0x40 MSTORE POP POP POP JUMP JUMPDEST PUSH32 0x4E487B7100000000000000000000000000000000000000000000000000000000 PUSH1 0x0 MSTORE PUSH1 0x22 PUSH1 0x4 MSTORE PUSH1 0x24 PUSH1 0x0 REVERT JUMPDEST PUSH32 0x4E487B7100000000000000000000000000000000000000000000000000000000 PUSH1 0x0 MSTORE PUSH1 0x41 PUSH1 0x4 MSTORE PUSH1 0x24 PUSH1 0x0 REVERT JUMPDEST PUSH1 0x0 DUP1 REVERT JUMPDEST PUSH1 0x0 DUP1 REVERT JUMPDEST PUSH1 0x0 DUP1 REVERT JUMPDEST PUSH1 0x0 DUP1 REVERT JUMPDEST PUSH1 0x0 PUSH1 0x1F NOT PUSH1 0x1F DUP4 ADD AND SWAP1 POP SWAP2 SWAP1 POP JUMP JUMPDEST PUSH2 0x856 DUP2 PUSH2 0x6E9 JUMP JUMPDEST DUP2 EQ PUSH2 0x861 JUMPI PUSH1 0x0 DUP1 REVERT JUMPDEST POP JUMP JUMPDEST PUSH2 0x86D DUP2 PUSH2 0x71B JUMP JUMPDEST DUP2 EQ PUSH2 0x878 JUMPI PUSH1 0x0 DUP1 REVERT JUMPDEST POP JUMP INVALID LOG2 PUSH5 0x6970667358 0x22 SLT KECCAK256 DUP16 RETURNDATASIZE BASEFEE 0x2B 0xE5 SMOD EXTCODECOPY CHAINID 0xC0 0xF PUSH8 0xBBC74EDCEC89F9A3 JUMPDEST 0xAF EXTCODECOPY PUSH11 0xE47C7CB24F1DEF08D16473 PUSH16 0x6C634300080700330000000000000000 "
				},
				"gasEstimates": {
					"creation": {
						"codeDepositCost": "445000",
						"executionCost": "480",
						"totalCost": "445480"
					},
					"external": {
						"addContact(uint256,string,uint256)": "infinite",
						"contactList(address,uint256)": "infinite",
						"retriveContact(uint256)": "infinite"
					}
				},
				"methodIdentifiers": {
					"addContact(uint256,string,uint256)": "82d309e5",
					"contactList(address,uint256)": "07bb6260",
					"retriveContact(uint256)": "2454ce4f"
				}
			},
			"storageLayout": {
				"storage": [
					{
						"astId": 13,
						"contract": "contracts/nestedMaps.sol:NestedMaps",
						"label": "contactList",
						"offset": 0,
						"slot": "0",
						"type": "t_mapping(t_address,t_mapping(t_uint256,t_struct(Contact)6_storage))"
					}
				],
				"types": {
					"t_address": {
						"encoding": "inplace",
						"label": "address",
						"numberOfBytes": "20"
					},
					"t_mapping(t_address,t_mapping(t_uint256,t_struct(Contact)6_storage))": {
						"encoding": "mapping",
						"key": "t_address",
						"label": "mapping(address => mapping(uint256 => struct NestedMaps.Contact))",
						"numberOfBytes": "32",
						"value": "t_mapping(t_uint256,t_struct(Contact)6_storage)"
					},
					"t_mapping(t_uint256,t_struct(Contact)6_storage)": {
						"encoding": "mapping",
						"key": "t_uint256",
						"label": "mapping(uint256 => struct NestedMaps.Contact)",
						"numberOfBytes": "32",
						"value": "t_struct(Contact)6_storage"
					},
					"t_string_storage": {
						"encoding": "bytes",
						"label": "string",
						"numberOfBytes": "32"
					},
					"t_struct(Contact)6_storage": {
						"encoding": "inplace",
						"label": "struct NestedMaps.Contact",
						"members": [
							{
								"astId": 3,
								"contract": "contracts/nestedMaps.sol:NestedMaps",
								"label": "name",
								"offset": 0,
								"slot": "0",
								"type": "t_string_storage"
							},
							{
								"astId": 5,
								"contract": "contracts/nestedMaps.sol:NestedMaps",
								"label": "number",
								"offset": 0,
								"slot": "1",
								"type": "t_uint256"
							}
						],
						"numberOfBytes": "64"
					},
					"t_uint256": {
						"encoding": "inplace",
						"label": "uint256",
						"numberOfBytes": "32"
					}
				}
			},
			"userdoc": {
				"kind": "user",
				"methods": {},
				"version": 1
			}
		}
	}
}