{
	"contracts/loops.sol": {
		"loops": {
			"abi": [
				{
					"inputs": [
						{
							"internalType": "uint256",
							"name": "_num",
							"type": "uint256"
						}
					],
					"name": "checkEvenOfNumber",
					"outputs": [
						{
							"internalType": "uint256",
							"name": "",
							"type": "uint256"
						}
					],
					"stateMutability": "view",
					"type": "function"
				},
				{
					"inputs": [
						{
							"internalType": "uint256",
							"name": "_num",
							"type": "uint256"
						}
					],
					"name": "isEvenNumber",
					"outputs": [
						{
							"internalType": "bool",
							"name": "",
							"type": "bool"
						}
					],
					"stateMutability": "view",
					"type": "function"
				}
			],
			"devdoc": {
				"kind": "dev",
				"methods": {},
				"version": 1
			},
			"evm": {
				"assembly": "    /* \"contracts/loops.sol\":37:581  contract loops {\r... */\n  mstore(0x40, 0x80)\n    /* \"contracts/loops.sol\":57:133  uint []  longList = [1, 2, 3, 4, 5,6,7,8,9,10,11,12,13,14,15,16,17,18,19,20] */\n  mload(0x40)\n  dup1\n  0x0280\n  add\n  0x40\n  mstore\n  dup1\n    /* \"contracts/loops.sol\":78:79  1 */\n  0x01\n    /* \"contracts/loops.sol\":57:133  uint []  longList = [1, 2, 3, 4, 5,6,7,8,9,10,11,12,13,14,15,16,17,18,19,20] */\n  0xff\n  and\n  dup2\n  mstore\n  0x20\n  add\n    /* \"contracts/loops.sol\":81:82  2 */\n  0x02\n    /* \"contracts/loops.sol\":57:133  uint []  longList = [1, 2, 3, 4, 5,6,7,8,9,10,11,12,13,14,15,16,17,18,19,20] */\n  0xff\n  and\n  dup2\n  mstore\n  0x20\n  add\n    /* \"contracts/loops.sol\":84:85  3 */\n  0x03\n    /* \"contracts/loops.sol\":57:133  uint []  longList = [1, 2, 3, 4, 5,6,7,8,9,10,11,12,13,14,15,16,17,18,19,20] */\n  0xff\n  and\n  dup2\n  mstore\n  0x20\n  add\n    /* \"contracts/loops.sol\":87:88  4 */\n  0x04\n    /* \"contracts/loops.sol\":57:133  uint []  longList = [1, 2, 3, 4, 5,6,7,8,9,10,11,12,13,14,15,16,17,18,19,20] */\n  0xff\n  and\n  dup2\n  mstore\n  0x20\n  add\n    /* \"contracts/loops.sol\":90:91  5 */\n  0x05\n    /* \"contracts/loops.sol\":57:133  uint []  longList = [1, 2, 3, 4, 5,6,7,8,9,10,11,12,13,14,15,16,17,18,19,20] */\n  0xff\n  and\n  dup2\n  mstore\n  0x20\n  add\n    /* \"contracts/loops.sol\":92:93  6 */\n  0x06\n    /* \"contracts/loops.sol\":57:133  uint []  longList = [1, 2, 3, 4, 5,6,7,8,9,10,11,12,13,14,15,16,17,18,19,20] */\n  0xff\n  and\n  dup2\n  mstore\n  0x20\n  add\n    /* \"contracts/loops.sol\":94:95  7 */\n  0x07\n    /* \"contracts/loops.sol\":57:133  uint []  longList = [1, 2, 3, 4, 5,6,7,8,9,10,11,12,13,14,15,16,17,18,19,20] */\n  0xff\n  and\n  dup2\n  mstore\n  0x20\n  add\n    /* \"contracts/loops.sol\":96:97  8 */\n  0x08\n    /* \"contracts/loops.sol\":57:133  uint []  longList = [1, 2, 3, 4, 5,6,7,8,9,10,11,12,13,14,15,16,17,18,19,20] */\n  0xff\n  and\n  dup2\n  mstore\n  0x20\n  add\n    /* \"contracts/loops.sol\":98:99  9 */\n  0x09\n    /* \"contracts/loops.sol\":57:133  uint []  longList = [1, 2, 3, 4, 5,6,7,8,9,10,11,12,13,14,15,16,17,18,19,20] */\n  0xff\n  and\n  dup2\n  mstore\n  0x20\n  add\n    /* \"contracts/loops.sol\":100:102  10 */\n  0x0a\n    /* \"contracts/loops.sol\":57:133  uint []  longList = [1, 2, 3, 4, 5,6,7,8,9,10,11,12,13,14,15,16,17,18,19,20] */\n  0xff\n  and\n  dup2\n  mstore\n  0x20\n  add\n    /* \"contracts/loops.sol\":103:105  11 */\n  0x0b\n    /* \"contracts/loops.sol\":57:133  uint []  longList = [1, 2, 3, 4, 5,6,7,8,9,10,11,12,13,14,15,16,17,18,19,20] */\n  0xff\n  and\n  dup2\n  mstore\n  0x20\n  add\n    /* \"contracts/loops.sol\":106:108  12 */\n  0x0c\n    /* \"contracts/loops.sol\":57:133  uint []  longList = [1, 2, 3, 4, 5,6,7,8,9,10,11,12,13,14,15,16,17,18,19,20] */\n  0xff\n  and\n  dup2\n  mstore\n  0x20\n  add\n    /* \"contracts/loops.sol\":109:111  13 */\n  0x0d\n    /* \"contracts/loops.sol\":57:133  uint []  longList = [1, 2, 3, 4, 5,6,7,8,9,10,11,12,13,14,15,16,17,18,19,20] */\n  0xff\n  and\n  dup2\n  mstore\n  0x20\n  add\n    /* \"contracts/loops.sol\":112:114  14 */\n  0x0e\n    /* \"contracts/loops.sol\":57:133  uint []  longList = [1, 2, 3, 4, 5,6,7,8,9,10,11,12,13,14,15,16,17,18,19,20] */\n  0xff\n  and\n  dup2\n  mstore\n  0x20\n  add\n    /* \"contracts/loops.sol\":115:117  15 */\n  0x0f\n    /* \"contracts/loops.sol\":57:133  uint []  longList = [1, 2, 3, 4, 5,6,7,8,9,10,11,12,13,14,15,16,17,18,19,20] */\n  0xff\n  and\n  dup2\n  mstore\n  0x20\n  add\n    /* \"contracts/loops.sol\":118:120  16 */\n  0x10\n    /* \"contracts/loops.sol\":57:133  uint []  longList = [1, 2, 3, 4, 5,6,7,8,9,10,11,12,13,14,15,16,17,18,19,20] */\n  0xff\n  and\n  dup2\n  mstore\n  0x20\n  add\n    /* \"contracts/loops.sol\":121:123  17 */\n  0x11\n    /* \"contracts/loops.sol\":57:133  uint []  longList = [1, 2, 3, 4, 5,6,7,8,9,10,11,12,13,14,15,16,17,18,19,20] */\n  0xff\n  and\n  dup2\n  mstore\n  0x20\n  add\n    /* \"contracts/loops.sol\":124:126  18 */\n  0x12\n    /* \"contracts/loops.sol\":57:133  uint []  longList = [1, 2, 3, 4, 5,6,7,8,9,10,11,12,13,14,15,16,17,18,19,20] */\n  0xff\n  and\n  dup2\n  mstore\n  0x20\n  add\n    /* \"contracts/loops.sol\":127:129  19 */\n  0x13\n    /* \"contracts/loops.sol\":57:133  uint []  longList = [1, 2, 3, 4, 5,6,7,8,9,10,11,12,13,14,15,16,17,18,19,20] */\n  0xff\n  and\n  dup2\n  mstore\n  0x20\n  add\n    /* \"contracts/loops.sol\":130:132  20 */\n  0x14\n    /* \"contracts/loops.sol\":57:133  uint []  longList = [1, 2, 3, 4, 5,6,7,8,9,10,11,12,13,14,15,16,17,18,19,20] */\n  0xff\n  and\n  dup2\n  mstore\n  pop\n  0x00\n  swap1\n  0x14\n  tag_1\n  swap3\n  swap2\n  swap1\n  tag_2\n  jump\t// in\ntag_1:\n  pop\n    /* \"contracts/loops.sol\":136:172  uint []  numberList = [1, 4, 34, 56] */\n  mload(0x40)\n  dup1\n  0x80\n  add\n  0x40\n  mstore\n  dup1\n    /* \"contracts/loops.sol\":159:160  1 */\n  0x01\n    /* \"contracts/loops.sol\":136:172  uint []  numberList = [1, 4, 34, 56] */\n  0xff\n  and\n  dup2\n  mstore\n  0x20\n  add\n    /* \"contracts/loops.sol\":162:163  4 */\n  0x04\n    /* \"contracts/loops.sol\":136:172  uint []  numberList = [1, 4, 34, 56] */\n  0xff\n  and\n  dup2\n  mstore\n  0x20\n  add\n    /* \"contracts/loops.sol\":165:167  34 */\n  0x22\n    /* \"contracts/loops.sol\":136:172  uint []  numberList = [1, 4, 34, 56] */\n  0xff\n  and\n  dup2\n  mstore\n  0x20\n  add\n    /* \"contracts/loops.sol\":169:171  56 */\n  0x38\n    /* \"contracts/loops.sol\":136:172  uint []  numberList = [1, 4, 34, 56] */\n  0xff\n  and\n  dup2\n  mstore\n  pop\n  0x01\n  swap1\n  0x04\n  tag_3\n  swap3\n  swap2\n  swap1\n  tag_4\n  jump\t// in\ntag_3:\n  pop\n    /* \"contracts/loops.sol\":37:581  contract loops {\r... */\n  callvalue\n  dup1\n  iszero\n  tag_5\n  jumpi\n  0x00\n  dup1\n  revert\ntag_5:\n  pop\n  jump(tag_6)\ntag_2:\n  dup3\n  dup1\n  sload\n  dup3\n  dup3\n  sstore\n  swap1\n  0x00\n  mstore\n  keccak256(0x00, 0x20)\n  swap1\n  dup2\n  add\n  swap3\n  dup3\n  iszero\n  tag_7\n  jumpi\n  swap2\n  0x20\n  mul\n  dup3\n  add\ntag_8:\n  dup3\n  dup2\n  gt\n  iszero\n  tag_9\n  jumpi\n  dup3\n  mload\n  dup3\n  swap1\n  0xff\n  and\n  swap1\n  sstore\n  swap2\n  0x20\n  add\n  swap2\n  swap1\n  0x01\n  add\n  swap1\n  jump(tag_8)\ntag_9:\ntag_7:\n  pop\n  swap1\n  pop\n  tag_10\n  swap2\n  swap1\n  tag_11\n  jump\t// in\ntag_10:\n  pop\n  swap1\n  jump\t// out\ntag_4:\n  dup3\n  dup1\n  sload\n  dup3\n  dup3\n  sstore\n  swap1\n  0x00\n  mstore\n  keccak256(0x00, 0x20)\n  swap1\n  dup2\n  add\n  swap3\n  dup3\n  iszero\n  tag_12\n  jumpi\n  swap2\n  0x20\n  mul\n  dup3\n  add\ntag_13:\n  dup3\n  dup2\n  gt\n  iszero\n  tag_14\n  jumpi\n  dup3\n  mload\n  dup3\n  swap1\n  0xff\n  and\n  swap1\n  sstore\n  swap2\n  0x20\n  add\n  swap2\n  swap1\n  0x01\n  add\n  swap1\n  jump(tag_13)\ntag_14:\ntag_12:\n  pop\n  swap1\n  pop\n  tag_15\n  swap2\n  swap1\n  tag_11\n  jump\t// in\ntag_15:\n  pop\n  swap1\n  jump\t// out\ntag_11:\ntag_16:\n  dup1\n  dup3\n  gt\n  iszero\n  tag_17\n  jumpi\n  0x00\n  dup2\n  0x00\n  swap1\n  sstore\n  pop\n  0x01\n  add\n  jump(tag_16)\ntag_17:\n  pop\n  swap1\n  jump\t// out\ntag_6:\n  dataSize(sub_0)\n  dup1\n  dataOffset(sub_0)\n  0x00\n  codecopy\n  0x00\n  return\nstop\n\nsub_0: assembly {\n        /* \"contracts/loops.sol\":37:581  contract loops {\r... */\n      mstore(0x40, 0x80)\n      callvalue\n      dup1\n      iszero\n      tag_1\n      jumpi\n      0x00\n      dup1\n      revert\n    tag_1:\n      pop\n      jumpi(tag_2, lt(calldatasize, 0x04))\n      shr(0xe0, calldataload(0x00))\n      dup1\n      0xdfcf122c\n      eq\n      tag_3\n      jumpi\n      dup1\n      0xe5054c69\n      eq\n      tag_4\n      jumpi\n    tag_2:\n      0x00\n      dup1\n      revert\n        /* \"contracts/loops.sol\":321:574  function checkEvenOfNumber(uint _num) public view returns (uint) {\r... */\n    tag_3:\n      tag_5\n      0x04\n      dup1\n      calldatasize\n      sub\n      dup2\n      add\n      swap1\n      tag_6\n      swap2\n      swap1\n      tag_7\n      jump\t// in\n    tag_6:\n      tag_8\n      jump\t// in\n    tag_5:\n      mload(0x40)\n      tag_9\n      swap2\n      swap1\n      tag_10\n      jump\t// in\n    tag_9:\n      mload(0x40)\n      dup1\n      swap2\n      sub\n      swap1\n      return\n        /* \"contracts/loops.sol\":181:319  function isEvenNumber(uint _num ) public view returns (bool) {\r... */\n    tag_4:\n      tag_11\n      0x04\n      dup1\n      calldatasize\n      sub\n      dup2\n      add\n      swap1\n      tag_12\n      swap2\n      swap1\n      tag_7\n      jump\t// in\n    tag_12:\n      tag_13\n      jump\t// in\n    tag_11:\n      mload(0x40)\n      tag_14\n      swap2\n      swap1\n      tag_15\n      jump\t// in\n    tag_14:\n      mload(0x40)\n      dup1\n      swap2\n      sub\n      swap1\n      return\n        /* \"contracts/loops.sol\":321:574  function checkEvenOfNumber(uint _num) public view returns (uint) {\r... */\n    tag_8:\n        /* \"contracts/loops.sol\":380:384  uint */\n      0x00\n        /* \"contracts/loops.sol\":389:407  uint listOfNumbers */\n      dup1\n        /* \"contracts/loops.sol\":410:411  0 */\n      0x00\n        /* \"contracts/loops.sol\":389:411  uint listOfNumbers = 0 */\n      swap1\n      pop\n        /* \"contracts/loops.sol\":422:428  uint i */\n      0x00\n        /* \"contracts/loops.sol\":431:432  1 */\n      0x01\n        /* \"contracts/loops.sol\":422:432  uint i = 1 */\n      swap1\n      pop\n        /* \"contracts/loops.sol\":418:548  for(uint i = 1; i < longList.length; i ++){\r... */\n    tag_17:\n        /* \"contracts/loops.sol\":438:446  longList */\n      0x00\n        /* \"contracts/loops.sol\":438:453  longList.length */\n      dup1\n      sload\n      swap1\n      pop\n        /* \"contracts/loops.sol\":434:435  i */\n      dup2\n        /* \"contracts/loops.sol\":434:453  i < longList.length */\n      lt\n        /* \"contracts/loops.sol\":418:548  for(uint i = 1; i < longList.length; i ++){\r... */\n      iszero\n      tag_18\n      jumpi\n        /* \"contracts/loops.sol\":473:498  isEvenNumber(longList[i]) */\n      tag_20\n        /* \"contracts/loops.sol\":486:494  longList */\n      0x00\n        /* \"contracts/loops.sol\":495:496  i */\n      dup3\n        /* \"contracts/loops.sol\":486:497  longList[i] */\n      dup2\n      sload\n      dup2\n      lt\n      tag_21\n      jumpi\n      tag_22\n      tag_23\n      jump\t// in\n    tag_22:\n    tag_21:\n      swap1\n      0x00\n      mstore\n      keccak256(0x00, 0x20)\n      add\n      sload\n        /* \"contracts/loops.sol\":473:485  isEvenNumber */\n      tag_13\n        /* \"contracts/loops.sol\":473:498  isEvenNumber(longList[i]) */\n      jump\t// in\n    tag_20:\n        /* \"contracts/loops.sol\":470:541  if(isEvenNumber(longList[i])) {\r... */\n      iszero\n      tag_25\n      jumpi\n        /* \"contracts/loops.sol\":514:530  listOfNumbers ++ */\n      dup2\n      dup1\n      tag_26\n      swap1\n      tag_27\n      jump\t// in\n    tag_26:\n      swap3\n      pop\n      pop\n        /* \"contracts/loops.sol\":470:541  if(isEvenNumber(longList[i])) {\r... */\n    tag_25:\n        /* \"contracts/loops.sol\":455:459  i ++ */\n      dup1\n      dup1\n      tag_28\n      swap1\n      tag_27\n      jump\t// in\n    tag_28:\n      swap2\n      pop\n      pop\n        /* \"contracts/loops.sol\":418:548  for(uint i = 1; i < longList.length; i ++){\r... */\n      jump(tag_17)\n    tag_18:\n      pop\n        /* \"contracts/loops.sol\":557:570  listOfNumbers */\n      dup1\n        /* \"contracts/loops.sol\":550:570  return listOfNumbers */\n      swap2\n      pop\n      pop\n        /* \"contracts/loops.sol\":321:574  function checkEvenOfNumber(uint _num) public view returns (uint) {\r... */\n      swap2\n      swap1\n      pop\n      jump\t// out\n        /* \"contracts/loops.sol\":181:319  function isEvenNumber(uint _num ) public view returns (bool) {\r... */\n    tag_13:\n        /* \"contracts/loops.sol\":236:240  bool */\n      0x00\n        /* \"contracts/loops.sol\":261:262  0 */\n      dup1\n        /* \"contracts/loops.sol\":256:257  2 */\n      0x02\n        /* \"contracts/loops.sol\":249:253  _num */\n      dup4\n        /* \"contracts/loops.sol\":249:257  _num % 2 */\n      tag_30\n      swap2\n      swap1\n      tag_31\n      jump\t// in\n    tag_30:\n        /* \"contracts/loops.sol\":249:262  _num % 2 != 0 */\n      eq\n        /* \"contracts/loops.sol\":246:316  if(_num % 2 != 0){\r... */\n      tag_32\n      jumpi\n        /* \"contracts/loops.sol\":276:280  true */\n      0x01\n        /* \"contracts/loops.sol\":269:280  return true */\n      swap1\n      pop\n      jump(tag_29)\n        /* \"contracts/loops.sol\":246:316  if(_num % 2 != 0){\r... */\n    tag_32:\n        /* \"contracts/loops.sol\":306:311  false */\n      0x00\n        /* \"contracts/loops.sol\":299:311  return false */\n      swap1\n      pop\n        /* \"contracts/loops.sol\":181:319  function isEvenNumber(uint _num ) public view returns (bool) {\r... */\n    tag_29:\n      swap2\n      swap1\n      pop\n      jump\t// out\n        /* \"#utility.yul\":7:146   */\n    tag_35:\n        /* \"#utility.yul\":53:58   */\n      0x00\n        /* \"#utility.yul\":91:97   */\n      dup2\n        /* \"#utility.yul\":78:98   */\n      calldataload\n        /* \"#utility.yul\":69:98   */\n      swap1\n      pop\n        /* \"#utility.yul\":107:140   */\n      tag_37\n        /* \"#utility.yul\":134:139   */\n      dup2\n        /* \"#utility.yul\":107:140   */\n      tag_38\n      jump\t// in\n    tag_37:\n        /* \"#utility.yul\":7:146   */\n      swap3\n      swap2\n      pop\n      pop\n      jump\t// out\n        /* \"#utility.yul\":152:481   */\n    tag_7:\n        /* \"#utility.yul\":211:217   */\n      0x00\n        /* \"#utility.yul\":260:262   */\n      0x20\n        /* \"#utility.yul\":248:257   */\n      dup3\n        /* \"#utility.yul\":239:246   */\n      dup5\n        /* \"#utility.yul\":235:258   */\n      sub\n        /* \"#utility.yul\":231:263   */\n      slt\n        /* \"#utility.yul\":228:347   */\n      iszero\n      tag_40\n      jumpi\n        /* \"#utility.yul\":266:345   */\n      tag_41\n      tag_42\n      jump\t// in\n    tag_41:\n        /* \"#utility.yul\":228:347   */\n    tag_40:\n        /* \"#utility.yul\":386:387   */\n      0x00\n        /* \"#utility.yul\":411:464   */\n      tag_43\n        /* \"#utility.yul\":456:463   */\n      dup5\n        /* \"#utility.yul\":447:453   */\n      dup3\n        /* \"#utility.yul\":436:445   */\n      dup6\n        /* \"#utility.yul\":432:454   */\n      add\n        /* \"#utility.yul\":411:464   */\n      tag_35\n      jump\t// in\n    tag_43:\n        /* \"#utility.yul\":401:464   */\n      swap2\n      pop\n        /* \"#utility.yul\":357:474   */\n      pop\n        /* \"#utility.yul\":152:481   */\n      swap3\n      swap2\n      pop\n      pop\n      jump\t// out\n        /* \"#utility.yul\":487:596   */\n    tag_44:\n        /* \"#utility.yul\":568:589   */\n      tag_46\n        /* \"#utility.yul\":583:588   */\n      dup2\n        /* \"#utility.yul\":568:589   */\n      tag_47\n      jump\t// in\n    tag_46:\n        /* \"#utility.yul\":563:566   */\n      dup3\n        /* \"#utility.yul\":556:590   */\n      mstore\n        /* \"#utility.yul\":487:596   */\n      pop\n      pop\n      jump\t// out\n        /* \"#utility.yul\":602:720   */\n    tag_48:\n        /* \"#utility.yul\":689:713   */\n      tag_50\n        /* \"#utility.yul\":707:712   */\n      dup2\n        /* \"#utility.yul\":689:713   */\n      tag_51\n      jump\t// in\n    tag_50:\n        /* \"#utility.yul\":684:687   */\n      dup3\n        /* \"#utility.yul\":677:714   */\n      mstore\n        /* \"#utility.yul\":602:720   */\n      pop\n      pop\n      jump\t// out\n        /* \"#utility.yul\":726:936   */\n    tag_15:\n        /* \"#utility.yul\":813:817   */\n      0x00\n        /* \"#utility.yul\":851:853   */\n      0x20\n        /* \"#utility.yul\":840:849   */\n      dup3\n        /* \"#utility.yul\":836:854   */\n      add\n        /* \"#utility.yul\":828:854   */\n      swap1\n      pop\n        /* \"#utility.yul\":864:929   */\n      tag_53\n        /* \"#utility.yul\":926:927   */\n      0x00\n        /* \"#utility.yul\":915:924   */\n      dup4\n        /* \"#utility.yul\":911:928   */\n      add\n        /* \"#utility.yul\":902:908   */\n      dup5\n        /* \"#utility.yul\":864:929   */\n      tag_44\n      jump\t// in\n    tag_53:\n        /* \"#utility.yul\":726:936   */\n      swap3\n      swap2\n      pop\n      pop\n      jump\t// out\n        /* \"#utility.yul\":942:1164   */\n    tag_10:\n        /* \"#utility.yul\":1035:1039   */\n      0x00\n        /* \"#utility.yul\":1073:1075   */\n      0x20\n        /* \"#utility.yul\":1062:1071   */\n      dup3\n        /* \"#utility.yul\":1058:1076   */\n      add\n        /* \"#utility.yul\":1050:1076   */\n      swap1\n      pop\n        /* \"#utility.yul\":1086:1157   */\n      tag_55\n        /* \"#utility.yul\":1154:1155   */\n      0x00\n        /* \"#utility.yul\":1143:1152   */\n      dup4\n        /* \"#utility.yul\":1139:1156   */\n      add\n        /* \"#utility.yul\":1130:1136   */\n      dup5\n        /* \"#utility.yul\":1086:1157   */\n      tag_48\n      jump\t// in\n    tag_55:\n        /* \"#utility.yul\":942:1164   */\n      swap3\n      swap2\n      pop\n      pop\n      jump\t// out\n        /* \"#utility.yul\":1251:1341   */\n    tag_47:\n        /* \"#utility.yul\":1285:1292   */\n      0x00\n        /* \"#utility.yul\":1328:1333   */\n      dup2\n        /* \"#utility.yul\":1321:1334   */\n      iszero\n        /* \"#utility.yul\":1314:1335   */\n      iszero\n        /* \"#utility.yul\":1303:1335   */\n      swap1\n      pop\n        /* \"#utility.yul\":1251:1341   */\n      swap2\n      swap1\n      pop\n      jump\t// out\n        /* \"#utility.yul\":1347:1424   */\n    tag_51:\n        /* \"#utility.yul\":1384:1391   */\n      0x00\n        /* \"#utility.yul\":1413:1418   */\n      dup2\n        /* \"#utility.yul\":1402:1418   */\n      swap1\n      pop\n        /* \"#utility.yul\":1347:1424   */\n      swap2\n      swap1\n      pop\n      jump\t// out\n        /* \"#utility.yul\":1430:1663   */\n    tag_27:\n        /* \"#utility.yul\":1469:1472   */\n      0x00\n        /* \"#utility.yul\":1492:1516   */\n      tag_61\n        /* \"#utility.yul\":1510:1515   */\n      dup3\n        /* \"#utility.yul\":1492:1516   */\n      tag_51\n      jump\t// in\n    tag_61:\n        /* \"#utility.yul\":1483:1516   */\n      swap2\n      pop\n        /* \"#utility.yul\":1538:1604   */\n      0xffffffffffffffffffffffffffffffffffffffffffffffffffffffffffffffff\n        /* \"#utility.yul\":1531:1536   */\n      dup3\n        /* \"#utility.yul\":1528:1605   */\n      eq\n        /* \"#utility.yul\":1525:1628   */\n      iszero\n      tag_62\n      jumpi\n        /* \"#utility.yul\":1608:1626   */\n      tag_63\n      tag_64\n      jump\t// in\n    tag_63:\n        /* \"#utility.yul\":1525:1628   */\n    tag_62:\n        /* \"#utility.yul\":1655:1656   */\n      0x01\n        /* \"#utility.yul\":1648:1653   */\n      dup3\n        /* \"#utility.yul\":1644:1657   */\n      add\n        /* \"#utility.yul\":1637:1657   */\n      swap1\n      pop\n        /* \"#utility.yul\":1430:1663   */\n      swap2\n      swap1\n      pop\n      jump\t// out\n        /* \"#utility.yul\":1669:1845   */\n    tag_31:\n        /* \"#utility.yul\":1701:1702   */\n      0x00\n        /* \"#utility.yul\":1718:1738   */\n      tag_66\n        /* \"#utility.yul\":1736:1737   */\n      dup3\n        /* \"#utility.yul\":1718:1738   */\n      tag_51\n      jump\t// in\n    tag_66:\n        /* \"#utility.yul\":1713:1738   */\n      swap2\n      pop\n        /* \"#utility.yul\":1752:1772   */\n      tag_67\n        /* \"#utility.yul\":1770:1771   */\n      dup4\n        /* \"#utility.yul\":1752:1772   */\n      tag_51\n      jump\t// in\n    tag_67:\n        /* \"#utility.yul\":1747:1772   */\n      swap3\n      pop\n        /* \"#utility.yul\":1791:1792   */\n      dup3\n        /* \"#utility.yul\":1781:1816   */\n      tag_68\n      jumpi\n        /* \"#utility.yul\":1796:1814   */\n      tag_69\n      tag_70\n      jump\t// in\n    tag_69:\n        /* \"#utility.yul\":1781:1816   */\n    tag_68:\n        /* \"#utility.yul\":1837:1838   */\n      dup3\n        /* \"#utility.yul\":1834:1835   */\n      dup3\n        /* \"#utility.yul\":1830:1839   */\n      mod\n        /* \"#utility.yul\":1825:1839   */\n      swap1\n      pop\n        /* \"#utility.yul\":1669:1845   */\n      swap3\n      swap2\n      pop\n      pop\n      jump\t// out\n        /* \"#utility.yul\":1851:2031   */\n    tag_64:\n        /* \"#utility.yul\":1899:1976   */\n      0x4e487b7100000000000000000000000000000000000000000000000000000000\n        /* \"#utility.yul\":1896:1897   */\n      0x00\n        /* \"#utility.yul\":1889:1977   */\n      mstore\n        /* \"#utility.yul\":1996:2000   */\n      0x11\n        /* \"#utility.yul\":1993:1994   */\n      0x04\n        /* \"#utility.yul\":1986:2001   */\n      mstore\n        /* \"#utility.yul\":2020:2024   */\n      0x24\n        /* \"#utility.yul\":2017:2018   */\n      0x00\n        /* \"#utility.yul\":2010:2025   */\n      revert\n        /* \"#utility.yul\":2037:2217   */\n    tag_70:\n        /* \"#utility.yul\":2085:2162   */\n      0x4e487b7100000000000000000000000000000000000000000000000000000000\n        /* \"#utility.yul\":2082:2083   */\n      0x00\n        /* \"#utility.yul\":2075:2163   */\n      mstore\n        /* \"#utility.yul\":2182:2186   */\n      0x12\n        /* \"#utility.yul\":2179:2180   */\n      0x04\n        /* \"#utility.yul\":2172:2187   */\n      mstore\n        /* \"#utility.yul\":2206:2210   */\n      0x24\n        /* \"#utility.yul\":2203:2204   */\n      0x00\n        /* \"#utility.yul\":2196:2211   */\n      revert\n        /* \"#utility.yul\":2223:2403   */\n    tag_23:\n        /* \"#utility.yul\":2271:2348   */\n      0x4e487b7100000000000000000000000000000000000000000000000000000000\n        /* \"#utility.yul\":2268:2269   */\n      0x00\n        /* \"#utility.yul\":2261:2349   */\n      mstore\n        /* \"#utility.yul\":2368:2372   */\n      0x32\n        /* \"#utility.yul\":2365:2366   */\n      0x04\n        /* \"#utility.yul\":2358:2373   */\n      mstore\n        /* \"#utility.yul\":2392:2396   */\n      0x24\n        /* \"#utility.yul\":2389:2390   */\n      0x00\n        /* \"#utility.yul\":2382:2397   */\n      revert\n        /* \"#utility.yul\":2532:2649   */\n    tag_42:\n        /* \"#utility.yul\":2641:2642   */\n      0x00\n        /* \"#utility.yul\":2638:2639   */\n      dup1\n        /* \"#utility.yul\":2631:2643   */\n      revert\n        /* \"#utility.yul\":2655:2777   */\n    tag_38:\n        /* \"#utility.yul\":2728:2752   */\n      tag_78\n        /* \"#utility.yul\":2746:2751   */\n      dup2\n        /* \"#utility.yul\":2728:2752   */\n      tag_51\n      jump\t// in\n    tag_78:\n        /* \"#utility.yul\":2721:2726   */\n      dup2\n        /* \"#utility.yul\":2718:2753   */\n      eq\n        /* \"#utility.yul\":2708:2771   */\n      tag_79\n      jumpi\n        /* \"#utility.yul\":2767:2768   */\n      0x00\n        /* \"#utility.yul\":2764:2765   */\n      dup1\n        /* \"#utility.yul\":2757:2769   */\n      revert\n        /* \"#utility.yul\":2708:2771   */\n    tag_79:\n        /* \"#utility.yul\":2655:2777   */\n      pop\n      jump\t// out\n\n    auxdata: 0xa2646970667358221220b9daf00ca1895f88e7695b8fdc0b583ebd1561e4fda9bf502c2d54a88201445264736f6c63430008070033\n}\n",
				"bytecode": {
					"linkReferences": {},
					"object": "6080604052604051806102800160405280600160ff168152602001600260ff168152602001600360ff168152602001600460ff168152602001600560ff168152602001600660ff168152602001600760ff168152602001600860ff168152602001600960ff168152602001600a60ff168152602001600b60ff168152602001600c60ff168152602001600d60ff168152602001600e60ff168152602001600f60ff168152602001601060ff168152602001601160ff168152602001601260ff168152602001601360ff168152602001601460ff1681525060009060146100e692919061013b565b506040518060800160405280600160ff168152602001600460ff168152602001602260ff168152602001603860ff16815250600190600461012892919061018d565b5034801561013557600080fd5b506101fc565b82805482825590600052602060002090810192821561017c579160200282015b8281111561017b578251829060ff1690559160200191906001019061015b565b5b50905061018991906101df565b5090565b8280548282559060005260206000209081019282156101ce579160200282015b828111156101cd578251829060ff169055916020019190600101906101ad565b5b5090506101db91906101df565b5090565b5b808211156101f85760008160009055506001016101e0565b5090565b61033b8061020b6000396000f3fe608060405234801561001057600080fd5b50600436106100365760003560e01c8063dfcf122c1461003b578063e5054c691461006b575b600080fd5b6100556004803603810190610050919061014b565b61009b565b60405161006291906101b1565b60405180910390f35b6100856004803603810190610080919061014b565b61010e565b6040516100929190610196565b60405180910390f35b600080600090506000600190505b600080549050811015610104576100dd600082815481106100cd576100cc6102ba565b5b906000526020600020015461010e565b156100f15781806100ed906101e2565b9250505b80806100fc906101e2565b9150506100a9565b5080915050919050565b60008060028361011e919061022b565b1461012c5760019050610131565b600090505b919050565b600081359050610145816102ee565b92915050565b600060208284031215610161576101606102e9565b5b600061016f84828501610136565b91505092915050565b610181816101cc565b82525050565b610190816101d8565b82525050565b60006020820190506101ab6000830184610178565b92915050565b60006020820190506101c66000830184610187565b92915050565b60008115159050919050565b6000819050919050565b60006101ed826101d8565b91507fffffffffffffffffffffffffffffffffffffffffffffffffffffffffffffffff8214156102205761021f61025c565b5b600182019050919050565b6000610236826101d8565b9150610241836101d8565b9250826102515761025061028b565b5b828206905092915050565b7f4e487b7100000000000000000000000000000000000000000000000000000000600052601160045260246000fd5b7f4e487b7100000000000000000000000000000000000000000000000000000000600052601260045260246000fd5b7f4e487b7100000000000000000000000000000000000000000000000000000000600052603260045260246000fd5b600080fd5b6102f7816101d8565b811461030257600080fd5b5056fea2646970667358221220b9daf00ca1895f88e7695b8fdc0b583ebd1561e4fda9bf502c2d54a88201445264736f6c63430008070033",
					"opcodes": "PUSH1 0x80 PUSH1 0x40 MSTORE PUSH1 0x40 MLOAD DUP1 PUSH2 0x280 ADD PUSH1 0x40 MSTORE DUP1 PUSH1 0x1 PUSH1 0xFF AND DUP2 MSTORE PUSH1 0x20 ADD PUSH1 0x2 PUSH1 0xFF AND DUP2 MSTORE PUSH1 0x20 ADD PUSH1 0x3 PUSH1 0xFF AND DUP2 MSTORE PUSH1 0x20 ADD PUSH1 0x4 PUSH1 0xFF AND DUP2 MSTORE PUSH1 0x20 ADD PUSH1 0x5 PUSH1 0xFF AND DUP2 MSTORE PUSH1 0x20 ADD PUSH1 0x6 PUSH1 0xFF AND DUP2 MSTORE PUSH1 0x20 ADD PUSH1 0x7 PUSH1 0xFF AND DUP2 MSTORE PUSH1 0x20 ADD PUSH1 0x8 PUSH1 0xFF AND DUP2 MSTORE PUSH1 0x20 ADD PUSH1 0x9 PUSH1 0xFF AND DUP2 MSTORE PUSH1 0x20 ADD PUSH1 0xA PUSH1 0xFF AND DUP2 MSTORE PUSH1 0x20 ADD PUSH1 0xB PUSH1 0xFF AND DUP2 MSTORE PUSH1 0x20 ADD PUSH1 0xC PUSH1 0xFF AND DUP2 MSTORE PUSH1 0x20 ADD PUSH1 0xD PUSH1 0xFF AND DUP2 MSTORE PUSH1 0x20 ADD PUSH1 0xE PUSH1 0xFF AND DUP2 MSTORE PUSH1 0x20 ADD PUSH1 0xF PUSH1 0xFF AND DUP2 MSTORE PUSH1 0x20 ADD PUSH1 0x10 PUSH1 0xFF AND DUP2 MSTORE PUSH1 0x20 ADD PUSH1 0x11 PUSH1 0xFF AND DUP2 MSTORE PUSH1 0x20 ADD PUSH1 0x12 PUSH1 0xFF AND DUP2 MSTORE PUSH1 0x20 ADD PUSH1 0x13 PUSH1 0xFF AND DUP2 MSTORE PUSH1 0x20 ADD PUSH1 0x14 PUSH1 0xFF AND DUP2 MSTORE POP PUSH1 0x0 SWAP1 PUSH1 0x14 PUSH2 0xE6 SWAP3 SWAP2 SWAP1 PUSH2 0x13B JUMP JUMPDEST POP PUSH1 0x40 MLOAD DUP1 PUSH1 0x80 ADD PUSH1 0x40 MSTORE DUP1 PUSH1 0x1 PUSH1 0xFF AND DUP2 MSTORE PUSH1 0x20 ADD PUSH1 0x4 PUSH1 0xFF AND DUP2 MSTORE PUSH1 0x20 ADD PUSH1 0x22 PUSH1 0xFF AND DUP2 MSTORE PUSH1 0x20 ADD PUSH1 0x38 PUSH1 0xFF AND DUP2 MSTORE POP PUSH1 0x1 SWAP1 PUSH1 0x4 PUSH2 0x128 SWAP3 SWAP2 SWAP1 PUSH2 0x18D JUMP JUMPDEST POP CALLVALUE DUP1 ISZERO PUSH2 0x135 JUMPI PUSH1 0x0 DUP1 REVERT JUMPDEST POP PUSH2 0x1FC JUMP JUMPDEST DUP3 DUP1 SLOAD DUP3 DUP3 SSTORE SWAP1 PUSH1 0x0 MSTORE PUSH1 0x20 PUSH1 0x0 KECCAK256 SWAP1 DUP2 ADD SWAP3 DUP3 ISZERO PUSH2 0x17C JUMPI SWAP2 PUSH1 0x20 MUL DUP3 ADD JUMPDEST DUP3 DUP2 GT ISZERO PUSH2 0x17B JUMPI DUP3 MLOAD DUP3 SWAP1 PUSH1 0xFF AND SWAP1 SSTORE SWAP2 PUSH1 0x20 ADD SWAP2 SWAP1 PUSH1 0x1 ADD SWAP1 PUSH2 0x15B JUMP JUMPDEST JUMPDEST POP SWAP1 POP PUSH2 0x189 SWAP2 SWAP1 PUSH2 0x1DF JUMP JUMPDEST POP SWAP1 JUMP JUMPDEST DUP3 DUP1 SLOAD DUP3 DUP3 SSTORE SWAP1 PUSH1 0x0 MSTORE PUSH1 0x20 PUSH1 0x0 KECCAK256 SWAP1 DUP2 ADD SWAP3 DUP3 ISZERO PUSH2 0x1CE JUMPI SWAP2 PUSH1 0x20 MUL DUP3 ADD JUMPDEST DUP3 DUP2 GT ISZERO PUSH2 0x1CD JUMPI DUP3 MLOAD DUP3 SWAP1 PUSH1 0xFF AND SWAP1 SSTORE SWAP2 PUSH1 0x20 ADD SWAP2 SWAP1 PUSH1 0x1 ADD SWAP1 PUSH2 0x1AD JUMP JUMPDEST JUMPDEST POP SWAP1 POP PUSH2 0x1DB SWAP2 SWAP1 PUSH2 0x1DF JUMP JUMPDEST POP SWAP1 JUMP JUMPDEST JUMPDEST DUP1 DUP3 GT ISZERO PUSH2 0x1F8 JUMPI PUSH1 0x0 DUP2 PUSH1 0x0 SWAP1 SSTORE POP PUSH1 0x1 ADD PUSH2 0x1E0 JUMP JUMPDEST POP SWAP1 JUMP JUMPDEST PUSH2 0x33B DUP1 PUSH2 0x20B PUSH1 0x0 CODECOPY PUSH1 0x0 RETURN INVALID PUSH1 0x80 PUSH1 0x40 MSTORE CALLVALUE DUP1 ISZERO PUSH2 0x10 JUMPI PUSH1 0x0 DUP1 REVERT JUMPDEST POP PUSH1 0x4 CALLDATASIZE LT PUSH2 0x36 JUMPI PUSH1 0x0 CALLDATALOAD PUSH1 0xE0 SHR DUP1 PUSH4 0xDFCF122C EQ PUSH2 0x3B JUMPI DUP1 PUSH4 0xE5054C69 EQ PUSH2 0x6B JUMPI JUMPDEST PUSH1 0x0 DUP1 REVERT JUMPDEST PUSH2 0x55 PUSH1 0x4 DUP1 CALLDATASIZE SUB DUP2 ADD SWAP1 PUSH2 0x50 SWAP2 SWAP1 PUSH2 0x14B JUMP JUMPDEST PUSH2 0x9B JUMP JUMPDEST PUSH1 0x40 MLOAD PUSH2 0x62 SWAP2 SWAP1 PUSH2 0x1B1 JUMP JUMPDEST PUSH1 0x40 MLOAD DUP1 SWAP2 SUB SWAP1 RETURN JUMPDEST PUSH2 0x85 PUSH1 0x4 DUP1 CALLDATASIZE SUB DUP2 ADD SWAP1 PUSH2 0x80 SWAP2 SWAP1 PUSH2 0x14B JUMP JUMPDEST PUSH2 0x10E JUMP JUMPDEST PUSH1 0x40 MLOAD PUSH2 0x92 SWAP2 SWAP1 PUSH2 0x196 JUMP JUMPDEST PUSH1 0x40 MLOAD DUP1 SWAP2 SUB SWAP1 RETURN JUMPDEST PUSH1 0x0 DUP1 PUSH1 0x0 SWAP1 POP PUSH1 0x0 PUSH1 0x1 SWAP1 POP JUMPDEST PUSH1 0x0 DUP1 SLOAD SWAP1 POP DUP2 LT ISZERO PUSH2 0x104 JUMPI PUSH2 0xDD PUSH1 0x0 DUP3 DUP2 SLOAD DUP2 LT PUSH2 0xCD JUMPI PUSH2 0xCC PUSH2 0x2BA JUMP JUMPDEST JUMPDEST SWAP1 PUSH1 0x0 MSTORE PUSH1 0x20 PUSH1 0x0 KECCAK256 ADD SLOAD PUSH2 0x10E JUMP JUMPDEST ISZERO PUSH2 0xF1 JUMPI DUP2 DUP1 PUSH2 0xED SWAP1 PUSH2 0x1E2 JUMP JUMPDEST SWAP3 POP POP JUMPDEST DUP1 DUP1 PUSH2 0xFC SWAP1 PUSH2 0x1E2 JUMP JUMPDEST SWAP2 POP POP PUSH2 0xA9 JUMP JUMPDEST POP DUP1 SWAP2 POP POP SWAP2 SWAP1 POP JUMP JUMPDEST PUSH1 0x0 DUP1 PUSH1 0x2 DUP4 PUSH2 0x11E SWAP2 SWAP1 PUSH2 0x22B JUMP JUMPDEST EQ PUSH2 0x12C JUMPI PUSH1 0x1 SWAP1 POP PUSH2 0x131 JUMP JUMPDEST PUSH1 0x0 SWAP1 POP JUMPDEST SWAP2 SWAP1 POP JUMP JUMPDEST PUSH1 0x0 DUP2 CALLDATALOAD SWAP1 POP PUSH2 0x145 DUP2 PUSH2 0x2EE JUMP JUMPDEST SWAP3 SWAP2 POP POP JUMP JUMPDEST PUSH1 0x0 PUSH1 0x20 DUP3 DUP5 SUB SLT ISZERO PUSH2 0x161 JUMPI PUSH2 0x160 PUSH2 0x2E9 JUMP JUMPDEST JUMPDEST PUSH1 0x0 PUSH2 0x16F DUP5 DUP3 DUP6 ADD PUSH2 0x136 JUMP JUMPDEST SWAP2 POP POP SWAP3 SWAP2 POP POP JUMP JUMPDEST PUSH2 0x181 DUP2 PUSH2 0x1CC JUMP JUMPDEST DUP3 MSTORE POP POP JUMP JUMPDEST PUSH2 0x190 DUP2 PUSH2 0x1D8 JUMP JUMPDEST DUP3 MSTORE POP POP JUMP JUMPDEST PUSH1 0x0 PUSH1 0x20 DUP3 ADD SWAP1 POP PUSH2 0x1AB PUSH1 0x0 DUP4 ADD DUP5 PUSH2 0x178 JUMP JUMPDEST SWAP3 SWAP2 POP POP JUMP JUMPDEST PUSH1 0x0 PUSH1 0x20 DUP3 ADD SWAP1 POP PUSH2 0x1C6 PUSH1 0x0 DUP4 ADD DUP5 PUSH2 0x187 JUMP JUMPDEST SWAP3 SWAP2 POP POP JUMP JUMPDEST PUSH1 0x0 DUP2 ISZERO ISZERO SWAP1 POP SWAP2 SWAP1 POP JUMP JUMPDEST PUSH1 0x0 DUP2 SWAP1 POP SWAP2 SWAP1 POP JUMP JUMPDEST PUSH1 0x0 PUSH2 0x1ED DUP3 PUSH2 0x1D8 JUMP JUMPDEST SWAP2 POP PUSH32 0xFFFFFFFFFFFFFFFFFFFFFFFFFFFFFFFFFFFFFFFFFFFFFFFFFFFFFFFFFFFFFFFF DUP3 EQ ISZERO PUSH2 0x220 JUMPI PUSH2 0x21F PUSH2 0x25C JUMP JUMPDEST JUMPDEST PUSH1 0x1 DUP3 ADD SWAP1 POP SWAP2 SWAP1 POP JUMP JUMPDEST PUSH1 0x0 PUSH2 0x236 DUP3 PUSH2 0x1D8 JUMP JUMPDEST SWAP2 POP PUSH2 0x241 DUP4 PUSH2 0x1D8 JUMP JUMPDEST SWAP3 POP DUP3 PUSH2 0x251 JUMPI PUSH2 0x250 PUSH2 0x28B JUMP JUMPDEST JUMPDEST DUP3 DUP3 MOD SWAP1 POP SWAP3 SWAP2 POP POP JUMP JUMPDEST PUSH32 0x4E487B7100000000000000000000000000000000000000000000000000000000 PUSH1 0x0 MSTORE PUSH1 0x11 PUSH1 0x4 MSTORE PUSH1 0x24 PUSH1 0x0 REVERT JUMPDEST PUSH32 0x4E487B7100000000000000000000000000000000000000000000000000000000 PUSH1 0x0 MSTORE PUSH1 0x12 PUSH1 0x4 MSTORE PUSH1 0x24 PUSH1 0x0 REVERT JUMPDEST PUSH32 0x4E487B7100000000000000000000000000000000000000000000000000000000 PUSH1 0x0 MSTORE PUSH1 0x32 PUSH1 0x4 MSTORE PUSH1 0x24 PUSH1 0x0 REVERT JUMPDEST PUSH1 0x0 DUP1 REVERT JUMPDEST PUSH2 0x2F7 DUP2 PUSH2 0x1D8 JUMP JUMPDEST DUP2 EQ PUSH2 0x302 JUMPI PUSH1 0x0 DUP1 REVERT JUMPDEST POP JUMP INVALID LOG2 PUSH5 0x6970667358 0x22 SLT KECCAK256 0xB9 0xDA CREATE 0xC LOG1 DUP10 0x5F DUP9 0xE7 PUSH10 0x5B8FDC0B583EBD1561E4 REVERT 0xA9 0xBF POP 0x2C 0x2D SLOAD 0xA8 DUP3 ADD DIFFICULTY MSTORE PUSH5 0x736F6C6343 STOP ADDMOD SMOD STOP CALLER "
				},
				"gasEstimates": {
					"creation": {
						"codeDepositCost": "165400",
						"executionCost": "infinite",
						"totalCost": "infinite"
					},
					"external": {
						"checkEvenOfNumber(uint256)": "infinite",
						"isEvenNumber(uint256)": "infinite"
					}
				},
				"methodIdentifiers": {
					"checkEvenOfNumber(uint256)": "dfcf122c",
					"isEvenNumber(uint256)": "e5054c69"
				}
			},
			"storageLayout": {
				"storage": [
					{
						"astId": 25,
						"contract": "contracts/loops.sol:loops",
						"label": "longList",
						"offset": 0,
						"slot": "0",
						"type": "t_array(t_uint256)dyn_storage"
					},
					{
						"astId": 33,
						"contract": "contracts/loops.sol:loops",
						"label": "numberList",
						"offset": 0,
						"slot": "1",
						"type": "t_array(t_uint256)dyn_storage"
					}
				],
				"types": {
					"t_array(t_uint256)dyn_storage": {
						"base": "t_uint256",
						"encoding": "dynamic_array",
						"label": "uint256[]",
						"numberOfBytes": "32"
					},
					"t_uint256": {
						"encoding": "inplace",
						"label": "uint256",
						"numberOfBytes": "32"
					}
				}
			},
			"userdoc": {
				"kind": "user",
				"methods": {},
				"version": 1
			}
		}
	}
}